:020000040804EE
:1000000000000824491B0608951B060881560508B0
:10001000875605088D560508935605080000000010
:1000200000000000000000000000000049D50408A6
:10003000951B060800000000E3D50408F3D504086A
:10004000951B0608951B0608951B0608951B0608B8
:10005000951B0608951B0608951B0608951B0608A8
:10006000951B0608951B0608951B0608951B060898
:10007000951B0608951B0608951B0608951B060888
:10008000951B0608951B0608951B06084D2A0608B1
:100090005D2A0608592A0608692A0608951B0608DB
:1000A000951B0608951B0608951B0608951B060858
:1000B000951B0608951B0608951B0608951B060848
:1000C000951B0608951B0608951B0608951B060838
:1000D000951B0608951B0608951B0608951B060828
:1000E000951B0608951B060800000000951B0608D6
:1000F000951B0608951B0608951B0608951B060808
:10010000951B0608D5180608951B0608951B0608BA
:10011000951B0608951B0608951B0608951B0608E7
:10012000951B0608951B0608951B0608951B0608D7
:10013000951B060883040508951B0608951B0608F1
:10014000951B0608951B0608000000000000000033
:10015000951B0608951B0608951B0608951B0608A7
:10016000951B0608951B0608951B0608951B060897
:10017000951B0608951B0608951B06080000000045
:10018000951B0608951B0608951B0608951B060877
:10019000951B0608951B0608951B0608951B060867
:1001A000951B0608951B0608951B0608951B060857
:1001B000951B0608951B0608951B0608951B060847
:1001C000951B0608951B0608951B0608951B060837
:1001D000951B0608951B0608951B0608951B060827
:1001E000951B0608951B0608951B0608951B060817
:1001F000951B0608951B0608951B0608951B060807
:10020000951B0608951B0608951B0608951B0608F6
:10021000951B0608951B0608951B0608951B0608E6
:10022000951B0608951B0608951B0608951B0608D6
:10023000951B0608451B0608951B0608951B060816
:10024000951B0608951B0608951B0608951B0608B6
:10025000951B0608951B0608951B0608951B0608A6
:10026000951B0608951B0608951B0608951B060896
:10027000951B0608951B0608951B0608951B060886
:10028000951B0608951B0608951B06080000000034
:10029000951B0608951B060810B5054C237833B945
:1002A000044B13B10448AFF300800123237010BD49
:1002B00080180024000000009CC5070808B5034B07
:1002C0001BB103490348AFF3008008BD00000000E4
:1002D000841800249CC50708154B002B08BF134B3E
:1002E0009D46A3F5803A00218B460F461348144AD9
:1002F000121A2AF0DDFB0F4B002B00D098470E4B53
:10030000002B00D098470020002104000D000D486C
:10031000002802D00C4816F06DF829F0ABFE200042
:1003200029000FF025FB16F079FA00BF0000080045
:100330000000082400000000CDF804088018002404
:1003400078180124F56305080000000070470000DC
:10035000094B30B51A46094CD3F89450A542FBD14D
:10036000036829B181680B604FF44073536130BD5D
:10037000C1681B04F7E700BF006402580003008057
:1003800038B5674D674B297849B2002900F0BA802B
:100390001A886549013292B21A801A8809889142F6
:1003A0002FD8624C002262481A80237883F0010320
:1003B00023702178FFF7CCFF237813B35D4B2A78A5
:1003C00019685D4841FA82F21A600178C9B12A7849
:1003D00052B2002A04DD594A19681268914207DABC
:1003E0002A7814060DD5554A19681268914208DC1E
:1003F000524A002112681A60297001704C48FFF7B8
:10040000A7FF4F4D4F4B297849B200297ED01A885B
:100410004D49013292B21A801A88098891422FD828
:100420004A4C00224A481A80237883F00103237043
:100430002178FFF78DFF237813B3464B2A7819688C
:10044000454841FA82F21A600178C9B12A7852B25D
:10045000002A04DD414A19681268914207DA2A78B5
:1004600011060DD53D4A19681268914208DC3B4AD5
:10047000002112681A60297001703548FFF768FF83
:10048000374C384B217849B2002943D01A88364975
:10049000013292B21A801A88098891423ED8334DAF
:1004A000002233481A802B7883F001032B702978BF
:1004B000FFF74EFF2B78002B30D02E4B2278196897
:1004C0002D4841FA82F21A60017839B3227852B28B
:1004D000002A04DD294A19681268914207DA227855
:1004E00012061BD5254A19681268914216DC234A68
:1004F000002112681A60217001701D48BDE8384063
:10050000FFF726BF1980094B197077E719800F4B49
:100510001970B2E71980154B1970EEE738BD00BFAE
:10052000F01A0024A019002404000024881B0024D1
:100530006C210024581B00240C1B0024081B0024E1
:10054000F11A0024A219002406000024891B0024AB
:10055000342100245C1B0024181B0024141B0024DD
:10056000F21A0024A4190024080000248A1B002485
:10057000FC200024601B0024241B0024201B0024DA
:100580000B6803604B6843608B68836070470C3076
:10059000704708B5FFF7FBFF0023036008BDC36881
:1005A0000BB19B68184770470144002310B588427F
:1005B0000FD010F8014B08225C406300013A24067A
:1005C000DBB248BF83F0070312F0FF021C46F4D1F0
:1005D000EDE7184610BD30B501444FF6FF7341F208
:1005E0002105884212D010F8014B082283EA042426
:1005F00014F4004F4FEA440302F1FF3218BF6B407E
:1006000012F0FF029BB21C46F2D1EAE7184630BD59
:100610000023411E184611F8012F9A400833202B61
:1006200040EA0200F7D1704770B503688CB00C4601
:100630001A0A8DF8043003AE8DF805201A0C1B0E33
:100640008DF806208DF8073043681A0A8DF80830B7
:100650008DF809201A0C1B0E8DF80A2000F10802F3
:100660008DF80B3000F128031068083252F8041C92
:1006700035469A4203C52E46F6D1282101A8FFF738
:10068000AAFF01228DF82C000021001213468DF8DC
:100690002D0001A8104410F8010C60B963541146F4
:1006A000012301322B2AF4D163542C20002384F837
:1006B0002B300CB070BD0133A054DBB2F1E7000069
:1006C00010B5294C29492A480CF0E7FA0A22618919
:1006D00027480CF056FB274925480CF0DEFA0A2281
:1006E000616823480CF02BFB234921480CF0D5FA14
:1006F0000A2221681E480CF022FB20491C480CF0FD
:10070000CCFA0A2221891A480CF03BFB1C491848F4
:100710000CF0C3FA0A22217B15480CF057FB6389C1
:100720002BB918491248BDE810400CF0CDBA164B51
:10073000164A217B0E4802298CBF114619460CF03F
:10074000C3FA13490A480CF0A8FA0A22616808485B
:100750000CF0F5FA0F4906480CF0B6FAE37B0BB142
:100760000D49DFE710BD00BFA0180024E23B0708D9
:10077000C4330024FB3B07080D3C07081B3C07085B
:10078000263C0708413C07089E3B0708473B0708F3
:10079000683C0708BF3C0708D93C07080E4B1B788C
:1007A00043710E4B1A68197BC0F80F205A68C0F8C5
:1007B00013205A89A0F81B201A89DB7BC0F8172068
:1007C0008A00002B14BF02230023022988BF42F0B5
:1007D00001021343437770472E1B0024A018002406
:1007E000034B18780B3801288CBF0020012070477C
:1007F0002D1B002472B6024B186862B6704700BF0A
:10080000581B002472B6024B186862B6704700BFCE
:100810005C1B002472B6024B186862B6704700BFBA
:10082000601B002472B6024B186062B6704700BFAE
:10083000581B002472B6024B186062B6704700BFA6
:100840005C1B002472B6024B186062B6704700BF92
:10085000601B002472B6024B1878C0B262B67047B3
:100860000C1B002472B6024B1878C0B262B67047F7
:10087000181B002472B6024B1878C0B262B67047DB
:10088000241B002472B60D4B1B78A3B90C4B1B78AC
:100890008BB90C4B1B7873B90B4B1B7803F0FF0023
:1008A0003BB90A4B1B7803F0FF0013B9084B1878CB
:1008B000C0B262B670470120FBE700BFF01A002407
:1008C000F11A0024F21A00240C1B0024181B002427
:1008D000241B002410B51C4C0521204609F062FBA6
:1008E000B0FA80F0194B082140091870204609F031
:1008F00059FBB0FA80F0164B0421400918702046CD
:1009000009F050FBB0FA80F0124B02214009187038
:10091000204609F047FBB0FA80F00F4B0121400957
:100920001870204609F03EFBB0FA80F00B4B002116
:1009300040091870204609F035FBB0FA80F0084BEA
:100940004009187010BD00BF88200024941A0024AC
:10095000951A0024971A0024961A0024981A002445
:10096000991A00240B4B1B7813B10B4B1B786BB9F6
:100970000A4B1B7813B10A4B1B783BB9094B1B7808
:1009800033B1094B187880F00100704700207047A0
:1009900001207047941A0024951A0024961A002406
:1009A000971A0024991A0024981A002472B600217C
:1009B000054B1970054B1970054B1980054B1970C3
:1009C00062B60548FFF7C4BCF01A00240C1B0024D3
:1009D000A0190024881B00246C21002472B6002179
:1009E000054B1970054B1970054B1980054B197093
:1009F00062B60548FFF7ACBCF11A0024181B0024AE
:100A0000A2190024891B00243421002472B600217D
:100A1000054B1970054B1970054B1980054B197062
:100A200062B60548FFF794BCF21A0024241B002488
:100A3000A41900248A1B0024FC20002408B5FFF719
:100A4000B5FFFFF7CBFFBDE80840FFF7DFBF0000B1
:100A50002DE9F0418846054618B9BDE8F041FFF799
:100A6000A5BF72B6144C154E2278154F52B2824271
:100A700007D133782BB93B88994202D162B6BDE8E1
:100A8000F08162B6FFF792FF96200CF023FC002D58
:100A90000C48D4BF00210121FFF75AFC0A200CF0BA
:100AA00019FC72B60023084AA7F800801380074A91
:100AB000137033702570E1E7F01A00240C1B00243A
:100AC0000400002488210024A0190024881B00248D
:100AD0002DE9F0418846054618B9BDE8F041FFF719
:100AE0007DBF72B6144C154E2278154F52B2824219
:100AF00007D133782BB93B88994202D162B6BDE861
:100B0000F08162B6FFF76AFF96200CF0E3FB002D40
:100B10000C48D4BF00210121FFF71AFC0A200CF079
:100B2000D9FB72B60023084AA7F800801380074A51
:100B3000137033702570E1E7F11A0024181B0024AC
:100B40000600002450210024A2190024891B00243F
:100B50002DE9F0418846054618B9BDE8F041FFF798
:100B600055BF72B6144C154E2278154F52B28242C0
:100B700007D133782BB93B88994202D162B6BDE8E0
:100B8000F08162B6FFF742FF96200CF0A3FB002D28
:100B90000C48CCBF00210121FFF7DAFB0A200CF042
:100BA00099FB72B60023084AA7F800801380074A11
:100BB000137033702570E1E7F21A0024241B00241F
:100BC0000800002418210024A41900248A1B0024F2
:100BD00070B505460E46FFF70DFEA84203D1BDE8ED
:100BE0007040FFF7E3BEACBF4FF0FF340124FFF7C6
:100BF000DDFE96200CF06EFB631E0C4859425941F5
:100C0000FFF7A6FB0A200CF065FB72B6084B012229
:100C10001D60084B1A70084B084A1E800023138081
:100C2000074A1370074B1C7062B670BD8821002400
:100C3000081B00240C1B002404000024A01900241D
:100C4000881B0024F01A002470B505460E46FFF7F5
:100C5000D9FDA84203D1BDE87040FFF7BFBEACBFCD
:100C60004FF0FF340124FFF7B9FE96200CF032FB61
:100C7000631E0C4859425941FFF76AFB0A200CF0E9
:100C800029FB72B6084B01221D60084B1A70084BF5
:100C9000084A1E8000231380074A1370074B1C70FC
:100CA00062B670BD50210024141B0024181B0024C0
:100CB00006000024A2190024891B0024F11A002434
:100CC00070B505460E46FFF7A5FDA84203D1BDE865
:100CD0007040FFF79BBEACBF4FF0FF340124FFF71D
:100CE00095FE96200CF0F6FA14F1FF310C4818BF6F
:100CF0000121FFF72DFB0A200CF0ECFA72B6094B2C
:100D000001221D60084B1A70084B094A1E800023FF
:100D10001380084A1370084B1C7062B670BD00BF88
:100D200018210024201B0024241B00240800002478
:100D3000A41900248A1B0024F21A002410B51C4CAC
:100D4000227852B2002A04DD1A4B1B780BB1FFF750
:100D50002DFE2378190604D5174B1B780BB1FFF72E
:100D600025FE164C227852B2002A04DD144B1B7863
:100D70000BB1FFF733FE23781A0604D5114B1B780D
:100D80000BB1FFF72BFE104C227852B2002A04DD83
:100D90000E4B1B780BB1FFF739FE23781B0606D5E7
:100DA0000B4B1B781BB1BDE81040FFF72FBE10BDE9
:100DB000F01A0024941A0024951A0024F11A002431
:100DC000961A0024971A0024F21A0024991A002473
:100DD000981A00240A4BD3ED007AF5EEC07AF1EEB2
:100DE00010FA0ADD074BD3ED007AF5EEC07AF1EE8A
:100DF00010FACCBF0120002070470020704700BFD0
:100E0000501B0024541B00240C4AD2ED007AF5EE4E
:100E1000C07A08B5F1EE10FA0CDDFFF7EBFC07EE37
:100E2000900A92ED007AF8EEE76AC6EE877A17EE3E
:100E3000900A08BDDFED027AF9E700BF501B0024DD
:100E4000000000000C4AD2ED007AF5EEC07A08B539
:100E5000F1EE10FA0CDDFFF7D5FC07EE900A92EDEB
:100E6000007AF8EEE76AC6EE877A17EE900A08BDB8
:100E7000DFED027AF9E700BF541B002400000000F8
:100E80000A4BD3ED006AF5EEC06AF1EE10FAC9BF65
:100E9000074B9FED087AD3ED007AF8EEE77AC8BFEA
:100EA00087EEA67A17EE100A704700BF501B002489
:100EB0008C1B0024000000000A4BD3ED006AF5EE05
:100EC000C06AF1EE10FAC9BF074B9FED087AD3ED67
:100ED000007AF8EEE77AC8BF87EEA67A17EE100A16
:100EE000704700BF541B0024901B0024000000002A
:100EF000034B1868022390FBF3F3C01A704700BF3E
:100F00008C1B0024034B1868022390FBF3F3C01AD8
:100F1000704700BF901B0024034B1868022390FB0E
:100F2000F3F3C01A704700BF941B002408B50B4BA5
:100F30000246187878B10A4B1B68002B0CDD0221A1
:100F400093FBF1F35B42934206DCFFF7E5FF82423D
:100F5000CCBF0020012008BD0020FCE76E19002452
:100F6000941B0024254B37B51A68254D002A254CC3
:100F700003DD254B1B68002B09DC00232349244893
:100F80002B6023600BF0A0FE002003B030BD07EE05
:100F9000902ADFED206A2049F8EEE77A1C4887EEB8
:100FA000A67A07EE903ADFED1D6AF8EEE77A85ED56
:100FB000007A87EEA67A84ED007A0BF06EFED5ED0E
:100FC000007A06251248B7EEE77A009553EC172B06
:100FD0000BF0A2FF12490E480BF05FFED4ED007A31
:100FE0000095B7EEE77A0A4853EC172B0BF094FF05
:100FF0000C4907480BF068FE0120C6E78C1B002453
:10100000501B0024541B0024901B0024E34F0708AE
:10101000C43300240000DF43165007080000A84333
:1010200026500708345007082DE9F0432DED028BB8
:1010300008EE900ADFED497A83B008EE101AF0EE60
:10104000E86A07EE102A1F460C9DF4EE676AF1EE7F
:1010500010FA0DD8F0EEC86AF4EE676AF1EE10FAF5
:1010600006D8B0EEC77AB4EE677AF1EE10FA04D97A
:101070003B493C480BF028FE66E03B4B1B78002BBD
:1010800069D0FFF7A7FE0446002864D0374EDFF88A
:10109000F480D6ED007A68EEA77A17EE900A28F071
:1010A00019F8D8ED007A386068EE277A17EE900AC2
:1010B00028F010F8D6ED007A286077EEA77A17EEC0
:1010C000900A28F007F8D8ED007A06464FF002089B
:1010D00077EEA77A17EE900A27F0FCFF244B014623
:1010E0001A6892FBF8F2B21AFFF702FF8146FFF787
:1010F00009FF3B689A420EDCA9EB06069E420ADB1A
:101100001C4B2A681B6893FBF8F3CB1A934202DC52
:10111000401A904219DA1849022412480BF0BDFD1A
:10112000B7EEE87A00940F4853EC172B0BF0F4FE5F
:1011300012490C480BF0B1FDB7EEC87A009409488B
:1011400053EC172B0BF0EAFE0024204603B0BDEC55
:10115000028BBDE8F0830A498BE700BFFFFF7F7F6A
:101160001A5E0708C43300246D190024501B0024A4
:101170008C1B0024901B0024415E0708CC33070819
:101180006A5E0708541B002407EE900A9FED197A47
:1011900006EE101AF0EEE76AF4EE476AF1EE10FA86
:1011A00001D900207047F0EEC66AF4EE476AF1EE0E
:1011B00010FAF6D8F9EE046A76EEE76ADFED0E7AF9
:1011C00077EEC67AC2ED006AC3ED007AD2ED006A0E
:1011D000F0EEE66AF4EE476AF1EE10FAE1D8F0EECE
:1011E000E77AF4EE477AF1EE10FA94BF012000207E
:1011F000704700BFFFFF7F7F0000000008B50F4B66
:101200001B780BB9002008BD0D4B1B78002BF9D0C3
:10121000FFF7F0FA0028F5D1FFF7F4FA0028F1D132
:10122000FFF7F8FA0028EDD1FFF72CFB0028E9D1F1
:10123000044B187880F00100E5E700BF6D19002429
:101240006E190024F31A00242DE9F0412DED048BD2
:1012500084B01F46002509EE100A03AB08EE901A71
:1012600008EE102A009302ABCDE90255FFF7DCFE31
:101270000646002863D0FFF7E1FB364A029982ED6B
:10128000009A354A354BC2ED008A354A98461D70A2
:1012900082ED008A334A344B1160344A0399344C4E
:1012A000116034493448022F18BF194625700BF0DD
:1012B000F4FCB7EEC97A02252F4853EC172B0095A2
:1012C0000BF02AFE2D492C480BF0E7FCB7EEE87A2C
:1012D0000095294853EC172B0BF01EFE2849264891
:1012E0000BF0DBFCB7EEC87A0095234853EC172BC4
:1012F0000BF012FE234920480BF0E6FC0121029876
:10130000FFF766FC01210398FFF79EFCFFF7A2FAA6
:1013100010B9FFF7A7FAC0B101233846237088F847
:1013200000000BF0B7FF184B186023787BB9174902
:10133000174B1148022F18BF19460BF0C5FC304659
:1013400004B0BDEC048BBDE8F0812070E7E71E46D9
:10135000F5E700BF101B00241C1B0024641B0024A5
:10136000281B0024001B00246B330708041B0024E7
:10137000F31A002458330708C4330024C83307087D
:10138000D0330708D83307087C1A00247D330708B8
:10139000A3330708F8B5104C05460F462678FFF72B
:1013A0004DFB00230D4A237013700FB10C4A1370CC
:1013B000022E07D10B4B1B8823B10B4A138003224B
:1013C0000A4B1A700A490B480BF067FC294609487A
:1013D000BDE8F8400BF08CBC641B0024F31A002419
:1013E0006D1900241C1C00249C1800248C19002456
:1013F000925F0708C4330024044B1B781B2B9ABF51
:10140000034A52F823000348704700BF5D1A0024C6
:10141000E02E0708DE390708094B10B5094C187093
:101420000BF038FF084B0949186020460BF035FCDB
:10143000FFF7E2FF01462046BDE810400BF058BC24
:101440005D1A0024C4330024741A0024A93A070842
:1014500008B5FFF7F3FA0023104A11491370114A37
:1014600011481370114A1370114A137000220A6058
:1014700010490A60104A11491360114A1360114A59
:101480001360114A1370114B114A1A600BF01CFCC7
:101490000120BDE80840FFF7BFBF00BFF31A0024DA
:1014A000501B0024641B0024C43300246D19002445
:1014B0006E190024541B00248C1B0024DD430708F4
:1014C000901B0024941B0024641A002410000024A4
:1014D00040860708034B1B78142B9ABF024AD05C46
:1014E0000A207047521A0024502F0708034B1B781C
:1014F0000C2B9ABF024AD05C08207047491A00247E
:10150000652F0708074B10B51C780BF0C3FE064B80
:101510001B682CB1C41AB4F57A7F8CBF0024012457
:10152000204610BD571A0024641C0024024B9879F1
:1015300000F00100704700BF301B0024024B1878F8
:10154000C0F3C000704700BF5F1A0024024B187838
:10155000C0F30010704700BF5F1A0024024B1878D8
:10156000C0F34010704700BF5F1A0024024B187888
:10157000C0F38010704700BF5F1A002408B5FFF762
:10158000DDFF98B1FFF7E2FF80B1FFF7E7FF68B139
:10159000084B1B78072B0AD1074B93F90030002B1F
:1015A00005DB064B1878B0FA80F0400908BD002032
:1015B000FCE700BF501A00245F1A0024481A0024D8
:1015C0002DE9F04F2DED028B87B00BF063FEA84B99
:1015D00005461A68841A092C40F21381002A186003
:1015E000A44808BF0A2408F0C0FB0746A14808F039
:1015F000BFFB06469F4808F0B5FB01219E4A9F4B62
:1016000011709F491860D1ED006A9E48F5EEC06ADE
:101610000368F1EE10FAA7EB03030ADDF0EEE67AB9
:101620009FED997AF4EE477AF1EE10FA9CBF032110
:1016300011709649DFF8A0C2D1F800808E46B8F14B
:10164000000F00F0E380117841F0040982F8009067
:10165000002B40F0E480A5EB0805B5F5FA7F00F219
:10166000D880DCED007A41F00C03F5EEC07A1370FF
:10167000F1EE10FA40DD41F01C0111703CE0F0EE9B
:10168000467A2AE007EE903A9FED815A07EE104A1B
:10169000804BF8EEE77AB8EE477A93F9003027EE00
:1016A000856A66EEA77AC6EE075A06EE103AB8EEDD
:1016B000C66A66EE277A67EE857A87EE876A764B8A
:1016C000C3ED005AB8F1000FD9D0DCED006AB6EED8
:1016D000007A66EE077AE6EE877AB5EEC06A13788E
:1016E000CCED007ACEF80050F1EE10FAD4BF43F002
:1016F0000C0343F01C031370684B694A1F60694B6D
:1017000007601E60138801331380674B1A68984680
:10171000B24276D0654B664A19789946DFF8BCB17B
:10172000DFF8BCA1002935D01368F31A32D0DBF8FA
:101730000040002BA7EB0404B8BF5B422046E11732
:1017400008EE103A002871F10003CDE9020104DA35
:10175000434261EB4104CDE90234DDE90201059227
:1017600026F01CFBB8EE487A07EE900A514918EEB5
:10177000102AC7EE877A0B681344059A0B604E4B0C
:10178000DDE90245D3E9000124184D41C3E90045D4
:10179000CAED007A01234949494889F800301660AA
:1017A000CBF800700BF079FA0A22314644480BF06E
:1017B000E8FA444942480BF070FA0A223946404898
:1017C0000BF0BDFADAED007AF5EEC07AF1EE10FA20
:1017D00012DD3D493A480BF060FADAED007A022357
:1017E0003748B7EEE77A009353EC172B0BF094FBD6
:1017F000364933480BF051FA31480BF05FFAC8F81C
:10180000006007B0BDEC028BBDE8F08F002B7FF4C9
:1018100039AF0023204ACCF8003013606CE707EEA4
:10182000903A1C4BDFED1A5A07EE104A93F900303C
:10183000F8EEE77AB8EE477A06EE103A164B66EE07
:10184000A76AB8EEC66A67EEA57A66EE266A66EE05
:10185000A56AC7EE875ADFED1E7A86EE876A93ED9A
:10186000007A65EEA75ADFED1B7AE7EE275A26E7E6
:10187000441C0024FC210024511A0024581C00247C
:101880000C000024541C0024FFFF7F7F681C0024F0
:1018900000007A441C000024601A002494190024DB
:1018A0001A1C0024141C00245C1C0024E81B0024C7
:1018B000681A0024841A0024A81900248A3A070808
:1018C000C433002432440708A03A07080539070842
:1018D000CDCC4C3ECDCC4C3F781C00249819002434
:1018E000401C00240E4B1878C0B10E4BD3ED007A8B
:1018F000F5EEC07AF1EE10FA0FDD0B4BD3ED007A66
:10190000F5EEC07AF1EE10FA07DD084B187800F01A
:101910002300C31E5842584170470020704700BF43
:101920006C190024801C00240C000024511A00248F
:10193000164B187848B3164BD3ED007AF5EEC07A03
:10194000F1EE10FA20DDF0EEE77A9FED127AF4EE78
:10195000477AF1EE10FA17D80F4BD3ED007AF5EE77
:10196000C07AF1EE10FA0FDDF0EEE77AF4EE477A86
:10197000F1EE10FA08D8094B93F90030012B04D08E
:101980000133584258417047002070476C190024B9
:10199000801C0024FFFF7F7F0C0000241C0000241B
:1019A00038B50C4C054620700BF074FC60600BF0F1
:1019B00071FC094BA0601B680849C4E90333084C5B
:1019C00020460BF06AF9294620460A22BDE8384035
:1019D0000BF0FCB948190024941900247E5F070815
:1019E000C433002438B500220D4B0E4C05461A7046
:1019F00000230D4A13600D4A13600D4B1862052039
:101A0000FFF7CEFF0B4920460BF047F92946204649
:101A10000BF06EF920460849BDE838400BF054B988
:101A20006C190024C4330024801C00247C1C002476
:101A3000481900243E5007085150070837B5254C77
:101A4000242200210125204629F032F80BF022FC47
:101A500060600BF01FFC204B0022A0601B681F4938
:101A6000C4E903334FF0FF4363611D4B23621D4BF9
:101A70001D4C1A7000231D4A204613601C4A136037
:101A80001C4B1D700BF020F91B4920460BF01CF974
:101A90001A4920460BF001F90022194B2046009507
:101AA0000BF03AFA174920460BF0F7F8164B204690
:101AB000D3ED007A0923B7EEE77A009353EC172BA6
:101AC0000BF02AFA1149204603B0BDE830400BF074
:101AD000FBB800BF4819002494190024BD5807081A
:101AE000408607086C190024C4330024801C00249D
:101AF0007C1C00241C000024ED58070831590708FD
:101B0000008048404E5907080C000024605907081F
:101B1000044B187800F01800A0F1180358425841FF
:101B2000704700BF511A002410B5C3790133DBB2EE
:101B3000022B22D8037A0133DBB2022B1DD8427A62
:101B40000132D2B2022A8CBF00220122C37A817AEA
:101B5000B42B14D8037BB42B8CBF00230123447B0C
:101B6000C07C72B111F0F0010BD123B1082C0AD85E
:101B7000B0FA80F35B09184610BD0022E6E70023A7
:101B8000EDE70023F7E70B46F5E7000038B52E4BED
:101B90001C782E4B1B780BB144F00204FFF72EFB90
:101BA00008B144F004042A4D2B7803F0FB02092A03
:101BB00001D0122B01D144F00804FEF763FE90B966
:101BC000244B1B787BB9244B1B78013B182B0AD97B
:101BD0002B78092B2BD1214B1B780A2B05D1204BBD
:101BE0001B78012B01D044F010042B78122B26D146
:101BF0001C4B1B781BB10A2B01D044F010041A4B6C
:101C00001B780BB144F04004FFF77CFC68B12A78E4
:101C10000C2A0AD0122A03D8144BD340DB0702D473
:101C20000C4B1B780BB144F08004204638BD0D2BC3
:101C3000DBD10F4B1B78002BD7D0072BD2E70C2B17
:101C400008BF44F02004DAE76D1900246E1900245F
:101C5000521A0024F31A00245D1A00242D1B0024BC
:101C6000EC1B0024B41900246C1900241027040074
:101C7000B018002408B5114B1A78114B1B780BB122
:101C800042F002020F4B1B780BB142F004020E4BE4
:101C90001B780BB142F008020C4B1B780BB142F0E1
:101CA00010020B4B1B780BB142F02002FEF75AFEDC
:101CB00008B142F04002104608BD00BF941A00244B
:101CC000951A0024961A0024971A0024991A0024C1
:101CD000981A0024F7B58B4C07460E462378082B3C
:101CE00000F0CD80FEF77CFD0546874987480AF065
:101CF000D4FF0BF0CFFA0A22014684480BF057F8C4
:101D000023780A2B40F0BD80814980480AF0C5FF46
:101D100080497E480AF0C1FF7F4B197809B17F4B9B
:101D200019880A2279480BF02CF87D4977480AF087
:101D3000B4FF394675480AF0B9FF7A4973480AF08A
:101D4000ACFF23780A2B40F0AD80774B99890A22AB
:101D50006E480BF016F875496C480AF09EFF744BFC
:101D60000A226A4819880BF00CF8724967480AF091
:101D700094FF714B0A22654819680AF0E0FF6F4929
:101D800062480AF08AFF23780A2B00F09F80002D1A
:101D900000F094806A4B196B0A225C480AF0CFFF6E
:101DA00068495A480AF079FF23780A2B40F090805E
:101DB0005D4B19780A2255480BF006F862495348E2
:101DC0000AF06BFF23780A2B40F08780564B997BF3
:101DD0000A224E480AF0F8FF5C494C4803270AF0F3
:101DE0005CFFFFF711F807EE900A0097B7EEE77A6D
:101DF000464853EC172B0BF08FF8554943480AF02F
:101E00004CFFFFF71FF807EE900A0097B7EEE77A4E
:101E10003E4853EC172B0BF07FF84E493B480AF035
:101E20003CFFFEF7F7FC0A22014638480AF087FF1C
:101E3000494936480AF031FF23780A2B5DD0002D3E
:101E400057D03F4BD3ED057AB7EEE77A03232F48FF
:101E5000009353EC172B0BF05FF840492B480AF026
:101E60001CFF23780A2B00F02C81002D00F0278125
:101E70000C2B334B40F08680D3ED097A84E00125AA
:101E800033E70D2B01D136493FE7002D3FF440AF3A
:101E90000C2B05D03349344A0B2B18BF114634E7BD
:101EA000324932E715B1264B198950E7304BD989B1
:101EB00000297FF44CAF2F4B198848E72C4BDA8967
:101EC0000AB1D96968E72C4B196865E7002163E717
:101ED0000DB11B4B6DE7264B6BE715B1184B997A8B
:101EE00076E7234B197C00297FF472AF234B1978D6
:101EF0006EE71F4BD3ED087AA6E7214BD3ED007AAE
:101F0000A2E700BF2D1B00248F590708C43300240B
:101F10009B59070806600708241C0024221C002483
:101F200008410708BD590708EC1B0024C3590708DE
:101F30001A1C0024CC59070894190024D259070808
:101F4000B4190024DC590708E4590708EC590708BC
:101F5000F4590708FC590708065A0708115A0708D8
:101F6000AD590708835907087A5907086B590708BC
:101F7000B01800241E1C00249C1900247019002491
:101F8000101B0024D3ED067AB7EEE77A03235A48F4
:101F9000009353EC172B0AF0BFFF584956480AF03C
:101FA0007CFE23780A2B40F09080554B93ED006A1D
:101FB000FEF72AFF07EE900A76EE677AB7EEE77A29
:101FC00003234D48009353EC172B0AF0A5FF4D490E
:101FD00049480AF062FE23780A2B7FD14A4B93EDE1
:101FE000006AFEF72FFF07EE900A76EE677AB7EEEB
:101FF000E77A03244048009453EC172B0AF08CFF37
:1020000042493D480AF049FE414B3B48D3ED007A36
:102010000094B7EEE77A53EC172B0AF07DFF3D49A9
:1020200035480AF03AFE3C4B0A223348197849B247
:102030000AF0A7FE394930480AF02FFE384B0A2231
:102040002D48197849B20AF09CFE36492A480AF010
:1020500024FE354B0A222848197849B20AF091FE2D
:10206000324925480AF019FE314B0A2222481988C4
:102070000AF087FE2F4920480AF00FFE2E4B0A2255
:102080001D4819780AF0A0FE2C491B480AF005FEED
:102090002B4B0A22184819780AF096FE4EB1337875
:1020A0003BB1284914480AF0F8FD314612480AF0BD
:1020B000FDFD114803B0BDE8F0400AF0FFBD224B22
:1020C000DAE6114BD3ED007A5EE71DB11F4B93EDBD
:1020D000056A6DE71C4BD3ED167A6FE73DB10C2B0B
:1020E0001A4B0CBF93ED096A93ED066A79E7164B1C
:1020F000D3ED157A7BE700BFC43300241C5A0708D0
:10210000101B0024265A07081C1B0024305A0708FD
:10211000781C0024365A0708F01A00243E5A070893
:10212000F11A0024465A0708F21A00244E5A0708EA
:102130009C180024545A07088C1900245F5A070879
:10214000491A0024675A0708B0180024B41900245B
:102150008F4A2DE9F84F1378044681888D4D88B257
:102160008D4E8E4F002B40F0D980298001218C4864
:1021700011708C4A8C4913808C4A337013708C4ACE
:1021800013800AF08AFD0A22298885480AF0FBFD9F
:102190003278E37812B13A789A4206D03B70012344
:1021A00033700BF077F8834B18602346824A04F1B2
:1021B000200153F8040B8B4242F8040BF9D1E27969
:1021C0007E4B7F4F1A70227A7E4B7F481A70627A5C
:1021D00080467E4B7E4E1A70A3797E4AC3F340033D
:1021E000DFF87492DFF874A21370E27A7A4B1A70F7
:1021F000227B7A4B1A70A37AC3F3400503F00102E5
:10220000C3F38001C3F3C0033D70754D327001709C
:102210002B706AB199F8003053B99AF80030012157
:10222000704A0D2B117003D16F497048FFF752FDB2
:1022300098F800B0DFF82882BBF1000F05D098F8BD
:10224000003013B96A4B01221A703F78694927B1EF
:102250000B7813B9684B01221A709AF80030674A5C
:10226000082B0AD00D2B40F08680654B1B780D2B78
:102270000AD1644B1B78112B06D12B7823B113782C
:1022800013B9614B0120187033780F7089F8003052
:102290002B7888F800B01370627B5C4B1A70A27BBD
:1022A0005B4B1A70A2795B4B1A70A37C228A1B04C9
:1022B00003F470231343584A03F01F011170C3F352
:1022C00044115170C3F38421DB0B9170D370227DD4
:1022D000524B1A70A27D637D43EA0223504A138059
:1022E000227EE37D43EA02234E4A1380A27E637E70
:1022F00043EA02234C4A13804C4BD4F81B201A604B
:1023000001234B4A13704B4A13700AF0C3FF4A4B28
:1023100000221860494B1A70BDE8F88F2B88834261
:102320003FF436AF46491E480AF0B7FC0A22298816
:102330001B480AF026FD434919480AF0AEFC0A2260
:10234000A18817480AF01FFD62792379002143EA2A
:102350000223012231702B803B4B1A70114B1980E4
:10236000124B1970124B1980384B1B786BB13848DF
:10237000FFF710F80CE7122B86D1FEF731FA002890
:1023800082D0344B1B780E2B76E7E37806E700BF4C
:10239000241C0024221C0024201C0024481C00248F
:1023A000C43300249C180024C04207088C19002460
:1023B0001C1C00244C1C0024301B0024881A002400
:1023C00040190024891A00243C1900248A1A002488
:1023D00042190024441900241A0000241900002482
:1023E0003E190024561A0024104307082243070808
:1023F000531A002441190024551A00243F190024BF
:102400002D1B0024B0180024541A0024501A002454
:10241000481A00245F1A0024F81A002470190024B6
:10242000FC1A0024FE1A00241E1C00249C190024FF
:10243000571A0024651B0024641C00245C1A002425
:10244000DE420708C04307086F190024F31A00246E
:10245000FE420708B419002443190024521A00242C
:102460003D19002401460148FFF734BCC657070850
:1024700008B5094B1B780D2B0DD10AF00BFF074A4D
:102480001368C31A312B06D9106005490548BDE809
:102490000840FFF71FBC08BD521A0024601C00242E
:1024A00040860708AE5F070838B5104C0022104D73
:1024B0002378287001330F490F4813F0FF0308BF3A
:1024C000012323700D4B1A700AF0E7FB0A222978CA
:1024D00009480AF079FC0A4907480AF0DEFB21782E
:1024E0000A220548BDE838400AF070BC181C0024D8
:1024F0008D190024A3430708C43300246C1A002458
:10250000E85E070808B5FEF7FDFFA8B10D4B1B7884
:10251000A3B1FFF70BF888B1FFF710F880B10A4BB1
:102520001B78012B0CD9082B0AD0084B1B78002BE9
:1025300014BF0320002008BD0120FCE70220FAE7B9
:102540000320F8E7651B0024501A0024481A0024D1
:1025500038B5074C00250748C4E90155C4E90355BF
:1025600007F003FC257660616576E06138BD00BF49
:10257000681B0024FC21002410B5084C207E38B1D3
:10258000637E33B1E0696369C01A0028B8BF404276
:1025900010BD034807F0E9FBF5E700BF681B002406
:1025A000FC21002410B5064C207E20B1637E1BB1B7
:1025B000E068A368C01A10BD0AF06CFEF9E700BF1E
:1025C000681B002400000000F8B58F4D2022002178
:1025D000044628F06DFAFEF77DFF2B78E0700F2B94
:1025E00000F0C280112B0CBF884A894A1278092B4F
:1025F000227140F0BB80864B1B780A2B40F0C280D2
:10260000844B1B786371FFF7C1FAA071FFF732FBAF
:10261000E07172B6804B814A1B7881495BB21278B7
:102620000878002B52B240B200F3AE8040F0AE808A
:10263000002A59B200F3AC8040F0AC801346002869
:1026400041EA830200F3A88040F0A880034642EAF2
:102650000313237262B6FEF749FF724B60721B7858
:10266000A372714B1B78E372704B1B88A381704B74
:102670001B78A3736F4B1B68C4F80F306E4B93ED40
:10268000007A9FED5B6BB7EEC77A27EE067B9FED76
:102690005A6BB4EEC67BF1EE10FA00F181809FED2B
:1026A000586BB4EEC67BF1EE10FA7CDCFDEEC77B16
:1026B00017EE903AC4F81330604BD3ED007AF5EE84
:1026C000C07AF1EE10FA71DD9FED5D7A67EE877AE0
:1026D00017EE900A26F0FEFC02465A4B1B78002BA0
:1026E00066D10020584BC2F311021B8842EA804099
:1026F000A4F81B30554BC4F817001B786377544B74
:102700001B78A3772B78132B1CD1524B5A7E002AAF
:102710006AD11B7E6371FFF72FFF0646FFF742FF6A
:102720000023002EE375B8BF6FF000460028237623
:10273000B8BF6FF00040C4F80F606376C4F81300B0
:10274000A37663772B78142B02D12046FEF726F868
:10275000A7231F2120462370112363702023A37019
:10276000FDF722FFE077F8BD3B4A3FE70D2B01D193
:102770003A4B46E7122B01D1394B42E70E2B01D1E0
:10278000384B3EE7384B3CE7012351E702234FE744
:10279000012354E7022352E7012358E7022356E7B7
:1027A0004FF0004386E76FF0004383E7002294E791
:1027B0002E4FFEF72FF802263B6893FBF6F3D84224
:1027C0008FD4FEF727F8396891FBF6F10144B1F593
:1027D000804F06DAFEF71EF83B6893FBF6F31844C9
:1027E00080E743F6FF707DE7022393E7AFF30080B5
:1027F0000000000080842E41000000000000E0C1C5
:102800000000C0FFFFFFDF41521A00242F1B0024ED
:102810002D1B0024EC1B0024F01A0024F11A0024C4
:10282000F21A00248D190024181C00249C1800247E
:102830008C19002494190024781C00240C00002416
:10284000002474496E1900241A1C0024511A002413
:102850001C000024681B00242C1B0024B01800243A
:10286000B4190024481900245D1A0024941B002484
:10287000F8B53A4C0746637E002B6AD0E569FFF74E
:102880007BFE3749064637480AF007FA394635488D
:102890000AF00CFA344933480AF0FFF90AF0FAFC5E
:1028A0000A2201462F480AF082FA30492D480AF0E0
:1028B000F4F90A2221682B480AF079FA2C492948B0
:1028C0000AF0EBF90A22616826480AF070FA2949F1
:1028D00024480AF0E2F90A22294622480AF02FFA8F
:1028E000254920480AF0D9F90A2261691D480AF0F1
:1028F00026FA22491B480AF0D0F90A223146194823
:102900000AF055FA1E4917480AF0C7F9FFF74AFEC0
:102910000A22014613480AF04AFA1A4911480AF0F5
:10292000BCF9217E11B1617E81F001010A220D48BE
:102930000AF027FA14490B480AF0AFF9617E0A221F
:1029400008480AF01EFA11490648BDE8F8400AF0A6
:10295000BBB90F4807F009FA054690E7681B002449
:102960002B430708C4330024DA6107084C430708E7
:1029700054430708CC590708D25907085B43070896
:1029800064430708714307087B430708844307082B
:10299000FC2100240B4B1B7810B504467BB10021B1
:1029A000FEF7F8FC084B0022084909481A700AF0A3
:1029B00074F921460648BDE810400AF099B9FEF7BF
:1029C0003DF8EFE7F31A00245E1A002448310708A7
:1029D000C433002438B5144B022205460C46188037
:1029E000124B13491A700022124B13481A800AF036
:1029F00054F90A22294610480AF0C3F90F490E4833
:102A00000AF04BF921460C480AF072F90C4B1B787E
:102A10000D2B08D121460B48FFF75CF90A48BDE8A9
:102A20003840FFF71FBD38BD9C1800248C190024C6
:102A3000B85E07081C1C0024C4330024F45E070899
:102A4000521A0024E14C0708FD5E070870B50446E1
:102A50000E46174817490AF020F9214614480AF093
:102A600047F921461448FFF735F9144CFDF7E6FF06
:102A70000023134A1370134A1370A38923B1124A17
:102A800013800322114B1A70114B002566771D80AD
:102A9000072323700AF0FEFB6060FDF7BBFE28B140
:102AA00028460121BDE87040FEF70AB970BD00BF9D
:102AB000C4330024B03A0708C63A0708EC1B0024C8
:102AC000F31A0024641B00249C1800248C19002491
:102AD0001C1C002437B5404940480AF0DEF80AF0D3
:102AE000D9FB0A2201463D480AF061F93C493B48BE
:102AF0000AF0D3F83B4B197809B13B4B19883B4C92
:102B00000A22364803250AF03CF9394933480AF0CD
:102B1000C4F80A22A18931480AF033F935492F480F
:102B20000AF0BBF80A22A17B2C480AF04DF9324981
:102B30002A480AF0B2F8D4ED057A0095B7EEE77AA4
:102B4000264853EC172B0AF0E7F92C4923480AF0E2
:102B5000A4F8D4ED067A0095B7EEE77A1F4853EC57
:102B6000172B0AF0D9F926491C480AF096F80A22D0
:102B7000217C1A480AF028F9224918480AF08DF8F1
:102B80000A22217C15480AF01FF91F4913480AF050
:102B900084F8FEF739F907EE900A0095B7EEE77A68
:102BA0000E4853EC172B0AF0B7F918490B480AF0F6
:102BB00074F8FEF747F907EE900A0095B7EEE77A4A
:102BC000064853EC172B0AF0A7F91149034803B044
:102BD000BDE830400AF078B88F590708C4330024A4
:102BE000E25F0708241C0024221C0024EC1B0024A4
:102BF000BD590708E459070810600708186007085E
:102C00002060070830600708EC590708F4590708E6
:102C10003C60070838B50E4D044628700AF03AFBB0
:102C2000002368600B490C48AB600AF036F8112CA1
:102C3000094896BF094B0A4C53F8244021460AF034
:102C400057F821460748BDE83840FFF743B800BFB2
:102C5000B0180024B2430708C4330024AC2F07087F
:102C6000DE390708C543070810B58C220021124839
:102C700027F01EFF104CFDF7CDFD00280CBF0023F0
:102C8000092323700AF006FB6060FEF7DBF80B4BAC
:102C9000A0621B68E3620AF0FDFA23782063092B27
:102CA00009D1074907480AF00FF801210020BDE8C3
:102CB0001040FEF705B810BDB01800249419002488
:102CC000493A0708C4330024044B1868022390FBD8
:102CD000F3F0C0F53B600830704700BF941B002440
:102CE00038B52B4C2B482C4D2DED028BF9EE048A78
:102CF00007F03BF8D4ED057ADFED286A78EEE78A35
:102D00002860F0EEE87AF4EE667AF1EE10FA3DD83B
:102D1000E3699FED238AC01A224B07EE900A93F9CC
:102D20000030B8EEE77A07EE903A1F4BF8EEE77AFC
:102D300067EE277A94ED067A38EE478A9FED1B7A84
:102D400038EE478A93ED007AA7EE878AF0EEC87ACC
:102D5000F4EE667AF1EE10FA18D80AF09BFA2B68B6
:102D6000E26A9A4207D0226B2AB182423CBF84EDCC
:102D70000A8AC4E90B300E4B0120C4ED088A1B6897
:102D800084ED098A6363BDEC028B38BD0020FAE74D
:102D9000B0180024FC21002494190024FFFF7F7F39
:102DA000000000001C0000240C00002400405344DC
:102DB000781C0024094B02229FED097A1B6893FBC3
:102DC000F2F35B4207EE903AF8EEE77AF0EEE77A3C
:102DD000C7EE877A17EE900A704700BF941B002455
:102DE00000409C4508B50C4BDFED0C6A93ED006A82
:102DF00086FE866AFFF7DEFFF6EE007A07EE100A1F
:102E000077EE277AB0EE667AA6EE277A76EEC77A64
:102E100017EE900A08BD00BF781C002400000000D7
:102E2000064B9FED077AD3ED007ADFED066AC7FE09
:102E3000277AA7EEE67A17EE100A7047781C00246E
:102E400000000000BE9F9A3F594BB3F9003007EED7
:102E5000903A584B2DE9F041F8EEE77AB3F900804B
:102E600000260027544D324631462DED048BF2EEFC
:102E7000048A84B0B9EE048A03AB87EEA89A009363
:102E800002ABCDE9027738EE498A18EE100AFEF758
:102E9000CBF840B949492888FFF79CFD04B0BDEC48
:102EA000048BBDE8F08107EE908A454C2B88F8EE44
:102EB000E77A84ED059AE381424B87EEA87A84EDA8
:102EC000088A1B78666223743F4BA6621B68E36125
:102ED0003E4B1B68E36284ED067A0AF0DBF93C4B5B
:102EE00020631B6884F83C70A3632664FFF7F8FE38
:102EF00030B938492888FFF76DFDFFF7B5FECDE7FB
:102F0000FFF770FF94ED097A07EE900A2064F4EE63
:102F1000C77AF1EE10FA01D52F49EBE7FFF7D4FE9F
:102F20000746FEF703F808B92C49E3E72C492D487A
:102F300009F0B3FE0A22E1892A4809F022FF2A4952
:102F4000284809F0AAFE0A22E169264809F0F7FE9E
:102F50002649244809F0A1FE0223002221480093BB
:102F6000002309F0D9FF22491E4809F0ADFE0323D2
:102F70003246314618EE100AFEF766F908B91D49C7
:102F8000B8E738460121FDF79BFE2B881A4A012439
:102F90001A4913801A4A1B4813801B4B1C70FEF7FA
:102FA00099FE1A48FFF75EFA2046FFF733FE75E7F1
:102FB000FC1A0024FE1A00241E1C0024DE5C0708F4
:102FC000B0180024701900249C19002494190024BE
:102FD000781C00240E5D07082E5D0708585D070861
:102FE0007B5D0708C4330024CB6407089C5D070899
:102FF000A55D0708C15D07081C1C0024E65D0708E5
:103000009C180024A74A07088C190024085E0708AA
:1030100010B50B4C0B49204609F03FFE0A4B0A2223
:103020002046196809F0C3FE0849204609F035FE1C
:10303000074B20460A221968BDE8104009F0D0BEAF
:10304000C4330024B1360708801A0024C5360708A7
:10305000581A002438B50446FDF7F0FC104B114D0A
:10306000DA89114B284611491A800422104B1A7034
:103070000022104B1A8009F010FE2146284609F064
:1030800037FE21460C48FEF725FE0C48FFF7EAF90B
:10309000FFF7BEFF0720BDE83840FFF7BBBD00BF0C
:1030A000B0180024C43300249C18002434360708C8
:1030B0008C1900241C1C00243F36070846360708DC
:1030C00007EE100ADFED317AF0EEC76A70B5F4EE64
:1030D000676AF1EE10FA54D8DFED2D7AB4EEE77A94
:1030E000F1EE10FA4DDC2B4B1B78002B49D12A4B0B
:1030F0001B78002B45D1C7FEC77A284E9FED287A52
:10310000C7FE277A96ED007A67EE877A17EE900A67
:1031100025F0E0FF0546FDF775FBF7EE087A96ED22
:10312000007A044667EE277A17EE900A25F0D2FF60
:10313000A542CCBF01224FF0FF322C1B002CB8BFA0
:103140006442A04203DBFDF749FC012018E072B69F
:10315000144B1B7803F0FF002BB962B601212846FF
:10316000FDF772FDF1E7104B1B785BB29342F4D18F
:103170000E4B1B889BB2012BEFD10D4B1D6062B62D
:1031800070BDFDF72BFC0020FAE700BFFFFF7F7F3B
:1031900000002243961A0024971A0024541B00248E
:1031A000000022C3181B0024F11A0024060000248A
:1031B000141B002438B50F4C606AFFF781FF0546E9
:1031C000B0B194ED096AFDF73DFE07EE900A76EE88
:1031D000677AC4ED157A0AF05DF8E36DC01AC72866
:1031E00006D90AF057F80449E0650448FEF772FD75
:1031F000284638BDB018002498580708B258070868
:1032000010B5FDF73DFEB6EE007AFAEE047A06EE52
:10321000900A00220323E6EE877A114617EE900A01
:10322000FEF712F8044618B101210020FDF748FD11
:10323000204610BD0000000037B504460D46B648D4
:10324000B64909F02AFD2146B34809F02FFDB449DB
:10325000B14809F022FDB34B197809B1B24B198876
:103260000A22AD4809F08DFDB049AB4809F015FDC3
:10327000AF4C0AF00FF80A220146A74809F097FD63
:10328000AC49A54809F009FD0A22E189A24809F0E4
:1032900078FDA949A04809F000FD0A22217C9E483A
:1032A00009F092FDA5499C4809F0F7FC0A22217813
:1032B000994809F089FDA249974809F0EEFC294692
:1032C000954809F0F3FC9F49934809F0E6FC9E4DB0
:1032D0000A22216E904809F032FD9C498E4809F07F
:1032E000DCFC0A2229688C4809F029FD98498A48A3
:1032F00009F0D3FC0A222989874809F042FD954943
:10330000854809F0CAFC0A226989834809F039FD19
:103310009149814809F0C1FC0A22297B7E4809F0C5
:1033200053FD8E497C4809F0B8FC297B0A227A4873
:10333000022994BF0021012109F023FD8849764824
:1033400009F0ABFC0A22E97B734809F01AFD8549B4
:10335000714809F0A2FC94F86430002B00F07481ED
:103360000A22A16E6C4809F022FD7F496A4809F0E3
:1033700094FC94F86430002B00F06B8194F8652085
:103380007A497B4B002A08BF1946634809F085FC3F
:103390007849614809F081FC0A22E16E5E4809F033
:1033A00006FD75495C4809F078FCE36E002B00F0DF
:1033B000528194F86420002A00F04D81A16E0A2207
:1033C0005548591A09F0BBFC6C490325524809F0CD
:1033D00064FC0A22216F504809F0E9FC68494E4814
:1033E00009F05BFC0A22616F4B4809F0E0FC65497B
:1033F000494809F052FC644B4748D3ED007A072353
:10340000B7EEE77A009353EC172B09F085FD5F497F
:10341000414809F042FC5E4B0A223F4893F90010F4
:1034200009F0AFFC5B493C4809F037FC00953A488D
:1034300037A3D3E9002309F06FFD5749364809F057
:103440002CFCD4ED057A3448B7EEE77A009553ECBE
:10345000172B09F061FD51492F4809F01EFCD4EDEE
:10346000067A2D48B7EEE77A009553EC172B09F052
:1034700053FD4B49284809F010FC0A22E16926480F
:1034800009F05DFC4749244809F007FC464B0A2235
:103490002148196809F053FC44491F4809F0FDFB15
:1034A000D4ED097A1C48B7EEE77A009553EC172B58
:1034B00009F032FD3E49184809F0EFFBFDF7C2FC68
:1034C00007EE900A0095B7EEE77A134853EC172BF6
:1034D00009F022FD3749104809F0DFFB94ED096A35
:1034E000FDF7B0FC07EE900A009576EE677A0A4881
:1034F000B7EEE77A53EC172B09F00EFD2E4906487C
:1035000009F0CBFBD4ED1E7A0348B7EEE77A55E01D
:103510000000000000688A40C4330024F24007081D
:1035200006600708241C0024221C0024DA61070816
:10353000B0180024BD590708E4590708DC590708EA
:103540001041070820410708A0180024334107084C
:103550004441070855410708654107087D410708B0
:10356000904107089F410708B6410708E740070850
:10357000DD400708C9410708DA410708EF4107089D
:10358000FD410708104207080C00002421420708EB
:103590001C00002430420708454207085042070833
:1035A000D2590708CC590708941900245B42070830
:1035B000F4590708265A070865420708009553EC96
:1035C000172B09F0A9FC2649264809F066FBD4ED23
:1035D0001F7A2448B7EEE77A009553EC172B09F0D1
:1035E0009BFC21491F4809F058FB0A22D4F880109F
:1035F0001C4809F0A4FB1D491A4809F04EFBD4ED04
:10360000217A1848B7EEE77A009553EC172B09F0AA
:1036100083FC1749134809F040FBD4ED227A114886
:10362000B7EEE77A009553EC172B09F075FC1149BA
:103630000C4809F032FB104B0A220A48197803B0F3
:10364000BDE8304009F0C2BB0C49064809F025FB33
:103650008BE60B4999E60949024809F01EFBB3E6DF
:1036600077420708C43300248C4207089E420708AB
:10367000AE420708206007081A000024B34107087B
:10368000D540070838B50A4D0446287009F002FEF7
:1036900008496860084809F000FB0F2C064896BFEF
:1036A000064B074953F82410BDE8384009F020BB09
:1036B000B4190024715A0708C4330024F42F0708F2
:1036C000DE39070810B5882200210E4827F0F0F9EE
:1036D0000C4CFDF79FF800280CBF00230C2323702F
:1036E00009F0D8FD237860600C2B09D1012100205E
:1036F000FDF7E6FA04490548BDE8104009F0E4BAD0
:1037000010BD00BFB419002466580708C433002454
:10371000A84B2DE9F0471D7804469A46854200F0F3
:10372000B380082DDFF80C83A34EA44F32D10828B4
:1037300004D00023A24A1370A24A13708AF80040F2
:1037400009F0A8FD3B78A049C8F800009F483370F5
:1037500009F0A3FAFDF7BEFE0A2201469B4809F0D4
:1037600035FB142C51D8DFE814F07A007A007A0087
:1037700031004C007A007A006200180118014C00F8
:1037800044007A00EB0058006E007A007A0079015C
:1037900091007A00132D03D18D48FFF769F8CDE72A
:1037A0000D2D40F0B0800D2800F0B88089498A487E
:1037B000FEF790FAC2E7894A92F80090B9F10A0F31
:1037C000BCD1092C00F0D7808549F0E7FDF736F928
:1037D0000220FEF769FE0D2D1BD1092C40F0BB80A5
:1037E0007E4B1B780A2B4DD17E497F48FEF772FA3B
:1037F00048E0FDF723F90220FEF756FE0D2D08D113
:10380000A9E0FDF71BF9FDF723FE0D2DE5D00D2CEA
:103810002DD0092D00F09F8032E0FDF70FF9002335
:10382000724A1370724A1370FEF708F9E6E7002631
:10383000704B1E70704B1E70FDF700F96B4B1E70C5
:103840006B4B1E70C7E700266A4B1E706A4B1E70DA
:10385000FDF7F4F8654B1E70654B1E70CEE7FDF763
:10386000EDF80023614A1370614A1370CDE7634B92
:10387000002263495C481A60FEF72CFA092D03D038
:10388000092CADD0122D66D1BDE8F087FDF7D6F832
:103890000021564B20225B481970554B1970554B2F
:1038A0001970554B1970584B1970584B1980584B5B
:1038B000197027F0FDF8FEF74BFE5648FEF7D8FFCB
:1038C0005549424809F000FA98E754494EE0434B05
:1038D0001B780A2B99D1524F20223146384627F0C7
:1038E000E7F809F0D7FC786009F0D4FC4D4BB860DC
:1038F0001B78FB73FCF78EFF002886D00121304631
:10390000FDF7DEF981E7092D3FF455AF122D7FF465
:1039100015AF122C00F09080434948E7187009F069
:10392000B9FC3B782849C8F800002848337009F0F2
:10393000B4F9FDF7CFFD0A220146244809F046FA02
:10394000FDF77CF80023294A1370294A1370FFF70A
:103950008BF90D2D8BD1122C96D1204B1B780C2B73
:10396000B3D03249324A0B2B18BF11461E48BDE86E
:10397000F047FEF7AFB91C7009F08CFC3B78124998
:10398000C8F800001148337009F087F9FDF7A2FD6F
:103990004A4601460D4809F019FAFDF74FF800268E
:1039A000124B082C1E70124B1E7090D1044B1E70CF
:1039B000044B52E7521A0024B0190024891A00243B
:1039C0005E1A0024541A002463350708C433002407
:1039D000FD3407080E350708263507082D1B00247F
:1039E000323507081836070895350708F31A0024FA
:1039F000641B0024561A0024531A0024601C00245F
:103A00007D350708681B0024551A00249C180024E3
:103A10008C190024A3350708B63507086F3407084A
:103A2000EC1B00241A0000244C350708C934070891
:103A3000A9340708701A00241C7009F02BFC3B788D
:103A40000B49C8F800000B48337009F026F9FDF760
:103A500041FD0A220146074809F0B8F9FCF7EEFFDC
:103A60000023054A1370054A1370FFF72BFEC5E6C5
:103A700063350708C4330024F31A0024641B0024B0
:103A800038B50C460546FCF7D9FF284B28491A786B
:103A9000023A012A1A4602D90B780D2B07D1254B81
:103AA0001B8823B1244803800320244B1870002373
:103AB000234813700A780370042A01D00A2A0BD114
:103AC00020490B7020490B70204B19781B291FBF10
:103AD0001F490C601B2119701E4B0D2A1D701E4BB7
:103AE0001C6003D121461D48FEF7F4F800231C4A50
:103AF0000C2013701B4A13701B4A13701B4A13705F
:103B0000FFF706FE1A491B4809F0C7F829460A22A2
:103B1000184809F059F91849164809F0BEF8214625
:103B20001448BDE8384009F0E3B800BF641B002426
:103B3000521A00241C1C00249C1800248C190024F8
:103B4000F31A00246D1900246E1900245D1A002454
:103B500010000024491A00241400002463310708CF
:103B6000561A0024531A0024551A0024541A00240B
:103B700069310708C4330024AF82070870B52B4DA4
:103B80002B78002B51D02A4E33785BB2002B03DD0B
:103B9000284B1B78002B41D133781A0603D5264BCE
:103BA0001B78002B3AD1254C23785BB2002B03DD28
:103BB000234B1B78002B31D123781B0602D5214BD8
:103BC0001B785BBB09F066FB1F4B1B68C01A1F4BC1
:103BD000984209D901211E48FDF7DCFB1D49072049
:103BE000BDE87040FFF74CBFFCF734FEE8B9FCF7C6
:103BF00039FED0B93378C3B923785BB2ABB9164A72
:103C00002B7011781370154A154B164802290CBFFA
:103C100011461946BDE8704009F056B80121124816
:103C2000FDF7B8FB11490820DAE770BDF31A00244C
:103C3000F01A0024941A0024951A0024F11A002482
:103C4000961A0024971A00247C1A002420BF020030
:103C50003061070838610708641B0024A560070865
:103C6000EB600708C4330024516107086D61070841
:103C700038B50446FCF7E2FE00230C4A0C4D1B202D
:103C800013700C4A13700C4B1C60FDF7C5FB0B49FD
:103C9000284609F002F82146284609F029F821466D
:103CA0000520BDE83840FFF7EBBE00BF6D190024CA
:103CB000C43300246E190024100000244350070868
:103CC000F8B5A34C2378002B00F0F1811A3B012BAF
:103CD00040F2ED8109F0DEFA9E4B1B68C01A9E4B44
:103CE000984204D99D48BDE8F840FFF7C1BF23784A
:103CF000013B182B00F2DB81DFE813F019002700ED
:103D00003B0042004E00560065006C0086009400A7
:103D1000A500AC00B800C000CF00D600F000FE0047
:103D20000F01160122014C015B0161017E018C4BE8
:103D30001B7833B1FCF73AFE0220BDE8F840FDF7EE
:103D40006BBB02214FF0FF300FE0854B1B7853B95E
:103D5000FCF72CFEFCF74EFD022100F59670FCF7F7
:103D600037FF0320E9E702210120BDE8F840FCF716
:103D70006FBEFCF76FFD002840F099810420DCE75E
:103D8000774B1B7833B1FCF711FE0020FCF74AFD9E
:103D90000520D2E70821D5E7724B1B78002BE2D033
:103DA000FCF704FE0620C8E76E4B1B78002BC8D139
:103DB000FCF7FCFDFCF71EFD0221A0F59670FCF758
:103DC00007FF0720B9E7FCF745FD002840F06F81A9
:103DD0000820B2E7634B1B78A3B1FCF7E7FD624C08
:103DE000FCF708FD6328206001DC60487BE7604940
:103DF000604808F052FF0A2221685E4808F0CDFFB3
:103E000009209AE70821AFE75B4B1B781BB1FCF751
:103E1000E5FD0A2091E702214FF0FF30BDE8F840B0
:103E2000FCF756BE544B1B7853B9FCF7D7FDFCF793
:103E3000E9FC022100F59670FCF706FF0B207CE7F9
:103E400002210120EAE7FCF70DFD002840F02F8158
:103E50000C2072E7484B1B7833B1FCF7BFFD002004
:103E6000FCF7E8FC0D2068E70821D5E7434B1B78F9
:103E7000002BE5D0FCF7B2FD0E205EE73F4B1B7830
:103E8000002BC8D1FCF7AAFDFCF7BCFC0221A0F571
:103E90009670FCF7D9FE0F204FE7FCF7E3FC0028F3
:103EA00040F00581102048E7344B1B78A3B1FCF7A4
:103EB00095FD334CFCF7A6FC6328206001DC3148FB
:103EC00011E731492B4808F0E8FE0A222168294809
:103ED00008F063FF112030E70821B2E72B4B1B7875
:103EE0001BB1FCF793FD122027E702214FF0FF30B2
:103EF000BDE8F840FCF72CBE244B1B7853B9FCF707
:103F000085FDFCF787FC022100F59670FCF7D8FED2
:103F1000132012E702210120EAE7FCF7ABFC00289E
:103F200040F0C580142008E7184B1B7833B1FCF72C
:103F30006DFD0020FCF786FC1520FEE60821D5E784
:103F4000134B1B78002BE5D0FCF760FD1620F4E640
:103F50005D1A0024741A002420BF0200CD3A07081D
:103F6000951A0024941A00248C1B0024E43A0708B4
:103F70008A500708C4330024971A0024961A002494
:103F8000901B0024F53A07089A500708981A002455
:103F9000991A0024464B1B78002BA6D1FCF736FD5E
:103FA000FCF738FC0221A0F59670FCF789FE17207B
:103FB000C3E6FCF75FFC002879D11820BDE63C4B36
:103FC0001B78BBB1FCF722FD3A4CFCF723FC6328BD
:103FD000206001DC384886E63849394808F05DFE43
:103FE0000A222168364808F0D8FE364B00221920F4
:103FF0001A70A2E608218EE7334B02241F68334B68
:104000001E682C4B1D682F4B1A7897FBF4F796FB14
:10401000F4F695FBF4F56AB90122214638461A7088
:10402000FCF7D6FD21463046FCF70EFE2146284619
:10403000FCF746FEFCF70EFC002838D1FCF712FC1A
:10404000002834D1FCF716FC88BB214B1B7873BBCE
:10405000204B1B785BBB204B1A7852B23ABBFCF763
:10406000C9FB874213D1FCF7CDFB86420FD1FCF789
:10407000D1FB85420BD11046FCF7D4FBFCF7DAFBF1
:10408000FCF7E0FBFCF76EFF18B914482BE6144868
:1040900029E60123134A1A201370134A1370FDF7FF
:1040A000BBF912490648BDE8F84008F00DBEF8BD5E
:1040B000991A0024941B0024063B0708AA500708FD
:1040C000C4330024641A00248C1B0024901B002499
:1040D000F01A0024F11A0024F21A0024173B0708F2
:1040E000353B07086D1900246E190024BA500708E3
:1040F00038B5354D2C78A4F10803DBB20A2B61D812
:1041000040F2234222FA03F3DB075BD52F4B1B78E7
:1041100023B90520BDE83840FFF7FABA2C4B1B78CD
:104120002BB12C4B1B7813B1FCF754FE28B92A494C
:104130002A4808F0C9FD0A20ECE7082C3ED0FDF71C
:104140001DFA60B10D2C01D0122C22D1FDF7F0FB2D
:1041500058B92349214808F0B7FD0E20DAE7214974
:104160001E4808F0B1FD0B20D4E70020FCF7DEFE6E
:1041700068B11D4B1868022390FBF3F04042FCF736
:10418000D5FE20B1FEF7A0FDFCF7D0FE08B9174917
:10419000CEE7092C12D1164B1B780A2B0ED100202A
:1041A000FCF7C4FE40B1104B1868022390FBF3F0FB
:1041B0004042FCF7BBFE08B90E49B9E70723204689
:1041C0002B70A7E738BD00BF180000244419002455
:1041D0006D1900246E19002473300708C4330024BD
:1041E000C230070896300708941B0024E730070800
:1041F0002D1B00241A310708074B1B78072B01D011
:10420000FFF776BF054B1B781BB1054B1878FFF7FE
:104210007FBA0520FBE700BF1800002444190024E2
:104220001B000024F0B52DED028B83B0FCF706FCDB
:10423000B84AB94B1178A9B1197899B10023137014
:10424000B64B1A78072A4FF007020CBFB449104644
:104250001A7008BF087803B0BDEC028BBDE8F040CF
:10426000FFF756BA1B782BB9AE49AF4808F02CFDC2
:104270000520F0E7AD4C09F00DF82378052B00F28E
:10428000B681DFE813F00600210048008B01B4017D
:10429000A801A74B1A78002A00F0A98100221A7001
:1042A000A44B1B78180708D4A3499F4803B0BDEC62
:1042B000028BBDE8F04008F007BDA04B012023624F
:1042C000FDF76EFB9E49F0E76368C01AB0F5FA6F20
:1042D000C0F08D819B4BE2681B689B1A03F11302AF
:1042E000262A07D8984803B0BDEC028BBDE8F04001
:1042F000FDF778BB00224FF0FF4102209342A283DA
:10430000CCBF01234FF0FF33C4E90512A377FDF7BB
:1043100047FB8E49C9E7A268821AC72A13D9894B7D
:1043200019682369CB1A002B24DC05D04FF0FF3528
:1043300094F91E60AE421FD0637FFF2B01D0013382
:104340006377A06021616368C01A41F287339842A5
:1043500040F24D817B4B1A68E368D31A03F1630185
:10436000C62905D9217F132902D9617F01292BD9BB
:104370007748B8E70125DBE707EE903A9FED757ABD
:10438000237FF8EEE77AF0EEE77A67EE877A07EEBA
:10439000102AB8EE477AC7EE876AD4ED057AF4EEB4
:1043A000E76AD4ED067AF1EE10FAF4EEE76A48BF58
:1043B000C4ED056AF1EE10FAC8BFC4ED066AFF2B22
:1043C0001CBF01332377BCE707EE903AB8EEE77ADB
:1043D000DFED607AB0EEC77A27EE277A07EE900A13
:1043E000F8EE677A87EE278ADFED5B7AB4EE678AAC
:1043F000F1EE10FA00F28C80B5EEC08AF1EE10FA00
:1044000040F28680002B554D5549CCBF01234FF01B
:10441000FF33544E2B70544B544FD3ED007A00238E
:10442000414868EE277A0B605149C6ED007A77EE75
:10443000A77A0B604F4B5049C7ED007A1A6008F01D
:104440002CFCD6ED007A02263748B7EEE77A0096C4
:1044500053EC172B08F060FD4849334808F01DFC69
:10446000D7ED007A3048B7EEE77A009653EC172B79
:1044700008F052FD42492C4808F00FFC0A2295F939
:1044800000100125284808F07EFC3E49264808F027
:1044900004FCD4ED057A0095B7EEE77A224853EC98
:1044A000172B08F039FD2F211F4808F003FCB7EE49
:1044B000C87A00951C4853EC172B08F02DFD2F21CE
:1044C000194808F0F7FBD4ED067A0095B7EEE77AC5
:1044D000154853EC172B08F01FFD2B49124808F024
:1044E000F3FB2A49104808F0D8FB0A22217F0E4826
:1044F00008F06AFC26490C4808F0CFFB617F0A22CD
:10450000094808F063FC0320FDF74AFA2149CCE68C
:104510002148E8E6551A0024441900241800002414
:104520001B0000247F5A0708C433002448190024C4
:10453000561A0024511A0024B75A07084086070863
:10454000F35A0708941900241B5B0708455B07080A
:10455000725B070800007A44FFFF7F7F1C00002485
:10456000781C0024801C00240C0000247C1C0024E7
:10457000601A0024541C0024CC5B0708DD5B07088C
:10458000F55B0708035C07082B5C0708365C070827
:10459000535C07085F5C0708AD5B0708164B1B7888
:1045A0001B0710D4154B012204201A70FDF7F8F9EF
:1045B0001349144808F088FB03B0BDEC028BBDE83A
:1045C000F040FFF719BE6368C01A47F230539842B3
:1045D0000DD90D4887E60D4B1A7842B100221A70AA
:1045E00003B0BDEC028BBDE8F040FDF727BA03B085
:1045F000BDEC028BF0BD00BF511A00246C190024E1
:10460000815C0708C4330024AC5C0708561A0024F8
:104610007FB5404B1B782BB9052004B0BDE8704036
:10462000FFF776B83C4B1B78002B71D1FCF72AF9C9
:1046300000286DD1394B6A4603F108051868083324
:1046400053F8041C1446AB4203C42246F6D1186842
:10465000334D1B792060237195F90010314EC9B19B
:1046600096F90030B3B9304A13785B1A28D40D2B71
:10467000A8BF0023137004AA2C4C13442C492D48C6
:1046800013F8103C237008F008FB0A22217829480F
:1046900008F09CFB2B78284A33701378002B37D016
:1046A00000231370214A11780E2930D8DFE801F079
:1046B0000A122F2F15222429262D1226261518001E
:1046C0000C23D7E71D4B08221A7004B0BDE87040D8
:1046D000FFF70EBD194B0922F6E7184B0D22F3E741
:1046E000174A14201370FFF713F804B0BDE87040A8
:1046F000FBF7E6BF0F2090E710208EE70F4B12224A
:10470000E2E7104A1120137087E7132085E7137042
:1047100004B070BD44190024F31A0024D02E0708F9
:10472000891A0024B0190024651A00242D1B0024C6
:10473000EA390708C4330024561A0024180000245C
:104740002E1B00242F1B00241A4B1B7813B90520A5
:10475000FEF7DEBF184B1A781AB1002207201A7034
:10476000F6E7164B164893F9002052B190F9003045
:104770003BB914490B789B1A14D4032BA8BF002310
:104780000B70114B02701A789AB100221A7007222E
:104790000E4B1A700F220E4B1A700A4B1B781BB966
:1047A0000A20D5E70223EBE7012B0CBF0B200E20DC
:1047B000CEE7704744190024551A0024891A0024B2
:1047C000B01900242C1B0024561A002418000024C1
:1047D0001B00002408B5FCF731F9164B1B7823B9F0
:1047E0000520BDE80840FEF793BF134A13781BB1BC
:1047F000002307201370F4E7104A1278142A0CD112
:104800000F4A1178A1B113700E4A1378C3F1010356
:104810001370BDE80840FBF753BF112A08D1084ABE
:10482000117829B11370084A1378C3F1010313708A
:1048300008BD00BF44190024551A0024521A002450
:10484000561A00242E1B00242F1B002438B5FCF719
:10485000F5F82A4B2A491A780AB10B784BB1002394
:104860009A420B700CBF05200720BDE83840FEF7C8
:104870004FBF244A244D117831B113702B70FDF7CE
:1048800067FE2248FDF7F4FF2B78214CA3B10022EC
:10489000237E2A7003BB23681E480133236005F082
:1048A00064FA6061E06108F0F5FC0123A06020611A
:1048B00019482376FDF7DCFF237EF3B1637EE3B96D
:1048C00008F0E8FC2369C31A632B16D9206113484A
:1048D000BDE83840FDF7CCBF637E002BEED10D481C
:1048E00005F043FAE06108F0D5FC0123E06063764F
:1048F00063680B4801336360DCE738BD441900246A
:10490000551A0024531A0024561A0024F9390708AE
:10491000681B0024FC2100240C3A0708353A0708DC
:10492000233A07086B4A38B512786B4C23785AB98A
:104930003BB16A48FEF72EF80520BDE83840FEF787
:10494000E7BEFCF77BF8F7E765490A7852B1002229
:104950000A7023B16348FEF71DF80720EDE7FCF766
:104960006DF8FAE760490A7060490878C8B10A70C2
:10497000BBB95F4B1B782BB15E4B1B7813B1FCF7B7
:1049800029FA20B95C495D4808F09EF909E0FCF776
:1049900035FC0546C8B15A49584808F095F9032333
:1049A00023702578012D45D108F074FC554B1B6808
:1049B000C01A554B98421AD94E4B00225349072032
:1049C0001A70BDE83840FFF75BB8FCF737F8504B7A
:1049D0001D70504B1D700123237008F05BFC494B88
:1049E000022118602846FCF76BF94B49CBE7FBF72F
:1049F00041FF00283BD1494B1A7852B2002A36D1E8
:104A0000FBF708FF20B13B4B45491A700820D8E757
:104A100000222B4611461046FCF716FC10B94149FE
:104A20000A20CEE70223404923703448BDE83840CD
:104A300008F04AB9022D0BD1354B1B78BBB9FCF7F6
:104A4000DDFB08B93949E1E7032339492370ECE775
:104A5000384B032D93F900000AD140B9364B93F936
:104A6000003023B9354B93F9003003B9237038BDBA
:104A7000314B002893F90050304B93F900401FDD73
:104A80002F4B1B78002B18BF0020002D1BDD2D4B5A
:104A90001B78002B18BF0025002C17DD2A4B1B7834
:104AA000002B18BF00240121FBF7D2FF284601216B
:104AB000FCF70EF820460121BDE83840FCF748B865
:104AC000E3D0224BDDE7E7D0214BE1E7EBD0214BF0
:104AD000E5E700BF441900245E1A00247931070875
:104AE000551A00248E310708531A0024541A002442
:104AF0006D1900246E19002498310708C43300246E
:104B0000C8310708781A002420BF02003032070895
:104B1000F31A0024641B0024EE310708F21A002463
:104B200052320708733207089B320708C43207085D
:104B3000E2320708881A0024891A00248A1A0024FD
:104B4000941A0024961A0024991A0024951A002415
:104B5000971A0024981A002438B5FBF76FFF00233A
:104B6000104A1370104A1370104A1380104B1D7BAB
:104B70005C7BFEF779F815B90E4B1B7823B905203D
:104B8000BDE83840FEF7C4BD0CB10720F8E70A497C
:104B90000A4808F099F80A490A48BDE83840FDF784
:104BA00099B800BFF31A0024641B00241C1C0024C5
:104BB000B0180024441900240F650708C4330024EA
:104BC0004165070855650708F8B505460F461948B9
:104BD00016461949194C08F060F82946154808F09E
:104BE00087F8E3893BB1164A164813800322164B17
:104BF0001A70FDF737FC29461448FDF76BF80025BD
:104C0000FBF7D4FEFBF7EAFE114B082027731D705B
:104C1000104B66731D70FDF7FDFFFBF7FBFD18B928
:104C2000BDE8F840FFF798BF28460121BDE8F840ED
:104C3000FCF746B8C4330024B85F0708B018002456
:104C40009C180024CF5F07088C190024C63A070877
:104C5000F31A0024641B002470B506460D4615485F
:104C60001446154908F019F83146124808F040F882
:104C7000FBF79CFEFBF7B2FE0023104A1370104AAC
:104C80001370104B198921B10F4A118003210F4A6B
:104C900011700B2083F8385083F83740FEF7F2FC90
:104CA000FBF7B8FD28B101210020BDE87040FCF7FA
:104CB00007B870BDC4330024CB430708F31A00249F
:104CC000641B0024B41900249C1800248C190024AF
:104CD00038B5FBF7B3FE0A4B93F8385093F83740DA
:104CE000FEF7F0FC15B9074B1B7823B90520BDE88A
:104CF0003840FEF70DBD0CB10720F8E738BD00BF06
:104D0000B4190024441900242DE9F047BB4D89460D
:104D1000BB498246BB4C2DED028B82B026F094FA43
:104D20008046FBF75DFD2B68064601332B6048B9D2
:104D3000FCF76AF8E061FCF785F8B34B20621B785A
:104D400084F83430B14F3B780C2B00F0BD82B04971
:104D5000B04B002E08BF1946AF4807F09EFF08F081
:104D600099FA0A220146AC4808F021F8AB49AA4852
:104D700007F093FFAA4B197809B1AA4B19880A22A8
:104D8000A54807F0FEFFA849A34807F086FF0A22BE
:104D900029680325A04808F00AF8A4499E4807F0AE
:104DA0007CFF0A2221899C4807F0EBFFA0499A4822
:104DB00007F073FF0A22A17A974808F005F89D4989
:104DC000954807F06AFFD4ED037A0095B7EEE77ACD
:104DD000914853EC172B08F09FF897498E4807F03D
:104DE0005CFFD4ED047A0095B7EEE77A8A4853EC7D
:104DF000172B08F091F89149874807F04EFFD4ED42
:104E0000057A0095B7EEE77A834853EC172B08F044
:104E100083F88B49804807F040FFD4ED067A00956F
:104E2000B7EEE77A7C4853EC172B08F075F8854904
:104E3000794807F032FFD4ED077A0095B7EEE77AAC
:104E4000754853EC172B08F067F87F49724807F054
:104E500024FFD4ED087A0095B7EEE77A6E4853EC5C
:104E6000172B08F059F879496B4807F016FF94EDB5
:104E7000057AD4ED077A009577EEC77A6648B7EEE3
:104E8000E77A53EC172B08F047F87149624807F0AE
:104E900004FF94ED067AD4ED087A009577EEC77A90
:104EA0005D48B7EEE77A53EC172B08F035F86949FF
:104EB000594807F0F2FE94F834100A22564807F0D9
:104EC00083FF6549544807F0E8FE002E00F0FE819C
:104ED000D4ED107AB7EEE77A00954F4853EC172BD4
:104EE00008F01AF85D494C4807F0D7FED4ED0A7A6D
:104EF0000095B7EEE77A484853EC172B08F00CF80A
:104F00005749454807F0C9FED4ED0B7A0095B7EE36
:104F1000E77A414853EC172B07F0FEFF51493E4812
:104F200007F0BBFE002E00F0D481D4ED0F7AB7EE6F
:104F3000E77A03233848009353EC172B07F0ECFF74
:104F40004949354807F0A9FE216B0A22324807F08B
:104F5000F6FE4649304807F0A0FE002E00F0BD8165
:104F6000E16D0A222C4807F0EAFE41492A4807F081
:104F700094FE5146284807F099FE3E49264807F01E
:104F80008CFE3D4B3D492448B8F1000F18BF19462F
:104F9000DFED3B8A07F081FE3A491F4807F07DFEAE
:104FA0000A2294F834101C4807F00EFF36491A48BC
:104FB00007F073FE0A22A16C174807F0F8FE334988
:104FC000154807F06AFE0A221348D4E91213C91AD9
:104FD00007F0EDFE2E49104807F05FFED4ED117A80
:104FE00003230D48B7EEE77A009353EC172B07F035
:104FF00093FF94ED0F8A27494EE000BFF41A002476
:10500000F15A0708B41900241A0000242D1B0024AB
:10501000C6610708B0610708C433002406600708AA
:10502000241C0024221C00243A6207083E62070860
:10503000E459070810600708186007084462070869
:105040004D62070856620708606207086A6207082F
:1050500074620708306007085B4207087E62070831
:10506000886207089C620708A8620708B6620708FA
:10507000C0620708CA620708DF610708EA68070814
:1050800000007A4420600708FD410708D76207083E
:10509000F162070804630708BF4807F0FEFDB5EE9C
:1050A000C08AF1EE10FA40F31B81D4ED117A67EE5D
:1050B000A87A87EE887AB7EEC77A0325B64853EC0C
:1050C000172B009507F028FFB449B34807F0E5FD1A
:1050D0000022B34B0095B04807F01EFFB149AE481F
:1050E00007F0DBFD9FEDB07A009528EE077AAA481D
:1050F000C7EE287A94ED107A77EE877AB7EEE77AE2
:1051000053EC172B07F008FFA849A34807F0C5FD8B
:10511000A749504626F098F8002840F0E480B5EE04
:10512000C08AF1EE10FA40F3DE80D4ED117A9FEDE3
:10513000A17A67EEA87AC7EE886A37EE667AB7EE8C
:10514000C77A0325944853EC172B009507F0E4FE2B
:105150009949914807F0A1FD0022984B00958E488F
:1051600007F0DAFE96498C4807F097FD009500227B
:105170000023894807F0D0FE002E00F0BC80914942
:10518000854807F08AFD0A22216D834807F00FFE4B
:105190008D49814807F081FD0A22A16D7E4807F004
:1051A000CEFD8A497C4807F078FDD4ED187A009549
:1051B000B7EEE77A784853EC172B07F0ADFE844939
:1051C000754807F06AFD0A22616D734807F0EFFD2C
:1051D0008049714807F061FDA16C236D0A226E4879
:1051E000C91A07F0E4FD7C496B4807F056FDB9F198
:1051F000000F7BD17949684807F04FFD3B780C2BB5
:1052000060D177490325644807F047FDD4ED1D7A46
:105210000095B7EEE77A604853EC172B07F07CFE59
:1052200070495D4807F039FDD4ED1A7A0095B7EE64
:10523000E77A594853EC172B07F06EFE6A49564837
:1052400007F02BFDD4ED1E7A0095B7EEE77A5248B1
:1052500053EC172B07F060FE64494F4807F01DFD23
:10526000D4ED1B7A0095B7EEE77A4B4853EC172B39
:1052700007F052FE5E49484807F00FFDD4ED1F7A53
:105280000095B7EEE77A444853EC172B07F044FE3D
:105290005849414807F001FDD4ED1C7A0095B7EE5E
:1052A000E77A3D4853EC172B07F036FE52493A484F
:1052B00007F0F3FC216DD4F880300A223648C91A71
:1052C00007F075FD4D4917E04D4945E5D4ED097AE4
:1052D00000E64C4BD3ED007A29E64B4B196840E6CB
:1052E0009FED2B7BE9E69FED2A7B2AE749462A487A
:1052F00007F0DCFC82E74549274807F0E5FC444914
:10530000254807F0CAFC0A2294F83410224807F016
:105310005BFD4049204807F0C0FC3F4B3F491E4819
:10532000B8F1000F18BF194607F0B7FC3C491A48FE
:1053300007F0B3FCD4ED117A03231748B7EEE77AF0
:10534000009353EC172B07F0E7FD3649124807F09E
:10535000A4FCB5EEC08AF1EE10FA67DDD4ED117A47
:1053600067EEA88A88EE887AB7EEC77A03230A48E0
:10537000009353EC172B07F0CFFD2B49064802B0E2
:10538000BDEC028BBDE8F04707F09EBCAFF3008098
:10539000000000000000F87FC433002417630708F2
:1053A0000000834029630708000018443D63070894
:1053B000F15A0708000000005A630708000014C0F3
:1053C00069630708786307088A630708A163070809
:1053D000EF410708B8630708CC630708DE630708D6
:1053E000EC63070801640708166407082B640708C4
:1053F00040640708546407086864070802620708E5
:1054000094610708781C002494190024EA610708B5
:10541000816407089B640708256207081A62070869
:10542000AB640708D5640708DC6407089FED027BBE
:105430009CE700BFAFF30080000000000000F87F91
:1054400008B5194804F091FC184B1860184B1A6BFA
:10545000D3ED046A801A174A92F9002007EE900AE9
:1054600007EE102AF8EEE77A134AB8EEC77A27EE6D
:10547000877ADFED127A77EEE67ADFED116A77EE62
:10548000E67AD2ED006AE7EE267A9FED0E7AF0EE2C
:10549000E76AF4EE476AF1EE10FA9ABFC3ED097AB3
:1054A0000120002008BD00BFFC2100249419002425
:1054B000B41900241C0000240C000024000000008B
:1054C00000405344FFFF7F7F70B5474C2DED028BAA
:1054D00094ED098A82B018EE100AFDF7F1FD064638
:1054E00000287CD007F0D6FED4F884300546C31AD5
:1054F000C72B74D9C4F884003C493D4807F0CDFB64
:105500003C4B197809B13C4B19880A22384807F0FE
:1055100038FC3A49364807F0C0FB0A22294634488D
:1055200007F045FC3649324807F0B7FB0A222189CB
:1055300003242F4807F025FC32492D4807F0ADFB26
:10554000B7EEC87A00942A4853EC172B07F0E4FC16
:105550002D49274807F0A1FBFBF774FC07EE900AE2
:105560000094B7EEE77A224853EC172B07F0D4FCEF
:1055700026491F4807F091FB254B1D48D3ED007AC3
:10558000244BF8EEE77AD3ED006A009487EEA67A12
:10559000B7EEC77A53EC172B07F0BEFC1E49144830
:1055A00007F07BFBFBF74EFC07EE900A009438EE09
:1055B000678A0F48B7EEC87A53EC172B07F0ACFC9C
:1055C00016490B4807F069FB154B0948D3ED007AE3
:1055D0000094B7EEE77A53EC172B07F09FFC3046A8
:1055E00002B0BDEC028B70BDB41900248A5E0708BE
:1055F000C4330024241C0024221C0024DA61070880
:10560000BD5907085B420708F4590708115A0708F3
:10561000141B0024541B0024265A0708305A07087C
:10562000781C00242E4B70B5DE7B04462D4B1D7874
:10563000AE421CD12C4B1A78072A0AD12B4B93F976
:105640000030002B05DBFBF781FF10B1FBF786FF75
:1056500020B9274B0121082A197002D0254B1B784D
:105660002BB125490420BDE87040FEF709BA07F0C8
:1056700011FE224B1B68C01A214B984202D92149C6
:105680000320F0E7AE4205D1194B1B7813B1FBF7AD
:1056900075FF08B944B170BD1B491C4807F014FBE5
:1056A000BDE87040FEF7A8BD194B1A78002AF2D069
:1056B000184A1278002AEED01C700120164B1A7876
:1056C000072A4FF007020CBF144914461A7008BF8E
:1056D0000C78FCF7E9FE2046BDE87040FEF718B8EC
:1056E000301B0024181C0024501A00245F1A0024C8
:1056F0006C1A0024481A00245B650708701A0024FD
:1057000080A903007665070890650708C433002464
:10571000551A002444190024180000241B000024FA
:1057200070B50446FEF7CCFA164B1B780C2B28D02C
:10573000154E32781A2A03D1BDE87040FEF75CBDE1
:10574000FCB9124B1A78E2B1114A1278CAB11C7036
:10575000104C2278072A0ABF0F4B07251D78FBF74C
:105760006DF900230D4A284613700D4A33701370EB
:105770000C4B0D4A1A6007232370BDE87040FDF7FB
:10578000C7BF70BD521A00245D1A0024551A0024A8
:1057900044190024180000241B0000246D19002463
:1057A0006E190024100000244086070810B5044636
:1057B000FBF768F838B3FBF741F91649164807F0CC
:1057C00083FA164B1A8832B115490A800321154A0B
:1057D000117000221A80144B1B78083BDBB20A2B95
:1057E00008D840F2234222FA03F3DB0742BF0F4BF3
:1057F00007221A702146084807F07AFA0120BDE80E
:105800001040FDF785BF0A4B1B78002BD3D1FBF767
:1058100015F9D6E718330708C43300241C1C0024EC
:105820009C1800248C190024521A0024180000240B
:10583000F31A00240C4A08B511780C4B1B7841B1BF
:1058400000210C2B11700DD00948BDE80840FFF76E
:10585000ADBF012B06D90C2B04D0FBF753FE08B9C2
:105860000448F2E708BD00BF6F190024521A002453
:10587000105F0708455F0708034B187803380228B4
:105880008CBF002001207047741C0024064B1B783D
:10589000DA1E012A03D9092B03D1FFF7EDBF01203E
:1058A00070470020704700BF491A002410B5FBF76D
:1058B000C5F800241B4B1C4A1C701C4B1C491C7057
:1058C00000231C4813601C4A13601C4A14701C4AB5
:1058D0000A601C490C701C490A6021461B4A14705E
:1058E0001B4A14701B4A13601B4A136001221B4B96
:1058F0001A70242225F0DCF8194B1A4A1C801A4B26
:105900001C701A4B1C8007231370194A1370FBF785
:10591000F9FD10B10420FCF7C7FD0020BDE81040E0
:10592000FDF7F6BE6D190024501B00246E190024EB
:105930001000002448190024541B00245D1A002480
:1059400040860708491A002414000024741C00240F
:105950006C190024801C00247C1C00241C000024E2
:105960009C180024180000248C1900241C1C0024FE
:105970001B00002410B5FFF789FF0446FBF7C2FDAA
:1059800020B90120BDE81040FDF7C2BE0E4A1378D1
:10599000033B022B03D9BDE81040FFF787BF00236C
:1059A0000A4913700A4A11600A4A13700A4B1B789D
:1059B000072B03D0BDE81040FEF79ABB002C14BFA4
:1059C0000B200A20DEE700BF491A002440860708A2
:1059D00014000024561A00241800002407B5314989
:1059E000314807F071F931492F4807F056F9FBF7B4
:1059F000F1F980B1FBF708FA07EE900A02232A4872
:105A0000B7EEE77A009353EC172B07F085FA284995
:105A1000254807F042F9FAF7EDFE0A22014622482E
:105A200007F08DF92349204807F04EF922491E4816
:105A300007F033F9FBF7CEF980B1FBF703FA07EE75
:105A4000900A02231848B7EEE77A009353EC172B1D
:105A500007F062FA1649144807F01FF9FAF7D2FE68
:105A60000A220146104807F06AF912490E4807F069
:105A70002BF912490C4807F010F9FAF7CBFE0A226D
:105A80000146094807F05BF90D49074807F005F999
:105A90000C4B0A220448196803B05DF804EB07F0C8
:105AA0007CB900BF383D0708C4330024514A0708B9
:105AB000543D07085B3D0708CD330708D533070879
:105AC000623D0708941B002437B54D494D484E4DA3
:105AD00007F0FAF84D494B4807F0DFF80A22296829
