:020000040804EE
:100000000000082419D8050865D805085914050802
:100010005F140508651405086B140508000000004E
:100020000000000000000000000000002193040810
:1000300065D8050800000000BB930408CB930408B2
:1000400065D8050865D8050865D8050865D8050888
:1000500065D8050865D8050865D8050865D8050878
:1000600065D8050865D8050865D8050865D8050868
:1000700065D8050865D8050865D8050865D8050858
:1000800065D8050865D8050865D805081DE7050881
:100090002DE7050829E7050839E7050865D80508AB
:1000A00065D8050865D8050865D8050865D8050828
:1000B00065D8050865D8050865D8050865D8050818
:1000C00065D8050865D8050865D8050865D8050808
:1000D00065D8050865D8050865D8050865D80508F8
:1000E00065D8050865D805080000000065D8050832
:1000F00065D8050865D8050865D8050865D80508D8
:1001000065D80508A5D5050865D8050865D805088A
:1001100065D8050865D8050865D8050865D80508B7
:1001200065D8050865D8050865D8050865D80508A7
:1001300065D805085BC2040865D8050865D80508B8
:1001400065D8050865D8050800000000000000001B
:1001500065D8050865D8050865D8050865D8050877
:1001600065D8050865D8050865D8050865D8050867
:1001700065D8050865D8050865D8050800000000A1
:1001800065D8050865D8050865D8050865D8050847
:1001900065D8050865D8050865D8050865D8050837
:1001A00065D8050865D8050865D8050865D8050827
:1001B00065D8050865D8050865D8050865D8050817
:1001C00065D8050865D8050865D8050865D8050807
:1001D00065D8050865D8050865D8050865D80508F7
:1001E00065D8050865D8050865D8050865D80508E7
:1001F00065D8050865D8050865D8050865D80508D7
:1002000065D8050865D8050865D8050865D80508C6
:1002100065D8050865D8050865D8050865D80508B6
:1002200065D8050865D8050865D8050865D80508A6
:1002300065D8050815D8050865D8050865D80508E6
:1002400065D8050865D8050865D8050865D8050886
:1002500065D8050865D8050865D8050865D8050876
:1002600065D8050865D8050865D8050865D8050866
:1002700065D8050865D8050865D8050865D8050856
:1002800065D8050865D8050865D805080000000090
:1002900065D8050865D8050810B5054C237833B92D
:1002A000044B13B10448AFF300800123237010BD49
:1002B0008018002400000000C463070808B5034B41
:1002C0001BB103490348AFF3008008BD00000000E4
:1002D00084180024C4630708154B002B08BF134B78
:1002E0009D46A3F5803A00218B460F461348144AD9
:1002F000121A26F09DF90F4B002B00D098470E4B99
:10030000002B00D098470020002104000D000D486C
:10031000002802D00C4811F059FF25F06DFC200098
:1003200029000BF011FA12F065F900BF0000080077
:100330000000082400000000A5B60408801800246E
:1003400000170124CD2105080000000070470000BF
:10035000094B30B51A46094CD3F89450A542FBD14D
:10036000036829B181680B604FF44073536130BD5D
:10037000C1681B04F7E700BF006402580003008057
:1003800038B5674D674B297849B2002900F0BA802B
:100390001A886549013292B21A801A8809889142F6
:1003A0002FD8624C002262481A80237883F0010320
:1003B00023702178FFF7CCFF237813B35D4B2A78A5
:1003C00019685D4841FA82F21A600178C9B12A7849
:1003D00052B2002A04DD594A19681268914207DABC
:1003E0002A7814060DD5554A19681268914208DC1E
:1003F000524A002112681A60297001704C48FFF7B8
:10040000A7FF4F4D4F4B297849B200297ED01A885B
:100410004D49013292B21A801A88098891422FD828
:100420004A4C00224A481A80237883F00103237043
:100430002178FFF78DFF237813B3464B2A7819688C
:10044000454841FA82F21A600178C9B12A7852B25D
:10045000002A04DD414A19681268914207DA2A78B5
:1004600011060DD53D4A19681268914208DC3B4AD5
:10047000002112681A60297001703548FFF768FF83
:10048000374C384B217849B2002943D01A88364975
:10049000013292B21A801A88098891423ED8334DAF
:1004A000002233481A802B7883F001032B702978BF
:1004B000FFF74EFF2B78002B30D02E4B2278196897
:1004C0002D4841FA82F21A60017839B3227852B28B
:1004D000002A04DD294A19681268914207DA227855
:1004E00012061BD5254A19681268914216DC234A68
:1004F000002112681A60217001701D48BDE8384063
:10050000FFF726BF1980094B197077E719800F4B49
:100510001970B2E71980154B1970EEE738BD00BFAE
:10052000101A00244419002404000024821A002414
:10053000F01F0024741A0024281A0024241A00240E
:10054000111A00244619002406000024831A0024EE
:10055000B81F0024781A0024341A0024301A00240A
:10056000121A00244819002408000024841A0024C8
:10057000801F00247C1A0024401A00243C1A002406
:100580000B6803604B6843608B68836070470C3076
:10059000704708B5FFF7FBFF0023036008BDC36881
:1005A0000BB19B68184770470144002310B588427F
:1005B0000FD010F8014B08225C406300013A24067A
:1005C000DBB248BF83F0070312F0FF021C46F4D1F0
:1005D000EDE7184610BD000072B6024B186862B60F
:1005E000704700BF741A002472B6024B186862B6D6
:1005F000704700BF781A002472B6024B186862B6C2
:10060000704700BF7C1A002472B6024B186062B6B5
:10061000704700BF741A002472B6024B186062B6AD
:10062000704700BF781A002472B6024B186062B699
:10063000704700BF7C1A002472B6024B1878C0B213
:1006400062B67047281A002472B6024B1878C0B2FE
:1006500062B67047341A002472B6024B1878C0B2E2
:1006600062B67047401A002472B60D4B1B78A3B9CE
:100670000C4B1B788BB90C4B1B7873B90B4B1B784D
:1006800003F0FF003BB90A4B1B7803F0FF0013B9DE
:10069000084B1878C0B262B670470120FBE700BF74
:1006A000101A0024111A0024121A0024281A0024F7
:1006B000341A0024401A002410B51C4C0521204691
:1006C00005F092FBB0FA80F0194B08214009187030
:1006D000204605F089FBB0FA80F0164B0421400952
:1006E0001870204605F080FBB0FA80F0124B022112
:1006F00040091870204605F077FBB0FA80F00F4BE8
:10070000012140091870204605F06EFBB0FA80F018
:100710000B4B002140091870204605F065FBB0FA2C
:1007200080F0084B4009187010BD00BF0C1F00245A
:10073000B4190024B5190024B7190024B6190024EF
:10074000B8190024B91900240B4B1B7813B10B4BBB
:100750001B786BB90A4B1B7813B10A4B1B783BB95A
:10076000094B1B7833B1094B187880F001007047B2
:100770000020704701207047B4190024B5190024E7
:10078000B6190024B7190024B9190024B819002497
:10079000084B187868B9084B187850B9074B187887
:1007A00038B9074B187820B9064B187808B9064BAA
:1007B00018787047B4190024B5190024B61900241C
:1007C000B7190024B9190024B819002472B6002101
:1007D000054B1970054B1970054B1980054B1970A5
:1007E00062B60548FFF7B4BD101A0024281A002489
:1007F00044190024821A0024F01F002472B600213C
:10080000054B1970054B1970054B1980054B197074
:1008100062B60548FFF79CBD111A0024341A002463
:1008200046190024831A0024B81F002472B6002140
:10083000054B1970054B1970054B1980054B197044
:1008400062B60548FFF784BD121A0024401A00243E
:1008500048190024841A0024801F002408B5FFF7DB
:10086000B5FFFFF7CBFFBDE80840FFF7DFBF000093
:100870002DE9F0418846054618B9BDE8F041FFF77B
:10088000A5BF72B6144C154E2278154F52B2824253
:1008900007D133782BB93B88994202D162B6BDE8C3
:1008A000F08162B6FFF792FF962008F0FFFB002D63
:1008B0000C48D4BF00210121FFF74AFD0A2008F0AF
:1008C000F5FB72B60023084AA7F800801380074A98
:1008D000137033702570E1E7101A0024281A0024E1
:1008E000040000240C20002444190024821A00244F
:1008F0002DE9F0418846054618B9BDE8F041FFF7FB
:100900007DBF72B6144C154E2278154F52B28242FA
:1009100007D133782BB93B88994202D162B6BDE842
:10092000F08162B6FFF76AFF962008F0BFFB002D4A
:100930000C48D4BF00210121FFF70AFD0A2008F06E
:10094000B5FB72B60023084AA7F800801380074A57
:10095000137033702570E1E7111A0024341A002453
:1009600006000024D41F002446190024831A002402
:100970002DE9F0418846054618B9BDE8F041FFF77A
:1009800055BF72B6144C154E2278154F52B28242A2
:1009900007D133782BB93B88994202D162B6BDE8C2
:1009A000F08162B6FFF742FF962008F07FFB002D32
:1009B0000C48CCBF00210121FFF7CAFC0A2008F037
:1009C00075FB72B60023084AA7F800801380074A17
:1009D000137033702570E1E7121A0024401A0024C6
:1009E000080000249C1F002448190024841A0024B5
:1009F00070B505460E46FFF7EFFDA84203D1BDE8EE
:100A00007040FFF7E3BEACBF4FF0FF340124FFF7A7
:100A1000DDFE962008F04AFB631E0C4859425941FE
:100A2000FFF796FC0A2008F041FB72B6084B012242
:100A30001D60084B1A70084B084A1E800023138063
:100A4000074A1370074B1C7062B670BD0C2000245F
:100A5000241A0024281A0024040000244419002425
:100A6000821A0024101A002470B505460E46FFF7BE
:100A7000BBFDA84203D1BDE87040FFF7BFBEACBFCD
:100A80004FF0FF340124FFF7B9FE962008F00EFB6B
:100A9000631E0C4859425941FFF75AFC0A2008F0DE
:100AA00005FB72B6084B01221D60084B1A70084BFB
:100AB000084A1E8000231380074A1370074B1C70DE
:100AC00062B670BDD41F0024301A0024341A0024EA
:100AD0000600002446190024831A0024111A002459
:100AE00070B505460E46FFF787FDA84203D1BDE865
:100AF0007040FFF79BBEACBF4FF0FF340124FFF7FF
:100B000095FE962008F0D2FA14F1FF310C4818BF78
:100B10000121FFF71DFC0A2008F0C8FA72B6094B44
:100B200001221D60084B1A70084B094A1E800023E1
:100B30001380084A1370084B1C7062B670BD00BF6A
:100B40009C1F00243C1A0024401A002408000024A2
:100B500048190024841A0024121A002410B51C4CD1
:100B6000227852B2002A04DD1A4B1B780BB1FFF732
:100B70002DFE2378190604D5174B1B780BB1FFF710
:100B800025FE164C227852B2002A04DD144B1B7845
:100B90000BB1FFF733FE23781A0604D5114B1B78EF
:100BA0000BB1FFF72BFE104C227852B2002A04DD65
:100BB0000E4B1B780BB1FFF739FE23781B0606D5C9
:100BC0000B4B1B781BB1BDE81040FFF72FBE10BDCB
:100BD000101A0024B4190024B5190024111A002495
:100BE000B6190024B7190024121A0024B9190024D8
:100BF000B81900240A4BD3ED007AF5EEC07AF1EE75
:100C000010FA0ADD074BD3ED007AF5EEC07AF1EE6B
:100C100010FACCBF0120002070470020704700BFB1
:100C20006C1A0024701A00240C4AD2ED007AF5EEFA
:100C3000C07A08B5F1EE10FA0CDDFFF7CDFC07EE37
:100C4000900A92ED007AF8EEE76AC6EE877A17EE20
:100C5000900A08BDDFED027AF9E700BF6C1A0024A4
:100C6000000000000C4AD2ED007AF5EEC07A08B51B
:100C7000F1EE10FA0CDDFFF7B7FC07EE900A92EDEB
:100C8000007AF8EEE76AC6EE877A17EE900A08BD9A
:100C9000DFED027AF9E700BF701A002400000000BF
:100CA0000A4BD3ED006AF5EEC06AF1EE10FAC9BF47
:100CB000074B9FED087AD3ED007AF8EEE77AC8BFCC
:100CC00087EEA67A17EE100A704700BF6C1A002450
:100CD000881A0024000000000A4BD3ED006AF5EEEC
:100CE000C06AF1EE10FAC9BF074B9FED087AD3ED49
:100CF000007AF8EEE77AC8BF87EEA67A17EE100AF8
:100D0000704700BF701A00248C1A002400000000F5
:100D1000034B1868022390FBF3F3C01A704700BF1F
:100D2000881A0024034B1868022390FBF3F3C01ABF
:100D3000704700BF8C1A0024034B1868022390FBF5
:100D4000F3F3C01A704700BF901A002408B50B4B8C
:100D50000246187878B10A4B1B68002B0CDD022183
:100D600093FBF1F35B42934206DCFFF7E5FF82421F
:100D7000CCBF0020012008BD0020FCE72A19002478
:100D8000901A0024254B37B51A68254D002A254CAA
:100D900003DD254B1B68002B09DC00232349244875
:100DA0002B60236007F07CFE002003B030BD07EE0F
:100DB000902ADFED206A2049F8EEE77A1C4887EE9A
:100DC000A67A07EE903ADFED1D6AF8EEE77A85ED38
:100DD000007A87EEA67A84ED007A07F04AFED5ED18
:100DE000007A06251248B7EEE77A009553EC172BE8
:100DF00007F07EFF12490E4807F03BFED4ED007A63
:100E00000095B7EEE77A0A4853EC172B07F070FF0E
:100E10000C49074807F044FE0120C6E7881A002461
:100E20006C1A0024701A00248C1A002442F7060859
:100E30004C3200240000DF4375F706080000A84389
:100E400085F7060893F706082DE9F0432DED028B90
:100E500008EE900ADFED497A83B008EE101AF0EE42
:100E6000E86A07EE102A1F460C9DF4EE676AF1EE61
:100E700010FA0DD8F0EEC86AF4EE676AF1EE10FAD7
:100E800006D8B0EEC77AB4EE677AF1EE10FA04D95C
:100E90003B493C4807F004FE66E03B4B1B78002BC7
:100EA00069D0FFF7A7FE0446002864D0374EDFF86C
:100EB000F480D6ED007A68EEA77A17EE900A23F058
:100EC000CBFED8ED007A386068EE277A17EE900AEC
:100ED00023F0C2FED6ED007A286077EEA77A17EEEF
:100EE000900A23F0B9FED8ED007A06464FF00208CA
:100EF00077EEA77A17EE900A23F0AEFE244B014658
:100F00001A6892FBF8F2B21AFFF702FF8146FFF768
:100F100009FF3B689A420EDCA9EB06069E420ADBFB
:100F20001C4B2A681B6893FBF8F3CB1A934202DC34
:100F3000401A904219DA18490224124807F099FD24
:100F4000B7EEE87A00940F4853EC172B07F0D0FE69
:100F500012490C4807F08DFDB7EEC87A0094094895
:100F600053EC172B07F0C6FE0024204603B0BDEC5F
:100F7000028BBDE8F0830A498BE700BFFFFF7F7F4C
:100F8000430207084C320024291900246C1A00245B
:100F9000881A00248C1A00246A02070801EC06084B
:100FA00093020708701A002406EE900A9FED187A43
:100FB00006EE101AF0EEE67AF4EE477AF1EE10FA49
:100FC00001D900207047F0EEC67AF4EE477AF1EED0
:100FD00010FAF6D8DFED0F7A77EEE66A77EEC67A8A
:100FE000C2ED006AC3ED007AD2ED006AF0EEE66A67
:100FF000F4EE476AF1EE10FAE3D8F0EEE77AF4EE99
:10100000477AF1EE10FA94BF01200020704700BF2C
:10101000FFFF7F7F0000000008B50F4B1B780BB966
:10102000002008BD0D4B1B78002BF9D0FFF7D4FA38
:101030000028F5D1FFF7D8FA0028F1D1FFF7DCFA44
:101040000028EDD1FFF710FB0028E9D1044B1878F8
:1010500080F00100E5E700BF291900242A190024C7
:10106000131A00242DE9F0412DED048B84B01F46A6
:10107000002509EE100A03AB08EE901A08EE102ABC
:10108000009302ABCDE90255FFF7DEFE06460028CD
:1010900063D0FFF7E3FB364A029982ED009A354AA6
:1010A000354BC2ED008A354A98461D7082ED008AA4
:1010B000334A344B1160344A0399344C116034493B
:1010C0003448022F18BF1946257007F0D2FCB7EE3E
:1010D000C97A02252F4853EC172B009507F008FE1C
:1010E0002D492C4807F0C5FCB7EEE87A0095294851
:1010F00053EC172B07F0FCFD2849264807F0B9FCF4
:10110000B7EEC87A0095234853EC172B07F0F0FD93
:101110002349204807F0C4FC01210298FFF768FC2E
:1011200001210398FFF7A0FCFFF786FA10B9FFF73B
:101130008BFAC0B101233846237088F8000007F00D
:1011400095FF184B186023787BB91749174B114846
:10115000022F18BF194607F0A3FC304604B0BDECBF
:10116000048BBDE8F0812070E7E71E46F5E700BF7D
:101170002C1A0024381A0024801A0024441A00244F
:101180001C1A0024A0EB0608201A0024131A0024BD
:101190008DEB06084C320024FDEB060805EC060832
:1011A0000DEC06089C190024B2EB0608D8EB0608E3
:1011B000F8B5104C05460F462678FFF74FFB002385
:1011C0000D4A237013700FB10C4A1370022E07D111
:1011D0000B4B1B8823B10B4A138003220A4B1A7056
:1011E0000A490B4807F045FC29460948BDE8F84084
:1011F00007F06ABC801A0024131A0024291900245D
:10120000A41A00249C1800242E190024C5030708E2
:101210004C320024044B1B781B2B9ABF034A52F814
:1012200023000348704700BF8119002450EA0608D4
:1012300031F00608094B10B5094C187007F016FF7D
:10124000084B09491860204607F013FCFFF7E2FF3E
:1012500001462046BDE8104007F036BC8119002445
:101260004C3200249819002405F2060808B5FFF74F
:10127000F5FA0023104A11491370114A11481370EE
:10128000114A1370114A137000220A6010490A6053
:10129000104A11491360114A1360114A1360114A30
:1012A0001370114B114A1A6007F0FAFB0120BDE8D8
:1012B0000840FFF7BFBF00BF131A00246C1A0024B8
:1012C000801A00244C320024291900242A190024F1
:1012D000701A0024881A002487F406088C1A002447
:1012E000901A00248819002410000024A024070864
:1012F000034B1B780E2B9ABF024AD05C0A20704722
:1013000076190024C0EA0608034B1B780C2B9ABF01
:10131000024AD05C0820704765190024CFEA06080D
:1013200008B50D4B1B780BB9002008BD0B4B1B7883
:10133000002BF9D007F09AFE094B1B68C01A9628BB
:10134000F2D807F093FE074B1B68C01A96288CBF93
:1013500000200120E9E700BF7A190024A81A002420
:10136000E41A0024CC1A0024024B987900F0010002
:10137000704700BF491A0024024B1878C0F3C00020
:10138000704700BF82190024024B1878C0F3001088
:10139000704700BF82190024024B1878C0F3401038
:1013A000704700BF82190024024B1878C0F38010E8
:1013B000704700BF8219002408B5FFF7DDFF98B120
:1013C000FFF7E2FF80B1FFF7E7FF68B1084B1B783A
:1013D000072B0AD1074B93F90030002B05DB064B96
:1013E0001878B0FA80F0400908BD0020FCE700BF83
:1013F0007419002482190024641900242DE9F04F87
:101400002DED028B87B007F031FEAC4A054613681C
:101410009046C41A092C40F21981002BC8F800002C
:10142000A74808BF0A2404F0C2FB0746A44804F0FA
:10143000C1FB0646A24804F0B7FBA24BA24A1860C3
:101440000120A2491070A2480B68D0ED006AFB1A77
:10145000F5EEC06AF1EE10FA0ADDF0EEE67A9FEDE5
:101460009D7AF4EE477AF1EE10FA9CBF03201070DB
:101470009948DFF8B0C2D0F800E08146BEF1000F15
:1014800000F0E980107840F0040A82F800A0002BF8
:1014900040F0EA80A5EB0E05B5F5FA7F00F2DE809C
:1014A000DCED007A40F00C03F5EEC07A1370F1EE3B
:1014B00010FA46DD40F01C00107042E0F0EE467A73
:1014C00030E007EE903A9FED855A07EE104A844BC4
:1014D000F8EEE77AB8EE477A93F9003027EE856A9E
:1014E00066EEA77AC6EE075A06EE103AB8EEC66A5E
:1014F00066EE277A67EE857A87EE876A794BC3EDC9
:10150000005AD8F80030AB4202D1BEF1000FD5D05E
:10151000DFED757ADCED006A66EE277A9FED737A6F
:10152000E6EE877AB5EEC06A1378CCED007AC9F89A
:101530000050F1EE10FAD4BF43F00C0343F01C034B
:1015400013706B4B6B4A1F606B4B0F601E601388F0
:1015500001331380694B1A689846B24276D0684BC3
:10156000684A19789946DFF8C0B1DFF8C0A10029B0
:1015700035D01368F31A32D0DBF80040002BA7EB0C
:101580000404B8BF5B422046E11708EE103A002879
:1015900071F10003CDE9020104DA434261EB410439
:1015A000CDE90234DDE90201059222F0B9F9B8EE85
:1015B000487A07EE900A544918EE102AC7EE877A47
:1015C0000B681344059A0B60504BDDE90245D3E9E3
:1015D000000124184D41C3E90045CAED007A0123FA
:1015E0004B494C4889F800301660CBF8007007F082
:1015F00040FA0A223146474807F0AFFA46494548C3
:1016000007F037FA0A223946424807F084FADAED41
:10161000007AF5EEC07AF1EE10FA12DD3F493D484E
:1016200007F027FADAED007A02233A48B7EEE77AB4
:10163000009353EC172B07F05BFB3949354807F053
:1016400018FA344807F026FAC8F8006007B0BDEC75
:10165000028BBDE8F08F002B7FF433AF0023214ACB
:10166000CCF8003013606CE707EE903A1C4BDFEDCE
:101670001B5A07EE104A93F90030F8EEE77AB8EEFD
:10168000477A06EE103A174B66EEA76AB8EEC66ABE
:1016900067EEA57A66EE266A66EEA56AC7EE875AF9
:1016A000DFED117A86EE876A93ED007A65EEA75A30
:1016B000DFED0E7AE7EE275A20E700BFC41A0024B8
:1016C00080200024D81A002475190024D41A00247C
:1016D0000C000024FFFF7F7FE81A002400007A44FA
:1016E0001A00002484190024CDCC4C3ECDCC4C3FB4
:1016F00038190024A21A00249C1A0024DC1A0024A1
:10170000941A00248C190024A419002450190024D0
:10171000E6F106084C320024DCF40608FCF1060869
:1017200058EF0608F81A00243C190024C01A0024B7
:101730000E4B1878C0B10E4BD3ED007AF5EEC07A9F
:10174000F1EE10FA0FDD0B4BD3ED007AF5EEC07A17
:10175000F1EE10FA07DD084B187800F02300C31EE5
:101760005842584170470020704700BF2819002494
:10177000001B00240C0000247519002438B50C4C03
:101780000546207007F072FC606007F06FFC094BA3
:10179000A0601B680849C4E90333084C204607F0E1
:1017A00068F9294620460A22BDE8384007F0FAB910
:1017B0000019002438190024B10307084C32002412
:1017C00038B500220D4B0E4C05461A7000230D4A09
:1017D00013600D4A13600D4B58620520FFF7CEFFD2
:1017E0000B49204607F045F92946204607F06CF9D9
:1017F00020460849BDE8384007F052B928190024AE
:101800004C320024001B0024FC1A00240019002480
:101810009DF70608B0F7060837B5254C28220021A9
:101820000125204624F004FF07F020FC606007F04B
:101830001DFC204B0022A0601B681F49C4E9033334
:101840004FF0FF43A3611D4B63621D4B1D4C1A708B
:1018500000231D4A204613601C4A13601C4B1D7058
:1018600007F01EF91B49204607F01AF91A492046CD
:1018700007F0FFF80022194B2046009507F038FAD0
:101880001749204607F0F5F8164B2046D3ED007AAD
:101890000923B7EEE77A009353EC172B07F028FAE9
:1018A0001149204603B0BDE8304007F0F9B800BF49
:1018B0000019002438190024DFFC0608A0240708BA
:1018C000281900244C320024001B0024FC1A002498
:1018D0001A0000241AFD06085EFD060800002E40CE
:1018E0007BFD06080C0000248DFD0608044B1878CB
:1018F00000F01800A0F1180358425841704700BF8B
:101900007519002410B5C3790133DBB2022B22D83C
:10191000037A0133DBB2022B1DD8427A0132D2B2F4
:10192000022A8CBF00220122C37A817AB42B14D8F8
:10193000037BB42B8CBF00230123447BC07C72B19A
:1019400011F0F8010BD123B1082C0AD8B0FA80F3BA
:101950005B09184610BD0022E6E70023EDE70023EF
:10196000F7E70B46F5E7000038B5264B1C78264B09
:101970001B780BB144F00204FFF74EFB08B144F0B2
:101980000404224D2B7803F0FB03092B08BF44F01D
:101990000804FEF769FE78B91D4B1B7863B91D4B2F
:1019A0001B78013B182B07D92B780D2B06D11A4B2E
:1019B0001B781BB1072B01D044F010042B78174A79
:1019C0000C2B127808BF44F020041AB10C2B18BF5E
:1019D00044F04004FFF7A4FC88B12B780C2B0ED008
:1019E000043BDBB2092B05D840F2712222FA03F343
:1019F000DB0702D4064B1B780BB144F08004204671
:101A000038BD00BF291900242A19002476190024A2
:101A1000131A002481190024A01800242C19002472
:101A200008B5114B1A78114B1B780BB142F002022A
:101A30000F4B1B780BB142F004020E4B1B780BB11D
:101A400042F008020C4B1B780BB142F010020B4B1A
:101A50001B780BB142F02002FEF776FE08B142F08F
:101A60004002104608BD00BFB4190024B519002477
:101A7000B6190024B7190024B9190024B819002494
:101A800010B520220021044624F0D2FDFFF730FCDF
:101A9000554BE0701B782371544B1B780D2B7CD178
:101AA000534B1B786371FFF75FFFA071FFF7B8FF1F
:101AB000E07172B64F4B504A1B7850495BB21278B6
:101AC0000878002B52B240B26CDC6DD1002A59B2BA
:101AD0006CDC6DD11346002841EA83026ADC6BD1CD
:101AE000034642EA0313237262B6FFF70DFC444B30
:101AF00060721B78A372434B1B78E372424B1B88C6
:101B0000A381424B1B78A373414B1B68C4F80F3071
:101B1000404B93ED007A9FED2E6BB7EEC77A27EE20
:101B2000067B9FED2D6BB4EEC67BF1EE10FA45D42B
:101B30009FED2B6BB4EEC67BF1EE10FA41DCFDEEAF
:101B4000C77B17EE903AC4F81330334BD3ED007ACD
:101B5000F5EEC07AF1EE10FA36DD9FED307A67EEE1
:101B6000877A17EE900A23F077F82D4B1F21C4F8DF
:101B7000170020461B88A4F81B302A4B1B7863777C
:101B8000294B1B78A377A723237005236370202399
:101B9000A370FEF709FDE07710BD0E2B0CBF234BA1
:101BA000234B7EE7012391E702238FE7012392E78E
:101BB000022390E7012394E7022392E74FF00043CA
:101BC000C1E76FF00043BEE70020CEE7AFF300802F
:101BD0000000000080842E41000000000000E0C1F1
:101BE0000000C0FFFFFFDF41481A002476190024DF
:101BF000A0180024101A0024111A0024121A00241C
:101C00002F190024A01A00249C1800242E19002447
:101C100038190024F81A00240C0000240024744908
:101C2000A21A0024751900241A00002400190024A7
:101C30008119002473B504460E469448944906F071
:101C400018FF07F013FA0A220146904806F09BFF9E
:101C500090498E4806F00DFF8F4B197809B18F4BD4
:101C600019880A22894806F078FF8D49874806F0CE
:101C700000FF214685488B4C06F004FF8A498348C3
:101C800006F0F7FEE18909B9884B19880A227F48D6
:101C900006F063FF86497D4806F0EBFE854B0A227D
:101CA0007A48198806F059FF8349784806F0E1FE22
:101CB000824B0A227548196806F02DFF8049734847
:101CC00006F0D7FEE389002B00F0DD80E1690A22EF
:101CD0006E4806F020FF7B496C4806F0CAFE0A22D7
:101CE00021786A4806F05CFF7749684806F0C1FE33
:101CF000217C09B9754B19780A22644806F050FF17
:101D000073496248032506F0B4FEFEF78DFF07EE27
:101D1000900A0095B7EEE77A5C4853EC172B06F073
:101D2000E7FF6C49594806F0A4FEFEF79BFF07EE5B
:101D3000900A0095B7EEE77A544853EC172B06F05B
:101D4000D7FF6549514806F094FEFEF755FC0A227C
:101D500001464E4806F0DFFE60494C4806F089FE19
:101D6000D4ED087A4948B7EEE77A009553EC172B83
:101D700006F0BEFF5A49454806F07BFED4ED097ACD
:101D80004248B7EEE77A009553EC172B06F0B0FF08
:101D900054493E4806F06DFED4ED157A3B48B7EE47
:101DA000E77A009553EC172B06F0A2FF4E4937480F
:101DB00006F05FFED4ED147A3448B7EEE77A00956A
:101DC00053EC172B06F094FF4849304806F051FEBB
:101DD000474B2E48D3ED007A0095B7EEE77A53ECE7
:101DE000172B06F085FF4349284806F042FE424B78
:101DF0000A222648197849B206F0AFFE3F49234827
:101E000006F037FE3E4B0A222048197849B206F008
:101E1000A4FE3C491D4806F02CFE3B4B0A221B4801
:101E2000197849B206F099FE3849184806F021FEA3
:101E3000374B0A221548198806F08FFE354913489A
:101E400006F017FE344B0A221048197806F0A8FE57
:101E500032490E4806F00DFE314B0A220B48197824
:101E600006F09EFE4EB133783BB12E49074806F08E
:101E700000FE3146054806F005FE044802B0BDE804
:101E8000704006F007BE284B196820E74C3200244A
:101E900098FD0608A4FD0608AC1A0024AA1A00241E
:101EA000AEFD0608A0180024B6FD0608A61A0024F8
:101EB000BCFD0608A21A0024C5FD06083819002436
:101EC000CBFD0608D5FD0608DDFD06082D1900240A
:101ED000E5FD0608EDFD0608F5FD0608FFFD060810
:101EE0000AFE060815FE06081FFE060829FE06085B
:101EF000F81A00242FFE0608101A002437FE0608E0
:101F0000111A00243FFE0608121A002447FE060894
:101F10009C1800244DFE06082E19002458FE0608C1
:101F20006519002460FE060840190024774A2DE94F
:101F3000F041137804468188754D88B2754E764F0E
:101F4000002B40F0B3802980012174481170744A3D
:101F500074491380744A33701370744A138006F006
:101F600088FD0A2229886D4806F0F9FD3278E37869
:101F700012B13A789A4206D03B700123337007F0D1
:101F800075F86B4B186023466A4A04F1200153F838
:101F9000040B8B4242F8040BF9D1E279664B674D92
:101FA0001A70227A664B674F1A70627A664B674ED8
:101FB0001A70A379664AC3F34003DFF808821370EE
:101FC000E27A644B1A70227B634B1A70A37A03F097
:101FD0000102C3F38001C3F340032A7039703370E8
:101FE0006AB198F8003053B95C4B01221A705C4B0F
:101FF0001B780D2B03D15B495B48FFF71BFE38783C
:102000005A4920B10B7813B9594B01221A70327812
:10201000584B22B11E7816B9574E012737701A70E7
:10202000627B564B08701A70A27B554B2D781A7044
:10203000A279544B88F800501A70A37C228A1B04A2
:1020400003F470231343504A03F01F011170C3F3CC
:1020500044115170C3F38421DB0B9170D370227D46
:102060004A4B1A70A27D637D43EA0223484A1380DB
:10207000227EE37D43EA0223464A1380A27E637EEA
:1020800043EA0223444A1380444BD4F81B201A60CD
:102090000123434A1370434A137006F0E7FF424B93
:1020A00000221860414B1A70BDE8F0812B888342F2
:1020B0003FF45CAF3E49194806F0DBFC0A22298850
:1020C000164806F04AFD3B49144806F0D2FC0A22A5
:1020D000A188124806F043FD62792379012143EA81
:1020E0000223354A2B80002311700D4A3370138070
:1020F0000D4A13700D4A1380304B1B781BB13048CA
:10210000FFF756F832E7E37836E700BFAC1A002451
:10211000AA1A0024A81A0024C81A00244C32002449
:102120009C180024F8F306082E190024A41A002491
:10213000CC1A0024491A0024A8190024FC180024F1
:10214000A9190024F8180024AA190024FA18002458
:10215000FE18002419000024180000247919002416
:102160007619002444F4060856F40608F9180024E9
:1021700077190024FB18002478190024741900240E
:102180006419002482190024141A00242D19002433
:10219000181A00241A1A0024A61A00244019002430
:1021A0007A190024811A0024E41A002480190024DA
:1021B00014F406087CF406082B190024131A0024D2
:1021C00032F40608FD18002401460148FFF732BD2D
:1021D000F4F3060808B5094B1B780D2B0DD106F05A
:1021E00045FF074A1368C31A312B06D91060054909
:1021F0000548BDE80840FFF71DBD08BD761900245D
:10220000E01A0024A0240708E103070838B5104CA1
:102210000022104D2378287001330F490F4813F026
:10222000FF0308BF012323700D4B1A7006F021FC39
:102230000A222978094806F0B3FC0A49074806F043
:1022400018FC21780A220548BDE8384006F0AABCEF
:10225000A01A00242F1900245FF406084C32002431
:1022600090190024E302070808B5FFF759F8002881
:1022700052D0364B1B78002B50D0FFF775F8002852
:102280004CD0FFF779F800284AD0314B1B78072B48
:1022900046D1304B1B78002B42D1FFF775F8002850
:1022A00040D0FFF779F800283ED02B4B1B78002B4D
:1022B0003CD0FEF79FFC002838D0284B1B78002B21
:1022C00036D0FEF7A9FE002834D0FEF7CDF900285D
:1022D00032D1234B1B787BBB224B1B7873B3224B31
:1022E0001B786BB3214BD3ED007AF5EEC07AF1EE9B
:1022F00010FA25D91E4B1B781B2B23D01D4B1B68B6
:102300001B78FBB9FEF720FAF0B1FEF741FA00287E
:1023100014BF0D20002008BD0120FCE70220FAE7D1
:102320000320F8E70420F6E70520F4E70620F2E7AB
:102330000720F0E70820EEE70920ECE70A20EAE7AB
:102340000B20E8E70C20E6E70D20E4E7811A0024E3
:102350007419002464190024291900242A1900245E
:10236000131A0024FE18002428190024001B00243E
:10237000811900241000002438B5144B02220546B0
:102380000C461880124B13491A700022124B134846
:102390001A8006F06EFB0A222946104806F0DDFB83
:1023A0000F490E4806F065FB21460C4806F08CFBF1
:1023B0000C4B1B780D2B08D121460B48FFF73AFC3C
:1023C0000A48BDE83840FFF7FFBE38BD9C1800241E
:1023D0002E190024B3020708A41A00244C3200244A
:1023E000EF02070876190024F8020708FF02070821
:1023F00038B50E4D0446287006F038FE002368609C
:102400000B490C48AB6006F034FB082C094896BF1A
:10241000094B0A4C53F82440214606F055FB21464F
:102420000748BDE83840FFF705BC00BFA0180024EE
:102430006EF406084C32002414EB060831F006084E
:1024400081F4060810B5094C58220021204624F0DA
:10245000EFF806F00BFE6060FEF704FC044BA06290
:102460001B68E36206F002FE206310BDA018002482
:102470003819002470B5334E04463578854239D07A
:102480000D2D05D10D2803D02F493048FFF7D2FB81
:10249000347006F0EBFD2E4B2E4918602E4B2F4862
:1024A0001A782F4B1A7006F0E4FAFEF721FF0A2281
:1024B00001462A4806F076FB0E2C17D8DFE804F018
:1024C00026262608122626262626120B262E1B0036
:1024D000244B00221A70FEF7C1F90220BDE87040BB
:1024E000FFF794BEFEF7BAF9FEF7C0FE0D2D01D03E
:1024F0000D2C1ED070BDFEF7B1F900231A4A1370DF
:102500001A4ABDE870401370FFF786B9FEF7A6F9C6
:102510000023154A1370154A1370E7E7FEF79EF97A
:102520000023114A1370114A1370FFF78BFF0D2D12
:10253000E0D00F4B00220F490F481A60BDE87040F1
:10254000FFF778BB761900242CEC060844EC06084B
:102550009419002450EC0608A91900244C320024D8
:1025600058190024041B0024131A0024801A002484
:10257000E01A00246AEC060882EC0608F0B52DED9E
:10258000028B83B0FEF76AF9C04B1B785BB9C04978
:10259000C04806F085FA052003B0BDEC028BBDE80B
:1025A000F040FFF767BFBC4C06F060FD2378052BB9
:1025B00000F2C281DFE813F0060021004A00590151
:1025C000C001B401B54B1A78002A00F0B581002291
:1025D0001A70B34B1B781A0708D4B249AD4803B040
:1025E000BDEC028BBDE8F04006F05ABAAE4B0120BC
:1025F0006362FFF7C3F8AD49F0E76368C01AB0F54E
:10260000FA6FC0F09981AA4BE2681B689B1A03F12C
:102610001302262A07D8A74803B0BDEC028BBDE8F9
:10262000F040FFF7CDB800224FF0FF410220934267
:10263000E2612284CCBF01234FF0FF33C4E90521BE
:1026400084F82230FFF79AF89B49C7E7A268821AFC
:10265000C72A15D9964B19682369CB1A002B28DC99
:1026600005D04FF0FF3594F92260AE4223D094F8A4
:102670002130FF2B02D0013384F82130A06021618A
:102680006368C01A41F28733984240F25581884B03
:102690001A68E368D31A03F16301C62907D994F8CD
:1026A0002010132903D994F82110012933D9834824
:1026B000B2E70125D7E707EE903A9FED817A94F8CB
:1026C0002030F8EEE77AF0EEE77A67EE877A07EEE9
:1026D000102AB8EE477AC7EE876AD4ED057A77EE0E
:1026E000A67AC4ED057AD4ED067AF4EEE76AD4ED65
:1026F000077AF1EE10FAF4EEE76A48BFC4ED066A15
:10270000F1EE10FAC8BFC4ED076AFF2B1CBF0133FE
:1027100084F82030B2E707EE903AB8EEE77ADFEDC2
:10272000687AB0EEC77A27EE277A07EE900AF8EEBD
:10273000677A87EE278ADFED637AB4EE678AF1EE77
:1027400010FA00F29080B5EEC08AF1EE10FA40F275
:102750008A80DFED5D7A94ED067A68EE277AF4EEF2
:10276000C77AF1EE10FA7EDCDFED587A94ED077A45
:1027700068EE277AF4EEC77AF1EE10FA73D4002BE4
:10278000534D5449CCBF01234FF0FF33524E2B70B1
:10279000524B534FD3ED007A00233E4868EE277A20
:1027A0000B605049C6ED007A77EEA77A0B604E4B6E
:1027B0004E49C7ED007A1A6006F05BF9D6ED007A53
:1027C00002263448B7EEE77A009653EC172B06F052
:1027D0008FFA47492F4806F04CF9D7ED007A2D487B
:1027E000B7EEE77A009653EC172B06F081FA4149D1
:1027F000284806F03EF90A2295F9001001252548DF
:1028000006F0ADF93C49234806F033F9D4ED067AD9
:102810000095B7EEE77A1F4853EC172B06F068FADD
:102820002F211C4806F032F9B7EEC87A00951948F6
:1028300053EC172B06F05CFA2F21164806F026F908
:10284000D4ED077A0095B7EEE77A124853EC172BD0
:1028500006F04EFA29490F4806F022F90320FEF748
:102860008DFF2749BAE62748D6E60D4B1B781B0794
:102870004ED4254B012204201A70FEF77FFF234916
:10288000044806F00DF9062086E600BFFE18002475
:102890006AFE06084C32002400190024791900242D
:1028A00075190024A2FE0608A0240708DEFE06080B
:1028B0003819002406FF060830FF06085DFF0608E9
:1028C00000007A44FFFF7F7F6666663FCDCC8C3F79
:1028D0001A000024F81A0024001B00240C00002415
:1028E000FC1A002484190024D41A0024C5FF060809
:1028F000D6FF0608EEFF0608FCFF06081F000708C3
:102900002A00070898FF0608281900244C00070829
:102910006368C01A47F2305398420DD908487BE6E5
:10292000084B1A7842B100221A7003B0BDEC028B3A
:10293000BDE8F040FEF770BF03B0BDEC028BF0BD08
:10294000770007087919002438B5234B1B7833B971
:10295000FDF784FF0520BDE83840FFF78BBD1F4B16
:102960001A782AB100221A70FDF778FF0720F2E7E3
:102970001B4B93F900001B4B002893F900501A4B96
:1029800093F900401FDD194B1B78002B18BF002066
:10299000002D1BDD164B1B78002B18BF0025002CCB
:1029A00017DD144B1B78002B18BF00240121FDF705
:1029B0005FFF28460121FDF79BFF20460121BDE86E
:1029C0003840FDF7D5BFE3D00B4BDDE7E7D00B4B2D
:1029D000E1E7EBD00A4BE5E7FE1800247819002464
:1029E000A8190024A9190024AA190024B419002444
:1029F000B6190024B9190024B5190024B719002408
:102A0000B819002438B50C460546FDF727FF274BBB
:102A100027491A78023A012A1A4602D90B780D2B57
:102A200007D1244B1B8823B1234803800320234B69
:102A300018700023224813700A780370042A01D00A
:102A40000A2A0BD11F490B701F490B701F4B1978B5
:102A50001B291FBF1E490C601B2119701D4B0D2A1D
:102A60001D701D4B1C6003D121461C48FFF7E2F886
:102A700000231B4A0C2013701A4A13701A4A137051
:102A8000FFF7F8FC19491A4805F0F3FF29460A2216
:102A9000174806F085F81749154805F0EAFF214662
:102AA0001348BDE8384006F00FB800BF801A002474
:102AB00076190024A41A00249C1800242E1900243E
:102AC000131A0024291900242A190024811900242A
:102AD00010000024651900241400002477EB060878
:102AE0007919002477190024781900247DEB060851
:102AF0004C3200240F21070870B52B4D2B78002B8A
:102B000051D02A4E33785BB2002B03DD284B1B7863
:102B1000002B41D133781A0603D5264B1B78002BA6
:102B20003AD1254C23785BB2002B03DD234B1B7875
:102B3000002B31D123781B0602D5214B1B785BBBC0
:102B400006F094FA1F4B1B68C01A1F4B984209D914
:102B500001211E48FEF72CFB1D490720BDE87040EF
:102B6000FFF750BFFDF768FDE8B9FDF76DFDD0B97F
:102B70003378C3B923785BB2ABB9164A2B7011789E
:102B80001370154A154B164802290CBF11461946F9
:102B9000BDE8704005F084BF01211248FEF708FB34
:102BA00011490820DAE770BD131A0024101A002416
:102BB000B4190024B5190024111A0024B6190024F0
:102BC000B71900249C19002420BF02004F040708F5
:102BD00057040708801A00241C0407083604070855
:102BE0004C320024700407088C04070838B50446EA
:102BF000FDF734FE00230C4A0C4D1B2013700C4AC9
:102C000013700C4B1C60FEF715FB0B49284605F0B2
:102C100030FF2146284605F057FF21460520BDE834
:102C20003840FFF7EFBE00BF291900244C320024C2
:102C30002A19002410000024A2F70608F8B5A34CB6
:102C40002378002B00F0F1811A3B012B40F2ED813B
:102C500006F00CFA9E4B1B68C01A9E4B984204D992
:102C60009D48BDE8F840FFF7C1BF2378013B182B12
:102C700000F2DB81DFE813F0190027003B0042007F
:102C80004E00560065006C0086009400A500AC0064
:102C9000B800C000CF00D600F000FE000F01160102
:102CA00022014C015B0161017E018C4B1B7833B129
:102CB000FDF78CFD0220BDE8F840FEF7BBBA02210B
:102CC0004FF0FF300FE0854B1B7853B9FDF77EFDC9
:102CD000FDF782FC022100F59670FDF789FE0320C6
:102CE000E9E702210120BDE8F840FDF7C1BDFDF78D
:102CF000A3FC002840F099810420DCE7774B1B7887
:102D000033B1FDF763FD0020FDF77EFC0520D2E71F
:102D10000821D5E7724B1B78002BE2D0FDF756FD5A
:102D20000620C8E76E4B1B78002BC8D1FDF74EFD7F
:102D3000FDF752FC0221A0F59670FDF759FE072021
:102D4000B9E7FDF779FC002840F06F810820B2E771
:102D5000634B1B78A3B1FDF739FD624CFDF73CFCDA
:102D60006328206001DC60487BE76049604805F02B
:102D700080FE0A2221685E4805F0FBFE09209AE7E2
:102D80000821AFE75B4B1B781BB1FDF737FD0A202D
:102D900091E702214FF0FF30BDE8F840FDF7A8BDF4
:102DA000544B1B7853B9FDF729FDFDF71DFC02219B
:102DB00000F59670FDF758FE0B207CE702210120FC
:102DC000EAE7FDF741FC002840F02F810C2072E774
:102DD000484B1B7833B1FDF711FD0020FDF71CFCBB
:102DE0000D2068E70821D5E7434B1B78002BE5D081
:102DF000FDF704FD0E205EE73F4B1B78002BC8D18A
:102E0000FDF7FCFCFDF7F0FB0221A0F59670FDF745
:102E10002BFE0F204FE7FDF717FC002840F005813F
:102E2000102048E7344B1B78A3B1FDF7E7FC334C87
:102E3000FDF7DAFB6328206001DC314811E73149F6
:102E40002B4805F016FE0A222168294805F091FE5C
:102E5000112030E70821B2E72B4B1B781BB1FDF79F
:102E6000E5FC122027E702214FF0FF30BDE8F840D3
:102E7000FDF77EBD244B1B7853B9FDF7D7FCFDF75A
:102E8000BBFB022100F59670FDF72AFE132012E726
:102E900002210120EAE7FDF7DFFB002840F0C580B2
:102EA000142008E7184B1B7833B1FDF7BFFC002056
:102EB000FDF7BAFB1520FEE60821D5E7134B1B787A
:102EC000002BE5D0FDF7B2FC1620F4E681190024B2
:102ED0009819002420BF02000CF20608B51900243E
:102EE000B4190024881A002423F20608E9F706081A
:102EF0004C320024B7190024B61900248C1A00247F
:102F000034F20608F9F70608B8190024B9190024A4
:102F1000464B1B78002BA6D1FDF788FCFDF76CFB18
:102F20000221A0F59670FDF7DBFD1720C3E6FDF743
:102F300093FB002879D11820BDE63C4B1B78BBB130
:102F4000FDF774FC3A4CFDF757FB6328206001DC69
:102F5000384886E63849394805F08BFD0A22216851
:102F6000364805F006FE364B002219201A70A2E6FC
:102F700008218EE7334B02241F68334B1E682C4B0D
:102F80001D682F4B1A7897FBF4F796FBF4F695FB28
:102F9000F4F56AB90122214638461A70FDF728FD7A
:102FA00021463046FDF760FD21462846FDF798FD95
:102FB000FDF742FB002838D1FDF746FB002834D14D
:102FC000FDF74AFB88BB214B1B7873BB204B1B785A
:102FD0005BBB204B1A7852B23ABBFDF7FDFA874231
:102FE00013D1FDF701FB86420FD1FDF705FB8542AA
:102FF0000BD11046FDF708FBFDF70EFBFDF714FBA8
:10300000FDF7C0FE18B914482BE6144829E6012341
:10301000134A1A201370134A1370FEF70BF9124962
:103020000648BDE8F84005F03BBDF8BDB9190024DD
:10303000901A002445F2060809F806084C320024CC
:1030400088190024881A00248C1A0024101A0024DD
:10305000111A0024121A002456F2060874F2060807
:10306000291900242A19002419F806082DE9F0412D
:103070002DED028B86B0FDF7D9FB644B1978644BBC
:1030800061B91B7813B16348FEF792F80520FFF78A
:10309000F1F906B0BDEC028BBDE8F0811A785E4B09
:1030A000197839B10021197012B15C48FEF780F827
:1030B0000720ECE7FEF780F9014640B912B1584805
:1030C000FEF776F857490420FFF79CFCE1E7002A59
:1030D000DFD1FDF7C9FA07460028DAD1FEF764F917
:1030E0000028D6D0DFF87481B8F800304546002BB0
:1030F000CFD04D4C22889A42CBD04C4BB2EE047AC2
:10310000002602AAB3F90030029607EE903A484B27
:10311000F8EEE77AB3F90030C7EE878A07EE903A07
:1031200006AB43F80C6DF8EEE77A87EE878A18EE67
:10313000900A18EE101AFDF737FF28B93D49B8F884
:103140000000FFF719F9A4E705AB32460399009395
:1031500004AB0298CDE90477FDF776FE10B9354946
:103160002888EEE7B8F80030334A23800124138022
:10317000324B334933481C7005F07BFC324B0A223A
:103180003048197805F00CFD30492E4805F071FCE7
:10319000B7EEE87A00942B4853EC172B05F0A8FD06
:1031A0002B49284805F065FCB7EEC87A00942548FD
:1031B00053EC172B05F09CFD2649224805F059FCDD
:1031C000DDED027A0094B7EEE77A1E4853EC172B38
:1031D00005F08EFD1E491B4805F04BFCDDED037A22
:1031E0000094B7EEE77A174853EC172B05F080FDF3
:1031F0001949144805F054FC02230022039902984F
:10320000FDF730FF00287FF444AFA8E7FE18002444
:10321000131A00243FF30608781900245EF3060809
:1032200074F306088FF306089C180024181A00246B
:103230001A1A0024B2F30608A41A00242E19002436
:10324000CAF306084C3200242D190024DEF30608C8
:10325000E8F30608EAF30608151F0708A61A002473
:10326000504B1B7873B52BB9052002B0BDE87040F8
:10327000FFF700B94C4B1B78002B40F09180FDF715
:10328000F3F9002840F08C80484D494E95F9001024
:1032900099B196F9003083B9464C23785B1A1DD456
:1032A000052BA8BF002344494448237005F0E1FBE7
:1032B0000A222178414805F075FC2B78404A33708A
:1032C0001378002B6CD0002313703A4A117804292C
:1032D00065D8DFE801F00507191B1F000423E2E7AA
:1032E0000820C2E7374B1B783BB1374B1B7823B123
:1032F000FEF762F808B10920B7E734492F4802B059
:10330000BDE8704005F0CCBB0A20AEE7304A0B2088
:103310001370AAE72B4B1B7823B32B4B1B780BB3F3
:10332000FEF74AF8F0B1FEF703FAE8B92949234855
:1033300005F09FFB284B2148D3ED007A0923B7EE17
:10334000E77A009353EC172B05F0D2FC23491B4876
:1033500005F08FFB224B10221848197805F022FC4B
:103360002049CBE72049C9E7FDF746F908B11F49D5
:10337000C4E7FDF7EBFC80B11D4B1868022390FBFE
:10338000F3F04042FDF7E2FC38B10D20FFF772F890
:10339000FEF7ACFA20B91749B0E71749AEE713704A
:1033A00002B070BDFE180024131A0024A9190024CD
:1033B00058190024481A00243DF006084C32002415
:1033C00079190024291900242A1900244CF0060830
:1033D000041B0024B3F006080C000024E6F00608E5
:1033E00075190024F0F006087EF0060830F1060892
:1033F000901A0024A3F1060866F1060838B5FDF717
:103400002DFA0023104A1370104A1370104A1380CB
:10341000104B1D7B5C7BFFF715F815B90E4B1B7825
:1034200023B90520BDE83840FFF724B80CB10720C8
:10343000F8E70A490A4805F033FB0A490A48BDE89B
:103440003840FEF7F7BB00BF131A0024801A00248F
:10345000A41A0024A0180024FE180024B3040708AE
:103460004C320024E5040708F9040708F8B50546BE
:103470000F46194816461949194C05F0FAFA29461B
:10348000154805F021FBE3893BB1164A1648138025
:103490000322164B1A70FEF797FE29461448FEF7D2
:1034A000C9FB0025FDF792F9FDF7A8F9114B08209B
:1034B00027731D70104B66731D70FEF799FFFDF7A3
:1034C0009BF818B9BDE8F840FFF798BF28460121DE
:1034D000BDE8F840FDF704BB4C320024EB030708BD
:1034E000A01800249C180024020407082E190024A8
:1034F00015040708131A0024801A002438B5294C33
:10350000DFED296A2DED028B9FED288AD4ED058A27
:1035100078EE688AF0EEE87AF4EE667AF1EE10FA68
:103520003DD8234DE2692B689B1A07EE903A214B58
:1035300093F90030B8EEE77A07EE903A1E4BF8EEBA
:10354000E77A67EE277A94ED067A38EE478A9FEDA0
:103550001B7A38EE478A93ED007AA7EE878AF0EE61
:10356000C87AF4EE667AF1EE10FA18D805F07EFD0E
:103570002B68E26A9A4207D0226B2AB182423CBF92
:1035800084ED0A8AC4E90B300D4B0120C4ED088A92
:103590001B6884ED098A6363BDEC028B38BD002093
:1035A000FAE700BFA0180024FFFF7F7F00000000A3
:1035B000381900241A0000240C0000240040534451
:1035C000F81A0024094B02229FED097A1B6893FB2D
:1035D000F2F35B4207EE903AF8EEE77AF0EEE77A24
:1035E000C7EE877A17EE900A704700BF901A002442
:1035F00000409C4508B50C4BDFED0C6A93ED006A6A
:1036000086FE866AFFF7DEFFF6EE007A07EE100A06
:1036100077EE277AB0EE667AA6EE277A76EEC77A4C
:1036200017EE900A08BD00BFF81A00240000000041
:103630004A4BB3F9003007EE903A494BF0B5F8EE3B
:10364000E77AB3F900700026464D2DED048BB2EEFB
:10365000049A9FED458A85B018EE102A18EE101ACC
:10366000C7EE899A03AB009302ABCDE9026678EE10
:10367000698A18EE900AFDF7E7FB38B93B492888BC
:10368000FEF77AFE05B0BDEC048BF0BD07EE907A34
:10369000374C2B88F8EEE77AC4ED059AE381354B79
:1036A00087EE897AC4ED088A1B7884ED098A237431
:1036B000314B84ED0A8A1B68E361304B1B68E3627F
:1036C00084ED067A05F0D2FC2D4B2E4A1B6884F857
:1036D0003C600126A3632B88206313802A4A2B4970
:1036E00013802B4B2B481E7084ED108A05F0C1F916
:1036F0000A22E189274805F030FA2749254805F0D4
:10370000B8F90A22E169234805F005FA234921485E
:1037100005F0AFF9022300221E480093002305F0B4
:10372000E9FA032318EE102A18EE101A18EE900A80
:10373000FDF798FC30B91A492888FEF71DFEFEF700
:1037400081FE9FE717491848FEF774FA1548FEF7FF
:103750003BFD3046FEF74CFE94E700BF181A0024EC
:103760001A1A0024A61A002400000000A10107086C
:10377000A01800242D190024401900243819002411
:10378000F81A0024A41A00249C180024D101070868
:103790002E1900244C320024F2010708FC0107080E
:1037A000050207082A0207083C02070810B50B4C5F
:1037B0000B49204605F05DF90A4B0A22204619689C
:1037C00005F0E1F90849204605F053F9074B20467A
:1037D0000A221968BDE8104005F0EEB94C32002409
:1037E0000DED0608A019002421ED06087C1900241F
:1037F00038B50446FDF732F8104B114DDA89114BFC
:10380000284611491A800422104B1A700022104BCE
:103810001A8005F02EF92146284605F055F9214673
:103820000C48FEF707FA0C48FEF7CEFCFFF7BEFF88
:103830000720BDE83840FEF7DBBD00BFA01800241C
:103840004C3200249C18002490EC06082E19002409
:10385000A41A00249BEC0608A2EC06082DE9F0410E
:103860009C4C217808292DED028B82B033D19A4AE5
:1038700013785BB2002B02DD984B1B78E3B9137809
:103880001B0602D5964B1B78B3B9FCF7E5FEC0B119
:1038900005F0ECFB6368C01A47F23053984240F2DF
:1038A0005D83FCF7DBFF8F49072002B0BDEC028B84
:1038B000BDE8F041FFF7A6B8FCF7D0FF8A49082021
:1038C000F3E71378002BE3D102B0BDEC028BBDE827
:1038D000F041FFF793BD854B1A7842B90121844826
:1038E00002B0BDEC028BBDE8F041FFF7BFBD814BDC
:1038F000187820B1002101227F481970F0E70429CF
:1039000005D1754B1B781F0644BF754B18787B4F4C
:103910003B785BB2002B03DD794B1B78002B34D155
:103920003B781E0603D5774B1B78002B2DD1764EA6
:1039300033785BB2002B02DD744B1B782BBB3378E2
:103940001D0602D5724B1B78FBB9634D2B785BB219
:10395000002B02DD614B1B78BBB92B781B0603D50E
:103960005F4B1B7803B180B14B1E022B02D98B1F1A
:103970005A425A41FDF720FD58B951B902B0BDEC89
:10398000028BBDE8F041FCF769BFFCF767FF6149B6
:1039900095E7FDF7CDFE30B90029EFD0D2B1024650
:1039A00001465D489CE71AB1FDF7A0FF024670B1E1
:1039B00081B92378072B00F2D182DFE813F01900D8
:1039C0003100640010012901E6010302BF02014633
:1039D000524885E70729ECD005F048FB6368C01A18
:1039E00047F230539842E4D900224D48114677E718
:1039F000FCF734FFFDF7D8FC002800F0AF82494BFC
:103A00001B88002B00F0AA82474A12889A4200F0D5
:103A1000A58202B0BDEC028BBDE8F041FFF708BE05
:103A2000FFF76CFD024610B90146404858E7F1EE39
:103A3000047A94ED097AB4EEE77AF1EE10FA03DD38
:103A400000223B4811464BE73A4B1B78002B40F0D5
:103A50008582FCF7F1FD002840F08082FCF7F4FD40
:103A6000002840F07B823B78002B40F0778233784F
:103A7000002B40F07382022002B0BDEC028BBDE847
:103A8000F041FEF7B5BCFCF7B9FEFFF737FD024683
:103A900010B90146284823E7D4ED095AC4ED145A59
:103AA000FFF7A8FDB1EE047A07EE900A2064F4EE69
:103AB000C75AF1EE10FA03DD0022204811460FE745
:103AC000F4EEE75AF1EE10FA3CDD00221C481146F4
:103AD00006E700BFA0180024121A0024B919002418
:103AE000B819002465F8060846F80608FE180024F0
:103AF0003FF30608781900245EF30608101A002424
:103B0000B4190024B5190024111A0024B619002490
:103B1000B71900248AF80608B1F80608C3F80608A1
:103B2000D6F80608A61A00249C180024E6F8060811
:103B300004F90608131A00243BF906086DF9060873
:103B40008FF90608AB490225AB4804F092FFD4ED8B
:103B5000097AA948B7EEE77A009553EC172B05F0E0
:103B6000C7F8A649A44804F084FFD4ED107AA2480F
:103B70000324B7EEE77A009553EC172B05F0B8F85D
:103B80009F499D4804F075FF9E4B9B48D3ED007AFA
:103B90000095B7EEE77A53EC172B05F0A9F89A4990
:103BA000954804F066FFFFF70DFD07EE900A0094BC
:103BB000B7EEE77A904853EC172B05F099F8934944
:103BC0008D4804F056FF0022914B00948A4805F07E
:103BD00091F890489049FEF72DF820464CE7FCF705
:103BE0000DFE8E4B1D68022395FBF3F56D422846B2
:103BF000FDF7ACF8024610B90146894870E600238B
:103C00002846012184F83C30FCF76AFF042033E7A2
:103C1000844EFCF7F3FD327862B1FCF707FE7F4B70
:103C20001868022390FBF3F04042FCF7FDFC0023F0
:103C300084F83C30FCF710FD002840F08F812B7891
:103C4000002B40F08B81327802BB94F83C30D3B922
:103C500001237549684884F83C3004F021FF73491A
:103C60007348FDF7E7FF6D4B08211868022390FBAE
:103C7000F3F04042A0F5167002B0BDEC028BBDE837
:103C8000F041FCF72DBF11466A4829E694ED086A19
:103C9000FCF7CAFF07EE900A76EE677AC4ED157A54
:103CA000FDF746FD08B1FFF729FC636A0225624E65
:103CB000236505F0DBF93368604AA3640023606480
:103CC00084F84C301370FCF799FDFCF7AFFD5C49AC
:103CD000494804F0CEFEFCF7A7FF07EE900A0095D6
:103CE000B7EEE77A444853EC172B05F001F8554935
:103CF000414804F0BEFEFCF7B5FF07EE900A0095C0
:103D0000B7EEE77A3C4853EC172B04F0F1FF4E492D
:103D1000394804F0AEFED4ED157A3748B7EEE77AAD
:103D2000009553EC172B04F0E3FF4849324804F0A8
:103D3000A0FED4ED147A3048B7EEE77A009553EC44
:103D4000172B04F0D5FF42492B4804F092FE2D4B6F
:103D50002948D3ED007A0095B7EEE77A53EC172B9C
:103D600004F0C6FF3B49244804F083FE0A22316870
:103D7000214804F0D0FE38491F4804F091FE37482E
:103D80003749FDF757FF062076E6FCF737FDFCF7CD
:103D900063FC002840F0E2802B78002B40F0DE80AE
:103DA00094F84C2012B911462E4899E52E4A2F4816
:103DB00013680133136002B0BDEC028BBDE8F04123
:103DC000FFF716BDFCF702FD0026FCF717FDFCF718
:103DD0002DFD1A4B1E70134B1A7812B91146244848
:103DE0007EE5FFF78BFB0246002845D101462148BE
:103DF00076E500BFC3F906084C320024EBF906084B
:103E0000FBF90608F81A002401FA060806FA060863
:103E10000000E03F3DFA060811FA0608901A002457
:103E200045FA0608B819002468FA06089DFA06083B
:103E3000C5FA0608CEFA06083819002479190024B4
:103E400000FB060801EC060829FB060832FB060801
:103E50003BFB0608F201070847FB0608ABFB060818
:103E600077FB0608B7FB06087C190024DFFB060871
:103E7000F0FB06081EFC0608D4ED097AF5EEC07AC0
:103E8000C4ED147AF1EE10FA68D4374A01271368AA
:103E900084F84C703B44136005F0E8F8636C3349D8
:103EA000A0EB0308324B33481D68A36CED1A324B6C
:103EB00093F9003007EE905A08EE103AF8EEE77AE0
:103EC0002E4BB8EEC88A28EE278AD3ED007A28EE6A
:103ED000278A04F0CEFD0A224146264804F053FE0C
:103EE0002749244804F0C5FD0A222946214804F048
:103EF00012FE24491F48032504F0BBFDB7EEC87A23
:103F000000951C4853EC172B04F0F2FE1E4919488B
:103F100004F0AFFDD4ED097A1648B7EEE77A0095C4
:103F200053EC172B04F0E6FE18491948FDF782FE02
:103F300030463946FCF7D4FD05209DE5FCF78EFCA4
:103F400005F094F86368C01AB0F5FA7F06D302B0A2
:103F5000BDEC028BBDE8F041FEF774BA02B0BDECD7
:103F6000028BBDE8F08100BFA01900244DFC0608BB
:103F7000381900244C3200241A0000240C000024BC
:103F80007FFC06088FFC0608A1FC0608BAFC0608A0
:103F9000D7FC0608314B70B5DE7B0446304B1D78EC
:103FA000AE421CD12F4B1A78072A0AD12E4B93F917
:103FB0000030002B05DBFDF7E7F910B1FDF7ECF958
:103FC00020B92A4B0121082A197002D0284B1B78EE
:103FD0002BB128490420BDE87040FEF713BD05F061
:103FE00045F8254B1B68C01A244B984202D9244936
:103FF0000320F0E7AE4205D11C4B1B7813B1FDF74F
:10400000DBF908B9D4B170BD1E491F4804F048FD62
:1040100024B10420BDE87040FEF72CBA1B4A1C4BAB
:1040200011781B7829B1002B14700CBF05200620D5
:10403000F0E7002B0CBF05200720EBE7154B1A78A3
:10404000002AE0D0124A1278002ADCD01C7001202D
:104050000E4B1C70FEF7DAF80720DBE7491A002444
:10406000A01A002474190024821900249019002435
:1040700064190024300507089419002480A903005E
:104080004B050708650507084C320024041B002473
:10409000FE1800247819002438B50446FEF7CEFD3A
:1040A000144B1B780C2B24D0134D2B781A2B0CD1CE
:1040B00024B10520BDE83840FEF7DCB90F4B1B7872
:1040C000002B14BF07200520F4E794B90C4B1A7895
:1040D0007AB10A4A127862B11C70FCF7BFFB094B37
:1040E0000720094A1C70094B2C701C70084B1A6081
:1040F000E0E738BD7619002481190024FE18002459
:104100007819002429190024A02407082A1900245A
:10411000100000241B4A10B511781B4C237881B184
:104120000021022B117004D80120BDE81040FEF7D9
:10413000A1B90C2B24D015490B20BDE81040FEF787
:1041400061BC134A1278092A06D9012B18D90C2B05
:1041500016D010490220F0E7012B11D90C2B0FD0FB
:10416000FDF7DEF860B9FCF779FB2378022B04D168
:1041700009490A4804F094FCD6E709490120DCE724
:1041800010BD00BF2B190024761900241203070864
:1041900080190024460307086A0307084C320024EC
:1041A00095030708034B1878033802288CBF0020BA
:1041B00001207047F41A0024064B1B78DA1E012AEE
:1041C00003D9092B03D1FFF7EDBF01207047002071
:1041D000704700BF6519002410B5FCF73FFB0024B1
:1041E0001B4B1C4A1C701C4B1C491C7000231C4898
:1041F00013601C4A13601C4A14701C4A0A601C4954
:104200000C701C490A6021461B4A14701B4A14702A
:104210001B4A14701B4A13601B4A136001221B4B7C
:104220001A70282222F004FA194B1C80194B1C70BA
:10423000194B1C80194B1C70FDF772F810B104204B
:10424000FDF7E4FF0020BDE81040FEF713B900BF02
:10425000291900246C1A00242A19002410000024B3
:1042600000190024701A002481190024A0240708D2
:104270006519002414000024F41A00242C190024C9
:1042800028190024001B0024FC1A00241A00002412
:104290009C1800242E190024A41A0024041B0024B6
:1042A000F8B5FFF789FF38B92549264804F0F8FB2F
:1042B000BDE8F840FFF790BFFDF732F808B9224992
:1042C000F3E7224B224E1C78224F002C2FD0224B9A
:1042D0001C7864B3FCF78EFC054630B3347834BBED
:1042E0003C78A4F109035C425C41FCF7B7FA002377
:1042F0001A4A1B4913701B4A3B7013701A4A3470D8
:1043000013801A4A11601A4A13701A4A13701A4A13
:1043100013701A4A137065B119490A4804F0C0FBBA
:104320000B20BDE8F840FEF7A5B80446DDE72546BA
:10433000DBE71449034804F0B3FB0320F1E700BFB7
:10434000A90007084C320024E800070829190024B6
:10435000041B0024651900242A190024131A0024C0
:10436000A0240708801A0024A41A002414000024A2
:10437000F41A0024791900247719002478190024EC
:104380002801070864010708564B1B7810B50E2B4F
:1043900000F2A680DFE803F008192E3B40455B7E63
:1043A00082868E90928A5700FCF758FA04F05EFEDF
:1043B0004D4B1B68C01A40F6B733984240F29080CC
:1043C0000120BDE81040FEF755B8FCF747FAFCF7AE
:1043D000A7FF002800F08480444B1B78002B7FD07F
:1043E000FCF7C2FF00287BD04149424804F058FB4B
:1043F0000220E6E7FCF732FA04F038FE3A4B1B687D
:10440000C01A41F2873398426AD90320D9E70120C4
:10441000BDE81040FFF7BEBD0120BDE81040FFF72A
:104420003BBEFCF71BFA344B1B78002B58D0334BA8
:104430001B780BB10720C4E7314B1B780BB90E205A
:10444000BFE70620BDE7BDE81040FEF797B8FCF7D0
:1044500005FAFDF709FF2B4B187038B9274B0122DD
:10446000294924481A7004F01BFBE3E70D2827496B
:1044700096BF274B274C53F820401E4804F0F9FA0A
:1044800021461C4804F020FB21460920BDE81040CD
:10449000FEF7B8BABDE81040FEF7E2BEBDE8104036
:1044A000FEF752BABDE81040FEF7E0BDBDE810408F
:1044B000FFF7D4B90020B0E70020A9E7FCF7CEF958
:1044C0000D4B1B7863B1144B1A784AB10022134983
:1044D00008481A7004F0E4FABDE81040FFF7E0BEA7
:1044E00010BD00BF7619002494190024811A0024FD
:1044F000C0F206084C320024FE1800242C190024B7
:1045000028190024F41A0024E7F2060801F306082B
:10451000DCEA060858EB0608791900241BF30608A4
:1045200007B53149314804F0BBFA31492F4804F04E
:10453000A0FAFCF75FFB80B1FCF776FB07EE900A70
:1045400002232A48B7EEE77A009353EC172B04F0C6
:10455000CFFB2849254804F08CFAFCF73DF80A22E5
:104560000146224804F0D7FA2349204804F098FA7B
:1045700022491E4804F07DFAFCF73CFB80B1FCF7B1
:1045800071FB07EE900A02231848B7EEE77A009312
:1045900053EC172B04F0ACFB1649144804F069FAED
:1045A000FCF722F80A220146104804F0B4FA124936
:1045B0000E4804F075FA12490C4804F05AFAFCF758
:1045C0001BF80A220146094804F0A5FA0D490748DC
:1045D00004F04FFA0C4B0A220448196803B05DF846
:1045E00004EB04F0C6BA00BF86F206084C32002481
:1045F00026FB0608A2F20608A9F2060802EC060845
:104600000AEC0608B0F20608901A002437B54D49A6
:104610004D484E4D04F044FA4D494B4804F029FAF8
:104620000A222968484804F076FA4A49464804F0C4
:1046300020FAFCF7DFFAA0B14749434804F019FA21
:10464000FCF72EFB07EE900A02233F48B7EEE77A0D
:10465000009353EC172B04F04BFB40493A4804F00D
:1046600008FA39483E4C04F015FA3E49364804F041
:1046700000FA0A222168344804F04DFA35493248DC
:1046800004F0F7F9FCF7B6FAA0B133492E4804F06C
:10469000F0F9FCF721FB07EE900A02232A48B7EE57
:1046A000E77A009353EC172B04F022FB2B492648A2
:1046B00004F0DFF9244804F0EDF92B49224804F016
:1046C000D8F92A4B0A222048196804F024FA214913
:1046D0001D4804F0E5F926491B4804F0CAF9296889
:1046E00002250A22184891FBF5F1494204F013FA19
:1046F0002049154804F0BDF9FCF70AFB0A220146DF
:10470000114804F036FA1C490F4804F0B2F9216848
:104710000A220D4891FBF5F1494204F0FCF91549D4
:10472000094804F0A6F9FCF7FDFA0A2201460648FA
:1047300004F01FFA1149044803B0BDE8304004F00A
:10474000AFB900BF37ED06084C320024881A0024A8
:1047500056ED0608A9F206085FED06082DF00608DA
:104760008C1A002463ED06086CED0608901A0024EC
:1047700075ED06088AED06088EED0608A3ED06081D
:1047800010B51D4C1D49204604F08AF91C492046ED
:1047900004F086F91B49204604F082F91A492046A4
:1047A00004F07EF91949204604F07AF918492046A8
:1047B00004F076F91749204604F072F916492046AC
:1047C00004F06EF91549204604F06AF914492046B0
:1047D00004F066F91349204604F062F912492046B4
:1047E00004F05EF91149204604F05AF920461049B8
:1047F000BDE8104004F054B94C320024C7ED06085F
:10480000E8ED060820EE060847EE06086EEE0608FC
:104810008DEE0608AFEE0608E3EE06082DEF06085B
:1048200068EF06089CEF0608BCEF0608F1EF0608E3
:104830000BF0060808B50C4B1B78072B01D00020A5
:1048400008BDFCF76DFD0028F9D0084B1B78002B44
:10485000F5D0FCF7CFF90028F1D0054B18780128E6
:104860008CBF00200120EBE77619002429190024D1
:10487000801A002438B51D4D2C78042C20D0A4F1CA
:104880000A035C425C411A4B1B78DBB100211948DA
:10489000FCF78EFCCCB10023174A18490C2013708A
:1048A000174A1370174B184A1A601B22174B1A70BD
:1048B000FEF7A8F816491748BDE8384004F0F0B8EC
:1048C0000124E0E7FBF7CAFFE4E72B78A3F1080235
:1048D000012A01D90D2BEDD10F4B1B78002B14BFF2
:1048E00007200520FDF7C6FDE4E700BF7619002488
:1048F000131A0024B6EC060829190024D3EC060884
:104900002A19002410000024C1EC06088119002493
:10491000F2EC06084C320024FE18002470B505465F
:104920002DED028B8EB004F02CFBAB68002B00F059
:104930009982294605A804F076FA05A804F015FB2B
:10494000AC4905A804F0B5FA10B1FFF719FF86E2EB
:10495000A94905A804F0ADFA10B1FFF7E1FD7EE228
:10496000A64905A804F0A5FA10B1FFF74FFE76E2BC
:10497000A34905A804F09DFA20B1A249A24804F079
:1049800078F811E0A14905A804F093FA0028F4D1C1
:104990009F4905A804F08DFA002800F087819D4901
:1049A000994804F066F8BAE09B4D0A2296482968B7
:1049B00004F0B1F89949944804F05BF8984C0A2245
:1049C00028682168411A904804F0A5F895498E4856
:1049D00004F04FF8944B02228B48196804F0BDF89C
:1049E0009249894804F045F8914B0A228648196893
:1049F00004F0B3F88F49844804F03BF88E4B102242
:104A00008148197804F0CCF88C497F4804F031F8DB
:104A10008B4B7D48D3ED007A0123B7EEE77A009304
:104A200053EC172B04F064F98649774804F021F819
:104A3000854B7548D3ED007A0323B7EEE77A0093F0
:104A400053EC172B04F054F980496F4804F011F827
:104A5000226803212B687E4C9B1A7E4D6A4807EE24
:104A6000903A95ED007A94F90030F8EEE77A0091EB
:104A700027EE877A07EE903AF8EEE77A67EE277A24
:104A8000B7EEE77A53EC172B04F032F972495E481F
:104A900003F0EFFFD5ED007A09235B48B7EEE77A24
:104AA000009353EC172B04F023F96C49564803F09C
:104AB000E0FF0A2294F90010534804F04EF86849C8
:104AC000514803F0D6FF674B4F48D3ED007A0223DD
:104AD000B7EEE77A009353EC172B04F009F962491B
:104AE000494803F0C6FF614B4748D3ED007A0223E3
:104AF000B7EEE77A009353EC172B04F0F9F85C4912
:104B0000414803F0B6FF5B4B5B4A19785B4B0029C9
:104B100014BF114619463C4803F0C2FF9FE1444BC5
:104B20000A223948196804F018F85549364803F044
:104B3000A0FF544C0A223448216804F024F8246869
:104B40001CB9314803F0A6FF89E14F4BD3E90001BE
:104B50001EF0E6FE07EE904A07EE100A4B49F8EE0B
:104B6000677A294887EE278A03F083FF484B264857
:104B7000D3ED007A0223B7EEE77A009353EC172BBC
:104B800004F0B6F84349204803F073FFB7EEC87A43
:104B900002231D48009353EC172B04F0A9F83E495B
:104BA000194803F066FF0A224FF40061164803F02B
:104BB000D4FF3A49144803F05CFFDFED397A022351
:104BC000114838EE678ADFED377A0093B0EEC88A75
:104BD00028EE278ADFED347A28EE278AB7EEC87AE6
:104BE00053EC172B04F084F82521074803F04EFFFF
:104BF000A7E700BFBCF40608C2F40608C6F406081E
:104C0000CCF40608D7F406084C320024CFFC060882
:104C1000E5F4060867F5060838190024F0F40608DC
:104C200034190024FBF40608D81A002402F50608FB
:104C30009C1A0024E6F00608751900240BF50608F6
:104C4000841900243BFB0608F81A002417F506080F
:104C50001A0000240C00002428F5060834F5060884
:104C600046F50608001B00244CF50608FC1A002433
:104C70005CF50608281900247C0B0708B2F4060826
:104C80007EF50608A419002450190024FCF106083A
:104C9000C01A002495F50608A6F50608B4F506081E
:104CA000000000450000C8420000003A764905A80F
:104CB00004F0FFF8002833D0744B1B780D3B012B18
:104CC00009D9FBF7D1FC30B9714B1B781BB971487E
:104CD00000F064FF01E070491DE700236F4A0021E6
:104CE000002013606E4A13606E4A13606E4A1360B0
:104CF0006E4A13606E4A13706E4A13606E4A1360F8
:104D00006E4A13606E4AC2E9000100226D490A60D2
:104D10006D490B606D4B6E491A606E4B1A60FAE676
:104D20006D4905A804F0C5F810B1FFF7A3FD96E0A2
:104D30006A4905A804F0BDF860B1544B1B780C2BF0
:104D400001D06749E7E66749674803F0A9FEFFF726
:104D5000A7FA84E0654905A804F0ABF858B1FFF75D
:104D600069FD08B96249D6E60022012311461046C2
:104D7000FCF778F973E0FFF75DFD08B95D49CAE615
:104D8000294608A804F04FF80BAC5B49204604F014
:104D900009F8214605A804F0B4F80646204603F0B9
:104DA000B6FF66B1AB6805222946204604F0B2F88A
:104DB000214608A804F041F8204603F0A8FF20226D
:104DC0002C210DEB020004F0C5F8002303AA4B4987
:104DD000039304930B93002308988DF80B300DF187
:104DE0000B03CDE9004304AB21F004FF03281CD1E1
:104DF0009DED037ADFED427AF0EEC76AF4EE676A62
:104E0000F1EE10FA11D8DDED046AB0EEE66AB4EE08
:104E1000676AF1EE10FA08D89DED0B6AF0EEC65AFB
:104E2000F4EE675AF1EE10FA04D936492E4803F031
:104E300020FE09E0012316EE102A16EE901A17EE56
:104E4000100AFCF70FF907E02946274803F032FE65
:104E50002D49254803F024FE08A803F058FF05A8B3
:104E600003F055FF0EB0BDEC028B70BD204603F081
:104E70004EFF08A803F04BFF05A803F048FF1EF003
:104E800035F9F3E7F5E7F7E7BCF5060876190024EE
:104E9000131A002480200024C5F5060838190024C0
:104EA000D41A0024341900249C1A0024DC1A00248B
:104EB000941A00248C1900243C190024A4190024FD
:104EC00050190024C01A0024E81A0024F81A0024FB
:104ED000F4F5060884190024BCEC06082AF6060836
:104EE00035F6060867F606084C3200246B0B0708F7
:104EF00098F60608CCF6060800F7060806F7060836
:104F0000FFFF7F7F12F7060832F7060810B5044648
:104F1000FBF745FB204610BD38B5074B0546044658
:104F200045F8283B09F0DCF92846FFF7EFFF20465B
:104F300009F0E2FA204638BD501A0708044BC36056
:104F400003460A6843F8042B002242605A60704707
:104F500044EA060813B50446019121B9FBF719FB91
:104F6000204602B010BD01A9FFF7E8FFF8E703688B
:104F7000184708B5FFF7FBFF08BD000038B50B4C1C
:104F80000B4D204609F09CF920460A4C2A460A4956
:104F90000DF01AF90949204603F004FF2A4620467D
:104FA0000749BDE838400DF00FB900BFD019002403
:104FB00000000024BC190024194F0408A02407088D
:104FC0000F8D040830B5202289B040213E4801F001
:104FD000F3FA2028044609D03B4C204601F067FB39
:104FE000002860D0204601F06CFBF6E7364801F05F
:104FF0005EFB1F28F0DD2246334D00240021684669
:1050000021F016FB284601F05CFB0DF8040001348A
:10501000202CF7D12C4C204601F049FB18B120463A
:1050200001F04FFBF7E79DF80030E32B1CD19DF812
:105030000130052B18D19DF80230202B14D19DF89A
:105040001F401F216846FBF7AFFA84420CD1684627
:10505000FCF758FC0446B8B16846FCF767FF1B4AEA
:105060001368013313600CE0194A136801331360AD
:10507000184A136801331360174A1378FF2B1ED1A7
:105080000024204609B030BD114A13680133136073
:10509000124A1368013313600F4A1378FF2BEFD0C5
:1050A00001331370EDE70A4A1368013313600C4AA9
:1050B000136801331360084A1378FF2B02D00133C1
:1050C0001370DDE70446DCE79C250024B0190024BA
:1050D000AC190024681900248019002470190024D8
:1050E0006C19002410B588B020220021684621F0F8
:1050F0009FFA6846FCF7C4FC4021104801F052FAC0
:10510000202269460D4803F08BFC044601210B4820
:1051100001F0BAFA202C0A4A08D138B909491070AE
:1051200001200B6801330B6008B010BD06491070F8
:1051300000200B6801330B60F6E700BF9C250024BC
:10514000D01A0024601900245C1900241C4B1B7821
:1051500010B5002B33D0FCF7E3F800282FD1194B02
:105160001B78022B01D90C2B29D1FBF77DFA30BB20
:10517000154B1C781CBB03F079FF144A1368C31A43
:10518000B3F57A7F1BD31060114801F0BCFA1048C8
:1051900001F03CFA0F490E4801F067FA0E4B0F4937
:1051A0001C700F4C0F4823680133236003F061FC2F
:1051B00021680A220B48BDE8104003F0FDBC10BD79
:1051C0003019002476190024131A0024EC1A002444
:1051D0009C250024A086010080190024FF040708F4
:1051E000981A00244C3200247FB51B4D1B4C1C4EDA
:1051F000284601F0C5FF68B3284602F033F8A368DB
:10520000C1B20A2901D00D2910D1002BF0D02146BE
:1052100001A803F008FE01A8FFF780FB01A803F036
:1052200076FD3146204603F00EFEE1E74F2B03D812
:10523000204603F033FEDBE73146204603F003FE51
:105240000849284603F02CFCD2E701A803F05FFDD3
:105250001DF04CFF04B070BD4C320024BC1900247A
:10526000A024070838EB060837B503F0FFFE7C4A98
:1052700013682BB17B49C31A0C689C4238BF0B6082
:10528000794D1060FCF7BAF8FFF7AEFFFBF714FAA0
:1052900003F0ECFE2B78044683B9744B40F6B7322A
:1052A0001B68C31A934209D9012371492B70714BB2
:1052B0001860714B1860714803F0F2FB2B7843B112
:1052C0006D4A1368E31A132B40F2BE801460FFF797
:1052D00009FFFBF739FA38B9694B1B780C2B03D05F
:1052E00068490620FDF78EFBFDF706FC0025FEF75A
:1052F00011FFFFF749F8FCF76DFFFBF72FFCFFF7F5
:1053000025FF614B614A1D70614B1D70614B1D7023
:105310001368E31AB3F57A7FC0F0A0805E4957485E
:10532000146003F0A6FB5D4B0A225448196803F091
:105330002AFC5B49514803F09CFB5A4B0A224F4818
:10534000196803F020FC58494C4803F092FB574B76
:105350000A224A48196803F016FC5549474803F0E9
:1053600088FB544B0A224548196803F00CFC52494B
:10537000424803F07EFB514B0A224048196803F073
:1053800002FC29213D4803F081FB4D493B4803F0D5
:1053900070FB4C4B0A223948196803F0F4FB4A4968
:1053A000364803F066FB494B0A223448196803F07B
:1053B000EAFB4749314803F05CFB464B0A222F4881
:1053C000197803F0EDFB44492C4803F052FB434BA2
:1053D0000A222A48196803F0D6FB4149274803F0FE
:1053E00048FB204B0A222548196803F0CCFB3D49B5
:1053F000224803F03EFB3C4B2048D3ED007A0123CA
:10540000B7EEE77A009353EC172B03F071FC3749A2
:105410001A4803F02EFB364B1848D3ED007A00955E
:10542000B7EEE77A53EC172B03F062FC31491348CF
:1054300003F01FFBFBF75CFF0A2201460F4803B095
:10544000BDE8304003F0AEBB0A4A1368E31A092BEB
:105450007FF63FAF1460FFF7B5FD3AE703B030BD0C
:10546000BC1A0024C819002430190024B81A0024DA
:105470008C050708B41A0024B01A00244C3200240A
:1054800076190024B605070879190024F01A0024BB
:105490007719002478190024DC050708B0190024C6
:1054A000E8050708AC190024F20507086C19002468
:1054B000F805070868190024FE050708701900247C
:1054C00004060708601900240B0607085C1900246D
:1054D00015060708D01A002420060708981A002489
:1054E0002C0607083B060708F81A0024460607089A
:1054F000841900244F06070810B54FF4E13186B037
:10550000514801F023FF514801F080F850494F48BD
:1055100001F0ABF823214F4800F073FD4E4800F036
:105520003DFB00214D48FAF713FF00214C48FAF7E4
:105530000FFF00214B48FAF70BFF00214A48FAF70A
:1055400007FF00214948FAF703FF00214848FAF70E
:10555000FFFEFBF783F9FBF7AFF8464902A8FFF718
:10556000F9FC6422002302A9434808F0D4FE02A8F3
:105570000124FFF7CBFC03F079FD404B404A186053
:10558000404B41491860414B1860414B1860002363
:105590002D4813703F4A13703F4A137003F080FA8E
:1055A0003E49294803F07CFA3D49274803F078FA40
:1055B0003C49254803F074FA3B49234803F070FA4C
:1055C0003A49214803F055FA394B1F48D3ED007A88
:1055D0000923B7EEE77A009353EC172B03F088FB0F
:1055E0003449194803F05CFA3349174803F041FA8B
:1055F0000094154810A3D3E9002303F079FB2F4949
:10560000114803F036FA00940F480DA3D3E90023A4
:1056100003F06EFB2A490C4803F042FA29490A4874
:1056200003F03EFAFFF7ACF806B010BD02A8FFF792
:105630006DFC1DF05BFD00BF0000000000688A40AB
:105640000000000000F074404C3200249C2500242F
:10565000A08601000C1F002480200024F01F0024DD
:10566000B81F0024801F00240C200024D41F002415
:105670009C1F002481030408D0190024B81A0024B8
:10568000301900249419002458060708B41A00247D
:10569000B01A00242F190024A01A00248F0607082E
:1056A000CC0607080F0707083B0707087807070815
:1056B0000C0000248DFD060899070708C407070899
:1056C000D1070708D6070708704710B504461C30F5
:1056D0000AF0B8FE204610BD10B504460AF0B2FE2E
:1056E000204610BD10B504466C3007F071FF04F180
:1056F000480007F06DFF04F1240007F069FF204621
:1057000007F066FF204610BD38B504460D461C2242
:10571000002120F08DFF204629460AF00FFF204689
:1057200038BD000038B504463421FFF7EDFF3521C0
:1057300004F11C00254DFFF7E7FF432104F1380079
:10574000FFF7E2FF632104F15400FFF7DDFF37218B
:1057500004F17000FFF7D8FF762104F18C00FFF709
:10576000D3FF972104F1A800FFF7CEFF7F2104F1BA
:10577000C400FFF7C9FF7A2104F1E000FFF7C4FF7E
:10578000042104F1FC00FFF7BFFF082104F58C7031
:10579000FFF7BAFF262104F59A70FFF7B5FF2A46F6
:1057A00040F6230104F5A87007F0A4FB2A4640F652
:1057B000220104F5E07007F09DFB2A4640F6010146
:1057C00004F50C7007F096FB204638BD0000C07F42
:1057D00010B504461221FFF797FF862104F11C0043
:1057E000FFF792FF792104F13800FFF78DFF99212F
:1057F00004F15400FFF788FF422104F17000FFF725
:1058000083FF832104F18C00FFF77EFF822104F1E6
:10581000A800FFF779FF332104F1C400FFF774FFFC
:105820000E2104F1E000FFF76FFF204610BD10B518
:105830000446A43007F01CFE04F1540007F018FEE3
:10584000201D07F015FE204610BD10B5044600F5DA
:105850008470FFF7ECFF2046FFF7E9FF204610BDFC
:1058600010B5044600F59C7007F0D2FB204610BD31
:105870002DE9F3414FF47A73002504464FF480720A
:10588000C561294604F59C76058404F52677C0E9B0
:105890000153224B03602023C0E9053589232830BA
:1058A00020F8063C4FF6FF7320F8043C20F8023C39
:1058B00020F0BEFEC4F8285184F834517D22C4F88B
:1058C0002C511821C4F83051304607F043FB2846CC
:1058D00003F09EFB05468D2003F09AFB80468A204C
:1058E00003F096FB009043462A462146384600F0D6
:1058F00025FE04F533731C220021184620F098FE83
:1059000000220D210AF004FE04E0304607F080FB7F
:105910001DF0ECFB204602B0BDE8F081E00C07086A
:1059200037B506214F4800F0D7F84F4A07214F48B6
:1059300000F030FA36214E48FFF7E6FE84214D484C
:10594000FFF7E2FE6A214C48FFF7DEFE2F214B48AD
:10595000FFF7DAFE4A48FFF78BFF4A4A4A494848B0
:105960000CF032FC4948FFF7DDFE464A48494748FB
:105970000CF02AFC9B21474807F00CFEA121464869
:1059800007F008FE6721454807F004FE2721444838
:1059900007F000FE002401253A4A42493D480CF038
:1059A00013FC7B237C2298213F48CDE9004500F081
:1059B00049F99A2387222D213C48CDE9004500F082
:1059C00041F90CE0354807F003FE334807F000FECC
:1059D000304807F0FDFD1DF089FBF6E7F8E7294A9E
:1059E000334931480CF0F0FB3248FFF7F1FE324802
:1059F00000F0F0FB314800F0EDFB7E213048FFF76E
:105A000083FE304800F0C4F91C2200212D4820F00C
:105A10000FFE012219212B480AF078FD194A2A4964
:105A200028480CF0D1FB1C220021284820F000FE61
:105A300000221E2125480AF06BFD1C22002124486B
:105A400020F0F6FD1F2122480AF05DFD0D4A214994
:105A50001E4803B0BDE830400CF0B6BB1248FFF75B
:105A6000E6FEB8E7981B002450250024A01B002464
:105A7000B41B0024D01B0024EC1B0024081C0024B1
:105A8000241C0024000000246158040890220024F3
:105A9000C9560408081B00242C1B0024501B00249A
:105AA000741B0024E556040880200024882100246B
:105AB0004B580408641F00240C1F0024602000249D
:105AC00064200024101F0024D95604082C1F002431
:105AD000481F0024CB560408014A018042607047E9
