:100000000C9431010C9459010C9459010C949905EC
:100010000C9499050C9499050C9459010C94590170
:100020000C9459010C9459010C9459010C945901E8
:100030000C9459010C9459010C9459010C945901D8
:100040000C94F7040C9459010C9467050C94410529
:100050000C9459010C9459010C9459010C945901B8
:100060000C9459010C9459015B5253343835204E8D
:10007000414E4F5D2050727565626120424944498E
:1000800052454343494F4E414C2076333B20525812
:100090003D44322054583D44333B206275733D3912
:1000A0003630303B206D6F6E69746F723D31313583
:1000B0003230303B2033322062797465730020691E
:1000C0006E657370657261646F733D0020696E7652
:1000D000616C69646F733D002072785F627974654A
:1000E000733D002074696D656F75745F6E616E6F2E
:1000F0003D0020636F6E6669726D61646F5F6E6153
:100100006E6F3D002074785F6E616E6F3D005B52D4
:1001100053343835204E414E4F5D2072785F706FFA
:100120007274656E74613D005B5253343835204EF5
:10013000414E4F5D2054494D454F55542041434B4E
:10014000204E414E4F2D3E504F5254454E5441206B
:100150007365713D00206964615F7675656C7461DB
:100160005F6D733D005B5253343835204E414E4F26
:100170005D205458204E414E4F2D3E504F52544515
:100180004E544120434F4E4649524D41444F2073F7
:1001900065713D00206E616E6F5F6D733D005B5257
:1001A00053343835204E414E4F5D205458204E4137
:1001B0004E4F2D3E504F5254454E54412073657161
:1001C0003D002041434B20656E766961646F0020DD
:1001D000706F7274656E74615F6D733D005B525336
:1001E000343835204E414E4F5D20525820504F52EA
:1001F00054454E54412D3E4E414E4F204F4B20739F
:1002000065713D0000000000240027002A00000066
:1002100000080002010000030407000000000000C5
:10022000000000000000230026002900000000005C
:10023000250028002B000404040404040404020222
:100240000202020203030303030301020408102055
:100250004080010204081020010204081020110649
:10026000A70A11241FBECFEFD8E0DEBFCDBF11E03B
:10027000A0E0B1E0E0E4F6E102C005900D92A43404
:10028000B107D9F722E0A4E4B1E001C01D92A43A7D
:10029000B207E1F711E0C0E3D1E004C02197FE010D
:1002A0000E94E50ACF32D107C9F70E94BC060C9420
:1002B000130B0C940000FC01AC01425E5F4F8FEF0A
:1002C0009FEF2191922728E0BC01880F991F77FFAB
:1002D00004C031E2832730E193272150A9F7E417C6
:1002E000F50779F7089580919F029091A002892BDC
:1002F00059F1E091E601F091E70182E0E538F80775
:1003000019F1309739F0A389B4899C91858980953A
:1003100089238C938091A3028E7F8093A3021092F5
:10032000E5011092E40185E892E09093E701809363
:10033000E601E0919802F0919902808190919A02F1
:10034000892B808381E0089580E0089590E0FC018E
:10035000E25FFD4F2491FC01E65BFD4F3491FC010F
:10036000EA5CFD4FE491EE23C9F0222339F02330FB
:1003700001F1A8F4213019F1223029F1F0E0EE0F5B
:10038000FF1FE45DFD4FA591B4918FB7F894EC91F8
:10039000611126C030953E233C938FBF08952730CE
:1003A000A9F02830C9F0243049F7809180008F7D72
:1003B00003C0809180008F7780938000DFCF84B569
:1003C0008F7784BDDBCF84B58F7DFBCF8091B0006C
:1003D0008F778093B000D2CF8091B0008F7DF9CF1E
:1003E0003E2BDACFCF93DF9390E0FC01E65BFD4F2D
:1003F00024918A5C9D4FFC0184918823D1F090E088
:10040000880F991FFC01EC5FFD4FA591B491FC0191
:10041000E45DFD4FC591D49161110EC09FB7F89472
:100420008C91E22FE0958E238C932881E223E88340
:100430009FBFDF91CF9108958FB7F894EC91E22B95
:10044000EC938FBFF6CF3FB7F8948091E001909185
:10045000E101A091E201B091E30126B5A89B05C09E
:100460002F3F19F00196A11DB11D3FBFBA2FA92F33
:10047000982F8827BC01CD01620F711D811D911D30
:1004800042E0660F771F881F991F4A95D1F708959C
:100490002FB7F8946091DC017091DD018091DE014D
:1004A0009091DF012FBF0895AF92BF92CF92DF925C
:1004B000EF92FF920F931F93CF93DF936C017B0119
:1004C0008B01040F151FEB015E01AE18BF08C017AA
:1004D000D10759F06991D601ED91FC910190F0811D
:1004E000E02DC6010995892B79F7C501DF91CF91E0
:1004F0001F910F91FF90EF90DF90CF90BF90AF9042
:100500000895FC01538D448D252F30E0842F90E019
:10051000821B930B541710F0CF96089501970895FE
:10052000FC01918D828D981761F0A28DAE0FBF2FC7
:10053000B11D5D968C91928D9F5F9F73928F90E01D
:1005400008958FEF9FEF0895FC01918D828D98178C
:1005500031F0828DE80FF11D858D90E008958FEFC9
:100560009FEF0895FC01918D228D892F90E0805C92
:100570009F4F821B91098F739927089588EE91E010
:100580000E94B20221E0892B09F420E0822F089515
:1005900080E090E0892B29F00E94BE0281110C942A
:1005A00000000895FC01A48DA80FB92FB11DA35A16
:1005B000BF4F2C91848D90E001968F739927848F83
:1005C000A689B7892C93A089B1898C9183708064A6
:1005D0008C93938D848D981306C00288F389E02D47
:1005E00080818F7D80830895EF92FF920F931F93F8
:1005F000CF93DF93EC0181E0888F9B8D8C8D9813D6
:100600001AC0E889F989808185FF15C09FB7F894E1
:10061000EE89FF896083E889F9898081837080642D
:1006200080839FBF81E090E0DF91CF911F910F9178
:10063000FF90EF900895F62E0B8D10E00F5F1F4F87
:100640000F731127E02E8C8D8E110CC00FB607FC96
:10065000FACFE889F989808185FFF5CFCE010E9424
:10066000D202F1CFEB8DEC0FFD2FF11DE35AFF4FBE
:10067000F0829FB7F8940B8FEA89FB8980818062B2
:10068000CFCF0F931F93CF93DF938C01D0E0C0E0C7
:10069000F801EC0FFD1F6491662341F088EE91E0B4
:1006A0000E94F402892B11F02196F2CFCE01DF9146
:1006B000CF911F910F910895CF93DF93EC01888D17
:1006C0008823B9F0AA89BB89E889F9898C9185FDCD
:1006D00003C0808186FD0DC00FB607FCF7CF8C915B
:1006E00085FFF2CF808185FFEDCFCE010E94D2023F
:1006F000E9CFDF91CF9108952091E6013091E70194
:100700002817390771F49091E4018091E501981759
:1007100041F0E091E401F0E0EC5BFE4F808190E07D
:1007200008958FEF9FEF08950895EF92FF920F9332
:100730001F93CF93DF93DC015C96ED90FC905D9767
:10074000E114F10479F481E090E013969C938E9388
:10075000129790E080E0DF91CF911F910F91FF9071
:10076000EF9008955196ED91FC91529750968C918F
:100770005097982F90950FB75E962C915E97122FF9
:10078000127021FD6095F8942081112319F1282B16
:100790002083E7012197F1F728E0462F50E03081D0
:1007A00060FF1AC0382B3083E7012197F1F7BA01B7
:1007B00075956795215089F7112381F080818923F0
:1007C00080830FBF5C968D919C910197F1F781E03A
:1007D00090E0C1CF2923DCCF3923E5CF9081892B4D
:1007E000EFCF2091E6013091E7012817390761F436
:1007F0008091E5012091E40190E0805C9F4F821B95
:1008000091098F739927089590E080E008952091D1
:10081000E6013091E70128173907B9F49091E40116
:100820008091E501981789F0E091E401F0E0EC5B3C
:10083000FE4F80812091E40130E02F5F3F4F2F7306
:1008400033272093E40190E008958FEF9FEF089500
:1008500090E080E00895FC0101900020E9F73197D5
:10086000AF01481B590BBC0188EE91E00C94540277
:100870008F929F92AF92BF920F931F93CF93DF936C
:10088000CDB7DEB7A1970FB6F894DEBF0FBECDBFD0
:1008900019A2423008F44AE08E010F5D1F4F842EEA
:1008A000912CB12CA12CA50194010E94C30AE62F22
:1008B000B901CA01EA30F4F4E05DD801EE938D018C
:1008C000232B242B252B79F790E080E0109719F04B
:1008D000CD010E942B04A1960FB6F894DEBF0FBE87
:1008E000CDBFDF91CF911F910F91BF90AF909F909F
:1008F0008F900895E95CE1CF4AE00C943804CF93DF
:10090000DF934AE00E943804EC0184E291E00E9407
:100910002B048C0F9D1FDF91CF910895CF92DF9212
:10092000EF92FF920F931F93CF93DF93CDB7DEB774
:10093000A0970FB6F894DEBF0FBECDBF94E0E7E2FC
:10094000F1E0DE01119601900D929A95E1F793E0A6
:100950009D838E834F83588769877A870B871C878F
:100960002D873E87CF86D88AE98AFA8AFE01739658
:1009700092E1C00EC80E4C0D21E1842F929F800D94
:10098000112481939F5F9E31C1F7CE0101960E9491
:100990005B018F8F98A38BE39FE10197F1F761E0F3
:1009A00084E00E94A60103EC10E0C8010197F1F772
:1009B00040E250E0BE016F5F7F4F85E892E00E9409
:1009C0005402C8010197F1F760E084E00E94A6019B
:1009D000A0960FB6F894DEBF0FBECDBFDF91CF91CA
:1009E0001F910F91FF90EF90DF90CF9008951F928D
:1009F0000F920FB60F9211242F933F938F939F93D3
:100A0000AF93BF938091DC019091DD01A091DE0155
:100A1000B091DF013091DB0123E0230F2D3758F532
:100A20000196A11DB11D2093DB018093DC01909301
:100A3000DD01A093DE01B093DF018091E001909190
:100A4000E101A091E201B091E3010196A11DB11D68
:100A50008093E0019093E101A093E201B093E30160
:100A6000BF91AF919F918F913F912F910F900FBEAA
:100A70000F901F90189526E8230F0296A11DB11D17
:100A8000D2CF1F920F920FB60F9211242F933F9344
:100A90004F935F936F937F938F939F93AF93BF9386
:100AA000EF93FF9388EE91E00E94D202FF91EF91C5
:100AB000BF91AF919F918F917F916F915F914F9176
:100AC0003F912F910F900FBE0F901F9018951F927E
:100AD0000F920FB60F9211242F938F939F93EF9342
:100AE000FF93E091F801F091F9018081E091FE011E
:100AF000F091FF0182FD1BC09081809101028F5F08
:100B00008F7320910202821741F0E0910102F0E020
:100B1000E851FE4F958F80930102FF91EF919F91D5
:100B20008F912F910F900FBE0F901F90189580817D
:100B3000F4CF1F920F920FB60F9211242F933F9371
:100B40004F935F936F937F938F939F93AF93BF93D5
:100B5000EF93FF93E091E601F091E701309749F0C0
:100B6000A685B7858585968D91FF14C09C918923B4
:100B7000A1F4FF91EF91BF91AF919F918F917F91E0
:100B80006F915F914F913F912F910F900FBE0F90FA
:100B90001F9018959C91892361F7A389B4899C9132
:100BA0008589809589238C93868997890197F1F7A8
:100BB000608D718DA685B785558538E020E0CB0125
:100BC0000197F1F7822F90E095958795282F4C910A
:100BD000452309F02068315091F7868D81FD2095DD
:100BE0008091E50190E001968F7399273091E4019F
:100BF000381799F0A091E501B0E0AC5BBE4F2C93A3
:100C00008093E501828D938D0197F1F7A389B489D3
:100C10008C919589892B8C93ACCF868D8160868F42
:100C2000F1CF1092EB011092EA0188EE93E0A0E080
:100C3000B0E08093EC019093ED01A093EE01B093AE
:100C4000EF0124E031E03093E9012093E80125EC45
:100C500030E03093F5012093F40124EC30E0309340
:100C6000F7012093F60120EC30E03093F901209356
:100C7000F80121EC30E03093FB012093FA0122ECE3
:100C800030E03093FD012093FC0126EC30E03093FE
:100C9000FF012093FE0110920102109202021092B5
:100CA000030210920402109288021092870280932D
:100CB000890290938A02A0938B02B0938C0286E102
:100CC00091E0909386028093850210929C0210928C
:100CD0009B0210929E0210929D021092A00210920E
:100CE0009F021092A2021092A1026091A3026E7F55
:100CF0006D7F6093A3026695617081E0682783E051
:100D00000E94A60161E083E00E94F201EDE4F2E0BE
:100D1000E491E0939502E9E3F2E0E491F0E0EE0F74
:100D2000FF1FE45DFD4F859194919093970280930E
:100D3000960260E082E00E94F2018091A30281FDB0
:100D400004C061E082E00E94A60182E080939102EB
:100D5000ECE4F2E0E491E0939202E8E3F2E0E49163
:100D6000F0E0EE0FFF1FEE5DFD4F859194919093A3
:100D70009402809393020895789484B5826084BD30
:100D800084B5816084BD85B5826085BD85B581608F
:100D900085BD80916E00816080936E00109281000D
:100DA00080918100826080938100809181008160C8
:100DB0008093810080918000816080938000809189
:100DC000B10084608093B1008091B0008160809315
:100DD000B00080917A00846080937A0080917A00DC
:100DE000826080937A0080917A00816080937A009B
:100DF00080917A00806880937A001092C100E0911F
:100E0000F801F091F90182E08083E091F401F09122
:100E1000F5011082E091F601F091F70180E1808305
:100E200010920002E091FC01F091FD0186E08083C8
:100E3000E091FA01F091FB01808180618083E09173
:100E4000FA01F091FB01808188608083E091FA01D2
:100E5000F091FB01808180688083E091FA01F0913C
:100E6000FB0180818F7D808360E084E00E94A60189
:100E700061E084E00E94F2011092A00210929F02B1
:100E800010929E0210929D0210929C0210929B0260
:100E90008DE991E09093A2028093A102909191023A
:100EA000963108F047C02DEB30E030939C02209340
:100EB0009B022BE931E030939E0220939D022CE2AD
:100EC00031E03093A00220939F022091680084E0DB
:100ED000983048F031E09E3008F430E081E001C005
:100EE000880F3A95EAF7822B809368002DE630E070
:100EF000983050F02BE630E09E3030F02CE630E0B9
:100F0000963110F030E020E030939902209398025F
:100F1000292F30E0983008F023C181E001C0880F0C
:100F20009A95EAF780939A028091A1029091A20289
:100F30000197F1F70E9473010E94730188E690E027
:100F40000E94410384E291E00E942B048CE291E034
:100F50000E942B0484E291E00E942B04C0E0D0E0C8
:100F60003324339485E892E00E94F103892B09F43D
:100F70001AC285E892E00E940704182F8091B101FF
:100F80009091B201A091B301B091B4010196A11D5D
:100F9000B11D8093B1019093B201A093B301B093BE
:100FA000B4018091D9019091DA01809771F44FE1F9
:100FB00050E06AEB71E089EB91E00E94F80A8FE162
:100FC00090E09093DA018093D9018091D9019091BA
:100FD000DA019C012F5F3F4F3093DA012093D90152
:100FE00083559E4FFC0114872032310509F0BACF9A
:100FF00044E050E067E271E089EB91E00E94EB0A87
:10100000892B09F0AFCF8091BD01833009F0B5C0C5
:101010001091BE018FEF810F853008F0AEC0E090D7
:10102000D701F090D80189EB91E00E945B01E816AE
:10103000F90609F0A2C08090BF019090C001A09075
:10104000C101B090C2014090C3015090C4016090B2
:10105000C5017090C601C090C701D090C801E09052
:10106000C901F090CA01842D880D810F8C0DEBEC25
:10107000F1E092E3980F8250219129137EC09F5E88
:101080009813FACF1092DA011092D9018091B5012C
:101090009091B601A091B701B091B8010196A11D40
:1010A000B11D8093B5019093B601A093B701B093A1
:1010B000B801113009F075C0C814D904EA04FB0462
:1010C00009F05DC18091AC018823A9F01092AC01B8
:1010D0008091A8019091A901A091AA01B091AB01C2
:1010E0000196A11DB11D8093A8019093A901A09321
:1010F000AA01B093AB018091A4019091A501A091A8
:10110000A601B091A7010196A11DB11D8093A40174
:101110009093A501A093A601B093A7017501640166
:1011200093018201B501A40182E00E948E048DED3D
:1011300091E00E944103C501B4010E947C048FEC40
:1011400091E00E944103C301B2010E947C0482EC41
:1011500091E00E94410384E291E00E942B0402CFBF
:101160009E3040F42850310981E001C0880F2A9553
:10117000EAF7D8CE2E503109F7CF8091AD0190918A
:10118000AE01A091AF01B091B0010196A11DB11DBA
:101190008093AD019093AE01A093AF01B093B001E5
:1011A000E1CE133009F076C0C814D904EA04FB0478
:1011B00009F0E5C045284628472809F0E0C080919D
:1011C000AC018111DCC00E9448028B019C0100939C
:1011D000A0011093A1012093A2013093A301C0921A
:1011E0009C01D0929D01E0929E01F0929F0140915E
:1011F00098015091990160919A0170919B014F5F04
:101200005F4F6F4F7F4F40939801509399016093C8
:101210009A0170939B0184E00E948E048091940156
:1012200090919501A0919601B09197010196A11D11
:10123000B11D8093940190939501A0939601B09372
:1012400097010E94480260939001709391018093EE
:101250009201909393013092AC018EE991E00E944B
:101260004103609198017091990180919A01909148
:101270009B010E947C0484E991E00E9441036091FB
:10128000A0017091A1018091A2019091A3010E94FF
:101290007F0468CE153009F072C08091AC018823BC
:1012A00009F46DC08091980190919901A0919A01E3
:1012B000B0919B0188159905AA05BB0509F05FC08F
:1012C0008091A0019091A101A091A201B091A301F0
:1012D00084159505A605B70509F051C080919C01BC
:1012E00090919D01A0919E01B0919F018C159D054B
:1012F000AE05BF0509F043C00E944802009190016D
:10130000109191012091920130919301601B710B1A
:10131000820B930B643F71408105910580F510921B
:10132000AC0180918C0190918D01A0918E01B091C2
:101330008F010196A11DB11D80938C0190938D01A9
:10134000A0938E01B0938F0185E691E00E94410346
:10135000C501B4010E947C0485E591E00E9441032F
:101360000E944802009190011091910120919201F8
:1013700030919301601B710B820B930B88CF80918E
:10138000880190918901A0918A01B0918B01019609
:10139000A11DB11D8093880190938901A0938A01BA
:1013A000B0938B01DFCD8091AC018823B1F10E9415
:1013B0004802009190011091910120919201309189
:1013C0009301601B710B820B930B643F714081058D
:1013D000910518F11092AC018091A8019091A9019A
:1013E000A091AA01B091AB010196A11DB11D8093FE
:1013F000A8019093A901A093AA01B093AB0188E240
:1014000091E00E944103609198017091990180914F
:101410009A0190919B010E947F040E9448020091D2
:101420008401109185012091860130918701601B14
:10143000710B820B930B603177428105910508F4A3
:101440006CC00E9448026093840170938501809370
:101450008601909387018EE091E00E9441036091A4
:10146000A4017091A5018091A6019091A7010E940D
:101470007C0484E091E00E944103609194017091AA
:10148000950180919601909197010E947C0482EFD2
:1014900090E00E94410360918C0170918D018091D8
:1014A0008E0190918F010E947C0483EE90E00E9457
:1014B00041036091A8017091A9018091AA019091C6
:1014C000AB010E947C0488ED90E00E944103609192
:1014D000B1017091B2018091B3019091B4010E9469
:1014E0007C048CEC90E00E9441036091AD0170910E
:1014F000AE018091AF019091B0010E947C048EEB0F
:1015000090E00E944103609188017091890180916F
:101510008A0190918B010E947F040E9423026B013B
:101520007C010E9423026C197D098E099F09683E87
:10153000734081059105A8F3209709F413CD0E940B
:10154000BE02882309F40ECD0E9400000BCD86E177
:1015500091E090938602809385028091E6019091BC
:10156000E7018558924071F4E0919802F091990258
:10157000908180919A028095892380831092E7015F
:101580001092E6010895A1E21A2EAA1BBB1BFD01D1
:101590000DC0AA1FBB1FEE1FFF1FA217B307E40752
:1015A000F50720F0A21BB30BE40BF50B661F771FAA
:1015B000881F991F1A9469F760957095809590958A
:1015C0009B01AC01BD01CF010895EE0FFF1F0590F7
:1015D000F491E02D0994FB01DC0104C08D91019090
:1015E000801921F441505040C8F7881B990B089589
:1015F0006817790768F4FB01DC01E40FF51FA40FFD
:10160000B51F02C002900E9241505040D8F7089585
:101610000C940A0BFB01DC0102C001900D924150B9
:101620005040D8F7089511E0C0E3D1E004C0FE01B6
:101630000E94E50A2196C133D107C9F7F894FFCF7C
:1016400000000000F402540281025C03B202900226
:10165000A402000000009503540228049403F1033F
:1016600007047C030D0A0052343835005B525334B2
:101670003835204E414E4F5D2044452B2F52453D7D
:0416800044340000EE
:00000001FF
