:100000000C9434010C945C010C945C010C941E055E
:100010000C941E050C941E050C945C010C945C0160
:100020000C945C010C945C010C945C010C945C01DC
:100030000C945C010C945C010C945C010C945C01CC
:100040000C947C040C945C010C94EC040C94C60499
:100050000C945C010C945C010C945C010C945C01AC
:100060000C945C010C945C015B4D41583438352094
:100070004E414E4F5D2054582044332D3E44493B61
:100080002052582044323C2D556E6F2044333B2083
:1000900044453D3556202F52453D474E44005B4D6B
:1000A0004158343835204E414E4F5D20554E204D3D
:1000B0004F44554C4F2076343B206275733D3936A2
:1000C00030303B206D6F6E69746F723D3131353267
:1000D00030303B2033322062797465730020696EC2
:1000E000657370657261646F733D0020696E76613F
:1000F0006C69646F733D002072785F627974657318
:100100003D002074696D656F75745F6E616E6F3D43
:100110000020636F6E6669726D61646F5F6E616E01
:100120006F3D002074785F6E616E6F3D005B4D41E6
:1001300058343835204E414E4F5D2072785F756ED1
:100140006F3D005B4D4158343835204E414E4F5D78
:100150002054494D454F55542041434B204E414E6C
:100160004F2D3E554E4F207365713D0020696461EF
:100170005F7675656C74615F6D733D005B4D4158D2
:10018000343835204E414E4F5D205458204E414E5C
:100190004F2D3E554E4F20434F4E4649524D414400
:1001A0004F207365713D00206E616E6F5F6D733D12
:1001B000005B4D4158343835204E414E4F5D205440
:1001C00058204E414E4F2D3E554E4F207365713D88
:1001D000002041434B20656E766961646F00207595
:1001E0006E6F5F6D733D005B4D4158343835204E66
:1001F000414E4F5D20525820554E4F2D3E4E414EA0
:100200004F204F4B207365713D0000000008000235
:1002100001000003040700000000000000000000CF
:100220000000230026002900000000002400270011
:100230002A0000000000250028002B00040404040C
:100240000404040402020202020203030303030380
:10025000010204081020408001020408102001025D
:1002600004081020E205A20A11241FBECFEFD8E037
:10027000DEBFCDBF11E0A0E0B1E0E6E3F6E102C0F1
:1002800005900D92AC32B107D9F722E0ACE2B1E0B3
:1002900001C01D92AC38B207E1F711E0C3E3D1E031
:1002A00004C02197FE010E94E00AC233D107C9F7BA
:1002B0000E94CB060C940E0B0C940000FC01AC01C8
:1002C000425E5F4F8FEF9FEF2191922728E0BC01A4
:1002D000880F991F77FF04C031E2832730E193270D
:1002E0002150A9F7E417F50779F70895809187025F
:1002F00090918802892B59F1E091CE01F091CF01C4
:1003000082E0ED36F80719F1309739F0A389B48906
:100310009C918589809589238C9380918B028E7F17
:1003200080938B021092CD011092CC018DE692E069
:100330009093CF018093CE01E0918002F0918102F1
:10034000808190918202892B808381E0089580E0F2
:1003500008953FB7F8948091C8019091C901A09188
:10036000CA01B091CB0126B5A89B05C02F3F19F05B
:100370000196A11DB11D3FBFBA2FA92F982F882725
:10038000BC01CD01620F711D811D911D42E0660F00
:10039000771F881F991F4A95D1F708952FB7F894B2
:1003A0006091C4017091C5018091C6019091C7010F
:1003B0002FBF0895AF92BF92CF92DF92EF92FF923C
:1003C0000F931F93CF93DF936C017B018B01040F7D
:1003D000151FEB015E01AE18BF08C017D10759F019
:1003E0006991D601ED91FC910190F081E02DC6015B
:1003F0000995892B79F7C501DF91CF911F910F9155
:10040000FF90EF90DF90CF90BF90AF900895FC01E8
:10041000538D448D252F30E0842F90E0821B930B69
:10042000541710F0CF96089501970895FC01918D0F
:10043000828D981761F0A28DAE0FBF2FB11D5D9612
:100440008C91928D9F5F9F73928F90E008958FEFB4
:100450009FEF0895FC01918D828D981731F0828D68
:10046000E80FF11D858D90E008958FEF9FEF0895BF
:10047000FC01918D228D892F90E0805C9F4F821B23
:1004800091098F739927089580ED91E00E943802B9
:1004900021E0892B09F420E0822F089580E090E08C
:1004A000892B29F00E94440281110C9400000895C8
:1004B000FC01A48DA80FB92FB11DA35ABF4F2C91D9
:1004C000848D90E001968F739927848FA689B789D0
:1004D0002C93A089B1898C91837080648C93938DC7
:1004E000848D981306C00288F389E02D80818F7D6A
:1004F00080830895EF92FF920F931F93CF93DF9322
:10050000EC0181E0888F9B8D8C8D98131AC0E8894F
:10051000F989808185FF15C09FB7F894EE89FF891E
:100520006083E889F98980818370806480839FBFBC
:1005300081E090E0DF91CF911F910F91FF90EF90BC
:100540000895F62E0B8D10E00F5F1F4F0F731127CC
:10055000E02E8C8D8E110CC00FB607FCFACFE88907
:10056000F989808185FFF5CFCE010E945802F1CF35
:10057000EB8DEC0FFD2FF11DE35AFF4FF0829FB77B
:10058000F8940B8FEA89FB8980818062CFCF0F932B
:100590001F93CF93DF938C01D0E0C0E0F801EC0F04
:1005A000FD1F6491662341F080ED91E00E947A0284
:1005B000892B11F02196F2CFCE01DF91CF911F91BF
:1005C0000F910895CF93DF93EC01888D8823B9F0C4
:1005D000AA89BB89E889F9898C9185FD03C080814E
:1005E00086FD0DC00FB607FCF7CF8C9185FFF2CFCB
:1005F000808185FFEDCFCE010E945802E9CFDF91C7
:10060000CF9108952091CE013091CF01281739075D
:1006100071F49091CC018091CD01981741F0E09157
:10062000CC01F0E0E45DFE4F808190E008958FEF13
:100630009FEF08950895EF92FF920F931F93CF932A
:10064000DF93DC015C96ED90FC905D97E114F10482
:1006500079F481E090E013969C938E93129790E04A
:1006600080E0DF91CF911F910F91FF90EF9008955F
:100670005196ED91FC91529750968C915097982FEE
:1006800090950FB75E962C915E97122F127021FDF8
:100690006095F8942081112319F1282B2083E7011C
:1006A0002197F1F728E0462F50E0308160FF1AC013
:1006B000382B3083E7012197F1F7BA0175956795DB
:1006C000215089F7112381F08081892380830FBF16
:1006D0005C968D919C910197F1F781E090E0C1CFFC
:1006E0002923DCCF3923E5CF9081892BEFCF2091CF
:1006F000CE013091CF012817390761F48091CD01E7
:100700002091CC0190E0805C9F4F821B91098F73F8
:100710009927089590E080E008952091CE013091CE
:10072000CF0128173907B9F49091CC018091CD0100
:10073000981789F0E091CC01F0E0E45DFE4F8081F4
:100740002091CC0130E02F5F3F4F2F733327209350
:10075000CC0190E008958FEF9FEF089590E080E046
:1007600008958F929F92AF92BF920F931F93CF9352
:10077000DF93CDB7DEB7A1970FB6F894DEBF0FBEFB
:10078000CDBF19A2423008F44AE08E010F5D1F4F21
:10079000842E912CB12CA12CA50194010E94BE0A9B
:1007A000E62FB901CA01EA3044F5E05DD801EE93C5
:1007B0008D01232B242B252B79F790E080E01097D7
:1007C00069F0FD0101900020E9F73197AF014A1B64
:1007D0005B0BBD0180ED91E00E94DA01A1960FB69E
:1007E000F894DEBF0FBECDBFDF91CF911F910F9167
:1007F000BF90AF909F908F900895E95CD7CF4AE06B
:100800000C94B10342E050E064E271E080ED91E0CD
:100810000C94DA01CF93DF930E94C702EC010E948F
:1008200002048C0F9D1FDF91CF910895CF93DF932A
:100830004AE00E94B103EC010E9402048C0F9D1F4C
:10084000DF91CF910895CF92DF92EF92FF920F93B5
:100850001F93CF93DF93CDB7DEB7A0970FB6F89471
:10086000DEBF0FBECDBF94E0E7E2F1E0DE011196FE
:1008700001900D929A95E1F794E09D838E834F83CA
:10088000588769877A870B871C872D873E87CF8695
:10089000D88AE98AFA8AFE01739692E1C00EC80EE0
:1008A0004C0D21E1842F929F800D112481939F5F35
:1008B0009E31C1F7CE0101960E945E018F8F98A3F1
:1008C0008BE39FE10197F1F740E250E0BE016F5FDB
:1008D0007F4F8DE692E00E94DA01A0960FB6F89461
:1008E000DEBF0FBECDBFDF91CF911F910F91FF9063
:1008F000EF90DF90CF9008951F920F920FB60F9256
:1009000011242F933F938F939F93AF93BF93809125
:10091000C4019091C501A091C601B091C701309169
:10092000C30123E0230F2D3758F50196A11DB11DFA
:100930002093C3018093C4019093C501A093C60185
:10094000B093C7018091C8019091C901A091CA01DB
:10095000B091CB010196A11DB11D8093C801909368
:10096000C901A093CA01B093CB01BF91AF919F91F0
:100970008F913F912F910F900FBE0F901F90189560
:1009800026E8230F0296A11DB11DD2CF1F920F9210
:100990000FB60F9211242F933F934F935F936F9352
:1009A0007F938F939F93AF93BF93EF93FF9380EDCC
:1009B00091E00E945802FF91EF91BF91AF919F91FA
:1009C0008F917F916F915F914F913F912F910F90F8
:1009D0000FBE0F901F9018951F920F920FB60F9297
:1009E00011242F938F939F93EF93FF93E091E00156
:1009F000F091E1018081E091E601F091E70182FD53
:100A00001BC090818091E9018F5F8F732091EA0173
:100A1000821741F0E091E901F0E0E053FE4F958F3D
:100A20008093E901FF91EF919F918F912F910F900A
:100A30000FBE0F901F9018958081F4CF1F920F92D8
:100A40000FB60F9211242F933F934F935F936F93A1
:100A50007F938F939F93AF93BF93EF93FF93E09117
:100A6000CE01F091CF01309749F0A685B7858585F5
:100A7000968D91FF14C09C918923A1F4FF91EF9171
:100A8000BF91AF919F918F917F916F915F914F91A6
:100A90003F912F910F900FBE0F901F9018959C9132
:100AA000892361F7A389B4899C91858980958923DD
:100AB0008C93868997890197F1F7608D718DA68552
:100AC000B785558538E020E0CB010197F1F7822FFB
:100AD00090E095958795282F4C91452309F0206843
:100AE000315091F7868D81FD20958091CD0190E068
:100AF00001968F7399273091CC01381799F0A09106
:100B0000CD01B0E0A45DBE4F2C938093CD01828DCA
:100B1000938D0197F1F7A389B4898C919589892BDD
:100B20008C93ACCF868D8160868FF1CF90E0FC01F5
:100B3000E65FFD4F2491FC01E05BFD4F3491FC0129
:100B4000E45CFD4FE491EE23C9F0222339F0233019
:100B500001F1A8F4213019F1223029F1F0E0EE0F73
:100B6000FF1FEE5CFD4FA591B4918FB7F894EC9107
:100B7000611126C030953E233C938FBF08952730E6
:100B8000A9F02830C9F0243049F7809180008F7D8A
:100B900003C0809180008F7780938000DFCF84B581
:100BA0008F7784BDDBCF84B58F7DFBCF8091B00084
:100BB0008F778093B000D2CF8091B0008F7DF9CF36
:100BC0003E2BDACF0F931F93CF93DF931092D30175
:100BD0001092D20188EE93E0A0E0B0E08093D401BF
:100BE0009093D501A093D601B093D70124E031E0D2
:100BF0003093D1012093D00125EC30E03093DD011A
:100C00002093DC0124EC30E03093DF012093DE01FF
:100C100020EC30E03093E1012093E00121EC30E062
:100C20003093E3012093E20122EC30E03093E501C0
:100C30002093E40126EC30E03093E7012093E601B5
:100C40001092E9011092EA011092EB011092EC016E
:100C50001092700210926F02809371029093720250
:100C6000A0937302B093740286E191E090936E02B8
:100C700080936D0210928402109283021092860279
:100C800010928502109288021092870210928A02B6
:100C90001092890260918B026E7F6D7F60938B0250
:100CA0006695617081E0682783E00E94960543E5C0
:100CB00052E0FA0164918FE392E0FC012491222337
:100CC00099F030E0220F331FF901E85DFD4FA59147
:100CD000B491F901EE5CFD4F259134912FB7F89452
:100CE0003C91632B6C932FBFFA01449140937D029A
:100CF000FC018491E82FF0E0EE0FFF1FEE5CFD4F4A
:100D00008591949190937F0280937E0202E512E098
:100D1000F8012491CEE3D2E0FE0184918823C9F04A
:100D200090E0880F991FFC01E85DFD4FA591B491FB
:100D3000FC01EE5CFD4F459154913FB7F8949C91B6
:100D4000822F809598239C93FA0190818923808338
:100D50003FBF80918B0281FD04C061E082E00E9470
:100D6000960582E080937902F801049100937A025B
:100D7000FE01C491EC2FF0E0EE0FFF1FE25EFD4F8D
:100D80008591949190937C0280937B02DF91CF9127
:100D90001F910F910895789484B5826084BD84B5C5
:100DA000816084BD85B5826085BD85B5816085BD66
:100DB00080916E00816080936E001092810080911E
:100DC00081008260809381008091810081608093A6
:100DD0008100809180008160809380008091B100CB
:100DE00084608093B1008091B00081608093B000F6
:100DF00080917A00846080937A0080917A0082608A
:100E000080937A0080917A00816080937A0080914B
:100E10007A00806880937A001092C100E091E0012E
:100E2000F091E10182E08083E091DC01F091DD014D
:100E30001082E091DE01F091DF0180E18083109269
:100E4000E801E091E401F091E50186E08083E09122
:100E5000E201F091E301808180618083E091E20111
:100E6000F091E301808188608083E091E201F0915C
:100E7000E301808180688083E091E201F091E301E9
:100E800080818F7D80831092880210928702109259
:100E900086021092850210928402109283028DE9DC
:100EA00091E090938A028093890290917902963121
:100EB00008F047C02DEB30E030938402209383028A
:100EC0002BE931E030938602209385022CE231E059
:100ED00030938802209387022091680084E0983044
:100EE00048F031E09E3008F430E081E001C0880F26
:100EF0003A95EAF7822B809368002DE630E098302F
:100F000050F02BE630E09E3030F02CE630E09631A9
:100F100010F030E020E03093810220938002292FEE
:100F200030E0983008F017C181E001C0880F9A9531
:100F3000EAF7809382028091890290918A02019758
:100F4000F1F70E9476010E9476018EE990E00E94FE
:100F50000A0488E690E00E940A04C0E0D0E033244E
:100F600033948DE692E00E947703892B09F416C230
:100F70008DE692E00E948D03182F80919901909147
:100F80009A01A0919B01B0919C010196A11DB11DF8
:100F90008093990190939A01A0939B01B0939C0137
:100FA0008091C1019091C201809771F44FE150E0AE
:100FB00062EA71E081EA91E00E94F30A8FE190E039
:100FC0009093C2018093C1018091C1019091C201AF
:100FD0009C012F5F3F4F3093C2012093C1018B567C
:100FE0009E4FFC0114872032310509F0BACF44E04E
:100FF00050E067E271E081EA91E00E94E60A892B05
:1010000009F0AFCF8091A501843009F0B1C01091F3
:10101000A6018FEF810F853008F0AAC0E090BF01D4
:10102000F090C00181EA91E00E945E01E816F906A5
:1010300009F09EC08090A7019090A801A090A901FE
:10104000B090AA014090AB015090AC016090AD010E
:101050007090AE01C090AF01D090B001E090B101AE
:10106000F090B201842D880D810F8C0DE3EBF1E03F
:1010700092E3980F8250219129137AC09F5E9813B2
:10108000FACF1092C2011092C10180919D019091FE
:101090009E01A0919F01B091A0010196A11DB11DDB
:1010A00080939D0190939E01A0939F01B093A00116
:1010B000113009F071C0C814D904EA04FB0409F026
:1010C00059C1809194018823A9F0109294018091D4
:1010D000900190919101A0919201B091930101969C
:1010E000A11DB11D8093900190939101A093920155
:1010F000B093930180918C0190918D01A0918E010C
:10110000B0918F010196A11DB11D80938C01909328
:101110008D01A0938E01B0938F017501640193013D
:101120008201B501A40182E00E94230487EE91E0D0
:101130000E94C702C501B4010E94FF038EED91E039
:101140000E94C702C301B2010E94FF0381ED91E03A
:101150000E940A0406CF9E3040F42850310981E0F5
:1011600001C0880F2A95EAF7E4CE2E503109F7CF57
:101170008091950190919601A0919701B09198016D
:101180000196A11DB11D8093950190939601A093A6
:101190009701B0939801E5CE133009F076C0C814DA
:1011A000D904EA04FB0409F0E5C04528462847288D
:1011B00009F0E0C0809194018111DCC00E94CE0151
:1011C0008B019C01009388011093890120938A016F
:1011D00030938B01C0928401D0928501E092860108
:1011E000F0928701409180015091810160918201CC
:1011F000709183014F5F5F4F6F4F7F4F409380012E
:1012000050938101609382017093830184E00E9476
:10121000230480917C0190917D01A0917E01B09189
:101220007F010196A11DB11D80937C0190937D01EA
:10123000A0937E01B0937F010E94CE01609378015C
:101240007093790180937A0190937B01309294019D
:1012500081EB91E00E94C702609180017091810151
:1012600080918201909183010E94FF0387EA91E0BF
:101270000E94C702609188017091890180918A0162
:1012800090918B010E9416046CCE153009F072C04B
:1012900080919401882309F46DC080918001909120
:1012A0008101A0918201B091830188159905AA0559
:1012B000BB0509F05FC08091880190918901A091E0
:1012C0008A01B0918B0184159505A605B70509F033
:1012D00051C08091840190918501A0918601B091C7
:1012E00087018C159D05AE05BF0509F043C00E941E
:1012F000CE01009178011091790120917A0130910D
:101300007B01601B710B820B930B643F7140810565
:10131000910580F51092940180917401909175016E
:10132000A0917601B09177010196A11DB11D809326
:10133000740190937501A0937601B09377018CE7C7
:1013400091E00E94C702C501B4010E94FF038CE630
:1013500091E00E94C7020E94CE0100917801109195
:10136000790120917A0130917B01601B710B820B16
:10137000930B88CF8091700190917101A0917201BF
:10138000B09173010196A11DB11D809370019093DE
:101390007101A0937201B0937301E3CD8091940128
:1013A0008823B1F10E94CE0100917801109179015A
:1013B00020917A0130917B01601B710B820B930BA2
:1013C000643F71408105910518F11092940180915C
:1013D000900190919101A0919201B0919301019699
:1013E000A11DB11D8093900190939101A093920152
:1013F000B093930183E491E00E94C7026091800161
:101400007091810180918201909183010E94160464
:101410000E94CE0100916C0110916D0120916E012E
:1014200030916F01601B710B820B930B603177421F
:101430008105910508F46CC00E94CE0160936C0197
:1014400070936D0180936E0190936F018DE291E036
:101450000E94C70260918C0170918D0180918E0174
:1014600090918F010E94FF0383E291E00E94C702E6
:1014700060917C0170917D0180917E0190917F014E
:101480000E94FF0381E191E00E94C7026091740114
:101490007091750180917601909177010E94FF0310
:1014A00082E091E00E94C7026091900170919101E9
:1014B00080919201909193010E94FF0387EF90E049
:1014C0000E94C7026091990170919A0180919B01DD
:1014D00090919C010E94FF038BEE90E00E94C70256
:1014E000609195017091960180919701909198017A
:1014F0000E94FF038DED90E00E94C7026091700191
:101500007091710180917201909173010E94160493
:101510000E94A9016B017C010E94A9016C197D093F
:101520008E099F09683E734081059105A8F32097B5
:1015300009F417CD0E944402882309F412CD0E94B9
:1015400000000FCD86E191E090936E0280936D02D2
:101550008091CE019091CF018D56924071F4E0912F
:101560008002F0918102908180918202809589238E
:1015700080831092CF011092CE010895A1E21A2E1D
:10158000AA1BBB1BFD010DC0AA1FBB1FEE1FFF1F27
:10159000A217B307E407F50720F0A21BB30BE40B77
:1015A000F50B661F771F881F991F1A9469F76095BE
:1015B0007095809590959B01AC01BD01CF01089578
:1015C000EE0FFF1F0590F491E02D0994FB01DC0163
:1015D00004C08D910190801921F441505040C8F70A
:1015E000881B990B08956817790768F4FB01DC01E3
:1015F000E40FF51FA40FB51F02C002900E924150D8
:101600005040D8F708950C94050BFB01DC0102C093
:1016100001900D9241505040D8F7089511E0C3E376
:10162000D1E004C0FE010E94E00A2196C433D10734
:06163000C9F7F894FFCF9A
:10163600000000007A02DA010702E202380216020E
:101646002A02000000001B03DA01AE031A03770327
:0C1656008D0302030D0A004D34383500EE
:00000001FF
