:020000040800F2
:100000000000082481040008CD0400081D04000835
:1000100023040008290400082F0400080000000041
:100020000000000000000000000000005503000870
:10003000CD04000800000000EF030008FF030008E3
:10004000CD040008CD040008CD040008CD0400084C
:10005000CD040008CD040008CD040008CD0400083C
:10006000CD040008CD040008CD040008CD0400082C
:10007000CD040008CD040008CD040008CD0400081C
:10008000CD040008CD040008CD040008CD0400080C
:10009000CD040008CD040008CD040008CD040008FC
:1000A000CD040008CD040008CD040008CD040008EC
:1000B000CD040008CD040008CD040008CD040008DC
:1000C000CD040008CD040008CD040008CD040008CC
:1000D000CD040008CD040008CD040008CD040008BC
:1000E000CD040008CD04000800000000CD04000885
:1000F000CD040008CD040008CD040008CD0400089C
:10010000CD040008CD040008CD040008CD0400088B
:10011000CD040008CD040008CD040008CD0400087B
:10012000CD040008CD040008CD040008CD0400086B
:10013000CD040008CD040008CD040008CD0400085B
:10014000CD040008CD0400080000000000000000FD
:10015000CD040008CD040008CD040008CD0400083B
:10016000CD040008CD040008CD040008CD0400082B
:10017000CD040008CD040008CD04000800000000F4
:10018000CD040008CD040008CD040008CD0400080B
:10019000CD040008CD040008CD040008CD040008FB
:1001A000CD040008CD040008CD040008CD040008EB
:1001B000CD040008CD040008CD040008CD040008DB
:1001C000CD040008CD040008CD040008CD040008CB
:1001D000CD040008CD040008CD040008CD040008BB
:1001E000CD040008CD040008CD040008CD040008AB
:1001F000CD040008CD040008CD040008CD0400089B
:10020000CD040008CD040008CD040008CD0400088A
:10021000CD040008CD040008CD040008CD0400087A
:10022000CD040008CD040008CD040008CD0400086A
:100230002548010871310008CD040008CD040008EC
:10024000CD040008CD040008CD040008CD0400084A
:10025000CD040008CD040008CD040008CD0400083A
:10026000CD040008CD040008CD040008CD0400082A
:10027000CD040008CD040008CD040008CD0400081A
:10028000CD040008CD040008CD04000800000000E3
:10029000CD040008CD04000810B5054C237833B90F
:1002A000044B13B10448AFF300800123237010BD49
:1002B000E00300240000000038F3010808B5034BF8
:1002C0001BB103490348AFF3008008BD00000000E4
:1002D000E403002438F30108A3F5803A704700BF17
:1002E000174B002B08BF134B9D46FFF7F5FF00216E
:1002F0008B460F461348144A121A16F047FF0E4B4E
:10030000002B00D098470D4B002B00D098470020C1
:10031000002104000D000D48002802D00C480EF00A
:10032000E7F816F023FD200029000EF087FF0FF0FC
:1003300057FA00BF0000080000000000890F010804
:1003400000000824E0030024B03E0024F1E400088B
:10035000000000001EF0040F0CBFEFF30880EFF365
:100360000980816911F8021C002932D101B590E899
:100370000F10E047BDE800508CE80300244B93E8E1
:100380000600914208BF70471A6041B91EF0100F75
:1003900010D1204B186820F0010018600AE02CE909
:1003A000F00F1EF0100F08BF2CED108A81F822E02C
:1003B000C1F838C0906B92F8221061F0FF0E1EF069
:1003C000100F08BFB0EC108AB0E8F00F80F3098876
:1003D0007047114A13689942FAD801B552F821C002
:1003E0000FC8E047BDE80050CCF80000704701B5E9
:1003F00012F006FABDE80140EFF3098CBEE701B543
:1004000012F040FABDE80140EFF3098CB6E70000B6
:100410005001002434EF00E010AC0108102300F07C
:1004200007B8202300F004B8302300F001B84023BF
:100430009C46F0B404AE7546E80801D3EFF3098694
:100440000E4F0FCE0FC70FBC0FC74046494652464E
:100450005B460FC71DCE3100A60A00D304316E09DA
:1004600000D248311FC7EFF309806946EFF31486C5
:1004700063C7604601490FF067FB00BF4C3E002494
:10048000DFF830D002F018FF002103E00A4B5B5880
:100490004350043109480A4B42189A42F6D3094A9C
:1004A00002E0002342F8043B074B9A42F9D3FFF7DE
:1004B00017FF70470000082444F3010800000024DF
:1004C000D0030024E0030024B03E0024FEE7000037
:1004D000264B022283F83E201B681A6A22F0010292
:1004E0001A621A6A42F001021A62214A934219D032
:1004F00002F58062934215D002F57052934211D0FA
:1005000002F5806293420DD002F58062934209D0D9
:10051000B3F1804F0ED19968164A0A40062A21D1BC
:10052000002070475A6C42F400425A64104A9342C9
:10053000EED1F0E7104A9342EDD002F5806293428B
:10054000E9D002F580629342E5D002F57842934209
:10055000E1D0A2F56C429342DDD01A6842F001026C
:100560001A60DDE7B2F5803FF7D1D9E7640E0024C9
:10057000000001400700010000040040024B6FF042
:1005800002021B681A617047640E0024034B1A684C
:10059000D36823F00203D360704700BF640E0024C9
:1005A000064B6FF002021B681A615A6942F00202A0
:1005B0005A61DA6842F00202DA607047640E002481
:1005C000054B6FF002021B6858631A61DA6842F04B
:1005D0000202DA60704700BF640E0024014B586AC3
:1005E000704700BF000C0040064A1168CB6823F03A
:1005F0000203CB6092F83E30012B01D1FFF768BFB8
:10060000704700BF640E0024074B084A13601A6944
:10061000910708D5DA68920705D56FF00202044801
:100620001A610EF07DB87047000C0040640E002483
:10063000649B010800487047AC9A0108024BD868D7
:10064000C0F30010704700BF004000583E48F0B5AE
:10065000036806463D4D41683D4C2B402F462140E6
:1006600002682A409A425BD1426822408A4257D1AE
:100670000A0DC1F3034402EB820204EB4202D4B23E
:10068000A51E882D4AD8C3F30232C1F30117C3F364
:10069000032014F0030F02EB820204F1440607EB7F
:1006A000870700EB420C01F00F022A4802EB4702D9
:1006B00003F00F0702F1FF3200FB02F24FF03C00A3
:1006C00010FB0C20C3F3021202EB820207EB420282
:1006D0001044C3F30152C3F3034302EB820203EB62
:1006E00042034FF4616202FB0303C1F30030C1F324
:1006F000032208BF0C214FEA800718BF00218A2C73
:10070000384402EB400202F1FF320A44124951F828
:100710002200184409D1114B984208D3002011E05F
:10072000336871683B4021409AE7462E0AD004F1B5
:10073000430240F26D139210113A03FB0522054B60
:1007400003FB02000021F0BD004000587F7F7F00C6
:100750003FFFFF0080510100049B010800D12F00E2
:100760006AB101F00301074B0329596808D000F46E
:100770007060B0F5706F03D121EA02025A607047D1
:100780000A43FBE70004005830B5114B114DD5F872
:1007900094409C42FBD14943012A01EB41034FEABB
:1007A00041046FEA030304D0022A0BD0C26813404D
:1007B0000BE0C26813401943C160064B4FF440720E
:1007C0005A6130BDC26813402343C360F5E700BFE0
:1007D0000003008000640258024BD869DA69824243
:1007E000FBD17047002C0058044B054A1878054B84
:1007F000002814BF10461846704700BF4019002457
:10080000B49A0108BC9A010890F85030011D032BDE
:100810000ED8DFE803F00207090B0648064A42F843
:10082000231070470548F9E70548F7E70548F5E75D
:100830000020F3E7215D00081C1000243D5D000846
:10084000595D0008755D000809010028C9B206DB82
:1008500000F1604000F5614080F80013704700F03F
:100860000F00014B1954704714ED00E073B51C4B99
:10087000B0F95C409D6804F11006B0F95E2045F8BF
:100880002610BFF34F8F9B6802F1100543F8251027
:10089000BFF34F8F90F870302046002B0CBF022121
:1008A00001210191FFF7D0FF01991046FFF7CCFF1E
:1008B000002C08DB0123610904F01F0403FA04F48F
:1008C000084B43F82140002A08DB0123510902F0BC
:1008D0001F0203FA02F2034B43F8212002B070BD5D
:1008E00000ED00E000E100E02DE9F04191F800E0CA
:1008F0004B7874464E69012B354F4FEA4414DFF8AC
:10090000D4C044D100F510652B19B6B91E69374023
:100910001F611E6946F400261E611E6906EA0C0668
:10092000012A1E6122D10A6902B15A612B5943F092
:1009300004432B510020BDE8F081D3F8108008EA71
:100940000C0CC3F810C0D3F810C00CEA07071F61E5
:100950008F68BE421E6946F4002688BF4F611E6143
:100960004E691F69C6F312063E43D9E72B5943F07F
:1009700004432B514B69002BDCD00EF00F020123F6
:10098000D0F8341893400B43C0F83438D2E700F560
:10099000306003191D6905EA0C051D611D693D40A4
:1009A0001D618D6806B14D611E69C5F31205012AEE
:1009B00046F400261E611E6945EA06051D6102D146
:1009C000CA6802B15A61035943F004430351B1E7C5
:1009D000FFFF07E00000F8FF0023092803D840EAE2
:1009E0000310C0B270470A380133C0B2F5E7000007
:1009F0004E4A70B5946A966AD36A16F07C7FC6F345
:100A00000551556C00F08D8007EE901AC3F300235A
:100A1000C5F3CC0104F00304F8EEE76A4B43012C64
:100A2000B7EE006A07EE903AFAEEE97A6BD0022C44
:100A30005BD0002C67D113689B0646D51168136CF8
:100A4000C1F3C1013A4AC3F30803CA4007EE102AB2
:100A5000F8EEC75A85EEA67A06EE903AF8EEE66A08
:100A600076EEA77A77EE867A304A67EE877A136C4D
:100A7000C3F3462307EE103AB8EEC77A37EE067A8C
:100A8000C7EE876AFCEEE66AC0ED006A136CC3F33A
:100A9000064307EE103AB8EEC77A37EE067AC7EE8D
:100AA000876AFCEEE66AC0ED016A136CC3F3066365
:100AB00007EE103AB8EEC77A37EE066A87EE867A06
:100AC000BCEEC77A80ED027A70BD136CDFED195A67
:100AD000C3F3080307EE103AB8EEC77A77EE277A29
:100AE00077EE867A85EEA67ABEE7136CDFED125AB2
:100AF000C3F3080307EE103AB8EEC77A77EE277A09
:100B000077EE867AEEE7136CDFED0C5AC3F3080339
:100B100007EE103AB8EEC77A77EE277A77EE867A44
:100B2000E0E7C0E900118160CEE700BF0044025851
:100B30000090D0030024744C20BCBE4B0024744AA7
:100B40004E4A70B5946A966AD36A16F47C3FC6F32F
:100B50000531D56B00F08D8007EE901AC3F30013BA
:100B6000C5F3CC0104F00304F8EEE76A4B43012C13
:100B7000B7EE006A07EE903AFAEEE97A6BD0022CF3
:100B80005BD0002C67D113689B0646D51168936B28
:100B9000C1F3C1013A4AC3F30803CA4007EE102A61
:100BA000F8EEC75A85EEA67A06EE903AF8EEE66AB7
:100BB00076EEA77A77EE867A304A67EE877A936B7D
:100BC000C3F3462307EE103AB8EEC77A37EE067A3B
:100BD000C7EE876AFCEEE66AC0ED006A936BC3F36A
:100BE000064307EE103AB8EEC77A37EE067AC7EE3C
:100BF000876AFCEEE66AC0ED016A936BC3F3066395
:100C000007EE103AB8EEC77A37EE066A87EE867AB4
:100C1000BCEEC77A80ED027A70BD936BDFED195A96
:100C2000C3F3080307EE103AB8EEC77A77EE277AD7
:100C300077EE867A85EEA67ABEE7936BDFED125AE1
:100C4000C3F3080307EE103AB8EEC77A77EE277AB7
:100C500077EE867AEEE7936BDFED0C5AC3F3080369
:100C600007EE103AB8EEC77A77EE277A77EE867AF3
:100C7000E0E7C0E900118160CEE700BF0044025800
:100C80000090D0030024744C20BCBE4B0024744A56
:100C9000094A82B0D2F8F41041F00201C2F8F4100F
:100CA000D2F8F42002F002020192044A019B536838
:100CB0001843506002B070470044025800040058C6
:100CC00011F0010307D090F8413003F02803282BDE
:100CD0000CBF4223F2238A0709D590F8412002F085
:100CE0002802282A0CBF43F0440343F0F4030A040B
:100CF000016848BF43F0B8030A6822EA03030B60A7
:100D0000704790F84130026803F02803282B70B533
:100D1000044625D1956991699368C5F30045D66865
:100D2000C668022E16D1C3F3C21383EA114313F02F
:100D300006030FD1816C01318164816C022908D1D5
:100D400008218364D16184F84030012375B184F8AF
:100D50006D3070BD4FF40041FFF7B2FF0023F2E7A2
:100D60000823D361002380F84030F2E784F86E3026
:100D7000EFE7000030B5039DC1F30901046845EABF
:100D8000024260681A43044B43EA55530A4320EA7F
:100D900003000243626030BDFF63FF03D0F884307C
:100DA00037B50446002B62D0D0F89430002B5ED0CB
:100DB00090F87C2090F84110002A14BF4FF0007288
:100DC00000222029C26545D190F84010012941D068
:100DD0000125816FD0F890009BB284F84050222505
:100DE000606284F84150102584F842500025656403
:100DF0006385214BE2626363638D9BB2FF2B2BD92A
:100E0000FF2323854FF08073226B122A4FF00002DC
:100E100009D0E06AAA2823D1E262628D92B2FF2A49
:100E200000D8E36A154A89B20092204694F8282037
:100E3000FFF7A0FF626B124900238A4284F840301A
:100E400004D0104B9A4214BFF423002321680A688F
:100E500013430B6003B030BD638D2385E36AD3E792
:100E6000E26AB2F52A4FD8D14FF00072D4E70823D6
:100E700084F86030EEE700BF775A00080024008055
:100E8000995B0008ED56000803689A69910701D53F
:100E900000229A629A69D20703D49A6942F0010249
:100EA0009A61704738B5002580F8425090F841307B
:100EB000212B4FF0200380F841300BD111234563E3
:100EC00001210363FFF7FCFE80F84050BDE8384085
:100ED000FFF764BF1223022145630363FFF7F0FEAF
:100EE000082380F8405080F8603038BD0268436BBA
:100EF0009169126803B118477047000090F84130BB
:100F0000202B0BD12823026880F84130044B436327
:100F10000020136843F0B803136070470220704745
:100F20007958000808B5194B2022C36200230363D7
:100F3000436380F8412080F842304B0712D50368A4
:100F40005A6A436A1A70436A01334362038D4BB194
:100F5000013B0385438D013B9BB24385436C43F0CA
:100F60000403436448F20301FFF7AAFE102203685A
:100F7000DA61002390F86C2080F84030022A01D119
:100F800080F86E30BDE80840FFF7B8BF0000FFFFF3
:100F900090F8413003F0FF020BB980F84020242381
:100FA00080F8413003681A6822F001021A60426832
:100FB00022F070621A619A6822F400429A60D0E9C5
:100FC0000221012925D142F400429A605A6842F078
:100FD000007242F400425A60DA6822F40042DA6099
:100FE000D0E904210A43816942EA0122DA60D0E9AA
:100FF00007210A431A601A6842F001021A600023AE
:101000002022436480F84120036380F84230184670
:10101000704742F4044202299A60D7D14FF400622B
:101020005A60D3E710B528B190F83530022B03D0C1
:101030008023436501207FE00368504A934252D0E9
:101040004F498B424FD018318B424CD018318B42D4
:1010500049D018318B4246D018318B4243D01831D9
:101060008B4240D018318B423DD001F556718B42F6
:1010700039D018318B4236D018318B4233D01831E9
:101080008B4230D018318B422DD018318B422AD070
:1010900018318B4227D018318B4224D01A6822F0A5
:1010A0000E021A601A6822F001021A60354A934251
:1010B00043D1026E136823F480731360D0E91613D2
:1010C00003F01F02012393404B60D0E919325A60AC
:1010D000C36E002B46D01A6822F480721A60D0E9E1
:1010E0001C325A603EE00421934280F835101ED035
:1010F000234A93421BD01832934218D0183293429D
:1011000015D01832934212D0183293420FD01832B1
:1011100093420CD01832934209D002F55672934292
:1011200005D01832934202D018329342FFD01A6889
:1011300022F001021A60002010BD134A9342B8D079
:1011400014329342B5D014329342B2D01432934247
:10115000AFD014329342ACD014329342A9D014329F
:101160009342A6D00123002480F83530036D80F827
:1011700034400BB19847DEE71846DDE71000024027
:1011800028000240085402581C54025838B590F800
:101190006C300446022B63D1B0F8763001339BB239
:1011A000A0F87630B0F87620B0F8743092B29BB2E6
:1011B0009A4255D2B0F8765090F84120ABB202F086
:1011C0002802282A05D1056FED1803D14FF40073CA
:1011D000436438BD48F20201FFF772FD90F84030D9
:1011E000012BF6D090F841300121292B80F84010D6
:1011F00013D1FFF765FD03681A6850040DD51A680E
:10120000A06B22F480421A6038B1174B0365FFF7D8
:1012100009FF10B1A06B036D98472A23002284F8C0
:101220004130202384F8423023686264596821F4F5
:1012300000415960012165626185618D21854FF012
:101240008071E162094961639969C90301D4082188
:10125000D96184F840201A6842F0FC021A60B8E7AD
:10126000002384F86E30B4E77754000879580008FA
:1012700008B5036800211A6880F84210510415D59A
:101280001A6822F480421A6090F84130292B13D159
:101290002823012180F8413021230363FFF710FD4B
:1012A000002380F8403080F86D3008BD1204EBD583
:1012B0001A6822F40042E6E790F841302A2BF4D174
:1012C0002823022180F8413022230363FFF7F8FC32
:1012D000002380F84030BDE80840FFF757BF0020EA
:1012E00070476FF0570070476FF057007047036802
:1012F00010B49C6C0023A4461A465DF8044B60476A
:101300006FF05700704743680A46196810B48C6D37
:101310008168184623465DF8044B18474368816886
:101320001A681846526D1047436881681A68184653
:10133000126D1047436881681A681846D26C1047CE
:1013400030B4446813462268956C0A46816820468A
:10135000AC4630BC6047436881681A681846526CD6
:101360001047436881681A681846126C104730B4F9
:10137000446813462268D56B0A4681682046AC460D
:1013800030BC604730B4446813462268956B0A4607
:1013900081682046AC4630BC604710B504464068C2
:1013A00030B10368A1685B6B98470023636010BD90
:1013B0006FF01500FBE738B50446FFF7EEFF054672
:1013C000236820465B689847284638BD70B50D46AF
:1013D0004168044641B929680E6B00F108012846AE
:1013E000B04700B9656070BD6FF01500FBE7000005
:1013F000044B10B50360044643680BB1FFF7CDFF03
:10140000204610BDA8990108034B10B5044603609F
:10141000FFF7EEFF204610BD409A0108436881683F
:101420001A681846526F1047436881681A68184650
:10143000126F1047436881681A681846D26E1047C9
:1014400043680A46196810B48C6E816818462346B2
:101450005DF8044B184710B50446406830B1036886
:10146000A1681B6E98470023636010BD6FF01500E4
:10147000FBE738B50446FFF7EEFF05462368204634
:101480005B689847284638BD38B5436804460D4622
:1014900043B90B6800F108012846DB6D984700B995
:1014A000656038BD6FF01500FBE70000044B10B518
:1014B0000360044643680BB1FFF7CDFF204610BD23
:1014C0007C990108034B10B504460360FFF7EEFF5B
:1014D000204610BD149A01080B4640F2011200216B
:1014E00070B50446184615F051FE03466068A168C1
:1014F0000268556E1A462B46BDE87040184700003A
:1015000008B50DF065F8064B01221B685A604FF4D0
:101510008052044BC3F89021BDE808400DF044B858
:10152000040E002400E100E008B50DF051F8084B6E
:1015300001221A700022074B1A704FF48052064B9A
:10154000C3F810211A61BDE808400DF02DB800BFA6
:10155000301000243810002400E100E070B504468B
:101560000DF036F8FFF738F9264B05461C60264A81
:101570004FF480511161254E18463178F1B9611F41
:101580004FF6F572914222490FD94FF6FA72954201
:101590000BD906340122A4B20A701C601D4B012233
:1015A0001A70BDE870400CF0FFBF00220A7003689B
:1015B000AB42194B28BF01221A70EFE7FFF7A0FFDB
:1015C00000235A19013392B2A24204BF0534A4B2D7
:1015D000052BF6D1114BAC421B6811D24FF6FA72B3
:1015E00095420DD84FF0FF325A6100230C4C3370F6
:1015F0002378002BD5D10CF0C3FF01232370D0E753
:101600005C61F2E73410002400E100E031100024B6
:10161000681200243810002418100024040E00243E
:1016200069120024F8B5037890F801C0012B057FFA
:101630000279077B866844792ED0022B2FD0002BAD
:1016400030D14FF480738B610023C1F800C04D612D
:101650004B63C1E90B333FB3CB61CB60037C012B00
:1016600045D0022B48D0002B4BD14FF480430B6266
:101670000123027E002A47D000230B620B61437FC7
:10168000012B6AD0022B6BD0002B6CD14FF08073F2
:1016900000204B628862F8BD4FF40073D3E74FF42B
:1016A0004073D0E70023CEE7012A4E600BD0022A18
:1016B0000CD072B94FF48063CB61032C09D8DFE8FA
:1016C00004F00B0D10134FF40063F5E74FF4406383
:1016D000F2E727480DF0ACFB0023BEE74FF4805340
:1016E000BBE74FF40053B8E74FF44053B5E74FF46E
:1016F00000430B620223BCE74FF440430B62042318
:10170000B7E700230B62B4E77BB3427CB2FBF3F490
:1017100003FB142414F0FF0F27D1561EF610741C7F
:10172000042C22DCC2EBC40212F0FF0210D0B2FB88
:10173000F3F39D4219D3EB1A4B61436903FA02F2AA
:101740008A60032E07D82404A4F580340C6196E740
:1017500043698B60F5E70748BCE74FF0007397E7F4
:101760004FF0407394E7002392E74FF0FF3092E789
:10177000C4940108ED94010800B5564B8DB00A28B9
:1017800000F2A480DFE800F006162432404E5C6AC6
:1017900078869400D3F8E0204F4842F00102C3F865
:1017A000E020D3F8E03003F001030193019B0DB07A
:1017B0005DF804FBD3F8E020484842F00202C3F889
:1017C000E020D3F8E03003F002030293029BEEE73F
:1017D000D3F8E020424842F00402C3F8E020D3F8F6
:1017E000E03003F004030393039BE0E7D3F8E02029
:1017F0003C4842F00802C3F8E020D3F8E03003F0A0
:1018000008030493049BD2E7D3F8E020364842F063
:101810001002C3F8E020D3F8E03003F01003059382
:10182000059BC4E7D3F8E020304842F02002C3F81B
:10183000E020D3F8E03003F020030693069BB6E7E0
:10184000D3F8E0202A4842F04002C3F8E020D3F861
:10185000E03003F040030793079BA8E7D3F8E020AC
:10186000244842F08002C3F8E020D3F8E03003F0CF
:1018700080030893089B9AE7D3F8E0201E4842F4BF
:101880008072C3F8E020D3F8E03003F4807309934A
:10189000099B8CE7D3F8E020184842F40072C3F8A3
:1018A000E020D3F8E03003F400730A930A9B7EE74C
:1018B000D3F8E020124842F48062C3F8E020D3F865
:1018C000E03003F480630B930B9B70E70D480DF041
:1018D000AFFA00BF0044025800000258000402584A
:1018E00000080258000C0258001002580014025858
:1018F00000180258001C0258002002580024025808
:10190000002802580495010870B50CF061FE2C4BBC
:101910002C4C1A7832B100221A70012223685A60C6
:101920000DF004FA23681A68D50706D59A68D0071F
:1019300003D501225A600DF0F9F923681A681107DE
:1019400024D59A68120721D508221F4C5A6001221B
:101950001E4B1A7023781BB10CF0E2FD002323709C
:101960001B4C237893B11B4D1B492B7803F0FF06CA
:10197000B3B1FEF731FF06300B6880B2984209D34D
:10198000FFF7D2FD00232B7000232370BDE87040C9
:101990000CF00ABE0868063880B2FFF7DFFDF1E7F9
:1019A0000E4D2B7843B1FEF717FF0B68984203D317
:1019B000FFF7BAFD2E70E7E70868FFF7CFFDE3E712
:1019C00030100024040E0024691200243110002479
:1019D0003810002468120024341000241810002449
:1019E00010B50446FFF710FD204615F069FB2046B0
:1019F00010BD10B50446FFF765FD204615F060FBED
:101A0000204610BD10B50446FFF7F2FC204615F045
:101A100057FB204610BD10B50446FFF747FD204692
:101A200015F04EFB204610BDF0B5142085B00CF02B
:101A3000A5FC4FF6FF71831E00F1120223F8021F6E
:101A40009A42FBD1974B0021974E10251A463060E1
:101A500002F8011B013D02F8011BFBD142F6021204
:101A6000924C2946924F5A8204F10800914B924AB7
:101A70001D61DA605C221D60C3E901558F4B236054
:101A80008F4B636015F082FB3B234FF0010C201D50
:101A9000A4F89A308B4BC4F8A850A4F86850C4F846
:101AA0008C5084F89850C4E927734FF400336627AC
:101AB0006366854BA4F8A470C4E9243C834BC4E955
:101AC0002B350CF0F7FF04F1BC00A4F8B87000F05F
:101AD000FFF97F4B7F48C4F8F431C4F8005284F812
:101AE00004520EF09BF80CF0B9FB7B480768092FF5
:101AF00000F3B8803368991E1A4603F1120631F9D3
:101B000002CFBCF1660F00F0B080B142F7D11433C0
:101B100011460232B1F90060013640F09F80662321
:101B20000B800137002607606A480EF077F80DF049
:101B3000F5FB00200021C4F8B460032600234FF019
:101B4000FF32C4F86031C4F8182184F8543184F8A5
:101B5000FD3184F8FE31C4F8E820C4F8FC20A4F874
:101B60000031C4E944014FF400300121C4F8F80108
:101B70000220C4F8281184F8F01084F80211C4E996
:101B800038603520C4E93D22C4F8EC00534C544A77
:101B900023612260CDE9003304F144030293102352
:101BA0000393EFF30583002B62D00020206400270D
:101BB0004C4800F08DF9442200214B4815F0E6FA1C
:101BC000012320223946A3876761484815F0DEFAD1
:101BD0004FF4805328224FF4D060C4E90B32444BB9
:101BE000A361444CA76515F063FA064670B3C21CA6
:101BF000394622F00302131AE260C3F5D06323F0E2
:101C000003031846C4E904776F1C00283CD101B1D6
:101C1000256100252262C4E9065325600CF0DCFE34
:101C20000EF0E2FE344B60600093344B258102934A
:101C30001023A57284F8245001950393C4E90A5532
:101C4000EFF3058323B30020206366612C480DF079
:101C500063FA2C480DF060FA05B0F0BD9A427FF4AB
:101C600057AF5EE76FF001065EE74FF0FF365BE7C8
:101C70000DF0E6FA0146002897D14FF6FF706A464C
:101C8000DFF884C000DF91E740083D460121BBE753
:101C90000DF0D6FA0028D6D16846DFF870C000DF14
:101CA000D2E700BF600F0024580F0024601000240A
:101CB0003C005700740F002409CA00082899010845
:101CC000FC9901083D005A0040420F00B5EA0008A7
:101CD000005A6202300F00245C0F0024A019002477
:101CE000A49A0108F4190024181A0024BC1900242D
:101CF000259501084419002440950108781900240D
:101D0000F00E0024B00E00246DD5000821D7000885
:101D10000B688360054BC26813404A6813438A68A6
:101D2000134343F48053C36000207047C0E0FEFFBC
:101D30000C4BDB68C3F3022310B4C3F107041A1D74
:101D4000042C28BF0424062A4FF0FF328CBF033B2B
:101D50000023A2405DF8044B21EA02019940FEF7FE
:101D600073BD00BF00ED00E0464BDA6C1868D1038C
:101D700030B585B07DD410F000704CD0996A9D6A62
:101D8000DA6A15F47C7FC5F305105C6B43D0C4F3AD
:101D9000CC0402F0010207EE900A01F00301624355
:101DA000B7EE006AF8EEE76A012907EE902AFAEE2C
:101DB000E97A32D0022940D000294CD11A68920623
:101DC00049D51968304AC1F3C1011B6BCA40C3F33E
:101DD000080307EE102AF8EEC75A85EEA67A06EE3B
:101DE000903AF8EEE66A76EEA77A77EE867A254A9A
:101DF00067EE877A136B136BC3F3064306EE903AD4
:101E0000136BF8EEE66A76EE866A87EEA67AFCEE4B
:101E1000C77A17EE900A05B030BD1B6BDFED1B5A79
:101E2000C3F3080307EE103AB8EEC77A77EE277AC5
:101E300077EE867A85EEA67AD9E71B6BDFED145A2A
:101E4000C3F3080307EE103AB8EEC77A77EE277AA5
:101E500077EE867AEEE71B6BDFED0E5AC3F30803CD
:101E600007EE103AB8EEC77A77EE277A77EE867AE1
:101E7000E0E710F00060CED001A8FEF761FE039805
:101E8000C9E700BF004402580090D0030024744A00
:101E900020BCBE4B0024744C044B0122D3E84F0FEE
:101EA000C3E8412FC0B20029F8D17047391000248F
:101EB00007B504460091CDF804E0FFF7EDFFDDE93A
:101EC000001210B920460CF0E1FB0CF091FF00006D
:101ED0001FB5002304460362064B0093031D6846AA
:101EE00002931C2303930B23019310F071FD2060D8
:101EF00004B010BD4795010810B50446802112F0CA
:101F0000C2FB00212046BDE8104012F0BCBB08B562
:101F1000026500220B4600F13C0142654FF48072DD
:101F2000836482870269012AD2B208BFC364006851
:101F3000FEF7DAFC002008BD08B5C0F81022002228
:101F40000B4600F5FE71C0F81422A0F8FC210269CE
:101F5000C0F80832012AD2B208BFC0F80C320068BB
:101F6000FEF7C2FC002008BD84B02DE9F041044614
:101F700007ADDDE90C7885E80E000CF029FB636BFA
:101F800023B994F838300BB10CF0FAFA04F12806B2
:101F900095E80F0086E80F0020460CF059FFA06975
:101FA000C4E908780CF0C6FCC219204641EB0803CE
:101FB0000CF094FFBDE8F04104B00CF0F5BA00005D
:101FC00010B586B004466846039180E80C0006A868
:101FD00000E90C0010E90700034B84E807002046E5
:101FE000E36006B010BD00BF89C500080D4B19881D
:101FF0004FF6FD734A1E92B29A4297BF0A4B4FF0BA
:10200000026303EA812303F10063834207D9B0F13D
:10201000006F34BF4FF0FF304FF4003070474FF087
:10202000FF30704780E8F11F00FC3F00064B4FF681
:10203000FD711A88531E9BB28B429ABF034800EA77
:1020400082204FF40010704780E8F11F00FC3F0031
:1020500038B50E4B0D46044603600023C0E901313C
:10206000012303730A480DF0D9FD0CF0F7F855B1C0
:10207000084B1A681C60626005480DF0CFFD0DF03A
:102080004DF9204638BD6560F6E700BF949A010817
:102090008C0F0024880F0024034653E8000F0138FA
:1020A00043E80002002AF8D170470000074B5A6845
:1020B00090235343064AD358DA69120701D5082200
:1020C0001A62D869C0F34010704700BF6C12002438
:1020D000101300242DE9F84FFF270646D0F80080A2
:1020E00004253C464FF6FF79B169002972D040467D
:1020F00007F0DBFB0546002855D1F0690378002B7B
:102100006BD0C27AE52B02F03F02B27150D02E2B79
:102110004ED022F0200108294AD00F2A4DD159066D
:1021200044D503F0BF043369477BF362437BBB4272
:102130003ED1C27E837E43EA02230FFA83FCBBBBFF
:1021400003780D22D8F81050012123F04003DFF866
:1021500090E0013B53431EF801AB00EB0A0292F8FA
:1021600001B010F80A2042EA0B2219B3FF2B1FD846
:1021700025F81320114601330CF1010CBCF10D0FB1
:10218000E9D10278520605D521B1FF2B10D80022E3
:1021900025F81320013CE4B20021304608F086FE09
:1021A00005460028A0D00023B3610CE0A342BDD0B7
:1021B000FF24F1E74A45DFD0FAE73CB907F066FBB8
:1021C000B84203D100252846BDE8F88F4FF0FF3311
:1021D000F362F8E7002DF5D0E5E70425E3E700BF5B
:1021E0001099010808B503480DF018FDBDE8084036
:1021F0000DF094B8B40F00242DE9F04F87B00646D7
:102200008B4617464FF001090DF1170ADDE910451D
:102210002544A3EB0408AC4201D1012011E008EBF6
:10222000040300225946304600933B46CDE901A9FC
:1022300005F011FC28B914F8013B9DF817209A42CB
:10224000E9D007B0BDE8F08F2DE9F04F89B0064620
:102250008846DDF84C9005924BB94FF0FF32C9F833
:102260000020149A0020136009B0BDE8F08F013BF4
:1022700007A900684FF0040A079305F0CFFB12A9E5
:10228000054630680DF1140B05F0C8FB0746AF4258
:10229000059B03D3C9F80030129BE2E7EC1B95FACB
:1022A000A5F241463046B4FA84F4B2FA82F2C4F19F
:1022B0001F04944228BF1446A200CDE901BA00923F
:1022C000002205F0C8FB0028CED1012303FA04F454
:1022D0002D1BDCE7034B596A5A6A521A8242FBD320
:1022E000704700BF000C0040C069C0F38010704709
:1022F00038B5431C0C4629D000F00F021D4BC0F32B
:10230000031053F82250FFF737FA1B491B4BD1F843
:1023100094209A42FBD105FB05F2016802EB4203CF
:102320000B40B3FBF2F3013B012B19D8E31E022B48
:1023300043680CD82B43032C436019D10122294652
:10234000FEF722FA0C4B4FF440725A6138BD23EA73
:102350000503012C4360F1D0022C07D00022EEE7E8
:1023600004F0FD03012BE9D0052CF5D10222E6E7AC
:10237000052CF2E7C49A01080064025800030080AB
:102380002DE9F843461C05460C4600F09C801FFAD8
:1023900080F9554A40F47061B2F90030581C4BD1B5
:1023A0000026524B09F00F02C5F3031053F82270B8
:1023B000FFF7E2F94E494F4BD1F894209A42FBD1F6
:1023C00007FB07FCC4F3831283680CEB4C0E0F2A47
:1023D0006FEA0E0114BF02FB0CF243EA0E034FF446
:1023E000407E1CBF0B40134304F007028360022AA7
:1023F0003F4BC3F814E036D10EF1004ED3F8948071
:10240000F045FBD119F0080FC4F383285DD03B0AD7
:10241000D0F824E05B435B43C3EB031903FB08F3F1
:102420002EEA090E4EEA03034362314B4FF4407E1D
:10243000C3F814E002231EE043F470638B4210D112
:1024400004F003035668032BABD109F47063B3F5B2
:10245000706FA6D1324621462846BDE8F843FEF704
:102460007FB9083298E7032A3CD002F1FF3EDEF143
:10247000000343EB0E03DFF87890DFF878E0D9F83B
:102480009480F045FBD1D0F800E003FB0CFC013A4E
:1024900001EA0E01012A41EA0C01016005D84368F6
:1024A00022074CBF3B43BB434360C4F30112394690
:1024B000FEF76AF9324621462846FEF751F90C4BE1
:1024C0004FF440725A61BDE8F8830CFB0CF9036AC3
:1024D000C9EB091E23EA0E0E09FB08F34EEA0303BB
:1024E0000362A2E71346C6E798970108C49A010859
:1024F000006402580003008000280DDB430901221C
:1025000000F01F00203302FA00F0044A42F82300D2
:10251000BFF34F8FBFF36F8F704700BF00E100E044
:1025200010B50CF055F8124B1A7842B9114A1268DE
:1025300011680907FCD50821516001221A700E4C60
:1025400023781BB10BF0ECFF0023237000230B4A10
:102550008C2013700A4A1370FFF7CEFF094B4FF41B
:102560008052BDE81040C3F890210CF01DB800BFA8
:1025700031100024040E00246912002438100024B5
:102580003010002400E100E0FFF7CABF10B50CF0E6
:102590001FF8134B1348144A596A146803881160D2
:1025A0001B1B0B440146B3F5803F16D34FF47A71E1
:1025B000B3FBF1F201FB1233038006E00132A3F515
:1025C0007A73B3F57A7FF9D20B80084C23681A44EA
:1025D00022600BF0E9FF206810BD0022F1E700BF88
:1025E000000C0040581000245C10002490120024BD
:1025F00038B5114CE36803F00703062B06D0E068FA
:1026000000F03F00163818BF012038BDE36823F002
:102610003F0343F01603E360FFF7B8FF0546636826
:102620009B0401D50020F0E7FFF7B0FF401BB0F599
:102630007A7FF4D90120E8E7004802582DE9F843F1
:102640000546294F3C69FFF7A1FF022D0646274B9F
:1026500026D1D7F81041264F1C4044F00044DFF843
:1026600088804CF25039042F1DD1D8F81000C0F3E7
:10267000800070B934F0004122D01E4A002C9369CA
:1026800043EA04039361184B17DB5C610120BDE84A
:10269000F883FFF77BFF801B4845E4D90320F6E76A
:1026A0001C400427DBE7D8F8103127EA030313F0B6
:1026B000040F0CBF01200020DBE7C3F81411E5E78D
:1026C000012D094B06D11A69D103E0D54FF48032B0
:1026D0005A61DCE7D3F81021D203D8D54FF4803209
:1026E000C3F81421D3E700BF002000520000EE170A
:1026F000040000803C10002470B504460D461646C8
:102700002368DB6935EA030301D1002017E0FFF7F6
:102710003DFF801B2368B0F1007F1A6810D322F4BC
:10272000D0721A609A6822F001029A602023C4F8DD
:102730008430C4F888300023032084F8803070BDD2
:102740005107DDD5DA691205DAD54FF400621A6255
:102750001A6822F4D0721A609A6822F001029A6014
:102760002023C4F88430C4F88830C4F88C30E2E701
:1027700038B50B4C2268D36823F0A003D360FFF771
:1027800005FF05462368DB689B0601D5002038BDA0
:10279000FFF7FCFE401BB0F57A7FF3D90320F6E784
:1027A000400E002408B5104BDA6822F04002DA60CF
:1027B0009A68920607D4FFF7DBFF18B103200B4B92
:1027C00083F8210008BD9A6822F020029A60FFF782
:1027D000CFFF18B10320054B83F82100024A93680C
:1027E00043F020039360EDE700400058400E0024C2
:1027F000F8B50F4D2B68DC6814F0400416D14FF08B
:10280000FF320327DA60FFF7C1FE06462B68DB685C
:102810005B0601D52046F8BDFFF7B8FE801BB0F57A
:102820007A7FF3D9032485F82170EFE70024F1E7DC
:10283000400E00242DE9F74F06463C250BF0C8FE5C
:102840004FF0180A4FF0070E6A4C6B4B4FF0460BD7
:10285000B6FBF5F7B7FBF5F5B5FBFAFC0CF1040296
:102860002360B2FBFEFECEEBCE0EA2EB0E091BF0F8
:10287000030F07D1BCF5B77F0BD3ACF5B77C0BF1D9
:10288000010BF4E7BCF5B67F1FD96FF4B6739C4417
:10289000F5E70123594830214FF0000800FB0CFAFE
:1028A000574801FB030151F8042B92450FD208F160
:1028B000FF38B9F1000F94F8201008BF4FF0070956
:1028C00001290CD14F480CF0B3FA0023E2E708F1DC
:1028D0000108B8F10C0FE6D14FF00B08E9E70C2125
:1028E00001FB0383012184F82010022150F82330DA
:1028F000CA2084F82110404901934862532048625D
:10290000FFF776FF019B00BBAAEB03003B4B22685D
:10291000B0FBF3F00130C0B2FEF75EF840EA493197
:10292000ABF14400C0B2FEF757F841EA004108F1AC
:102930000100C0B2FEF750F841EA002323F07F43C4
:1029400023F0C0035360FFF72DFF2368FF225A6274
:1029500000284BD1012284F8212084F82020022273
:1029600084F82120CA225A6253225A62FFF740FF9C
:1029700050BB226893681823B5FBF3F003FB10509B
:102980003C25C0B2FEF728F80146B7FBF5F005FB81
:102990001070C0B2FEF720F80302B6FBF5F005FB9D
:1029A000106043EA0141C0B2FEF716F8084300F098
:1029B0007F3020F0FE401060936823F48023936002
:1029C00093689360FFF7EEFE2368FF225A6210B906
:1029D000012384F82130002384F8203008B10A480C
:1029E00071E703B0BDE8F04F0BF0DEBD002384F8C3
:1029F000203067E7400E002400400058805101005D
:102A0000049B01086195010878950108F8B53A4CD6
:102A100006460D46A36A03F00303032B69D023681F
:102A200023F080532360FFF7B1FD074623689A0027
:102A30004BD4A36A326823F07C7343EA0253A36247
:102A4000B368F268013B013A5B0212049BB202F4E4
:102A5000FE0213437268013AC2F30802134332695B
:102A6000013A120602F0FE4213432364E36A7269DC
:102A700023F440631343E362E36AB26923F400730F
:102A80001343E362E36A23F48073E362636CF269E5
:102A900023F47F4323F0F80343EAC2036364E36A49
:102AA00043F48073E362E36AB5B943F48003E362FD
:102AB000114C236843F080532360FFF767FD054600
:102AC00023689B000FD5002005E0FFF75FFDC01BCA
:102AD0000228ABD90320F8BD012D0CBF43F400033D
:102AE00043F08073E3E7FFF751FD401B0228E7D96D
:102AF000F0E70120EFE700BF00440258F8B53A4C78
:102B000006460D46A36A03F00303032B69D023682E
:102B100023F080632360FFF739FD074623681A011D
:102B20004BD4A36A326823F47C3343EA0233A362B2
:102B3000B368F268013B013A5B0212049BB202F4F3
:102B4000FE0213437268013AC2F30802134332696A
:102B5000013A120602F0FE421343A363E36A72696C
:102B600023F0C0031343E362E36AB26923F0200356
:102B70001343E362E36A23F01003E362E36BF26959
:102B800023F47F4323F0F80343EAC203E363E36AD9
:102B900043F01003E362E36AB5B943F40023E36250
:102BA000114C236843F080632360FFF7EFFC054678
:102BB00023681B010FD5002005E0FFF7E7FCC01BD1
:102BC0000228ABD90320F8BD012D0CBF43F48013BC
:102BD00043F40013E3E7FFF7D9FC401B0228E7D9D1
:102BE000F0E70120EFE700BF004402582DE9F04173
:102BF000DDF8188004460E4615461F462268936885
:102C0000334214BF01230023AB4201D1002012E064
:102C1000B8F1FF3FF3D0FFF7B9FCC01B404502D825
:102C2000B8F1000FEAD10423012084F84130636C2D
:102C300043F001036364BDE8F0812DE9F04F0546E0
:102C400085B00C46FFF7A2FC95F8402007EE900AED
:102C5000012A00F0E1800122022085F8402095F849
:102C60004120012A40F0BE80002241F2883117EE57
:102C7000903ACDED037A6A640091202185F84100F5
:102C80002846FFF7B3FFDDED037A002840F0AA8065
:102C9000D4F824C0BCF1000F03D0A26A2968013A1D
:102CA0000A61D4F818A0D4E90727BAF1000F50D070
:102CB00063694CEA0A0AD5F800E026684FEA834BBC
:102CC000D4F83480D4E90B1967B3A36847EA0A0A39
:102CD0002769CEF81C30BAB132431143E26841EAA9
:102CE000090949EA080848EA0707174347EA0B07B2
:102CF00047EA0A07CEF814706268CEF81820BCF1D3
:102D0000000F40F0818062E0314341EA090949EA5D
:102D1000080848EA070747EA0B0747EA0A07CEF818
:102D20001470ECE752B142EA06070F4347EA09077D
:102D300047EA0808E76848EA0707D7E746EA0107CD
:102D400047EA090747EA080747EA0B0B4BEA0A0775
:102D5000E5E737B3A1684CEA0707D5F800E0266934
:102D6000CEF81C106169D4F834808904D4E90BA929
:102D70006AB13243E36842EA0A0A4AEA090949EABF
:102D8000080848EA030848EA01010F43B2E746EAA7
:102D90000A0646EA090949EA080848EA01010F4318
:102DA000BDE78AB1E16A4CEA02020A43216B0A4399
:102DB000616B0A43E1680A43616942EA814229681A
:102DC0004A6162688A619AE7BCF1000F10D141F252
:102DD000883217EE903A0221284600920122FFF72E
:102DE00005FFA8B1002385F8403005B0BDE8F08F9D
:102DF000E36A226B4CEA03031343626B1343626979
:102E000043EA82432A685361012385F84130E9E7A8
:102E10002B680222DA60F7E70220E6E7F0B593B00C
:102E200004460846164604A91D46FEF7FBFB48B9B2
:102E30002B6804A920460E93FFF7FFFE074618B142
:102E40004FF0FF3013B0F0BDFFF7A0FB256803463D
:102E5000A96994F84020012AF2D0012284F8402088
:102E600094F84120012AD0B246D16764002E3ED0AA
:102E7000222284F841202A690132A2632A6926634A
:102E800041F28836013262636A6922F0406242F0A0
:102E900080626A61A961A26BA2B901220221204667
:102EA0000096FFF7A3FE10B923680222DA6001231F
:102EB00084F841300023C01A84F8403018BF012044
:102EC0004042BFE701220621204600960393FFF708
:102ED0008DFE0028EBD195F82010226B039B11701A
:102EE000226B01322263A26B013AA263D3E7636CC7
:102EF00043F008036364DDE70220DBE7F7B50093E6
:102F0000054690F8943014460191DDE90867F3B165
:102F1000D6B13B68DBB10DF009F823462846DDE960
:102F200000210CF023F93B46324605F16801281DCB
:102F3000FFF774FF041E284618BF012464420CF0FA
:102F4000EBFF204603B0F0BD6FF00104F9E74FF04E
:102F5000FF34F6E7F0B593B004460846164604A9D8
:102F60001D46FEF75FFB48B92B6804A920460E9367
:102F7000FFF763FE074618B14FF0FF3013B0F0BD06
:102F8000FFF704FB94F8402003462568012AF3D09C
:102F9000012284F8402094F84120012AD0B243D184
:102FA0006764002E3BD0122284F841202A69013246
:102FB000E2622A69666241F288360132A2626A6977
:102FC00022F040626A61E26AA2B90122022120462F
:102FD0000096FFF70BFE10B923680222DA60012386
:102FE00084F841300023C01A84F8403018BF012013
:102FF0004042C3E701220421204600960393FFF7D5
:10300000F5FD0028EBD1626A039B127885F8202039
:10301000626A01326262E26A013AE262D3E7636C99
:1030200043F008036364DDE70220DBE72DE9F047A6
:103030001C4690B090F894300546DDF86890DDE9C4
:1030400018A8CDE9002163B30CF070FF4FF0FF33F7
:1030500028462E1D05F16807DDE900210CF086F8F1
:1030600014B1BAF1000F23D1B8F1000F02D0B9F1B9
:10307000000F19D102A93846FEF7D4FA044638B930
:10308000012302A9CDE90B033046FFF7D6FD08B1B5
:103090004FF0FF3428460CF03FFF204610B0BDE84B
:1030A000F0874FF0FF34F8E79CB1BAF1000F10D071
:1030B000224602AB39463046CDF808A0FFF74AFF5A
:1030C00004460028E4D1B8F1000FE3D0B9F1000FB5
:1030D000E0D002AB424639463046CDF80890FFF7C3
:1030E0009DFE041E18BF01246442D3E770B50E464E
:1030F00004460809FEF740FB4FF470710546304660
:10310000FFF73EF9238A0A4A06F00F0603F00F0381
:103110000121656152F8233001FA06F6A36105F139
:103120001003183526606360C4E9025570BD00BF06
:10313000C49A010810B50C4B0C4CD4F894209A4258
:10314000FBD1D0E90542524302EB4203DB4339B9DC
:103150002268134023604FF44072044B5A6110BD43
:1031600021680B401343F5E7000300800064025818
:10317000034BD9681A6822EA01021A605960704745
:1031800000650258444A1369114603F03803102BB6
:1031900030B57CD005D8002B55D0082B79D00A68E3
:1031A00052E0182BFBD1906A956AD16A15F47C7FA6
:1031B000C5F30513546B3BD007EE903AC4F3CC042F
:1031C00001F0010300F00300F8EEE76A6343012811
:1031D000F7EE005A07EE903AFAEEE97A39D0022873
:1031E00047D011682D4BC1F3C101126BCB40C2F324
:1031F000080207EE103AB8EEC76A86EE267A06EEA7
:10320000902AF8EEE66A76EEA77A77EEA57A224B58
:1032100067EE877A1B6BC3F34623013307EE103A40
:10322000F8EEC76A87EEA67AFCEEC77A17EE903AF8
:1032300019498A698969C2F3032219498A5CD34012
:10324000184A136030BD1268C2F3C102134BD34059
:10325000EEE7136B9FED146AC3F3080307EE103A11
:10326000B8EEC77A77EE277A77EEA57A86EE267AD9
:10327000CDE7136B9FED0D6AC3F3080307EE103A19
:10328000B8EEC77A77EE277A77EEA57AEEE7084BA5
:10329000CEE7084BCCE700BF004402580090D003B3
:1032A00004970108000000240024744A20BCBE4B8F
:1032B00040787D0100093D002B4BD3F8882042F473
:1032C0007002C3F888201A6942F010021A61274A76
:1032D000136803F00F03062B05D8136823F00F03C0
:1032E00043F007031360224B1A6842F001021A6090
:1032F00000221A611F4A19680A401C491A600A68AC
:10330000120705D50A6822F00F0242F007020A6090
:10331000002219499A61DA611A6299621749D962E1
:10332000174919635A639963DA6319645A6419680F
:1033300021F4802119601A66124A536A43F48043CB
:103340005362114B1B681B0C1B04B3F1005F02D2CC
:103350000E4B01221A600E4B43F2D2021A600D4A44
:10336000014B9A60704700BF00ED00E00020005262
:10337000004402587FEDF6EA000202020000FF015D
:1033800080020101C00000580010005C088100515B
:1033900000400052000000080A4B013B0FD00269B8
:1033A000002AFADA0369074A43F001030361013A8C
:1033B00005D0036913F00103F9D1184670470320C3
:1033C000704700BF410D030030B5056C00F5306358
:1033D0000F4CA54203D9D0F8004B002C16DB00247B
:1033E00001291C611C6944F400241C611C6944F01F
:1033F00018041C611C6944F0C0441C6106D15A6168
:10340000D0F8003B43F08023C0F8003B002030BDE3
:103410000A30544FD0F8003E23F00303C0F8003EBA
:10342000D0F8043843F00203C0F804380020704795
:1034300070B50023940800F5805502F00302A34202
:1034400014D301EB84017AB100F5805000230468A5
:10345000D80024FA00F0C854013398B28242F7D160
:10346000013A92B201321144084670BD2E6841F80B
:1034700023600133E3E770B50E78012500F50062A3
:1034800006F00F0374019D404B78012BD36917D1CF
:103490001D4300F51060D56103591A040ED48A68E3
:1034A0000559C2F30A03CA782B4343EA824343EA2D
:1034B000865343F0805343F400430351002070BD12
:1034C00043EA054500F53060D56103591B04F5D486
:1034D0008B680259C3F30A031343CA7843EA824351
:1034E000E7E70000114B4FF4FA5102461B68B3FBAB
:1034F000F1F141F288334B43013B13D3516B11F08F
:10350000450FF9D08904F7D4536B5B0702D504202B
:1035100090637047506B10F0010014BF0123044BFF
:10352000936370474FF00040704700BF00000024D5
:10353000C5002000454B10B51B6804464FF4FA50F7
:10354000B3FBF0F342485A43002A48D0636B03426E
:1035500007D09B0405D4636B580704D50420A063EF
:1035600010BD013AF0E7606B10F0010002D00123BA
:10357000A363F5E7374BA3632369DBB2994231D1EB
:103580006369354818400028EAD0002B2CDB5A002C
:103590002DD49C002DD4D9002DD41A012ED45C0139
:1035A0002FD4D90130D41A0231D45C0232D499021A
:1035B00033D4DA0234D45C0335D4990336D4DA0335
:1035C00037D41C0438D4590439D49A043AD413F0AB
:1035D000080F14BF4FF400004FF48030C0E74FF0E5
:1035E0000040BDE70120BBE74FF00070B8E7402086
:1035F000B6E78020B4E74FF48070B1E74FF4007075
:10360000AEE74FF48060ABE74FF40060A8E74FF4FB
:103610008050A5E74FF40050A2E74FF480409FE7A9
:103620004FF400409CE74FF4003099E74FF48020BE
:1036300096E74FF4002093E74FF4801090E74FF4A3
:1036400000108DE74FF480008AE700BF00000024DF
:1036500045002000C500200008E0FFFDF0B5124D38
:1036600087B00D2700246B6C01A92E681B0430461F
:1036700001934FF48073CDE902734FF48053CDE989
:103680000443FEF745FB41F2883239463046FFF7E6
:1036900051FF28B92B685C69C4F3432007B0F0BD23
:1036A0006B6B18436863F7E79412002430B54FF44E
:1036B000807387B0062500220446019101A9CDE957
:1036C00002534FF48053CDE90423FEF721FB41F26E
:1036D000883229462046FFF72DFF07B030BD30B5B0
:1036E0004FF4807387B0372500220446019101A969
:1036F000CDE902534FF48053CDE90423FEF708FBD4
:1037000041F2883229462046FFF714FF07B030BD4A
:1037100010B5002386B0044601A9CDE90133CDE9F7
:1037200003334FF480530593FEF7F2FA0A4B4FF43C
:10373000FA521B68B3FBF2F241F288335343013B68
:1037400007D3626B1206FAD5044B0020A36306B0C0
:1037500010BD4FF00040FAE700000024C500200033
:1037600030B5002387B00C254FF48072044601A9C0
:10377000CDE90323CDE901354FF480530593C368A8
:1037800043F08003C360C36823F04003C360FEF7C7
:10379000BFFA074A29462046FFF7CCFEE368B0F19E
:1037A000007F08BF002023F08003E36007B030BD36
:1037B00000E1F50530B54FF4807387B01025002285
:1037C0000446019101A9CDE902534FF48053CDE99C
:1037D0000423FEF79DFA41F2883229462046FFF77E
:1037E000A9FE07B030BD00002DE9F047364D86B088
:1037F0000746FEF7CBFE082180462868FFF7DAFF70
:103800000446002837D1696C28680904FFF767FF70
:10381000044680BB2E684FF0FF334FF0330901A9F7
:10382000736208230190B362F36A0490304623F078
:10383000FF0343F03303F3624FF48073CDE9029347
:103840004FF480530593FEF763FA41F288324946FC
:103850003046FFF76FFE044668B98146064640F2DF
:103860002A5A2B685A6B12EA0A0F5A6B07D01107B3
:1038700016D508249C63204606B0BDE8F0871003E7
:1038800005D424B9D3F880600124D3F88090FEF7E2
:103890007DFEA0EB08000130E3D14FF00044EAE7E1
:1038A0005A6B920701D50224E4E75C6B14F0200404
:1038B00001D02024DEE7054A36BA9A6399FA89F3E3
:1038C0007E603B60D7E700BF941200243A0F0018D7
:1038D0002DE9F8430668054616F0006609D0836EA8
:1038E000B3F5001F2ED013D8F3B1B3F5801F21D04C
:1038F00001262B68DB0540F10281AB6D042B00F241
:10390000FD80DFE813F024002B00F50029002900DA
:10391000B3F5401FECD1B84A0026A96E136D23F40D
:1039200040130B431365E4E7B34AD36A43F400330F
:10393000D362F0E702210430FFF7E0F806460028E2
:10394000D7D1E8E702212430FFF760F8F6E7AA4A6A
:10395000D36A43F40033D362344604E00021281DC7
:10396000FFF7CCF80446002C40F0CB80A24AA96DAA
:10397000136D23F007030B4313652B689F050DD5CB
:10398000EB6D802B00F0DA8000F2BD80002B00F0A0
:10399000C980402B00F0CC80012634462B685805A6
:1039A00010D5D5F8A830B3F5800F00F0EC8000F208
:1039B000CD80002B00F0DB80B3F5001F00F0DD8030
:1039C000012634462B68190510D5D5F8AC30B3F173
:1039D000007F00F0FD8000F2DE80002B00F0EC8024
:1039E000B3F1807F00F0EE80012634462B689A0107
:1039F0000DD5AB6C202B00F0078100F2F180002B7D
:103A000000F0F180102B00F0F980012634462B687D
:103A1000DB040FD52B6EB3F5005F00F0198100F2C7
:103A2000FB80002B00F00881B3F5805F00F00A8175
:103A3000012634462B689F040FD56B6EB3F5003F0B
:103A400000F0268100F20C81002B00F01281B3F50A
:103A5000803F00F01781012634462B68580410D5AA
:103A6000D5F8B030B3F1005F00F0338100F2188177
:103A7000002B00F01E81B3F1805F00F0248101264D
:103A800034462B68590114D5EB6C43B1B3F5807FF4
:103A900040F027810121281DFFF730F80446002C53
:103AA00040F02281544AE96CD36C23F480730B43B9
:103AB000D3642B681A040DD52B6FB3F1805F00F02F
:103AC0001581B3F1005F00F01F81002B00F013811E
:103AD000012634462B68DB0140F12C816B6C032BF3
:103AE00000F26C81DFE813F01D01180164011D0173
:103AF000002105F12400FEF789FF33E70126344653
:103B00003BE7264639E7C02B03D0B3F5807F7FF42F
:103B100043AFCCB9384AE96D136D23F4E0730B431E
:103B200013653BE7344AD36A43F40033D362F0E7CA
:103B30000021281DFEF7E2FF0446EAE7002105F117
:103B40002400FEF763FFF7E7264627E7B3F5C00F2B
:103B500003D0B3F5000F7FF433AFD4B9264AD5F8BC
:103B6000A810936D23F460030B4393652AE7224A60
:103B7000D36A43F40033D362EFE70021281DFEF738
:103B8000BDFF0446E9E7002105F12400FEF73EFFF2
:103B9000F7E7264616E7B3F1407F03D0B3F1806F15
:103BA0007FF422AFD4B9144AD5F8AC10936D23F04A
:103BB000E0630B43936519E70F4AD36A43F400337C
:103BC000D362EFE70021281DFEF798FF0446E9E7DE
:103BD000002105F12400FEF719FFF7E7264605E767
:103BE000302B7FF412AFACB9034AA96CD36C23F02D
:103BF00030030B43D3640AE7004402589B4AD36A5C
:103C000043F40033D362EEE70221281DFEF776FF6E
:103C10000446E8E72646FAE6B3F5405F03D0B3F57D
:103C2000804F7FF405AFCCB9904A296E136D23F411
:103C3000E0430B431365FDE68C4AD36A43F400333B
:103C4000D362F0E70021281DFEF758FF0446EAE79B
:103C5000002105F12400FEF7D9FEF7E72646E9E644
:103C600023F48032B2F5802F03D0B3F5403F7FF4C8
:103C7000F2AE9CB97D4A696E136D23F4E0230B43C9
:103C80001365EAE60121281DFEF738FF0446F0E738
:103C9000012105F12400FEF7B9FEF7E72646DCE630
:103CA00023F08052B2F1804F03D0B3F1405F7FF434
:103CB000E6AEA4B96D4AD5F8B010936D23F0E04399
:103CC0000B439365DDE60121281DFEF717FF04462F
:103CD000EFE7012105F12400FEF798FEF7E72646FD
:103CE000CFE601263446E4E62646E2E65F4AD36A9A
:103CF00043F40033D3626CB95C4A296F136D23F02F
:103D000040530B431365E5E60121281DFEF7F6FE3F
:103D10000446F0E72646DDE6544AD36A43F400330E
:103D2000D362002C4DD1514A696CD36C23F003034C
:103D30000B43D3642B685F024DD54D4F3B6843F472
:103D400080733B60FEF722FC80463B68D8053AD57D
:103D5000002C6CD1454BD5F8B4001A6F424012F4D8
:103D6000407F0BD01A6F196F22F4407241F48031FA
:103D70001967196F21F4803119671A67B0F5807FD0
:103D800040D0D5F8B430394903F44072B2F5407FE1
:103D900049D10869374A20F47C5002EA13120243E1
:103DA0000A61C3F30B03314A116F0B43136712E02F
:103DB0000221281DFEF7A2FE0446B2E70126344682
:103DC000B8E72646B6E7FEF7E1FBA0EB080064285B
:103DD000BBD9032634462B68DA0708D5EB6F102BC6
:103DE0003CD026D85BB3082B32D0012634462B6852
:103DF0009B074ED5AB6F052B61D8DFE803F0423D42
:103E00005A424242FEF7C2FBDFF86080074641F2A9
:103E10008839D8F870309907B3D4FEF7B7FBC01BC8
:103E20004845F6D9D5E70A6922F47C52B8E7264618
:103E3000D1E723F00802202A01D0182BD5D19CB954
:103E40000A4AE96F536D23F038030B435365CEE7FD
:103E50000121281DFEF752FE0446F0E7012105F17D
:103E60002400FEF7D3FDF7E72646C0E700440258DA
:103E700000480258CFFFFF000121281DFEF73EFE3B
:103E80000446FCB9B74AA96F536D23F007030B43EF
:103E900053652B685F0727D5D5F89430052B00F2C2
:103EA0003A81DFE813F01600110032011600160007
:103EB0001600012105F12400FEF7A8FDE0E7012628
:103EC0003446E6E72646E4E70121281DFEF716FE04
:103ED0000446002C40F02281A24AD5F89410936D3C
:103EE00023F007030B4393652B68980610D5D5F88C
:103EF0009030B3F1005F00F02C8100F21181002BB3
:103F000000F01781B3F1805F00F01D810126344677
:103F10002B68590610D5D5F89C30B3F5006F00F02A
:103F20003C8100F22181002B00F02781B3F5806FE6
:103F300000F02D81012634462B681A0610D5D5F8DD
:103F4000A030B3F5804F00F0498100F22E81002BA4
:103F500000F03481B3F5005F00F03A810126344669
:103F60002B681B0714D5D5F88430B3F5805F07D1D3
:103F7000022105F12400FEF749FD002818BF0126A3
:103F8000784AD5F88410536D23F440530B4353659E
:103F90002B68DF0614D5D5F89830B3F5807F07D1AC
:103FA000022105F12400FEF731FD002818BF01268B
:103FB0006C4AD5F89810936D23F440730B439365C6
:103FC0002B6818031AD5D5F8A410B1F5803F00F07E
:103FD0000D81B1F5003F06D0002940F00D81281D6C
:103FE000FEF78CFD0446002C40F009815D4AD5F8AF
:103FF000A410936D23F440330B4393652B6859034E
:104000001CD5D5F88830B3F5001F00F0FA80B3F561
:10401000401F08D0B3F5801F40F0FA80514AD36AA0
:1040200043F40033D362002C40F0F5804D4AD5F8BC
:104030008810536D23F440130B4353652B68DA0348
:1040400009D52B6D002B00F0E880B3F5803F00F020
:10405000F280012634462B689B0007D5022105F12A
:104060002400FEF7D3FC002818BF01262B689F030D
:104070000BD5D5F88010B1F5807F00F0F28000F20A
:10408000E280002900F0E5800126DC0206D53549F2
:10409000686F0A6D22F0004202430A65D80007D516
:1040A0003049D5F8B8000A6922F4804202430A6117
:1040B000990206D52B49E86E0A6D22F08072024300
:1040C0000A655A0009D5274A116921F40041116196
:1040D0001169D5F8BC0001431161002B06DA2149B2
:1040E000686DCA6C22F040520243CA641B0207D5B5
:1040F0001C4AD5F88C10536D23F440030B435365D1
:10410000301E18BF0120BDE8F883012105F124000D
:10411000FEF77CFCDCE601263446E5E62646E3E6CF
:1041200023F08052B2F1804F03D0B3F1405F7FF4AF
:10413000EDAEA4B90B4AD5F89010536D23F0E043CF
:104140000B435365E4E60021281DFEF7D7FC044627
:10415000EFE7022105F12400FEF758FCF7E72646B9
:10416000D6E600BF0044025823F48062B2F5805FB7
:1041700003D0B3F5406F7FF4DDAEA4B93D4AD5F866
:104180009C10936D23F4E0530B439365D4E6002118
:10419000281DFEF7B3FC0446EFE7022105F12400D9
:1041A000FEF734FCF7E72646C6E623F40052B2F5E4
:1041B000004F03D0B3F5C04F7FF4D0AEA4B92D4A61
:1041C000D5F8A010936D23F460430B439365C7E6C5
:1041D0000021281DFEF792FC0446EFE7022105F1BD
:1041E0002400FEF713FCF7E72646B9E6022105F1A5
:1041F0002400FEF70BFCF5E601263446FEE62646D3
:10420000FCE6012105F12400FEF700FC04460AE764
:104210000126344612E7264610E7164AD36A43F4CD
:104220000033D3626CB9134A296DD36C23F4803305
:104230000B43D3640FE70221281DFEF75FFC044601
:10424000F0E7264607E721F48072B2F5007F7FF49D
:104250001BAF64B90748426D22F440720A434265BD
:1042600013E70448C26A42F40032C262F1E726460C
:104270000BE700BF004402583F230360114B1A694B
:1042800002F0070242609A6902F4706282609A69E1
:1042900002F00F02C2609A6902F070020261DA69EC
:1042A00002F070024261DA6902F4E06282611B6A24
:1042B00003F07003C361044B1B6803F00F030B6032
:1042C000704700BF0044025800200052484B1A6952
:1042D00002F03802102A30B500F08680182A0CD07F
:1042E000002A40F083801A68424812F0200F03D061
:1042F0001B68C3F3C103D84030BD996A9D6ADA6A6E
:1043000015F47C7FC5F305105C6BF5D0C4F3CC04C9
:1043100002F0010207EE900A01F003016243B7EEDA
:10432000006AF8EEE76A012907EE902AFAEEE97AC8
:104330004CD002293CD0002948D11A68920627D5D2
:1043400019682C4AC1F3C1011B6BCA40C3F30803AF
:1043500007EE102AF8EEC75A85EEA67A06EE903AD6
:10436000F8EEE66A76EEA77A77EE867A204B67EE6D
:10437000877A1B6BC3F34623013307EE103AF8EE3E
:10438000C76A87EEA67AFCEEC77A17EE900AB3E703
:104390001B6BC3F3080307EE103AB8EEC77A77EE4B
:1043A000277A77EE867A9FED146A86EE267ADDE725
:1043B0001B6BC3F3080307EE103AB8EEC77A77EE2B
:1043C000277A77EE867A9FED0D6AEEE71B6BC3F3D3
:1043D000080307EE103AB8EEC77A77EE277A77EE41
:1043E000867A9FED076AE0E7064885E7064883E797
:1043F000004402580090D0030024744C20BCBE4BF3
:104400000024744A40787D0100093D0008B5FFF79B
:104410005DFF0949094A8B69C3F30323D35C03F0A9
:104420001F03D8408B6903F00F03D35C044A03F0E9
:104430001F031060D84008BD0044025804970108CB
:104440000000002473B50E460446FFF7DFFFB0FB03
:10445000F6F5FF2D47DCFFF7D9FFB0FBF6F101FBC6
:10446000160606B9013D6560FEF790F894F8412004
:10447000034612B941F28832A2642068A16802683A
:10448000013922F4706242EA0122202102602046B2
:10449000A26C00920022FEF7A9FB30BB2268E569FE
:1044A000E36811682B43256A21F07F412B4365683F
:1044B00021F0D00143EA05630B4313605568D4E94A
:1044C00005310B43216943EA0143094929400B4364
:1044D0005360136843F0010313600123606484F8A0
:1044E000413002B070BDFF25BDE74FF0FF30F8E767
:1044F000FEF8E0FF08B5FFF789FF054B054A1B6A88
:10450000C3F30213D35C03F01F03D84008BD00BF00
:10451000004402580497010808B5FFF777FF054BE0
:10452000054ADB69C3F30223D35C03F01F03D840C1
:1045300008BD00BF004402580497010808B5FFF702
:1045400065FF054B054ADB69C3F30213D35C03F037
:104550001F03D84008BD00BF00440258049701085B
:10456000894990202DE9F043D1E90035D1F8089030
:104570004FF0000E6843854CB9F5965FD1F810C036
:1045800004EB0002D1F814802CBF76460726A2F86F
:1045900056E089B0C2F81CE0A2F854E0A2F85EE050
:1045A000A2F85CE0C2F820E0C2F864E0CF692350D2
:1045B000C868C2F804909060C2F80CC0C2F81080BD
:1045C0009761C2E9096EB1F91AE0BEF1FF3F5FD110
:1045D000082151616E4A934210D19022B9F5165FBD
:1045E00002FB054292F8801059D8012906D01968BB
:1045F00041F002011960002182F88010902202FB34
:104600000541D1F884E0BEF1000F01D181F880E0CE
:1046100002FB0542242140EA0800C2F88410196810
:10462000526921F0010110435A4A196019680A4081
:10463000104318605A6822F4405242EA0C025A6051
:104640009A6822F06E4222F4306217439F60DA6A61
:1046500022F00F021643504A9342DE6225D14F4B9F
:104660005B6D03F03803282B00F284804C4AD35C46
:10467000082B00F2B281082B7CD8DFE813F0D701B9
:10468000DD017B007B00E0017B007B007B00E5011E
:10469000B1F9181001310CBF04210C2199E701294F
:1046A000ACD0196821F00201A4E73E4A934207D139
:1046B0003A4B5B6D03F00703052B5BD83A4AD6E70C
:1046C0003A4A934207D1354B5B6D03F00703052B44
:1046D00050D8374ACBE7374A934207D12F4B5B6D0F
:1046E00003F00703052B45D8334AC0E7334A93420A
:1046F00007D12A4B5B6D03F00703052B3AD8304AEC
:10470000B5E7304A934207D1244B5B6D03F0380381
:10471000282B2FD82C4AAAE72C4A934207D11F4BAB
:104720005B6D03F00703052B24D8294A9FE7294A2C
:10473000934207D1194B5B6D03F00703052B19D882
:10474000254A94E7124A934214D102F50E32936D32
:1047500003F00703052B0DD82049CB5C102B00F08C
:10476000FF8009D8042B00F0F180082B00F0F380C3
:10477000022B35D0012639E0202B00F02C81402B74
:10478000F8D14FF40040F4E06C1200241013002420
:10479000000C0058F369FFCF00100140004402589C
:1047A000CF96010800440040F896010800480040F8
:1047B000F8960108004C0040F896010800500040AF
:1047C000F896010800140140CF96010800780040D7
:1047D000F8960108007C0040F8960108FE96010852
:1047E000FFF788FE002840F0C480002690224FF09A
:1047F0000113012E02FB05F204EB02018B664FF060
:104800000003C1E91C3300F034818B6A002B66D0B1
:10481000D80706D5A058C96A426822F400320A4374
:1048200042609A0709D590226A43A158A0184A68A5
:10483000006B22F4803202434A605F0709D5902260
:104840006A43A158A0184A68406B22F480220243B0
:104850004A60180709D590226A43A158A0184A68EF
:10486000806B22F4004202434A60D90609D59022A7
:104870006A43A158A0188A68C06B22F48052024390
:104880008A609A0609D590226A43A158A0188A68BE
:10489000006C22F4005202438A605F0613D5902216
:1048A0006A43A158A0184A68476C22F48012B7F5F1
:1048B000801F42EA07024A6005D14A68806C22F4F0
:1048C000C00202434A60180609D590236B43E258A0
:1048D000E1185368C96C23F400230B4353609027FD
:1048E0006F43E35904EB07085A6822F490425A6078
:1048F0009A6822F02A029A601A6842F001021A604D
:104900000023C8F88C30FDF741FEE35902461B68CE
:10491000190700F1A38090236B43E3581B685B07E2
:1049200007D54FF480014046FDF7E6FE002840F031
:104930009F80902303FB05442023C4F88430C4F8EF
:1049400088300023E36684F8803092E002A8FCF708
:10495000F7F8039846E705A8FCF74AF8069841E7F8
:104960001368464813F0200F03D01368C3F3C10344
:10497000D8404FF09009424B09FB05F904EB0901BF
:104980004A6AD1F8048033F8122008EB4801B0FBE2
:10499000F2F38B42FFF4EEAEB3EB083F3FF6EAAE24
:1049A0000023002114F046FD42460F0200230602B8
:1049B00047EA10674FEA5800301847F1000114F039
:1049C00039FD304BA0F540729A423FF6D3AE54F811
:1049D0000930D86009E72C48CBE7202B39D0402B91
:1049E00039D0102B7FF4C6AE284B24481A6812F039
:1049F000200F03D01B68C3F3C103D84090236B433F
:104A0000E1184A684E6A1E4931F81610B0FBF1F001
:104A100000EB5200B0FBF2F080B24FF6EF72A0F163
:104A2000100191423FF6A6AEE358D2E7FFF786FDAC
:104A300000283FF4DAAEE1E7FFF76EFDF8E702A8E1
:104A4000FCF77EF80398F3E705A8FBF7D1FF06987B
:104A5000EEE70D48D2E74FF40040CFE701904FF466
:104A600000114046FDF748FE019A00283FF453AF7D
:104A70000326304609B0BDE8F08300BF0090D003A4
:104A8000F8980108FFFC0F0000093D00004402589F
:104A900010B58AB0694602A8FFF7EEFBFFF74EFD9E
:104AA0003E4B0090D3F8E8203D4942F00802C3F89D
:104AB000E820D3F8E82002F008020192019A394A6E
:104AC000D1F88C409442FBD1D3F89020364C42F080
:104AD0000802C3F89020D3F8902022F00802C3F80F
:104AE00090204FF44073CB60304B079A23604FF017
:104AF000FF33E3602E4B002A4DD1B0FBF3F00023CF
:104B000001382361A3606060C4E9053394F83D3047
:104B100003F0FF020BB984F83C20244A022384F8F6
:104B20003D30136823F47C7313604FF0FF33D3627E
:104B300001239062536184F8483084F83E3084F851
:104B40003F3084F8403084F8413084F8423084F8B3
:104B5000433084F8443084F8453084F8463084F893
:104B6000473084F83D30134B134A9B68C3F8082143
:104B7000BFF34F8F114B4FF480225A6094F83E30B0
:104B8000012B01D1FBF7A4FC2268D36823F00203B8
:104B9000D3600AB010BD4000AFE700BF0044025828
:104BA0000064025800030080640E0024000C0040E2
:104BB00040420F0000ED00E00906000800E100E0BF
:104BC00000232DE9F04F04469BB0C366836039B1E2
:104BD0008B88A0F858308B89A0F85A300B68036096
:104BE0002368B04A934212D1002384F85030AE4B70
:104BF000D3F8E82042F40012C3F8E820D3F8E830F4
:104C000003F400131393139BA84BE3650BE0A84A2E
:104C100093427FD002F58062934200F08D80A54AD6
:104C2000934200F09B80A449B4F958000AF060F860
:104C3000A249B4F95A000AF05BF80421B4F958000B
:104C4000FDF756FB0421B4F95A00FDF751FB636DE3
:104C50000BB99B4B63659B4A1421656D12682368F1
:104C6000B2FBF5F24A43636011469869000401D52E
:104C70000139FAD1944E9549D6F88C008842FBD17F
:104C800088498B427CD18849D1F8900040F40010CB
:104C9000C1F89000D1F8900020F40010C1F8900005
:104CA00089494FF44070C860211D05EE101A9969BA
:104CB000090401D5013AFAD1854A95421AD1794AB7
:104CC000934202D10120FBF7E3FF2268784B9A421E
:104CD00002D10220FBF7DCFF22687E4B9A4202D110
:104CE0000420FBF7D5FF2268724B9A4202D10820BC
:104CF000FBF7CEFF7449754BD1F88C209A42FBD15B
:104D0000684B22689A42684B6AD1596D21F4405130
:104D100059656FE0012384F85030634BD3F8E820E5
:104D200042F48002C3F8E820D3F8E83003F48003AB
:104D30001493149B684B68E7022384F850305A4B55
:104D4000D3F8E82042F40002C3F8E820D3F8E830B2
:104D500003F400031593159B604B56E7032384F877
:104D60005030514BD3F8F42042F08002C3F8F420C5
:104D7000D3F8F43003F080031693169B584B44E7A6
:104D80004B498B4214D001F580618B421CD04949BC
:104D90008B4285D14449D1F89C0040F08000C1F895
:104DA0009C00D1F89C0020F08000C1F89C0077E7BF
:104DB0003D49D1F8900040F48000C1F89000D1F84E
:104DC000900020F4800069E73749D1F8900040F462
:104DD0000000C1F89000D1F8900020F400005DE7D9
:104DE00033498A4291D001F580618A428DD03149A0
:104DF0008A4240D0344B4FF44071D96094F845302A
:104E0000202BD8B21AD194F84430012B16D0242389
:104E100084F845306368196821F001011960196848
:104E200021F48051196019681960196841F0010175
:104E30001960002384F8450084F84430194B22F4AB
:104E40000061A6689942E76E174B03D018498A4261
:104E500040F083805B6D03F44053B3F5005F00F0D6
:104E6000FB810DD8002B43D0B3F5805F00F08D801F
:104E70001C4809F0DDFF996D21F440719965B9E78F
:104E8000B3F5405FF4D1002E00F08880AF4244D0EB
:104E90001548164B00221A60002840F08280002638
:104EA0003BE000BF00540040004402581F002000B7
:104EB00000580040001C00585C980108C097010889
:104EC000A086010000000024006402580003008056
:104ED00040420F00005C00402100220048004900D1
:104EE0005F0060008F95010800093D00FC0D002463
:104EF000FFF724FB0EB1AF420FD0924B9842C8D1BE
:104F0000914B9D4200F0A481904B9D4200F0A28104
:104F10008F4B904E9D4218BF00260123A6600026AD
:104F200015EE100AE566E660C4E90436C4E90866D1
:104F3000C4E90666FCF72CF84FF0007384F8716042
:104F4000656584F87260E56684F8646084F8706072
:104F50002366A6661BB0BDE8F08F7F498A421BD14D
:104F60009B6D03F44073B3F5007F13D005D84BB1AC
:104F7000B3F5807F09D079487BE7B3F5407FFAD15C
:104F80007748B7E7FFF7B6FAB4E717A8FBF730FDA5
:104F90001998AFE77348ADE773486AE7734B7048F9
:104FA0001E60002D3FF47BAFA5F59C3349F64042CF
:104FB000803B934261D9A5F59C236D4AA3F500730C
:104FC00093425DD9A5F543235F4AA3F5A0639342BD
:104FD0003FF665AF4FF0020C664A2C264FF0100BDF
:104FE00002EB5003B3FBF0F30193634B06FB0C366B
:104FF000736AA3F132010493019B03EB4303C91AC3
:10500000336A029321EAE1713369029876691B1AC7
:1050100001980591A3F58273A3EB8003029823EA1C
:10502000E3733044019E0693002303909A46194689
:10503000B1464FF0000E0398CDF81CE00EF1010EC2
:10504000484529D80027B8460598B8421ED8069882
:10505000B8421BD35B4519D0142000FB01FB474825
:10506000013100EB0B0A40F80B307F290798CAE9A1
:10507000010808D93D4B19601AE04FF0000CABE76E
:105080004FF0010CA8E79B464FF0010A08F1010818
:105090003744B8F1100FD7D1BEF1100FB144CAD1C7
:1050A00001330198102B0644C2D1BAF1000FE1D1AF
:1050B0002C2331494FF0000A03FB0CFC01EB0C03DD
:1050C00051F80C1002EB51060993B6FBF1FB59683D
:1050D000CDF81CB0B2FBF1F10C919968049BB2FBC6
:1050E000F1F20D924FF0FF31204A039112680199BD
:1050F0000F92019A03EB8103029952000B44323262
:10510000119308921D4A0F9B9A4539D1039B7F2B1F
:105110003FF6C5AE039A142318495343CA18CB5817
:10512000167C46EA037653681B0503F470031E439E
:1051300093681B0403F470231E43D3681B029BB2C5
:105140001E43EAE6000E2707801A060040420F00C1
:10515000A08601007656E140001C0058AC9501087D
:1051600000093D000090D003C7950108FC0D002404
:105170000071020000CA9A3B14970108FC03002446
:1051800001994FF0000E1368049803FB011309996D
:10519000089F8969C71902980E9108990744591800
:1051A000A7EB0B070691F8181199069EABEB0101CE
:1051B0001090A1EB43010E98CDF82CE00EF1010EFA
:1051C000B0423BD2A6F132070198B0EB970F35D22F
:1051D000A1F16400DDF818904FF0000805901098D8
:1051E00000EB060C0BEB0C070D98CDF8288008F1AE
:1051F0000108B84219D80C98B84216D30998C76963
:105200004F4512D8019848450FD2059810EA2C0056
:1052100038BF604607460798874206D20B98079723
:1052200010610A98CDF80CA0D0600598B8F5807F81
:1052300099449C44A0EB03000590D3D1BEF5807F38
:105240001E44A1EB0301B6D10AF1010A14325AE758
:10525000044E62E6044E60E60448002E3FF419AEA8
:1052600049E600BF3414C1203615C3000090D003B6
:10527000F7B504460F460AF06EFFD4F8905004F1DB
:10528000300635F000751AD14FF00073304684F8BF
:105290009450C4F89030FBF7B7FA01463046FBF75C
:1052A000E5FA94F87530202B0CD06FF001052046FC
:1052B0000AF049FFA81E18BF012003B0F0BD434803
:1052C00009F0B6FD94F87430012BEED00123D4F828
:1052D0009020A76584F87430212384F8753010235A
:1052E00084F876300223A567A4F85E30384B226636
:1052F000A366B4F85E309BB2FF2B19D9FF23A4F844
:105300005C304FF08073616E112904D1AA2A02D05B
:10531000B2F52A4F19D1226EAA2A0FD10022226695
:10532000B4F85E2092B2FF2A00D8236E294A0DE01D
:10533000B4F85E30A4F85C30236EE4E7226EB2F578
:105340002A4FEDD14FF00072E9E7002200921021C0
:1053500094F85C2004F13400FBF70CFD00231E4A96
:1053600084F87430A36E934203D01C4A934218BF52
:10537000F225626B13681D43194B15601D68D4F844
:105380008430B5FBF3F35A255D4394F8943013F061
:105390001E0F01D1013D12D1B4F98E10B4F98C0069
:1053A000FDF7AAF80846FDF7A7F81DB194F8943068
:1053B000082B08D000213046FFF702FC75E70120DA
:1053C000FCF788FFE1E7022571E700BFDD950108E2
:1053D000775A000800200080995B0008ED5600080D
:1053E00000000024F8B590F841300446602B4FF0DF
:1053F000000317D1202280F84030B0F95A1080F80D
:105400004120026803631368B0F9580023F0FE03DB
:105410001360FDF771F80846FDF76EF8022384F873
:105420006030F8BD90F86C60071F036380F840306F
:1054300006B18668656C0021384615F0040518BF72
:105440001425FFF7BDFB86B102232046A66084F831
:105450006C30FBF79DFD3846FBF7D6F90146384620
:10546000FBF704FA2046FBF749FD45F00205EDB2D3
:1054700084F86050D5E7806B836B0BB100221A650E
:10548000C36B0BB100221A65FFF7ACBF70B5344A8D
:10549000002590F84130044680F84250283BC26213
:1054A0004585426C022B41EA0201416428D8032160
:1054B000FBF706FC282380F841302A4BA06B63637E
:1054C000236B78B3112B01D0212B2BD123681A68C1
:1054D000510403D51A6822F480421A6090F83530DE
:1054E000012B1AD0204B0365002384F84030FBF7D2
:1054F00099FD002833D0A06B036DBDE870401847BC
:1055000048F20301FBF7DCFB90F84130602B02D03E
:10551000202380F841300023D0E72046BDE87040CA
:10552000FFF760BFE06B0028F7D0122B01D0222BD1
:10553000F3D123681A68120403D51A6822F40042D2
:105540001A6090F83530012BE7D0074B0365002334
:1055500084F84030FBF766FD08B1E06BCCE770BD26
:105560000000FFFF7958000877540008F8B5036879
:10557000202204460E461F6890F84150DA6105F07B
:10558000F705212D73D148F20101FBF799FB256343
:10559000236820465A6842F400425A605A6822F052
:1055A000FF7222F48B3222F4FF7222F001025A6061
:1055B000FBF76AFC79045FD52268136823F4804303
:1055C0001360A36B2BB31B68464A93421ED018325C
:1055D00093421BD01832934218D01832934215D000
:1055E0001832934212D0183293420FD0183293429D
:1055F0000CD01832934209D002F55672934205D06E
:105600001832934202D018329342FFD05B689BB2AB
:105610006385730710D5236826F004065A6A636A07
:105620001A70636A01336362238D2BB1013B2385BA
:10563000638D013B9BB26385638D9BB21BB1636C31
:1056400043F004036364002384F84230656C6363B1
:10565000DDB1616C2046FFF719FF94F84130282B2B
:105660003FD131462046BDE8F840FBF75BBC222D18
:105670008ED148F2020188E73A04CAD5226813683D
:1056800023F400431360E36B9CE7E36A13F5803F68
:1056900015D02046FBF7ECFD134B84F84050E36235
:1056A000202384F8413094F86C302563022B01D11B
:1056B00084F86E502046BDE8F840FBF71FBC94F814
:1056C000413084F84050222B4FF0200384F84130C1
:1056D000256304D12046BDE8F840FBF757BD84F8A8
:1056E0006D50F8BD100002400000FFFFF8B590F8C3
:1056F000403004460E461546012BC76A00F0B780BD
:1057000001238A0680F8403003D5AB0601D5FFF7A8
:105710002DFFF20640F1A380EB0640F1A080E90BDB
:10572000A80B41EA9535ED0740F19580E26B52B345
:1057300011F0010326D013684E4A93421ED018324E
:1057400093421BD01832934218D01832934215D08E
:105750001832934212D0183293420FD0183293422B
:105760000CD01832934209D002F55672934205D0FC
:105770001832934202D018329342FFD05B68B3FADA
:1057800083F35B091A46A36B4BB3C10727D51B688C
:1057900038498B421ED018318B421BD018318B42B6
:1057A00018D018318B4215D018318B4212D01831D5
:1057B0008B420FD018318B420CD018318B4209D05C
:1057C00001F556718B4205D018318B4202D0183149
:1057D0008B42FFD05B68B3FA83F35B090BB9012AF4
:1057E0001FD194F84130282B0AD1B7F1007F07D19F
:1057F00031462046FBF796FB002084F84000F8BDB8
:1058000094F841202368292A4FF01002DA61F3D17D
:1058100017F5803FF0D02046FBF736FBFBF728FD5D
:10582000EAE723681022DA6137F08072636C43F094
:105830000403636494F84130DBB2DDD103F0F70375
:10584000212B01D1236301E0222BFBD0616C204688
:10585000FFF71CFED0E723681022DA61CCE732079D
:10586000CAD52B07C8D52046FBF74BFAC4E7022060
:10587000C5E700BF10000240F8B590F8403004467C
:105880000D461646012BC76A7DD001238A0680F893
:10589000403003D5B30601D5FFF768FEE80634D5DE
:1058A000F10632D5638D9BB203BB94F84130282BAF
:1058B0000AD1B7F1007F07D129462046FBF732FB1A
:1058C000002084F84000F8BD94F841202368292A7C
:1058D0004FF01002DA61F3D117F5803FF0D0204687
:1058E000FBF7D2FA2046FBF7C3FCE9E72368102256
:1058F000DA61636C43F00403636437F08073DFD1D3
:10590000616C2046FFF7C2FDDAE76A071AD5730714
:1059100018D5638D9BB26BB123685A6A636A1A709B
:10592000636A01336362238D013B2385638D013BF1
:105930009BB26385638D9BB2002BC1D117F5803F6D
:10594000BED0CFE7280705D5310703D52046FBF7A2
:10595000D8F9B5E7AA07B3D5B307B1D5638D9BB224
:105960006BB1636A226813F8011B91626362638DF5
:10597000013B9BB26385238D013B2385A0E737F074
:105980008073AFD09CE702209DE737B503682022E3
:1059900004460D46DA6190F84130212B37D10121C0
:1059A000FBF78EF9112323632368E9065A6822F076
:1059B000FF7222F48B3222F4FF7222F001025A604D
:1059C0004FF000026263A2F58032E26205D5102238
:1059D000DA61626C42F00402626494F84120602A49
:1059E00005D16A0703D55B6ADBB20193019B2046B0
:1059F000FBF74AFA636C94F84120602A00D07BB12F
:105A0000616C204603B0BDE83040FFF73FBD90F821
:105A10004130222BC8D10221FBF752F91223C2E7F1
:105A200094F84120212A12D1202284F8403084F8B1
:105A30004120236394F8422084F84230402A01D167
:105A400003B030BD03B0BDE83040FBF7A7B994F810
:105A50004120222AF4D1202284F8403084F84120C9
:105A6000236394F8422084F84230402AE8D0082387
:105A700084F86030E4E773B590F8403004460D4692
:105A80001646012B00F086800123CA0680F84030BC
:105A900017D5F30615D503681022DA61436C43F07D
:105AA00004034364FBF7F0F9AA0605D5B30603D552
:105AB00029462046FFF769FF002084F8400002B025
:105AC00070BD680712D5710710D5236825F004054D
:105AD0005A6A636A1A70636A01336362238D013BF9
