:020000040804EE
:1000000000000824B9B6050805B70508F9F2040888
:10001000FFF2040805F304080BF3040800000000D5
:10002000000000000000000000000000C171040892
:1000300005B70508000000005B7204086B72040835
:1000400005B7050805B7050805B7050805B705088C
:1000500005B7050805B7050805B7050805B705087C
:1000600005B7050805B7050805B7050805B705086C
:1000700005B7050805B7050805B7050805B705085C
:1000800005B7050805B7050805B70508BDC5050886
:10009000CDC50508C9C50508D9C5050805B70508B2
:1000A00005B7050805B7050805B7050805B705082C
:1000B00005B7050805B7050805B7050805B705081C
:1000C00005B7050805B7050805B7050805B705080C
:1000D00005B7050805B7050805B7050805B70508FC
:1000E00005B7050805B705080000000005B70508B5
:1000F00005B7050805B7050805B7050805B70508DC
:1001000005B7050845B4050805B7050805B705088E
:1001100005B7050805B7050805B7050805B70508BB
:1001200005B7050805B7050805B7050805B70508AB
:1001300005B70508FBA0040805B7050805B70508BD
:1001400005B7050805B7050800000000000000001D
:1001500005B7050805B7050805B7050805B705087B
:1001600005B7050805B7050805B7050805B705086B
:1001700005B7050805B7050805B705080000000024
:1001800005B7050805B7050805B7050805B705084B
:1001900005B7050805B7050805B7050805B705083B
:1001A00005B7050805B7050805B7050805B705082B
:1001B00005B7050805B7050805B7050805B705081B
:1001C00005B7050805B7050805B7050805B705080B
:1001D00005B7050805B7050805B7050805B70508FB
:1001E00005B7050805B7050805B7050805B70508EB
:1001F00005B7050805B7050805B7050805B70508DB
:1002000005B7050805B7050805B7050805B70508CA
:1002100005B7050805B7050805B7050805B70508BA
:1002200005B7050805B7050805B7050805B70508AA
:1002300005B70508B5B6050805B7050805B70508EB
:1002400005B7050805B7050805B7050805B705088A
:1002500005B7050805B7050805B7050805B705087A
:1002600005B7050805B7050805B7050805B705086A
:1002700005B7050805B7050805B7050805B705085A
:1002800005B7050805B7050805B705080000000013
:1002900005B7050805B7050810B5054C237833B92F
:1002A000044B13B10448AFF300800123237010BD49
:1002B0006018002400000000542F070808B5034B05
:1002C0001BB103490348AFF3008008BD00000000E4
:1002D00064180024542F0708154B002B08BF134B3C
:1002E0009D46A3F5803A00218B460F461348144AD9
:1002F000121A23F0DDFF0F4B002B00D098470E4B56
:10030000002B00D098470020002104000D000D486C
:10031000002802D00C480FF0A9FE23F0AFFA20000D
:10032000290009F061F910F0B5F800BF00000800DD
:10033000000008240000000045950408601800240F
:10034000B81501246D00050800000000704700008A
:10035000094B30B51A46094CD3F89450A542FBD14D
:10036000036829B181680B604FF44073536130BD5D
:10037000C1681B04F7E700BF006402580003008057
:1003800038B5674D674B297849B2002900F0BA802B
:100390001A886549013292B21A801A8809889142F6
:1003A0002FD8624C002262481A80237883F0010320
:1003B00023702178FFF7CCFF237813B35D4B2A78A5
:1003C00019685D4841FA82F21A600178C9B12A7849
:1003D00052B2002A04DD594A19681268914207DABC
:1003E0002A7814060DD5554A19681268914208DC1E
:1003F000524A002112681A60297001704C48FFF7B8
:10040000A7FF4F4D4F4B297849B200297ED01A885B
:100410004D49013292B21A801A88098891422FD828
:100420004A4C00224A481A80237883F00103237043
:100430002178FFF78DFF237813B3464B2A7819688C
:10044000454841FA82F21A600178C9B12A7852B25D
:10045000002A04DD414A19681268914207DA2A78B5
:1004600011060DD53D4A19681268914208DC3B4AD5
:10047000002112681A60297001703548FFF768FF83
:10048000374C384B217849B2002943D01A88364975
:10049000013292B21A801A88098891423ED8334DAF
:1004A000002233481A802B7883F001032B702978BF
:1004B000FFF74EFF2B78002B30D02E4B2278196897
:1004C0002D4841FA82F21A60017839B3227852B28B
:1004D000002A04DD294A19681268914207DA227855
:1004E00012061BD5254A19681268914216DC234A68
:1004F000002112681A60217001701D48BDE8384063
:10050000FFF726BF1980094B197077E719800F4B49
:100510001970B2E71980154B1970EEE738BD00BFAE
:10052000181900248C1800240400002486190024C3
:10053000AC1E002478190024301900242C19002442
:10054000191900248E18002406000024871900249D
:10055000741E00247C1900243C190024381900243E
:100560001A19002490180024080000248819002477
:100570003C1E00248019002448190024441900243A
:100580000B6803604B6843608B68836070470C3076
:10059000704708B5FFF7FBFF0023036008BDC36881
:1005A0000BB19B68184770470144002310B588427F
:1005B0000FD010F8014B08225C406300013A24067A
:1005C000DBB248BF83F0070312F0FF021C46F4D1F0
:1005D000EDE7184610BD000072B6024B186862B60F
:1005E000704700BF7819002472B6024B186862B6D3
:1005F000704700BF7C19002472B6024B186862B6BF
:10060000704700BF8019002472B6024B186062B6B2
:10061000704700BF7819002472B6024B186062B6AA
:10062000704700BF7C19002472B6024B186062B696
:10063000704700BF8019002472B6024B1878C0B210
:1006400062B670473019002472B6024B1878C0B2F7
:1006500062B670473C19002472B6024B1878C0B2DB
:1006600062B670474819002472B60D4B1B78A3B9C7
:100670000C4B1B788BB90C4B1B7873B90B4B1B784D
:1006800003F0FF003BB90A4B1B7803F0FF0013B9DE
:10069000084B1878C0B262B670470120FBE700BF74
:1006A00018190024191900241A19002430190024DB
:1006B0003C1900244819002410B51C4C0521204683
:1006C00003F0F0FAB0FA80F0194B082140091870D5
:1006D000204603F0E7FAB0FA80F0164B04214009F7
:1006E0001870204603F0DEFAB0FA80F0124B0221B7
:1006F00040091870204603F0D5FAB0FA80F00F4B8D
:10070000012140091870204603F0CCFAB0FA80F0BD
:100710000B4B002140091870204603F0C3FAB0FAD1
:1007200080F0084B4009187010BD00BFC81D0024A0
:10073000C0180024C1180024C3180024C2180024C3
:10074000C5180024C41800240B4B1B7813B10B4BA5
:100750001B786BB90A4B1B7813B10A4B1B783BB95A
:10076000094B1B7833B1094B187880F001007047B2
:100770000020704701207047C0180024C1180024D1
:10078000C2180024C3180024C5180024C41800246B
:10079000084B187868B9084B187850B9074B187887
:1007A00038B9074B187820B9064B187808B9064BAA
:1007B00018787047C0180024C1180024C2180024FB
:1007C000C3180024C5180024C418002472B60021E0
:1007D000054B1970054B1970054B1980054B1970A5
:1007E00062B60548FFF7B4BD18190024301900247B
:1007F0008C18002486190024AC1E002472B6002137
:10080000054B1970054B1970054B1980054B197074
:1008100062B60548FFF79CBD191900243C19002455
:100820008E18002487190024741E002472B600213B
:10083000054B1970054B1970054B1980054B197044
:1008400062B60548FFF784BD1A1900244819002430
:1008500090180024881900243C1E002408B5FFF7D6
:10086000B5FFFFF7CBFFBDE80840FFF7DFBF000093
:100870002DE9F0418846054618B9BDE8F041FFF77B
:10088000A5BF72B6144C154E2278154F52B2824253
:1008900007D133782BB93B88994202D162B6BDE8C3
:1008A000F08162B6FFF792FF962006F04FFB002D15
:1008B0000C48D4BF00210121FFF74AFD0A2006F0B1
:1008C00045FB72B60023084AA7F800801380074A48
:1008D000137033702570E1E71819002430190024D3
:1008E00004000024C81E00248C180024861900244B
:1008F0002DE9F0418846054618B9BDE8F041FFF7FB
:100900007DBF72B6144C154E2278154F52B28242FA
:1009100007D133782BB93B88994202D162B6BDE842
:10092000F08162B6FFF76AFF962006F00FFB002DFC
:100930000C48D4BF00210121FFF70AFD0A2006F070
:1009400005FB72B60023084AA7F800801380074A07
:10095000137033702570E1E7191900243C19002445
:1009600006000024901E00248E18002487190024FD
:100970002DE9F0418846054618B9BDE8F041FFF77A
:1009800055BF72B6144C154E2278154F52B28242A2
:1009900007D133782BB93B88994202D162B6BDE8C2
:1009A000F08162B6FFF742FF962006F0CFFA002DE5
:1009B0000C48D4BF00210121FFF7CAFC0A2006F031
:1009C000C5FA72B60023084AA7F800801380074AC8
:1009D000137033702570E1E71A19002448190024B8
:1009E00008000024581E00249018002488190024B0
:1009F00070B505460E46FFF7EFFDA84203D1BDE8EE
:100A00007040FFF7E3BEACBF4FF0FF340124FFF7A7
:100A1000DDFE962006F09AFA631E0C4859425941B1
:100A2000FFF796FC0A2006F091FA72B6084B0122F5
:100A30001D60084B1A70084B084A1E800023138063
:100A4000074A1370074B1C7062B670BDC81E0024A5
:100A50002C19002430190024040000248C180024D0
:100A6000861900241819002470B505460E46FFF7B4
:100A7000BBFDA84203D1BDE87040FFF7BFBEACBFCD
:100A80004FF0FF340124FFF7B9FE962006F05EFA1E
:100A9000631E0C4859425941FFF75AFC0A2006F0E0
:100AA00055FA72B6084B01221D60084B1A70084BAC
:100AB000084A1E8000231380074A1370074B1C70DE
:100AC00062B670BD901E0024381900243C19002421
:100AD000060000248E180024871900241919002408
:100AE00070B505460E46FFF787FDA84203D1BDE865
:100AF0007040FFF79BBEACBF4FF0FF340124FFF7FF
:100B000095FE962006F022FA631E0C485942594180
:100B1000FFF71EFC0A2006F019FA72B6084B0122F4
:100B20001D60084B1A70084B084A1E800023138072
:100B3000074A1370074B1C7062B670BD581E002424
:100B400044190024481900240800002490180024A7
:100B5000881900241A19002410B51C4C227852B2AE
:100B6000002A04DD1A4B1B780BB1FFF72FFE237808
:100B7000190604D5174B1B780BB1FFF727FE164C4F
:100B8000227852B2002A04DD144B1B780BB1FFF718
:100B900035FE23781A0604D5114B1B780BB1FFF7ED
:100BA0002DFE104C227852B2002A04DD0E4B1B7829
:100BB0000BB1FFF73BFE23781B0606D50B4B1B78CA
:100BC0001BB1BDE81040FFF731BE10BD181900245D
:100BD000C0180024C118002419190024C2180024C8
:100BE000C31800241A190024C5180024C4180024AE
:100BF0000A4BD3ED007AF5EEC07AF1EE10FA0ADD79
:100C0000074BD3ED007AF5EEC07AF1EE10FACCBFC7
:100C10000120002070470020704700BF7019002499
:100C2000741900240C4AD2ED007AF5EEC07A08B5AA
:100C3000F1EE10FA0CDDFFF7CFFC07EE900A92ED13
:100C4000007AF8EEE76AC6EE877A17EE900A08BDDA
:100C5000DFED027AF9E700BF701900240000000000
:100C60000C4AD2ED007AF5EEC07A08B5F1EE10FA32
:100C70000CDDFFF7B9FC07EE900A92ED007AF8EE72
:100C8000E76AC6EE877A17EE900A08BDDFED027AB2
:100C9000F9E700BF74190024000000000A4BD3EDEF
:100CA000006AF5EEC06AF1EE10FAC9BF074B9FED7E
:100CB000087AD3ED007AF8EEE77AC8BF87EEA67A15
:100CC00017EE100A704700BF701900248C19002419
:100CD000000000000A4BD3ED006AF5EEC06AF1EEA9
:100CE00010FAC9BF074B9FED087AD3ED007AF8EEF2
:100CF000E77AC8BF87EEA67A17EE100A704700BFE2
:100D0000741900249019002400000000034B186897
:100D1000022390FBF3F3C01A704700BF8C19002424
:100D2000034B1868022390FBF3F3C01A704700BF0F
:100D300090190024254B37B51A68254D002A254CFB
:100D400003DD254B1B68002B09DC002323492448C5
:100D50002B60236005F0FEFD002003B030BD07EEE0
:100D6000902ADFED206A2049F8EEE77A1C4887EEEA
:100D7000A67A07EE903ADFED1D6AF8EEE77A85ED88
:100D8000007A87EEA67A84ED007A05F0D0FDD5EDE5
:100D9000007A06251248B7EEE77A009553EC172B38
:100DA00005F0F6FE12490E4805F0C1FDD4ED007ABB
:100DB0000095B7EEE77A0A4853EC172B05F0E8FEEA
:100DC0000C49074805F0C6FD0120C6E78C19002430
:100DD000701900247419002490190024CECE06083E
:100DE000043100240000F84301CF06080080A84326
:100DF00011CF06081FCF06082DE9F0432DED028B19
:100E000008EE900ADFED497A83B008EE101AF0EE92
:100E1000E86A07EE102A1F460C9DF4EE676AF1EEB1
:100E200010FA0DD8F0EEC86AF4EE676AF1EE10FA27
:100E300006D8B0EEC77AB4EE677AF1EE10FA04D9AC
:100E40003B493C4805F086FD66E03B4B1B78002B98
:100E500069D0FFF7CDFE0446002864D0374EDFF896
:100E6000F480D6ED007A68EEA77A17EE900A21F0AA
:100E700035FDD8ED007A386068EE277A17EE900AD3
:100E800021F02CFDD6ED007A286077EEA77A17EED8
:100E9000900A21F023FDD8ED007A06464FF00208B3
:100EA00077EEA77A17EE900A21F018FD244B014641
:100EB0001A6892FBF8F2B21AFFF728FF8146FFF793
:100EC0002FFF3B689A420EDCA9EB06069E420ADB26
:100ED0001C4B2A681B6893FBF8F3CB1A934202DC85
:100EE000401A904219DA18490224124805F01FFDF1
:100EF000B7EEE87A00940F4853EC172B05F048FE44
:100F000012490C4805F013FDB7EEC87A0094094861
:100F100053EC172B05F03EFE0024204603B0BDEC39
:100F2000028BBDE8F0830A498BE700BFFFFF7F7F9C
:100F30008CD0060804310024831800247019002482
:100F40008C19002490190024B3D0060853C8060851
:100F5000DCD006087419002406EE900A9FED187A7A
:100F600006EE101AF0EEE67AF4EE477AF1EE10FA99
:100F700001D900207047F0EEC67AF4EE477AF1EE20
:100F800010FAF6D8DFED0F7A77EEE66A77EEC67ADA
:100F9000C2ED006AC3ED007AD2ED006AF0EEE66AB7
:100FA000F4EE476AF1EE10FAE3D8F0EEE77AF4EEE9
:100FB000477AF1EE10FA94BF01200020704700BF7D
:100FC000FFFF7F7F0000000008B50F4B1B780BB9B7
:100FD000002008BD0D4B1B78002BF9D0FFF7FCFA61
:100FE0000028F5D1FFF700FB0028F1D1FFF704FB43
:100FF0000028EDD1FFF738FB0028E9D1044B187821
:1010000080F00100E5E700BF831800248418002465
:101010001B1900242DE9F0412DED048B84B01F46EF
:10102000002509EE100A03AB08EE901A08EE102A0C
:10103000009302ABCDE90255FFF7DEFE064600281D
:1010400063D0FFF70BFC364A029982ED009A354ACD
:10105000354BC2ED008A354A98461D7082ED008AF4
:10106000334A344B1160344A0399344C116034498B
:101070003448022F18BF1946257005F058FCB7EE0A
:10108000C97A02252F4853EC172B009505F080FDF7
:101090002D492C4805F04BFCB7EEE87A009529481D
:1010A00053EC172B05F074FD2849264805F03FFC4A
:1010B000B7EEC87A0095234853EC172B05F068FD6E
:1010C0002349204805F046FC01210298FFF790FCD7
:1010D00001210398FFF7C8FCFFF7AEFA10B9FFF73C
:1010E000B3FAC0B101233846237088F8000005F038
:1010F0000DFF184B186023787BB91749174B11481F
:10110000022F18BF194605F025FC304604B0BDEC8F
:10111000048BBDE8F0812070E7E71E46F5E700BFCD
:101120003419002440190024841900244C19002487
:1011300024190024F2C70608281900241B190024CA
:10114000DFC70608043100244FC8060857C8060840
:101150005FC80608B018002404C806082AC8060894
:10116000F8B5104C05460F462678FFF777FB0023AD
:101170000D4A237013700FB10C4A1370022E07D161
:101180000B4B1B8823B10B4A138003220A4B1A70A6
:101190000A490B4805F0CBFB29460948BDE8F84051
:1011A00005F0ECBB841900241B19002483180024CB
:1011B0009A1900247C18002488180024D7D1060826
:1011C00004310024044B1B781B2B9ABF034A52F8AE
:1011D00023000348704700BFA4180024D0C60608A7
:1011E000FCCA0608094B10B5094C187005F08EFEB4
:1011F000084B09491860204605F099FBFFF7E2FF0C
:1012000001462046BDE8104005F0B8BBA4180024F4
:1012100004310024AC18002449CB06081A4B1B7873
:101220001B2B10B523D1194B19491C68204623F0FC
:101230000BFCF0B11749204623F006FCD8B1164943
:10124000204623F001FCC0B11449204623F0FCFBEA
:10125000A8B11349204623F0F7FB90B1114920466D
:1012600023F0F2FB00280CBF0620FF2010BD002059
:10127000FCE70120FAE70220F8E70320F6E7042064
:10128000F4E70520F2E700BFA41800240C000024B6
:1012900050CB060867CB060878CB060889CB060832
:1012A0009ACB0608B8CB060808B5FFF7D7FA002393
:1012B000104A11491370114A11481370114A1370E2
:1012C000114A137000220A6010490A60104A11493D
:1012D0001360114A1360114A1360114A1370114BC5
:1012E000114A1A6005F036FB0120BDE80840FFF7FF
:1012F00079BF00BF1B190024701900248419002431
:101300000431002483180024841800247419002454
:101310008C1900247BCD0608901900249419002410
:10132000A61800240C00002430F00608034B1B789C
:101330000C2B9ABF024AD05C0A2070479F180024E9
:1013400040C70608034B1B780C2B9ABF024AD05C9F
:10135000082070479D1800244DC7060808B50D4B9E
:101360001B780BB9002008BD0B4B1B78002BF9D064
:1013700005F0CCFD094B1B68C01A9628F2D805F081
:10138000C5FD074B1B68C01A96288CBF00200120A2
:10139000E9E700BFA21800249E190024B819002410
:1013A000B4190024024B987900F00100704700BF87
:1013B00051190024024B1878C0F3C000704700BFD9
:1013C000A5180024024B1878C0F30010704700BF26
:1013D000A5180024024B1878C0F34010704700BFD6
:1013E000A5180024024B1878C0F38010704700BF86
:1013F000A518002408B5FFF7DDFF98B1FFF7E2FF5D
:1014000080B1FFF7E7FF68B1084B1B78072B0AD1C3
:10141000074B93F90030002B05DB064B1878B0FA28
:1014200080F0400908BD0020FCE700BF9E180024A2
:10143000A51800249C18002410B5C3790133DBB231
:10144000022B20D8037A0133DBB2022B1BD8437A5C
:101450000133DBB2022B8CBF00230123C27A847AD2
:10146000B42A12D8027BB42A8CBF00220122417B0D
:101470006BB114F0FC0F0AD11AB108298CBF0022FD
:101480000122104610BD0023E8E70022EFE700220A
:10149000F7E70000624AF8B5137804468188614D89
:1014A00088B2614E614F002B40F08C802980012171
:1014B0005F4811705F4A60491380604A337013704F
:1014C0005F4A138005F033FA0A222988584805F04C
:1014D000A0FA3278E37812B13A789A4206D03B709B
:1014E0000123337005F012FD564B18602346564A0F
:1014F00004F11C0153F8040B8B4242F8040BF9D1A0
:10150000E279524BA1791A70227A514B51481A70E4
:10151000627A514B514D1A70C1F34002504B1A7010
:10152000E27A504B1A70227B4F4B1A70A37A03F069
:10153000010203F00206C3F3400302704B4803703C
:1015400022B1287810B94A4801270770494826B1C6
:10155000067816B9484E012737702A700370627BEF
:10156000464B1A70A27B464B1A70464B227C197070
:10157000454B1A70627C5A70A27C9A70E27CDA70D9
:10158000227D424B1A70A27D637D43EA0223404ACA
:101590001380227EE37D43EA02233E4A1380A27E2B
:1015A000637E43EA02233C4A138001233B4A1370C3
:1015B0003B4A137005F0AAFC3A4B002218603A4BE4
:1015C0001A70F8BD2B88834283D03849184805F03B
:1015D000AEF90A222988164805F019FA3449144848
:1015E00005F0A5F90A22A188114805F012FA6279DE
:1015F0002379012143EA02232E4A2B800023117014
:101600000C4A337013800D4A13700D4A13802A4B15
:101610001B781BB12948FFF7A3FD5AE7E3785EE783
:10162000A2190024A01900249E190024B019002436
:10163000043100247C18002420CD060888180024DA
:101640009A190024B419002451190024B418002454
:10165000B518002480180024B6180024811800242E
:101660008218002415000024140000247E18002491
:10167000A11800247F180024A01800249E1800241C
:101680009C180024A51800241C1900248718002485
:1016900020190024221900249C190024A2180024D7
:1016A00085190024B8190024A31800243CCD06088D
:1016B00093C80608851800241B1900245ACD060873
:1016C00038B51F4B1C781F4B1B780BB144F002043C
:1016D000FFF77AFC08B144F004041B4D2B78092B6A
:1016E00008BF44F00804FEF7BFFF38B9174B1B785A
:1016F00023B9174B1B78013B182B01D844F0100479
:101700002B78144A0C2B127808BF44F020041AB12D
:101710000C2B18BF44F04004FFF720FE68B12B7873
:101720000C2B0AD0A3F10802022A04D9042B02D000
:10173000064B1B780BB144F08004204638BD00BF37
:1017400083180024841800249F1800241B190024E7
:10175000A41800248618002408B5114B1A78114BE0
:101760001B780BB142F002020F4B1B780BB142F019
:1017700004020E4B1B780BB142F008020C4B1B7895
:101780000BB142F010020B4B1B780BB142F0200260
:10179000FEF7DAFF08B142F04002104608BD00BF74
:1017A000C0180024C1180024C2180024C318002443
:1017B000C5180024C4180024424B1B7803F0F7021C
:1017C000032A10B504462DED028B0FD13E4B1B783A
:1017D000C0F80F303D4B1B78C0F813303C4B1A88D3
:1017E0005B88C0F81720C4F81B3047E0042B01D0F9
:1017F0000A2B0ED1FEF7F0FEC4F80F00FEF7F4FE40
:10180000344BC4F813001B68C4F81730324B1B6804
:10181000E9E7092B02D0314A127892B3B2EE048A7A
:10182000FFF700FA07EE900A67EE887A17EE900A43
:1018300021F054F8C4F80F00FFF712FA07EE900AEF
:1018400067EE887A17EE900A21F048F8244BC4F826
:101850001300D3ED007A67EE887A17EE900A21F034
:101860003DF8204BC4F81700D3ED007A67EE887A74
:1018700017EE900A21F032F8C4F81B00BDEC028B81
:1018800010BD0C2B0ED1184B1B78C0F80F30174B26
:101890001B78C0F813300D4B1B78C0F81730FFF7DA
:1018A000BDFCE9E7FEF798FEC4F80F00FEF79CFECA
:1018B000C4F81300FEF7A0FE0D4BC4F817001B88F8
:1018C00091E700BF9F1800249E1800249C18002454
:1018D0001C1900248C190024901900241B190024C1
:1018E00034190024401900249D180024C019002434
:1018F000A019002410B520220021044622F0D8FCB3
:10190000FFF714FD294BE0701B782371284B1B78DF
:101910006371FFF7D5FEA071FFF71EFFE07172B68D
:10192000244B254A1B7825495BB212780878002B96
:1019300052B240B22DDC2ED1002A59B22DDC2ED16C
:101940001346002841EA83022BDC2CD1034642EAED
:101950000313237262B6FFF7F5FC194B6072204641
:101960001B78A372174B1B78E372174B1B88A3815C
:10197000164B1B78A373FFF71FFFA7231F212046D9
:101980002370022363702023A370FEF70DFEE0771F
:1019900010BD0123D0E70223CEE70123D1E70223C4
:1019A000CFE70123D3E70223D1E700BF501900247A
:1019B000A418002418190024191900241A19002445
:1019C00089180024981900247C1800248818002401
:1019D00038B5104C0022104D2378287001330F4980
:1019E0000F4813F0FF0308BF012323700D4B1A703B
:1019F00004F09DFF0A222978094805F02BF80A49CE
:101A0000074804F094FF21780A220548BDE83840D1
:101A100005F022B898190024891800246CCD060816
:101A200004310024A71800242CD106081E4B1A7874
:101A3000824210B5044635D0187005F067FA1B4B8A
:101A40001B4918601B4B1C481A781C4B1A7004F079
:101A50006EFFFFF76BFC0A220146174804F0FCFFFB
:101A60000C2C1FD8DFE804F01717170711171717EA
:101A70001717110A1700124B00221A70FEF7EEFE1C
:101A80000220BDE81040FFF7A3BFFEF7E7FEBDE868
:101A90001040FFF709BCFEF7E1FE0023094A13706E
:101AA000094A137010BD00BF9F180024A818002415
:101AB0007EC80608B51800240431002492180024BA
:101AC000C11900241B1900248419002438B50546C7
:101AD0000C46FEF7C3FE214B1A78022A1A4607D19C
:101AE0001F4B1B8823B11F490B8003211E4B19700C
:101AF00000231E4913701E4A0B701278042A01D06D
:101B00000A2A0BD11B4A13701B4A13701B4B1A78FD
:101B10001B2A1FBF1A4A14601B221A70194B0C2073
:101B2000194A1D70194B1C6000231370184A13705A
:101B3000FFF77CFF1749184804F0F9FE29460A22EE
:101B4000154804F087FF1549134804F0F0FE2146BC
:101B50001148BDE8384004F011BF00BF84190024CB
:101B60009A1900247C180024881800241B190024CA
:101B70009F1800248318002484180024A41800242B
:101B80000C0000249D180024A1180024100000243B
:101B9000A0180024CFC70608043100249FEC0608D3
:101BA00070B52B4D2B78002B51D02A4E33785BB279
:101BB000002B03DD284B1B78002B41D133781A060C
:101BC00003D5264B1B78002B3AD1254C23785BB2EA
:101BD000002B03DD234B1B78002B31D123781B0610
:101BE00002D5214B1B785BBB05F090F91F4B1B689E
:101BF000C01A1F4B984209D901211E48FFF7B0FABD
:101C00001D490720BDE87040FFF760BFFEF714FDD7
:101C1000E8B9FEF719FDD0B93378C3B923785BB2C0
:101C2000ABB9164A2B7011781370154A154B16482C
:101C300002290CBF11461946BDE8704004F08ABE67
:101C400001211248FFF78CFA11490820DAE770BD2C
:101C50001B19002418190024C0180024C1180024DE
:101C600019190024C2180024C3180024B018002435
:101C700020BF020026D206082ED2060884190024AE
:101C8000F3D106080DD206080431002447D2060815
:101C900063D2060838B50446FEF7E0FD00230C4A7F
:101CA0000C4D1B2013700C4A13700C4B1C60FFF77B
:101CB00099FA0B49284604F03AFE2146284604F0DA
:101CC0005DFE21460520BDE83840FFF7FFBE00BF9E
:101CD0008318002404310024841800240C000024FC
:101CE00086CF0608F8B5A34C2378002B00F0F181CD
:101CF0001A3B012B40F2ED8105F008F99E4B1B6861
:101D0000C01A9E4B984204D99D48BDE8F840FFF7A1
:101D1000C1BF2378013B182B00F2DB81DFE813F011
:101D2000190027003B0042004E00560065006C0081
:101D300086009400A500AC00B800C000CF00D6001B
:101D4000F000FE000F01160122014C015B01610150
:101D50007E018C4B1B7833B1FEF738FD0220BDE8C5
:101D6000F840FFF73FBA02214FF0FF300FE0854BFC
:101D70001B7853B9FEF72AFDFEF72EFC022100F571
:101D80009670FEF735FE0320E9E702210120BDE849
:101D9000F840FEF76DBDFEF74FFC002840F099813A
:101DA0000420DCE7774B1B7833B1FEF70FFD0020F2
:101DB000FEF72AFC0520D2E70821D5E7724B1B78F5
:101DC000002BE2D0FEF702FD0620C8E76E4B1B7821
:101DD000002BC8D1FEF7FAFCFEF7FEFB0221A0F5AE
:101DE0009670FEF705FE0720B9E7FEF725FC0028F0
:101DF00040F06F810820B2E7634B1B78A3B1FEF778
:101E0000E5FC624CFEF7E8FB6328206001DC6048DB
:101E10007BE76049604804F08AFD0A2221685E4839
:101E200004F001FE09209AE70821AFE75B4B1B781D
:101E30001BB1FEF7E3FC0A2091E702214FF0FF30CF
:101E4000BDE8F840FEF754BD544B1B7853B9FEF77C
:101E5000D5FCFEF7C9FB022100F59670FEF704FEE3
:101E60000B207CE702210120EAE7FEF7EDFB0028CA
:101E700040F02F810C2072E7484B1B7833B1FEF7FE
:101E8000BDFC0020FEF7C8FB0D2068E70821D5E760
:101E9000434B1B78002BE5D0FEF7B0FC0E205EE72D
:101EA0003F4B1B78002BC8D1FEF7A8FCFEF79CFB2C
:101EB0000221A0F59670FEF7D7FD0F204FE7FEF741
:101EC000C3FB002840F00581102048E7344B1B7805
:101ED000A3B1FEF793FC334CFEF786FB632820602A
:101EE00001DC314811E731492B4804F020FD0A227A
:101EF0002168294804F097FD112030E70821B2E756
:101F00002B4B1B781BB1FEF791FC122027E7022117
:101F10004FF0FF30BDE8F840FEF72ABD244B1B7898
:101F200053B9FEF783FCFEF767FB022100F59670BC
:101F3000FEF7D6FD132012E702210120EAE7FEF7A3
:101F40008BFB002840F0C580142008E7184B1B7855
:101F500033B1FEF76BFC0020FEF766FB1520FEE6B2
:101F60000821D5E7134B1B78002BE5D0FEF75EFC6C
:101F70001620F4E6A4180024AC18002420BF0200A8
:101F800050CB0608C1180024C01800248C19002466
:101F900067CB060829CF060804310024C3180024A3
:101FA000C21800249019002478CB060839CF0608FF
:101FB000C4180024C5180024464B1B78002BA6D15A
:101FC000FEF734FCFEF718FB0221A0F59670FEF731
:101FD00087FD1720C3E6FEF73FFB002879D11820C4
:101FE000BDE63C4B1B78BBB1FEF720FC3A4CFEF73C
:101FF00003FB6328206001DC384886E6384939480D
:1020000004F095FC0A222168364804F00CFD364B9A
:10201000002219201A70A2E608218EE7334B022411
:102020001F68334B1E682C4B1D682F4B1A7897FB8B
:10203000F4F796FBF4F695FBF4F56AB90122214614
:1020400038461A70FEF7D4FC21463046FEF70CFDE8
:1020500021462846FEF744FDFEF7EEFA002838D167
:10206000FEF7F2FA002834D1FEF7F6FA88BB214BCE
:102070001B7873BB204B1B785BBB204B1A7852B28A
:102080003ABBFEF7A9FA874213D1FEF7ADFA8642B2
:102090000FD1FEF7B1FA85420BD11046FEF7B4FA24
:1020A000FEF7BAFAFEF7C0FAFEF744FE18B9144874
:1020B0002BE6144829E60123134A1A201370134A09
:1020C0001370FFF78FF812490648BDE8F84004F096
:1020D00041BCF8BDC51800249419002489CB06081A
:1020E00049CF060804310024A61800248C190024C6
:1020F0009019002418190024191900241A19002411
:102100009ACB0608B8CB060883180024841800244C
:1021100059CF060808B5FFF721F9002840D02C4B0D
:102120001B78002B3ED0FFF73DF900283AD0FFF78F
:1021300041F9002838D0274B1B78072B34D1264B88
:102140001B78002B30D1FFF73DF978B3FFF742F948
:1021500070B3224B1B786BB3FEF74AFD50B3204B94
:102160001B784BB3FEF730FF40B3FEF77DFA38BB68
:102170001C4B1B7823BB1C4B1B781BB31B4B1B78C6
:102180001B2B21D01A4B1B681B78EBB9FEF7DCFA2E
:10219000E0B1FEF7FDFA002814BF0C20002008BDB6
:1021A0000120FCE70220FAE70320F8E70420F6E725
:1021B0000520F4E70620F2E70720F0E70820EEE725
:1021C0000920ECE70A20EAE70B20E8E70C20E6E725
:1021D000851900249E1800249C18002483180024CC
:1021E000841800241B19002482180024A418002439
:1021F0000C0000242A4B1B7870B523B90520BDE8DC
:102200007040FFF713BC274B1B78002B47D1FEF71C
:102210002BFA002843D1244D244E95F9001099B192
:1022200096F9003083B9224C23785B1A1BD4042B17
:10223000A8BF00231F492048237004F078FB0A221E
:1022400021781D4804F008FC2B781C4A3370137861
:102250002BB300231370164A117803291ED8DFE828
:1022600001F0040617190323E4E70820C7E7144B1D
:102270001B783BB1134B1B7823B1FFF7BBF808B1B8
:102280000920BCE710490C48BDE8704004F062BB6F
:102290000A20B4E70D4A0B201370B0E7137070BD2D
:1022A000821800241B190024B51800249218002459
:1022B0005019002408CB060804310024A11800247A
:1022C000831800248418002417CB0608C1190024A1
:1022D00038B5234B1B7833B9FEF7C0FA0520BDE8AB
:1022E0003840FFF7A3BB1F4B1A782AB100221A709F
:1022F000FEF7B4FA0720F2E71B4B93F900001B4BE3
:10230000002893F900501A4B93F900401FDD194B38
:102310001B78002B18BF0020002D1BDD164B1B78EF
:10232000002B18BF0025002C17DD144B1B78002B49
:1023300018BF00240121FEF79BFA28460121FEF771
:10234000D7FA20460121BDE83840FEF711BBE3D0A3
:102350000B4BDDE7E7D00B4BE1E7EBD00A4BE5E7B2
:1023600082180024A0180024B4180024B5180024F2
:10237000B6180024C0180024C2180024C518002470
:10238000C1180024C3180024C418002438B50A4B0F
:1023900002220A4C05461880094B204609491A704A
:1023A0000022094B1A8004F0C2FA294620460A226C
:1023B000BDE8384004F02DBB7C1800240431002413
:1023C00088180024FCD006089A1900242DE9F04151
:1023D0002DED028B86B0FEF729FA634B1978634B1B
:1023E00061B91B7813B16248FEF7BAFE0520FFF70A
:1023F0001DFB06B0BDEC028BBDE8F0811A785D4B89
:10240000197839B10021197012B15B48FEF7A8FEA6
:102410000720ECE7FEF7EEFF014640B912B157483E
:10242000FEF79EFE56490420FFF750FBE1E7002A25
:10243000DFD1FEF719F907460028DAD1FEF7D2FFFF
:102440000028D6D0DFF86C81B8F800304546002B64
:10245000CFD04C4C22889A42CBD04B4BB2EE047A70
:10246000002602AAB3F90030029607EE903A474BD5
:10247000F8EEE77AB3F90030C7EE878A07EE903AB4
:1024800006AB43F80C6DF8EEE77A87EE878A18EE14
:10249000900A18EE101AFEF75FFD20B9B8F8000098
:1024A000FFF774FFA5E705AB32460399009304AB31
:1024B0000298CDE90477FEF79FFC08B92888EFE77A
:1024C000B8F80030324A238001241380314B32495E
:1024D00032481C7004F02BFA314B0A222F4819782D
:1024E00004F0B8FA2F492D4804F021FAB7EEE87A43
:1024F00000942A4853EC172B04F04AFB2A4927483A
:1025000004F015FAB7EEC87A0094244853EC172B60
:1025100004F03EFB2549214804F009FADDED027A7A
:102520000094B7EEE77A1D4853EC172B04F030FB0C
:102530001D491A4804F0FBF9DDED037A0094B7EE6B
:10254000E77A164853EC172B04F022FB184913487E
:1025500004F000FA0223002203990298FEF75AFDC4
:1025600000287FF446AFA9E7821800241B19002435
:1025700083CC0608A0180024A2CC0608B8CC060814
:10258000D3CC06087C18002420190024221900242A
:102590009A19002488180024F6CC06080431002477
:1025A000871800240ACD060814CD060816CD0608A3
:1025B000A5EA06089C190024314B70B5DE7B044661
:1025C000304B1D78AE421CD12F4B1A78072A0AD106
:1025D0002E4B93F90030002B05DBFEF7F3FE10B114
:1025E000FEF7F8FE20B92A4B0121082A197002D003
:1025F000284B1B782BB128490420BDE87040FFF719
:1026000065BA04F083FC254B1B68C01A244B984222
:1026100002D924490320F0E7AE4205D11C4B1B78B8
:1026200013B1FEF7E7FE08B9D4B170BD1E491F48CB
:1026300004F090F924B10420BDE87040FFF7F6B92A
:102640001B4A1C4B11781B7829B1002B14700CBF4E
:1026500005200620F0E7002B0CBF05200720EBE744
:10266000154B1A78002AE0D0124A1278002ADCD0E2
:102670001C7001200E4B1C70FFF7AAF90720DBE746
:1026800051190024981900249E180024A51800242C
:10269000A71800249C1800248AD20608A818002431
:1026A00080A90300A5D20608BFD206080431002481
:1026B000C119002482180024A018002438B504464B
:1026C000FFF710FB144B1B780C2B24D0134D2B78E9
:1026D0001A2B0CD124B10520BDE83840FFF7A6B96C
:1026E0000F4B1B78002B14BF07200520F4E794B98B
:1026F0000C4B1A787AB10A4A127862B11C70FEF754
:10270000ADF8094B0720094A1C70094B2C701C704E
:10271000084B1A60E0E738BD9F180024A418002475
:1027200082180024A01800248318002430F0060822
:10273000841800240C0000241B4A10B511781B4C8F
:10274000237881B10021022B117004D80120BDE84B
:102750001040FFF76BB90C2B24D015490B20BDE8B6
:102760001040FFF7B3B9134A1278092A06D9012B92
:1027700018D90C2B16D010490220F0E7012B11D9E3
:102780000C2B0FD0FEF7EAFD60B9FEF767F823784F
:10279000022B04D109490A4804F0DCF8D6E70949BC
:1027A0000120DCE710BD00BF851800249F1800241D
:1027B00038D10608A31800246CD1060890D1060869
:1027C00004310024BBD10608034B187803380228D3
:1027D0008CBF002001207047C0190024064B1B78D5
:1027E000DA1E012A03D9092B03D1FFF7EDBF01201F
:1027F00070470020704700BF9D18002408B5FEF701
:102800002DF80023144A15491370154A137000223D
:102810000A6014490A60144A14491370144A0A6081
:1028200014490B7014490A60144A1370144A137047
:10283000144A1380144A1370144A1380144A1370F4
:10284000FEF78CFD10B10420FFF7C2F80020BDE8B0
:102850000840FFF7EBB800BF83180024701900246C
:102860008418002474190024A41800240C000024E7
:1028700030F006089D18002410000024C019002420
:10288000861800247C180024881800249A19002433
:10289000C1190024F8B5FFF7A1FF38B9234924482E
:1028A00004F058F8BDE8F840FFF7A8BFFEF756FD62
:1028B00008B92049F3E7204B204E1C78204F6CB319
:1028C000204B1C7854B3FEF793F9054620B33478B7
:1028D00024BB3C78A4F109035C425C41FDF7BEFFD8
:1028E0000023194A19491370194A3B701370194A89
:1028F00034701380184A1160184A1370184A137004
:10290000184A137065B11849094804F023F80B20E0
:10291000BDE8F840FFF78AB80446DFE72546DDE763
:102920001249034804F016F80320F1E794CF060893
:1029300004310024D3CF060883180024C1190024D1
:102940009D180024841800241B19002430F0060868
:10295000841900249A19002410000024C0190024AE
:10296000A1180024A018002413D006084FD0060890
:102970004F4B1B7810B50C2B00F29880DFE803F06A
:1029800007182C393E435074787C80828400FDF710
:1029900065FF04F0BBFA474B1B68C01A40F6B7331B
:1029A000984240F283800120BDE81040FFF73EB816
:1029B000FDF754FFFEF7D2FC002877D03E4B1B7882
:1029C000002B73D0FEF7EEFC00286FD03B493C484B
:1029D00003F0C0FF0220E7E7FDF740FF04F096FA9E
:1029E000344B1B68C01A41F2873398425ED90320EA
:1029F000DAE70120BDE81040FFF7DEBD0120BDE8A9
:102A00001040FFF75BBEFDF729FF2E4B1B78002B14
:102A10004CD02D4B1B78002B14BF07200620C3E79A
:102A2000FDF71CFFFFF776FB284B187040B9264BCB
:102A30000122274922481A7003F08CFF0720B3E7D0
:102A40000C28244996BF244B244C53F820401C48A2
:102A500003F06DFF21461A4803F090FF214609203C
:102A6000BDE81040FFF732B8BDE81040FFF7C2BB29
:102A7000BDE81040FFF72CBCBDE81040FFF7A6BC36
:102A80000020BCE70020B5E7FDF7E8FE0D4B1B7802
:102A900063B1134B1A784AB10022124908481A70E0
:102AA00003F058FFBDE81040FFF7F4BE10BD00BFB3
:102AB0009F180024A81800248519002404CC0608B7
:102AC000043100248218002486180024C019002430
:102AD0002BCC060845CC06085CC70608B0C706081C
:102AE000A11800245FCC060807B53149314803F02E
:102AF00031FF31492F4803F01AFFFEF779F880B112
:102B0000FEF790F807EE900A02232A48B7EEE77A1C
:102B1000009353EC172B04F03BF82849254803F0A9
:102B200006FFFDF759FD0A220146224803F04DFF3A
:102B30002349204803F00EFF22491E4803F0F7FE08
:102B4000FEF756F880B1FEF78BF807EE900A0223E5
:102B50001848B7EEE77A009353EC172B04F018F8F7
:102B60001649144803F0E3FEFDF73EFD0A22014634
:102B7000104803F02AFF12490E4803F0EBFE1249F9
:102B80000C4803F0D4FEFDF737FD0A220146094840
:102B900003F01BFF0D49074803F0C9FE0C4B0A2246
:102BA0000448196803B05DF804EB03F03CBF00BFB4
:102BB000CACB0608043100240ECF0608E6CB06086F
:102BC000EDCB060854C806085CC80608F4CB060816
:102BD0009419002437B54D494D484E4D03F0BAFEC7
:102BE0004D494B4803F0A3FE0A222968484803F0E8
:102BF000ECFE4A49464803F09AFEFDF7F9FFA0B102
:102C00004749434803F093FEFEF748F807EE900A61
:102C100002233F48B7EEE77A009353EC172B03F0FB
:102C2000B7FF40493A4803F082FE39483E4C03F072
:102C30008BFE3E49364803F07AFE0A22216834486A
:102C400003F0C3FE3549324803F071FEFDF7D0FFB3
:102C5000A0B133492E4803F06AFEFEF73BF807EEB9
:102C6000900A02232A48B7EEE77A009353EC172B19
:102C700003F08EFF2B49264803F059FE244803F049
:102C800063FE2B49224803F052FE2A4B0A222048B9
:102C9000196803F09AFE21491D4803F05BFE26499E
:102CA0001B4803F044FE296802250A22184891FBBC
:102CB000F5F1494203F089FE2049154803F037FE3B
:102CC000FEF724F80A220146114803F0ACFE1C4925
:102CD0000F4803F02CFE21680A220D4891FBF5F104
:102CE000494203F072FE1549094803F020FEFEF741
:102CF00017F80A220146064803F095FE11490448D8
:102D000003B0BDE8304003F025BE00BFEFC80608A1
:102D1000043100248C1900240EC90608EDCB0608E6
:102D200017C90608F8CA0608901900241BC9060826
:102D300024C90608941900242DC9060842C90608AA
:102D400046C906085BC9060810B5154C154920464A
:102D500003F000FE1449204603F0FCFD1349204611
:102D600003F0F8FD1249204603F0F4FD1149204616
:102D700003F0F0FD1049204603F0ECFD0F4920461A
:102D800003F0E8FD0E49204603F0E4FD0D4920461E
:102D900003F0E0FD20460C49BDE8104003F0DABD29
:102DA000043100247FC90608A0C90608D8C906084E
:102DB000FFC9060826CA060845CA060867CA0608E3
:102DC00087CA0608BCCA0608D6CA060808B50C4B4E
:102DD0001B78072B01D0002008BDFEF7BFFA0028A2
:102DE000F9D0084B1B78002BF5D0FDF701FF002828
:102DF000F1D0054B187801288CBF00200120EBE7AB
:102E00009F180024831800248419002438B51B4D12
:102E10002C78042C20D0A4F10A035C425C41184BAE
:102E20001B78DBB100211748FEF79AF9CCB10023DB
:102E3000154A16490C201370154A1370154B164A83
:102E40001A601B22154B1A70FEF740FE14491548F4
:102E5000BDE8384003F07EBD0124E0E7FDF7FEFC4D
:102E6000E4E72B78083B012BF0D80F4B1B78002BA5
:102E700014BF07200520FEF7D9FDE7E79F180024BF
:102E80001B19002498C8060883180024B5C8060832
:102E9000841800240C000024A3C80608A4180024E9
:102EA000D4C80608043100248218002470B50546F1
:102EB0008EB003F0B6FFAB68002B00F0C38029464C
:102EC00005A803F000FF05A803F09FFF654905A8CA
:102ED00003F03FFF10B1FFF737FFB0E0624905A8EC
:102EE00003F037FF10B1FFF7FFFDA8E05F4905A829
:102EF00003F02FFF10B1FFF76DFEA0E05C4905A8BD
:102F000003F027FF10B1FFF781FF98E0594905A8AA
:102F100003F01FFF78B1584B1B780C2B04D0574996
:102F2000574803F017FD8AE05649554803F012FD53
:102F3000FFF7B0FC83E0544905A803F00AFF58B13D
:102F4000FFF744FF08B95149EAE70022012311467F
:102F50001046FEF75FF872E0FFF738FF08B94C49FA
:102F6000DEE7294608A803F0AEFE0BAC494920462F
:102F700003F068FE214605A803F013FF064620462D
:102F800003F015FE66B1AB6805222946204603F022
:102F900011FF214608A803F0A0FE204603F007FE1B
:102FA00020222C210DEB020003F024FF002303AAB2
:102FB0003949039304930B93002308988DF80B3041
:102FC0000DF10B03CDE9004304AB21F053FC0328C2
:102FD00026D19DED037ADFED317AF0EEC76AF4EE8B
:102FE000676AF1EE10FA1BD8DDED046AB0EEE66A0E
:102FF000B4EE676AF1EE10FA12D89DED0B6AF0EEAE
:10300000C65AF4EE675AF1EE10FA09D8012316EE0B
:10301000102A16EE901A17EE100AFDF7FBFF0BE0D0
:103020001F49174803F083FC2946154803F09CFC10
:103030001C49134803F08EFC08A803F0B8FD05A84E
:1030400003F0B5FD0EB070BD204603F0B0FD08A83A
:1030500003F0ADFD05A803F0AAFD1DF097FFF3E70F
:10306000F5E7F7E7A6CD0608ACCD0608B0CD060813
:103070009EC80608B6CD06089F180024C1CD0608D4
:1030800004310024F3CD0608F5D6060824CE060840
:1030900058CE06088CCE060892CE0608FFFF7F7F2A
:1030A0009ECE0608BECE060810B50446FDF777FA98
:1030B000204610BD38B5074B0546044645F8283B69
:1030C00009F05EF82846FFF7EFFF204609F064F9A3
:1030D000204638BDE0E50608044BC36003460A6895
:1030E00043F8042B002242605A607047C4C60608A9
:1030F00013B50446019121B9FDF74BFA204602B001
:1031000010BD01A9FFF7E8FFF8E70368184708B505
:10311000FFF7FBFF08BD000038B50B4C0B4D2046F8
:1031200009F01EF820460A4C2A460A490CF09CFF7A
:103130000949204603F086FD2A4620460749BDE896
:1031400038400CF091BF00BFD818002400000024C4
:10315000C8180024B530040830F00608AF6B040826
:1031600070B51C2288B04021334801F083F91C2837
:10317000044609D0304C204601F0F7F900284FD022
:10318000204601F0FCF9F6E72B4801F0EEF91B2888
:10319000F0DD01AD2246284E00240021284621F012
:1031A00087F8304601F0EBF9285501341C2CF8D192
:1031B000214C204601F0D9F918B1204601F0DFF981
:1031C000F7E79DF80430E32B1ED19DF80530022B64
:1031D0001AD19DF806301C2B16D19DF81F401B21DB
:1031E0002846FDF7E1F984420ED12846FEF724F97E
:1031F000044648B12846FEF74DF9104A13680133DA
:103200001360204608B070BD0D4A002413680133D6
:1032100013600C4A1378FF2B1CBF01331370F0E7C7
:10322000074A0446136801331360064A1378FF2BDC
:103230001CBF01331370E4E758240024BC18002499
:10324000B8180024A318002410B588B0202200214B
:10325000684621F02DF86846FEF74CFB40210E48E9
:1032600001F0FEF8202269460B4803F037FB0446C4
:103270000121094801F066F9202C07D130B9074A2D
:10328000012013680133136008B010BD044A002008
:10329000136801331360F7E75824002498180024BA
:1032A000941800247FB51B4D1B4C1C4E284601F082
:1032B000C5FE68B3284601F033FFA368C1B20A29EE
:1032C00001D00D2910D1002BF0D0214601A803F028
:1032D000FAFC01A8FFF7EAFD01A803F068FC3146FB
:1032E000204603F000FDE1E74F2B03D8204603F012
:1032F00025FDDBE73146204603F0F5FC084928466A
:1033000003F028FBD2E701A803F051FC1DF03EFEBC
:1033100004B070BD04310024C818002430F0060841
:1033200090C7060838B5414DFFF7BCFFFDF7C4F95B
:1033300003F0ECFD2B78044683B93D4B40F6B732E1
:103340001B68C31A934209D901233A492B703A4B9F
:1033500018603A4B18603A4803F0FCFA2B783BB1FE
:10336000364A1368E31A632B56D91460FFF76CFFD3
:10337000FDF7EAF938B9334B1B780C2B03D03249EF
:103380000620FEF7A3FBFEF70BFCFFF7D5F9FFF7CE
:10339000EFFAFDF7E1FB00232C4A13702C4A13705F
:1033A0002C4A1368E31AB3F57A7F3ED32A4924489E
:1033B000146003F0BCFA294B0A222148196803F073
:1033C0003CFB27491E4803F0B2FA264B0A221C4850
:1033D000196803F032FB2449194803F0A8FA234B7B
:1033E0000A221748196803F028FB2149144803F002
:1033F0009EFA204B0A221248196803F01EFB1E4950
:103400000F4803F094FAFDF791FF0A2201460C4899
:10341000BDE8384003F020BB074A1368E31A042BC9
:10342000A6D91460FFF79CFEA2E738BD8A180024D5
:10343000AC190024E6D20608A8190024A419002417
:10344000043100249F18002410D30608A11800247A
:10345000A0180024BC19002436D30608BC18002488
:1034600042D30608B81800244CD306089818002444
:1034700053D30608941800245DD306081FB54FF4F3
:10348000E131314801F0C0FE304801F01DF830490B
:103490002E4801F048F823212E4800F010FD0021AD
:1034A0002D48FCF755FF00212C48FCF751FF002167
:1034B0002B48FCF74DFF00212A48FCF749FF00216B
:1034C0002948FCF745FF00212848FCF741FFFDF79C
:1034D000C5F9FDF7F1F826496846FFF709FE6422B1
:1034E00000236946234808F066FE6846FFF7DCFDC6
:1034F00003F00CFD204B214A1860214B2149186034
:10350000214B1860214B186000230F481370204A8C
:103510001370204A137003F01DFA1F490A4803F084
:1035200019FA1E49084803F015FA1D49064803F028
:1035300011FAFFF709FC05B05DF804FB6846FFF7D8
:10354000B3FD1DF023FD00BF0431002458240024E6
:10355000A0860100C81D0024AC1E0024741E002497
:103560003C1E0024C81E0024901E0024581E002467
:1035700081030408D8180024AC1900248A180024F8
:10358000A818002466D30608A8190024A41900244A
:1035900089180024981900249DD30608DAD3060858
:1035A00006D40608704710B504461C300AF09AFE8F
:1035B000204610BD10B504460AF094FE204610BD0A
:1035C00010B504466C3007F053FF04F1480007F0D3
:1035D0004FFF04F1240007F04BFF204607F048FF9F
:1035E000204610BD38B504460D461C22002120F0AF
:1035F0005FFE204629460AF0F1FE204638BD000055
:1036000038B504463421FFF7EDFF352104F11C00E5
:10361000254DFFF7E7FF432104F13800FFF7E2FFF4
:10362000632104F15400FFF7DDFF372104F170003E
:10363000FFF7D8FF762104F18C00FFF7D3FF972125
:1036400004F1A800FFF7CEFF7F2104F1C400FFF7CB
:10365000C9FF7A2104F1E000FFF7C4FF042104F15F
:10366000FC00FFF7BFFF082104F58C70FFF7BAFFDD
:10367000262104F59A70FFF7B5FF2A4640F623018C
:1036800004F5A87007F086FB2A4640F6220104F5EF
:10369000E07007F07FFB2A4640F6010104F50C704C
:1036A00007F078FB204638BD0000C07F10B5044607
:1036B0001221FFF797FF862104F11C00FFF792FF0C
:1036C000792104F13800FFF78DFF992104F15400AE
:1036D000FFF788FF422104F17000FFF783FF832189
:1036E00004F18C00FFF77EFF822104F1A800FFF7B0
:1036F00079FF332104F1C400FFF774FF0E2104F1B8
:10370000E000FFF76FFF204610BD10B50446A4305F
:1037100007F0FEFD04F1540007F0FAFD201D07F04C
:10372000F7FD204610BD10B5044600F58470FFF784
:10373000ECFF2046FFF7E9FF204610BD10B5044618
:1037400000F59C7007F0B4FB204610BD2DE9F34155
:103750004FF47A73002504464FF48072C561294600
:1037600004F59C76058404F52677C0E90153224BC5
:1037700003602023C0E905358923283020F8063C62
:103780004FF6FF7320F8043C20F8023C20F090FD37
:10379000C4F8285184F834517D22C4F82C511821E2
:1037A000C4F83051304607F025FB284603F080FB73
:1037B00005468D2003F07CFB80468A2003F078FBD1
:1037C000009043462A462146384600F015FE04F58F
:1037D00033731C220021184620F06AFD00220D21BF
:1037E0000AF0E6FD04E0304607F062FB1DF0CEFB78
:1037F000204602B0BDE8F08170D8060837B5062132
:103800004F4800F0D7F84F4A07214F4800F020FA00
:1038100036214E48FFF7E6FE84214D48FFF7E2FED1
:103820006A214C48FFF7DEFE2F214B48FFF7DAFEF6
:103830004A48FFF78BFF4A4A4A4948480CF014FCB3
:103840004948FFF7DDFE464A484947480CF00CFC62
:103850009B21474807F0EEFDA121464807F0EAFD0D
:103860006721454807F0E6FD2721444807F0E2FDBF
:10387000002401253A4A42493D480CF0F5FB7B23E0
:103880007C2298213F48CDE9004500F039F99A2380
:1038900087222D213C48CDE9004500F031F90CE0AC
:1038A000354807F0E5FD334807F0E2FD304807F002
:1038B000DFFD1DF06BFBF6E7F8E7294A3349314895
:1038C0000CF0D2FB3248FFF7F1FE324800F0E0FB8B
:1038D000314800F0DDFB7E213048FFF783FE3048A1
:1038E00000F0B4F91C2200212D4820F0E1FC012257
:1038F00019212B480AF05AFD194A2A4928480CF088
:10390000B3FB1C220021284820F0D2FC00221E21FB
:1039100025480AF04DFD1C220021244820F0C8FC57
:103920001F2122480AF03FFD0D4A21491E4803B0DD
:10393000BDE830400CF098BB1248FFF7E6FEB8E750
:10394000541A00240C2400245C1A0024701A002449
:103950008C1A0024A81A0024C41A0024E01A002497
:10396000000000243D3704084C210024A53504083C
:10397000C4190024E81900240C1A0024301A002469
:10398000C13504083C1F00244420002427370408C4
:10399000201E0024C81D00241C1F0024201F0024FA
:1039A000CC1D0024B5350408E81D0024041E0024A5
:1039B000A7350408014A0180426070470C240024A6
:1039C000044B054A1A6001221A715A7100229A7139
:1039D000704700BFEC23002440420F00D0F80431B0
:1039E0000133C0F80431704738B50446043007F09D
:1039F00061FC054604F1540007F05CFC237840EAC2
:103A00004500C4F8FC003BB903281ED1D4F80031AE
:103A10000133C4F8003107E0012B18D1D4F8F83095
:103A2000032B04D10028F1D0C4F8F80038BD13B935
:103A30000328F9D1EAE7022B05D10128F4D1D4F803
:103A40000031013BE5E7012BEED10228F6E7022B1E
:103A5000EAD1D4F8F83080EA0302032AE4D098428D
:103A6000E2D083EA6003D4F8002113F0010308BF19
:103A70004FF0FF33D31ACCE710B4D0E90034096813
:103A80006210E4075DF8044B01EB020044BF8A5862
:103A9000D35818470146043008B5FFF7EDFF08BDBD
:103AA000034A0346C26007C983E80700704700BFA6
:103AB00010D7060810B586B004460391684606A9DB
:103AC00080E80C0001E90C00204603A9FFF7E8FF9D
:103AD000204606B010BD37B56C46054684E80C009C
:103AE00094E80C00FFF7E6FF284603B030BD08B5A8
:103AF000FFF7D0FF08BD08B5FFF7F9FF08BD0000CC
:103B00002DE9F0470446061D8EB0154604F1540712
:103B100030469A469DF85C9007F0D4FB294638461B
:103B200007F0D0FB04F1A4085146404607F0CAFB59
:103B3000002384F800903046C4F80031C4F8043102
:103B4000169BC4F8F43007F0B5FB0546384607F07D
:103B5000B1FB002340EA45003A4D214601936B46F4
:103B60000095C4E93E000CCB0AA8FFF7B4FF0AA9F0
:103B7000304607F0EBFB0AA8FFF796FAB9F1000F01
:103B800032D00023029521460AA8039302AB0CCB46
:103B9000FFF7A1FF0AA9304607F0F5FB0AA8FFF7D7
:103BA00083FAB9F1020F1FD10023049521460AA818
:103BB000059304AB0CCBFFF78EFF0AA9384607F03C
:103BC000C5FB0AA8FFF770FA002306952146079364
:103BD00006AB0AA80CCBFFF77EFF0AA9384607F010
:103BE000D2FB0AA8FFF760FABAF1FF3F10D0164BDC
:103BF00021460AA808930023099308AB0CCBFFF7D2
:103C00006AFF0AA9404607F0A1FB0AA8FFF74CFA91
:103C100020460EB0BDE8F0870AA8FFF745FA4046F7
:103C200007F076FB384607F073FB304607F070FB71
:103C30001DF0ACF9F0E7EFE7EEE7EDE7EFE7F1E7CE
:103C4000F3E700BFE9390408DD39040870470000D4
:103C5000C0E90112054A012110B5C2600022044CDE
:103C6000027404604174827410BD00BF00093D00FD
:103C700066660640074B0121074A59741A600722FD
:103C80005A60064A9A60064ADA6000221A749A74E8
:103C9000704700BFF4230024666606400C2400240D
:103CA00000093D0038B505460C4600F04EFA2228C2
:103CB00006D1A4F10C030B2B0BD94FF0FF3038BD0C
:103CC000284600F042FA2328F7D1082CF5D8032C17
:103CD000F3D0A1B2284600F0F3F9F0E7C1F30722D0
:103CE0000023C9B200F012BA10B5044600F02DFA54
:103CF000222840F0BA8000222046114600F0F8F950
:103D000020460022012100F0F3F920460022022182
:103D100000F0EEF920460022032100F0E9F92046E8
:103D20000022072100F0E4F920460022062100F0DD
:103D3000DFF920460022052100F0DAF920460022B2
:103D4000042100F0D5F920460022082100F0D0F926
:103D500020460022092100F0CBF9204600220A214A
:103D600000F0C6F9204600220B2100F0C1F9002224
:103D70002046114600F0D9F920460022012100F02A
:103D8000D4F920460022022100F0CFF9204600227B
:103D9000032100F0CAF920460022072100F0C5F9EE
:103DA00020460022062100F0C0F92046002205210D
:103DB00000F0BBF920460022042100F0B6F92046AD
:103DC0000022082100F0B1F920460022092100F06C
:103DD000ACF9204600220A2100F0A7F92046002273
:103DE0000B2100F0A2F920460122172100F09DF9D5
:103DF00020460122162100F098F9204601221521C3
:103E000000F093F920460122142100F08EF920469B
:103E10000122132100F089F920460122122100F02D
:103E200084F920460122112100F07FF92046012269
:103E3000102100F07AF9204601220F2100F075F9D7
:103E4000204601220E2100F070F9204601220D21AA
:103E500000F06BF920460C21012200F066F92046A3
:103E60000021BDE81040FFF739BF2046012208219C
:103E700000F05BF920460122052100F056F92046AA
:103E80000122042100F051F920460122022100F014
:103E90004CF901222046114600F047F92046012244
:103EA000002100F042F920460122072100F03DF9EF
:103EB000204601220621BDE8104000F036B938B591
:103EC000054600F040F9284600F0E6F8044610B137
:103ED0002846FFF709FF204638BD0000014800F0E2
:103EE000D7B800BF082400242DE9F74F0D9C1746D2
:103EF000009382468B46BDF8308003F007F8274BCD
:103F000000268146002C08BF1C46402F3B46354604
:103F1000A8BF40230193B74230DD236851462046B5
:103F2000DB6A98472368594620461B6898472368F0
:103F300020465B6B9847BA1B23685146402A2046AF
:103F4000DB6BA8BF40229847236820461B6998472F
:103F500088B1B8F1000F08D1236820465B69984703
:103F6000009B58550135EDB2EEE702F0CFFFA0EB14
:103F700009004045F0D3019B1E44CCE7B8F1000F87
:103F800008D002F0C3FFA0EB0900404502D3BD42B8
:103F900038BFFF2568B203B0BDE8F08F5824002475
:103FA00013B5049CCDE9003413460122FFF79CFFB2
:103FB00002B010BD30B585B01C461546099B0DF109
:103FC0000F020093BDF82030FFF7EAFF01229DF8B1
:103FD0000F30AA401A40227005B030BDF8B5069CDB
:103FE0001D46114B16460F46013D002C08BF1C46CE
:103FF00001462E4423682046DB6A984723683946E9
:1040000020461B689847B542236805D01B682046A8
:1040100015F8011F9847F6E75B6B20469847B0FA02
:1040200080F04009F8BD00BF582400241FB504AC3F
:1040300004F8012D012200932346FFF7CFFF04B0BF
:1040400010BD00002DE9FF410A9C1F460F4B904612
:104050000DF10F0205461B880E460094FFF7A0FFE6
:1040600001229DF80F3002FA08F252B25FB11A43F2
:10407000D2B22346314628468DF80F20FFF7D6FFEF
:1040800004B0BDE8F08123EA0202F2E71600002442
:10409000222303707047000007B50021074A03463A
:1040A000007801911288013300920322FFF71CFF70
:1040B000C31E5842584103B05DF804FB16000024AB
:1040C000002301F0070213B5044600780193C1F301
:1040D000C701064B1B880093631CFFF76BFF6078DA
:1040E000003018BF012002B010BD00BF1600002430
:1040F00013B5CC080023007804340093134601F074
:104100000702E1B2FFF79EFF02B010BD13B5C37006
:104110000023047841708421827003220093431CA1
:104120002046FFF75BFF02B010BD13B5CC0800239B
:1041300000780C340093134601F00702E1B2FFF758
:1041400081FF02B010BD017070470078704710B554
:10415000C36886B001228DF80F100DF10F011868A9
:1041600003680092DC680DF11703A0479DF8170063
:1041700006B010BDF8B5427A044603680E46CFB2C9
:104180009B680D0A62B939469847236860F30706B1
:1041900029469B682046984760F30F26B0B2F8BDC9
:1041A00029469847236860F30F2639469B682046C6
:1041B000984760F30706F1E7C36813B5186803680A
:1041C0000092DC680B46A04702B010BD70477047F4
:1041D0007047C36810B5044653B1186840B103680E
:1041E0005B6898470421E0680CF0C4F90023E360A1
:1041F00010BD10B5044618210CF0BCF9204610BDC6
:10420000436873B599426D4604460E4685E806003C
:1042100005D18268019B534033F07F4311D0E3689E
:1042200008219DF80420186807F063FBE368314615
:10423000186807F07CFB0098A988AA796060218142
:10424000A27202B070BD73B5C568044625B90420DA
:104250000CF05CF9E0600560E3681B6883B94FF01F
:10426000FF3674200CF052F9B4F91430B4F9102070
:104270000546B4F91210009607F040FCE3681D6093
:1042800002B070BD742128460CF074F91CF07EFE5B
:1042900038B50A2002F020FE0546082002F01CFE78
:1042A0000446092002F018FE094B0A4A01219882AF
:1042B00018461A60002259725A601A729A72DA60AD
:1042C0001D825C82044A0549BDE838400BF0CCBE33
:1042D0000C24002424D7060800000024D14104083F
:1042E000002070470268322313B50093946A40F2AD
:1042F0001342A04702B010BD13B5046800931346E3
:10430000A46A40F21342A04702B010BD13B5322395
:1043100004680093A46AA04702B010BD0069036856
:104320001B691847006903689B691847006903689F
:104330005B69184700690368DB681847012070470C
:1043400070B504460D4616460499C5622286026A77
:10435000002A08BF1A46436A002B18BF194602629A
:1043600041628069002807DB0121C0B202F030FE03
:104370000021207E02F0B0FEE069002807DB012169
:10438000C0B202F025FE0121207F02F0A5FE00232D
:1043900020693246294684F828300368BDE8704019
:1043A0001B6A184710B50446006903685B6A9847A2
:1043B000A069002807DB0021C0B202F08DFE0021B9
:1043C000207E02F005FEE069002809DB0021C0B272
:1043D00002F082FE207F0021BDE8104002F0F8BD0F
:1043E00010BD034690F8280018B1186903681B68CF
:1043F000184701225A60704770B500254FF47A764D
:104400008361049B456280F82850C0E90156034E41
:10441000C0E904120660C0E9073570BD60D7060820
:104420000A4B00224FF47A7101205A6283F8282047
:10443000C3E9012106491960064919611521C3E93B
:1044400005011421C3E90712704700BF242400248A
:1044500060D706085C2D00240368C9B21B681847A2
:1044600049000023C161C0F82C3270470368012164
:104470001B6B184710B403689C6B0123A4465DF8BE
:10448000044B6047D0F82C32B3F5807F1FBF5A1C15
:10449000C0F82C22C01880F82C1114BF0120002075
:1044A00070477047C0F830127047C0F83412704738
:1044B000D0F828312BB1D0F82431184490F82000DE
:1044C00070474FF0FF30704738B5036804465B6AA9
:1044D0009847FC200CF01AF8B4F91A20B4F9181017
:1044E000054606F069FE656138BDFC2128460CF0E2
:1044F00041F81CF04BFD38B5D0F82C321446054677
:1045000000F596701A441844B2F5807F88BFC3F551
:10451000807422461FF0CEFDD5F82C32204623446D
:10452000C5F82C3238BD38B5044640690D4608B18F
:1045300006F05BFD206920B12946BDE8384006F051
:1045400093BE38BD07B581F0010100F59672009168
:10455000D0F82C32C169406906F05AFD002814BF1A
:104560000220002003B05DF804FB10B504460BF0F8
:104570009BF9D4F828410BF0ADF9204610BD10B5D9
:1045800004460BF091F9D4F82831BBB1D4F82831A6
:10459000A3B1D4F82431234493F82000D4F8243173
:1045A0000133DBB2C4F82431D4F82831013BC4F81C
:1045B000283104460BF08EF9204610BD4FF0FF3431
:1045C000F8E710B50446406920B10368DB689847F6
:1045D0000023636123699BB1D4F838020CF091FA8F
:1045E000D4F838020CF0F1FAD4F8380210B10368AC
:1045F0005B6898479C2120690BF0BCFF0023236176
:1046000010BD70B5B2F5807FC2B083F001030446DF
:1046100028BF4FF4807202AE00934900154613463E
:104620004069324606F013FDC8B9A84218D0D4F844
:104630002831B3F5807F10D0D4F82031325C234488
:1046400083F82020D4F820310133DBB2C4F82031C4
:10465000D4F828310133C4F828310130E5E70025CA
:10466000284642B070BD70B50446C0B00025206930
:1046700006F003FE0328FAD8DFE800F05F021E1EF2
:10468000D4F8343203B19847D4F82C32002BEED052
:104690000BF00AF994F82C6204F5967168463246DC
:1046A0001FF008FDC4F82C520BF014F9324669468D
:1046B000206906F0E6FDDAE7F0226946206906F097
:1046C000DEFD06460BF0F0F80022C4F82051C4F8D5
:1046D0002451C4F82851B2421DDAD4F82831B3F578
:1046E000807F18D0D4F82831B3F5807F11D0D4F86A
:1046F00020311DF80210234483F82010D4F8203113
:104700000133DBB2C4F82031D4F828310133C4F8C6
:1047100028310132DFE70BF0DDF8236820461B6902
:1047200098470028A3DDD4F83062002E9FD023687C
:1047300020461B699847B04799E702F017FC96E7B7
:104740000022C2607047000038B500254FF47A732C
:1047500004460183428329464FF48072C0E9015325
:104760000A4BC0E90455036020301FF0A1FDC4F8D6
:104770002051C4F82C522046C4F82451C4F83052B9
:10478000C4F82851C4F8345238BD00BFB4D7060865
:1047900010B504460021FFF7D3FF204610BD10B42A
:1047A000D0E9003409686210E4075DF8044B01EBBE
:1047B000020044BF8A58D35818470146043008B550
:1047C000FFF7EDFF08BD0000034A0346C26007C9BA
:1047D00083E80700704700BF94D7060810B586B07D
:1047E00004460391684606A980E80C0001E90C0024
:1047F000204603A9FFF7E8FF204606B010BD37B5F5
:104800006C46054684E80C0094E80C00FFF7E6FFD0
:10481000284603B030BD00002DE9F041036805468D
:1048200088B00E465B6A98479C200BF06FFEB5F986
:104830001A20B5F91810044606F0FCFC7100204659
:104840002C6106F013FDBC200BF060FE044606460A
:10485000234B04F1400746F8043B3046FFF798FF2E
:10486000002138460CF0C8F804F1540840460CF01A
:1048700061F81C4B4FF4006218212046009300237E
:104880000CF034F9184B294604A8C5F838420293B5
:104890000023039302AB0CCBFFF7B1FF04A9204622
:1048A0000CF0CEF910E040460CF084F838460CF0DD
:1048B000CCF83046FEF7F8FBBC2120460BF05AFE40
:1048C0001CF064FBF2E7F4E704A8FEF7EDFB08B088
:1048D000BDE8F0819C21F0E704A8FEF7E5FBEFE7D7
:1048E000DCF60608A0D706086746040808B5FFF7F7
:1048F00064FF08BD08B5FFF7F9FF08BD10B50B2030
:1049000002F0EAFA04460C2002F0E6FA21460246DA
:104910000748FFF719FF162217210648FFF714FF73
:104920007B227C210448BDE81040FFF70DBF00BF8B
:104930005824002494260024D02800240020704706
:104940000020704730B5A1F11004002500F00F02DF
:10495000CD7302390009D3B2092ACCBF37333033C3
:104960000B748C42F2D130BD2DE9FF470024061DA7
:1049700005468A4690469946009423464FF0FF32FA
:10498000B1213046CDE9014406F0D6FE296828461B
:10499000DDE90C23CDE9002342464F694B465146E1
:1049A000B847009423464FF0FF32C1213046CDE98D
:1049B000014406F0C1FE204604B0BDE8F0872DE9B1
:1049C000D04F9B460368924604469B6ADDE90889FE
:1049D000984702460B46504659461CF079FE134351
:1049E00002D00020BDE8D08F236820469B6A9847FC
:1049F00002460B46404649461CF06AFE1343F0D17E
:104A00001AEB0806236820464BEB09079B6B984777
:104A1000B94208BFB0422CBF01200020E2E7016884
:104A20002DE9F04114461D46096B064688470246AB
:104A30000B46204629461CF04BFE134302D00020B3
:104A4000BDE8F081DDE906233046A71845EB0308F1
:104A500017F1FF323368196B48F1FF33884702467C
:104A60000B46384641461CF033FE1343E7D133680A
:104A700030469B6B9847414508BFB8422CBF012088
:104A80000020DDE72DE9D04F9B460368924604469F
:104A90005B6ADDE90889984702460B46504659464D
:104AA0001CF016FE134302D00020BDE8D08F23680F
:104AB00020465B6A984702460B46404649461CF032
:104AC00007FE1343F0D11AEB0806236820464BEB90
:104AD00009079B6B9847B94208BFB0422CBF012021
:104AE0000020E2E7C2207047244830B5037887B041
:104AF000BFF35B8F13F001041CD10BF0C5FAC8B1F2
:104B00001F4B66223B211F48CDE903435A23CDE9C1
:104B100001323D233C22009357230DF05FFA194CDC
:104B2000194B164823600BF0D1FA184A2046184951
:104B30000BF09AFA13480DF08BFC164D1A22002345
:104B400029461048CDE9002300230022FFF70CFF7F
:104B50002B780446B52B04D10F4B01221D600F4B5F
:104B60001A7008480DF0D0FAB4FA84F0400907B082
:104B700030BD02480BF0B2FC1CF008FA302B0024C8
:104B8000005A6202382B00240CD8060800000024CA
:104B90004D4D0408402D002418000024342B00241F
:104BA00010B504460EF0F0F82146FFF7CBFE0EF0EC
:104BB000F1F804F11001FFF7C5FE0EF0F1F804F171
:104BC0002001FFF7BFFE302010BD000008B54DF6F4
:104BD00059720021074814F029FBBFF34F8F064993
:104BE000064BCA6802F4E0621343CB60BFF34F8FF9
:104BF00000BFFDE70C2B002400ED00E00400FA05E7
:104C000010B50446FBF7CBFC204610BD064B10B593
:104C100004460360806A08B10AF04AF8201DFFF7D5
:104C2000EFFF204610BD00BFACE4060800B5C3B0DE
:104C30001622172103A806F0BFFA4FF4A17302AAA7
:104C40001021ADF80830002303A80093022306F0DA
:104C5000DFF903A8FFF7DAFF43B05DF804FB03A810
:104C6000FFF7D4FF1CF092F91D4B01211D4AA6202D
:104C700070B51A6002F0F6F90121A62002F072FA6E
:104C8000FFF7D4FF184B43F2D2021A60FFF72CFF54
:104C9000164B1B7833B1164B1B689A8840F20943B8
:104CA0009A421BD8134B9B6D03F46043B3F5004F3E
:104CB00014D002F02BF9104D044602F039F90646E3
:104CC00002F036F9801BA842FAD902F01FF9001B46
:104CD000642803D0BDE8704019F07CB970BD00BFF6
:104CE0000C2B00240040005800400052342B0024BC
:104CF00018000024004402589F86010010B50446A5
:104D0000FFF784FFFC2120460BF034FC204610BD49
:104D100038B5074B0546044645F8BC3B0DF0F4F9A1
:104D200028460BF047FE201D06F046FD204638BD04
:104D30000C03070810B50446FFF7EAFF4FF40271B1
:104D400020460BF017FC204610BD0000034B10B5A9
:104D500004460360FFF7DCFF204610BD0CD80608B0
:104D600010B50446FFF7F2FF4FF4027120460BF036
:104D700001FC204610BD70B590F83431054614464C
:104D8000F3B90368DB69984704F4706304F00F0219
:104D9000B3F5407F04F0F0030CBF07210821302B4E
:104DA0000CBF02230123012A08D0901E4242424137
:104DB000A869BDE87040006806F0C8BF0222F7E7A6
:104DC00070BD10B590F8343104462BB9A36918684A
:104DD00007F000F80028F9D010BD38B590F834512C
:104DE0000446A5B983695BB1186848B10368DB68FC
:104DF0009847A36904211D60A0690BF0BBFBA56166
:104E00000023C4F82831C4F82C31C4F8303138BD3F
:104E100013B590F8343104466BBBA369186806F0EB
:104E2000ADFF40B30AF040FDA36901220DF1070177
:104E3000186803685B699847D4F83031B3F5807F10
:104E400016D0D4F83031B3F5807F11D0D4F82831A2
:104E50009DF80720234483F82820D4F82831013313
:104E6000DBB2C4F82831D4F830310133C4F8303122
:104E70000AF030FDD1E702B010BD000008B590F88F
:104E800034313BB1012002F05FF80648BDE808402C
:104E900001F051BA82691AB11368003318BF0123B7
:104EA000184608BDD037002470B504460D4601F001
:104EB00042FA30B12368294620461B6CBDE8704099
:104EC000184770BDA0F59860EEE7000013B590F8A4
:104ED000343104468DF807102BB1C9B20B48FFF7E7
:104EE000E3FF02B010BDA369186806F073FF002845
:104EF000F9D0A36901220DF10701186803681B6945
:104F00009847013018BF0120EBE700BFD0370024DD
:104F10002DE9F04107468846164601F00CFA80B1AB
:104F20000024A6420ED9351B08EB04013846B5F51E
:104F3000007F28BF4FF400752A462C4400F044FF40
:104F4000EFE704462046BDE8F081A0F59860DFE772
:104F500070B590F8343105460E4614462BB10F4813
:104F6000FFF7D6FF0446204670BDAB69186806F00F
:104F700031FF0028F9D0AB6901211868D0F88830DA
:104F800088301B6B9847AB69224631461868036826
:104F90001B699847013008BF0024E4E7D03700249C
:104FA00030B50446C3B001F0B1F90546D4F8D835A0
:104FB000C3F58073984203DDD4F8D855C5F58075E4
:104FC0002A4601AB02A9204600F0F5FF019902AB89
:104FD00000226D1A1D44D4F8D835B3F5807F19D05E
:104FE0008A4217D0D4F8D835B3F5807F10D0D4F8E2
:104FF000D035A85C234483F8D004D4F8D0350133ED
:10500000DBB2C4F8D035D4F8D8350133C4F8D8357C
:105010000132E0E743B030BD38B5044600F0BCFBD8
:105020002046FFF7BDFFD4F8D855204600F0BCFB62
:10503000284638BDA0F59860EEE7000010B590F85E
:10504000343104462BB10648FFF7E6FF04462046FC
:1050500010BD0AF029FCD4F830410AF03BFCF6E719
:10506000D037002438B5044600F096FB2046FFF701
:1050700097FFD4F8D8354BB1D4F8D435234493F8FE
:10508000D054204600F090FB284638BD4FF0FF3545
:10509000F7E7A0F59860E5E710B590F834310446DD
:1050A0002BB10B48FFF7DEFF0446204610BD0AF087
:1050B000FBFBD4F830313BB1D4F82C01044494F814
:1050C00028400AF007FCF0E74FF0FF34F9E700BF93
:1050D000D037002438B5044600F05EFB2046FFF7C9
:1050E0005FFFD4F8D835A3B1D4F8D435234493F86E
:1050F000D054D4F8D4350133DBB2C4F8D435D4F865
:10510000D835013BC4F8D835204600F04DFB284681
:1051100038BD4FF0FF35F7E7A0F59860DAE70000FB
:1051200010B590F8343104462BB11148FFF7D2FF87
:105130000446204610BD0AF0B7FBD4F830319BB1CD
:10514000D4F82C31234493F82800D4F82C310133BF
:10515000DBB2C4F82C31D4F83031013BC4F8303123
:1051600004460AF0B7FBE4E74FF0FF34F9E700BF6D
:10517000D037002408B54FF4807200211FF098F852
:105180000022C0F80021C0F80421C0F8082108BDA1
:1051900010B4D0E9003409686210E4075DF8044BEC
:1051A00001EB020044BF8A58D35818470146043027
:1051B00008B5FFF7EDFF08BD034A0346C26007C903
:1051C00083E80700704700BF5CD8060810B586B0BA
:1051D00004460391684606A980E80C0001E90C002A
:1051E000204603A9FFF7E8FF204606B010BD37B5FB
:1051F0006C46054684E80C0094E80C00FFF7E6FFD7
:10520000284603B030BD000070B590F8343186B048
:1052100004460E46002B3BD1856925B904200BF0CE
:1052200075F9A0610560A369186850BB8C200BF06C
:105230006DF93346B4F922200546B4F9201007F081
:1052400051F9A3691D60B4F92420531C06D0A0694C
:105250000321B4F92630006807F054F9A3691D68EA
:10526000B5B1114B0026214602A800936B4601966A
:105270000CCBFFF7BCFF324602A9284606F018FE09
:1052800003E0314606F04FFDDDE702A8FDF70CFF15
:1052900006B070BD8C2128460BF06CF91BF076FE31
:1052A00002A8FDF701FFF9E7114E040808B5FFF762
:1052B0007DFF08BD08B5FFF7F9FF08BD2DE9F843EC
:1052C00000242D4D4FF47A782C4F202605F128002C
:1052D0002F60EC61C5E90148C5E90564FFF74AFFA5
:1052E00001230E2085F8343101F0F6FD244D81466E
:1052F0000D2001F0F1FDA5F820904FF6FF796884AC
:1053000005F128002F60EC61A5F82490A5F82690FF
:10531000C5E90148C5E90564FFF72CFF85F834416C
:105320000F23184D2B84562305F128002F606B8422
:105330005823EC61AB845923C5E90148EB84C5E9E6
:105340000564FFF717FF85F8344198230E4D2B8431
:10535000992305F128002F60EC616B84A5F8249057
:10536000A5F82690C5E90148C5E90564FFF702FFE5
:1053700085F83441BDE8F8830431002470D806086C
:105380005C2D0024942E0024CC2F00240020704794
:105390007047704710B5D0F88C452CB12368204673
:1053A000DB6A9847A468F8E710BD38B50D46D0F819
:1053B0008C4534B1236820462946DB689847A468A9
:1053C000F7E738BD004870473CD90608054B10B5D3
:1053D0000446036008F00BFB204608F019FC204649
:1053E00010BD00BFBCD8060810B50446FFF7EEFF9D
:1053F0004FF4B26120460BF0BDF8204610BDF7B562
:10540000002305460E46D0F88C45A4B123683146EA
:105410000DF1030220461F6901ABB8479DF8031048
:105420000346042905D0019A284607F0EFFD03B092
:10543000F0BDA468E9E7019A9DF80310F4E770B5A0
:1054400005460E4622B10021BDE8704007F0EABBD8
:10545000D0F88C455CB123680022314620465B6958
:10546000984710B101212846EEE7A468F2E72146EB
:10547000F9E770B50E460546D0F88C4500213CB1E1
:105480002368314620469B699847A4680146F6E7A1
:105490002846BDE8704007F0B9BCF8B505460E4691
:1054A0001746D0F88C453CB1236820463A46314631
:1054B000DB699847A468F6E728460121BDE8F84073
:1054C00007F002BD70B5002186B0044607F0E9FE82
:1054D00000234FF48975A188EF26ADF806302389A3
:1054E000ADF8045002258DF810301B0AE2888DF8C3
:1054F000113040F201238DF80750ADF8123040F220
:1055000003138DF809500125ADF8143004F10A0396
:105510008DF8086005AE8DF80A501C468DF80C1009
:1055200001AD090A8DF80E20120A8DF80B008DF8D6
:105530000D108DF80F202A46083303CAB24243F8F3
:10554000080C43F8041C1546F5D1128820461A8031
:1055500006B070BDF8B5002406460D462746304615
:105560001FF0EEFBA04207D9335D05F8143005EBC0
:10557000440301345F70F2E7400000F0FE00F8BD24
:1055800038B50446D0F88C5535B12B6828465B6A8F
:10559000984710B9AD68F7E7284640F2023304F2A5
:1055A0004A51A4F84835FFF7D5FF94F84835184418
:1055B00084F8480504F5A96038BD000040F20233C4
:1055C00000F20A5110B50446A0F808350548FFF767
:1055D000C1FF94F80835184484F8080504F5A16063
:1055E00010BD00BFA8D8060840F2023310B504462B
:1055F000A0F8C83400F2CA40FFF7D2FA94F8C834D1
:10560000184484F8C80404F5996010BD2DE9FF41E1
:1056100000231D4A044600F54E788DF80A3009250E
:1056200090F888350192FA228DF8083001238DF820
:105630000C208DF80930C0238DF80B3001AB03CB63
:10564000C4F83803C8F8041088F80820D4F88C652A
:105650008EB13368002130469B689847478805F52E
:105660004E7300F10901093FE0183A463D441EF02F
:1056700021FDB668ECE784F83A5340462D1284F8D1
:105680003B5304B0BDE8F0810902FFFF73B5044647
:105690000D46164616F002FF4FF4807301462A4667
:1056A00020460093334608F06FFA024B20462360F1
:1056B00002B070BDBCD8060810B5D0F88C350446D1
:1056C000A3B9C0F88C1594F8883508464A790B714F
:1056D00094F88835134484F888350B689B6A98479A
:1056E000238918442081012010BD13469A68002A9E
:1056F000FBD19960E7E71FB5044607F0CDFD0146F1
:10570000684606F0C7FF4021684607F035F8D4F830
:105710008C4534B12368694620461B6A9847A468C3
:10572000F7E7684606F0BDFF04B010BD684606F016
:10573000B8FF1BF02BFC10B50446FFF7DCFF20463A
:10574000BDE8104007F08FBD0F4808B50378BFF3E0
:105750005B8FDB0711D40AF097FC70B140F25B223B
:1057600042F241310948FFF791FF07480AF0AEFCC9
:10577000074A084905480AF077FC044808BD024872
:105780000AF0ACFE1BF002FC3C3200244032002444
:1057900000000024CD53040810B5FFF7D5FF0368BF
:1057A000BDE810405B6F184710B5FFF7CDFF0368E9
:1057B000BDE810409B6F184710B5FFF7C5FF0368A1
:1057C000BDE81040DB6F184707F00CB907F020B9AF
:1057D00007F0F8B8704770477047436A93F878004D
:1057E0007047D0F8A4047047012070470048704704
:1057F000A8DA06082DE9F04794B004460F464B227C
:10580000002101A81EF054FD2679D4F8A434751C9B
:1058100094F80E90002B94F80C80EDB294F80DE003
:1058200014BF05200020002F40F0938040F2092390
:1058300009218DF81D0042F20540ADF804304FF407
:1058400081738DF815100121ADF808308023ADF873
:105850001E0010208DF80B3032234FF0040A24274D
:105860008DF80C3008234FF0030C4B228DF80D30CF
:105870000B238DF819101D348DF80E3040F20223E1
:105880008DF81C10ADF8103002238DF82100052092
:105890008DF822108DF825108DF8271006218DF82F
:1058A00006208DF80F608DF812308DF817608DF896
:1058B0001A308DF81B308DF823008DF826C08DF836
:1058C0002A308DF82B108DF82C008DF816A08DF84D
:1058D00024708DF828A08DF829708DF82D708DF822
:1058E0002E1007218DF82F6041F202068DF831103D
:1058F0008DF8411040F207518DF83050ADF8366008
:1059000040F209468DF83A5040F602258DF83200F3
:105910008DF842002046ADF848100DEB0A018DF8D5
:1059200033908DF834C0ADF83860ADF83C508DF848
:1059300043808DF844308DF846308DF84AE08DF87C
:105940004B308DF84D301EF0B5FB204614B0BDE84D
:10595000F0870020FAE700000A4B10B50446036008
:10596000FFF7F2FE08F043F804F5247006F09EFFFE
:1059700004F17C0006F09AFF04F1700006F096FF37
:10598000204610BD68DA060810B50446FFF7E4FFAC
:105990004FF4956120460AF0EDFD204610BDFFF75B
:1059A0000BBF0000034B10B50446036006F03AFE3F
:1059B000204610BD84D9060810B50446FFF7F2FF53
:1059C000282120460AF0D6FD204610BD034B10B515
:1059D0000446036006F026FE204610BD54D9060892
:1059E00010B50446FFF7F2FF342120460AF0C2FD4D
:1059F000204610BD034B10B50446036006F012FEAE
:105A0000204610BD6CD9060810B50446FFF7F2FF1A
:105A1000382120460AF0AEFD204610BD38B51E4B99
:105A20000D4604464FF400721968C0F80F109988AB
:105A30009B79A0F8131002214375284606F092FEC8
:105A40004FF4007220730221284606F090FE4FF4B6
:105A5000007260730321284606F084FEA073284676
:105A600006F020FE20B9AF220C490D4809F024FEB3
:105A700004F185020023C4F8882204F2992284F8F4
:105A8000783084F88430C4F88C3284F89832C4F8C2
:105A90009C24C4F8A03438BDA0D9060843DA06080F
:105AA0004EDA06082DE9F34104460E461546FFF787
:105AB00083FEF28823799A4237D1002D35D1777849
:105AC000012F2ED1F378202B27D13289072A24D118
:105AD00004F10F0804F11605404629461EF0B8FAF5
