:100000000C945A010C9482010C9482010C944405C6
:100010000C9444050C9444050C9482010C948201C8
:100020000C9482010C9482010C9482010C94820144
:100030000C9482010C9482010C9482010C94820134
:100040000C94A2040C9482010C9412050C94EC0400
:100050000C9482010C9482010C9482010C94820114
:100060000C9482010C9482015B4D41583438352048
:10007000554E4F5D205475726E6F7320554E4F2D47
:100080003E4E414E4F2079204E414E4F2D3E554E13
:100090004F3B206369636C6F3D312073005B4D41C2
:1000A0005834383520554E4F5D20554E204D4F4425
:1000B000554C4F2076343B2052582044323C2D5230
:1000C0004F3B2054582044332D3E4E616E6F2044E8
:1000D000323B206275733D393630303B206D6F6E98
:1000E00069746F723D3131353230300020696E6590
:1000F0007370657261646F733D0020696E76616C28
:1001000069646F733D002072785F62797465733D36
:10011000002074696D656F75745F7475726E6F5FC2
:100120006E616E6F3D002074696D656F75745F75EB
:100130006E6F3D002072785F6E616E6F3D002063D0
:100140006F6E6669726D61646F5F756E6F3D005BA7
:100150004D415834383520554E4F5D20656E7669D7
:1001600061646F733D0020756E6F5F6D733D005B62
:100170004D415834383520554E4F5D205458205548
:100180004E4F2D3E4E414E4F207365713D005B4DED
:10019000415834383520554E4F5D2054494D454F18
:1001A0005554204441544F53204E414E4F2D3E55FF
:1001B0004E4F207475726E6F3D005B4D4158343860
:1001C0003520554E4F5D2054494D454F55542041E3
:1001D000434B20554E4F2D3E4E414E4F207365717F
:1001E0003D002041434B20656E766961646F0020BD
:1001F0006E616E6F5F6D733D005B4D4158343835F5
:1002000020554E4F5D205258204E414E4F2D3E55A9
:100210004E4F204F4B207365713D00206964615F34
:100220007675656C74615F6D733D005B4D4158344C
:10023000383520554E4F5D20545820554E4F2D3E99
:100240004E414E4F20434F4E4649524D41444F2060
:100250007365713D00000000080002010000030406
:10026000070000000000000000000000002300263E
:1002700000290000000000240027002A00000000E0
:1002800000250028002B00040404040404040402D4
:100290000202020202030303030303010204081023
:1002A00020408001020408102001020408102000F0
:1002B0000806240B11241FBECFEFD8E0DEBFCDBF50
:1002C00011E0A0E0B1E0EAE3F7E102C005900D9291
:1002D000AC32B107D9F722E0ACE2B1E001C01D9227
:1002E000A039B207E1F711E0C9E5D1E004C02197D8
:1002F000FE010E94620BC835D107C9F70E94F106C2
:100300000C94900B0C940000FC01AC01425E5F4F1A
:100310008FEF9FEF2191922728E0BC01880F991F52
:1003200077FF04C031E2832730E193272150A9F7FA
:10033000E417F50779F7089580918B0290918C026C
:10034000892B59F1E091D201F091D30182E0E1379C
:10035000F80719F1309739F0A389B4899C91858900
:10036000809589238C9380918F028E7F80938F025A
:100370001092D1011092D00181E792E09093D301C5
:100380008093D201E0918402F09185028081909166
:100390008602892B808381E0089580E008953FB72D
:1003A000F8948091CC019091CD01A091CE01B091B3
:1003B000CF0126B5A89B05C02F3F19F00196A11DBE
:1003C000B11D3FBFBA2FA92F982F8827BC01CD019F
:1003D000620F711D811D911D42E0660F771F881FFE
:1003E000991F4A95D1F708952FB7F8946091C801E5
:1003F0007091C9018091CA019091CB012FBF0895DE
:10040000AF92BF92CF92DF92EF92FF920F931F9322
:10041000CF93DF936C017B018B01040F151FEB0160
:100420005E01AE18BF08C017D10759F06991D60117
:10043000ED91FC910190F081E02DC6010995892B89
:1004400079F7C501DF91CF911F910F91FF90EF9048
:10045000DF90CF90BF90AF900895FC01538D448DF5
:10046000252F30E0842F90E0821B930B541710F05F
:10047000CF96089501970895FC01918D828D98176C
:1004800061F0A28DAE0FBF2FB11D5D968C91928D44
:100490009F5F9F73928F90E008958FEF9FEF089575
:1004A000FC01918D828D981731F0828DE80FF11D3E
:1004B000858D90E008958FEF9FEF0895FC01918D59
:1004C000228D892F90E0805C9F4F821B91098F7352
:1004D0009927089584ED91E00E945E0221E0892B26
:1004E00009F420E0822F089580E090E0892B29F024
:1004F0000E946A0281110C9400000895FC01A48DF1
:10050000A80FB92FB11DA35ABF4F2C91848D90E035
:1005100001968F739927848FA689B7892C93A08918
:10052000B1898C91837080648C93938D848D9813A2
:1005300006C00288F389E02D80818F7D8083089535
:10054000EF92FF920F931F93CF93DF93EC0181E023
:10055000888F9B8D8C8D98131AC0E889F9898081CA
:1005600085FF15C09FB7F894EE89FF896083E889FD
:10057000F98980818370806480839FBF81E090E0EF
:10058000DF91CF911F910F91FF90EF900895F62E7C
:100590000B8D10E00F5F1F4F0F731127E02E8C8D16
:1005A0008E110CC00FB607FCFACFE889F98980815B
:1005B00085FFF5CFCE010E947E02F1CFEB8DEC0FCF
:1005C000FD2FF11DE35AFF4FF0829FB7F8940B8F78
:1005D000EA89FB8980818062CFCF0F931F93CF93ED
:1005E000DF938C01D0E0C0E0F801EC0FFD1F6491B7
:1005F000662341F084ED91E00E94A002892B11F066
:100600002196F2CFCE01DF91CF911F910F910895E6
:10061000CF93DF93EC01888D8823B9F0AA89BB8939
:10062000E889F9898C9185FD03C0808186FD0DC024
:100630000FB607FCF7CF8C9185FFF2CF808185FF45
:10064000EDCFCE010E947E02E9CFDF91CF910895D8
:100650002091D2013091D3012817390771F490917C
:10066000D0018091D101981741F0E091D001F0E0E4
:10067000E45DFE4F808190E008958FEF9FEF089535
:100680000895EF92FF920F931F93CF93DF93DC01B6
:100690005C96ED90FC905D97E114F10479F481E0B3
:1006A00090E013969C938E93129790E080E0DF91F8
:1006B000CF911F910F91FF90EF9008955196ED917A
:1006C000FC91529750968C915097982F90950FB718
:1006D0005E962C915E97122F127021FD6095F89412
:1006E0002081112319F1282B2083E7012197F1F7AD
:1006F00028E0462F50E0308160FF1AC0382B30834D
:10070000E7012197F1F7BA0175956795215089F7AF
:10071000112381F08081892380830FBF5C968D91A6
:100720009C910197F1F781E090E0C1CF2923DCCFC4
:100730003923E5CF9081892BEFCF2091D2013091E1
:10074000D3012817390761F48091D1012091D0019C
:1007500090E0805C9F4F821B91098F7399270895C9
:1007600090E080E008952091D2013091D3012817C4
:100770003907B9F49091D0018091D101981789F08F
:10078000E091D001F0E0E45DFE4F80812091D00146
:1007900030E02F5F3F4F2F7333272093D00190E03D
:1007A00008958FEF9FEF089590E080E008958F9275
:1007B0009F92AF92BF920F931F93CF93DF93CDB7CA
:1007C000DEB7A1970FB6F894DEBF0FBECDBF19A25A
:1007D000423008F44AE08E010F5D1F4F842E912CA9
:1007E000B12CA12CA50194010E94400BE62FB90168
:1007F000CA01EA3044F5E05DD801EE938D01232B68
:10080000242B252B79F790E080E0109769F0FD010B
:1008100001900020E9F73197AF014A1B5B0BBD0146
:1008200084ED91E00E940002A1960FB6F894DEBF1D
:100830000FBECDBFDF91CF911F910F91BF90AF90B1
:100840009F908F900895E95CD7CF4AE00C94D7032E
:1008500042E050E064E271E084ED91E00C9400022B
:10086000CF93DF930E94ED02EC010E9428048C0FCD
:100870009D1FDF91CF910895CF93DF934AE00E94AF
:10088000D703EC010E9428048C0F9D1FDF91CF91AC
:100890000895CF92DF92EF92FF920F931F93CF9321
:1008A000DF93CDB7DEB7A0970FB6F894DEBF0FBECB
:1008B000CDBF94E0E7E2F1E0DE01119601900D92E8
:1008C0009A95E1F794E09D838E834F8358876987DB
:1008D0007A870B871C872D873E87CF86D88AE98A3F
:1008E000FA8AFE01739692E1C00EC80E4C0D21E10A
:1008F000842F929F800D112481939F5F9E31C1F7B9
:10090000CE0101960E9484018F8F98A38BE39FE113
:100910000197F1F740E250E0BE016F5F7F4F81E742
:1009200092E00E940002A0960FB6F894DEBF0FBEC0
:10093000CDBFDF91CF911F910F91FF90EF90DF908E
:10094000CF9008951F920F920FB60F9211242F93FC
:100950003F938F939F93AF93BF938091C8019091E2
:10096000C901A091CA01B091CB013091C70123E028
:10097000230F2D3758F50196A11DB11D2093C701F6
:100980008093C8019093C901A093CA01B093CB0191
:100990008091CC019091CD01A091CE01B091CF0179
:1009A0000196A11DB11D8093CC019093CD01A09320
:1009B000CE01B093CF01BF91AF919F918F913F91A5
:1009C0002F910F900FBE0F901F90189526E8230FC0
:1009D0000296A11DB11DD2CF1F920F920FB60F929A
:1009E00011242F933F934F935F936F937F938F9334
:1009F0009F93AF93BF93EF93FF9384ED91E00E9499
:100A00007E02FF91EF91BF91AF919F918F917F9166
:100A10006F915F914F913F912F910F900FBE0F906B
:100A20001F9018951F920F920FB60F9211242F93BB
:100A30008F939F93EF93FF93E091E401F091E50191
:100A40008081E091EA01F091EB0182FD1BC0908171
:100A50008091ED018F5F8F732091EE01821741F03D
:100A6000E091ED01F0E0EC52FE4F958F8093ED01A7
:100A7000FF91EF919F918F912F910F900FBE0F904B
:100A80001F9018958081F4CF1F920F920FB60F928E
:100A900011242F933F934F935F936F937F938F9383
:100AA0009F93AF93BF93EF93FF93E091D201F091A7
:100AB000D301309749F0A685B7858585968D91FF3E
:100AC00014C09C918923A1F4FF91EF91BF91AF9144
:100AD0009F918F917F916F915F914F913F912F9156
:100AE0000F900FBE0F901F9018959C91892361F76E
:100AF000A389B4899C918589809589238C93868963
:100B000097890197F1F7608D718DA685B785558519
:100B100038E020E0CB010197F1F7822F90E0959526
:100B20008795282F4C91452309F02068315091F783
:100B3000868D81FD20958091D10190E001968F7383
:100B400099273091D001381799F0A091D101B0E0E8
:100B5000A45DBE4F2C938093D101828D938D01971C
:100B6000F1F7A389B4898C919589892B8C93ACCFAB
:100B7000868D8160868FF1CF90E0FC01EB5AFD4FAE
:100B80002491FC01E556FD4F3491FC01E957FD4FDE
:100B9000E491EE23C9F0222339F0233001F1A8F4C7
:100BA000213019F1223029F1F0E0EE0FFF1FE35858
:100BB000FD4FA591B4918FB7F894EC91611126C0C7
:100BC00030953E233C938FBF08952730A9F02830FD
:100BD000C9F0243049F7809180008F7D03C0809157
:100BE00080008F7780938000DFCF84B58F7784BDBE
:100BF000DBCF84B58F7DFBCF8091B0008F77809362
:100C0000B000D2CF8091B0008F7DF9CF3E2BDACFEC
:100C10000F931F93CF93DF931092D7011092D601B9
:100C200088EE93E0A0E0B0E08093D8019093D901E2
:100C3000A093DA01B093DB0124E031E03093D501D9
:100C40002093D40125EC30E03093E1012093E001C2
:100C500024EC30E03093E3012093E20120EC30E01B
:100C60003093E5012093E40121EC30E03093E7017B
:100C70002093E60122EC30E03093E9012093E80173
:100C800026EC30E03093EB012093EA011092ED0165
:100C90001092EE011092EF011092F0011092740286
:100CA000109273028093750290937602A09377025C
:100CB000B093780286E191E0909372028093710282
:100CC000109288021092870210928A021092890272
:100CD00010928C0210928B0210928E0210928D0252
:100CE00060918F026E7F6D7F60938F026695617059
:100CF00081E0682783E00E94BC054EE952E0FA01DA
:100D000064918AE892E0FC012491222399F030E07A
:100D1000220F331FF901ED58FD4FA591B491F90150
:100D2000E358FD4F259134912FB7F8943C91632BF4
:100D30006C932FBFFA01449140938102FC0184918E
:100D4000E82FF0E0EE0FFF1FE358FD4F85919491DF
:100D500090938302809382020DE912E0F8012491BE
:100D6000C9E8D2E0FE0184918823C9F090E0880FA1
:100D7000991FFC01ED58FD4FA591B491FC01E3587A
:100D8000FD4F459154913FB7F8949C91822F8095E7
:100D900098239C93FA019081892380833FBF80919F
:100DA0008F0281FD04C061E082E00E94BC0582E008
:100DB00080937D02F801049100937E02FE01C491AC
:100DC000EC2FF0E0EE0FFF1FE759FD4F8591949156
:100DD0009093800280937F02DF91CF911F910F91BA
:100DE0000895789484B5826084BD84B5816084BDA3
:100DF00085B5826085BD85B5816085BD80916E00B9
:100E0000816080936E0010928100809181008260E9
:100E10008093810080918100816080938100809126
:100E200080008160809380008091B1008460809315
:100E3000B1008091B00081608093B00080917A0011
:100E4000846080937A0080917A00826080937A0037
:100E500080917A00816080937A0080917A00806826
:100E600080937A001092C100E091E401F091E501D5
:100E700082E08083E091E001F091E1011082E09155
:100E8000E201F091E30180E180831092EC01E091B6
:100E9000E801F091E90186E08083E091E601F091BC
:100EA000E701808180618083E091E601F091E701B4
:100EB000808188608083E091E601F091E701808184
:100EC00080688083E091E601F091E70180818F7D69
:100ED000808310928C0210928B0210928A021092E0
:100EE000890210928802109287028DE991E0909316
:100EF0008E0280938D0290917D02963108F047C05A
:100F00002DEB30E030938802209387022BE931E00B
:100F100030938A02209389022CE231E030938C02D4
:100F200020938B022091680084E0983048F031E0F3
:100F30009E3008F430E081E001C0880F3A95EAF76E
:100F4000822B809368002DE630E0983050F02BE63D
:100F500030E09E3030F02CE630E0963110F030E09A
:100F600020E03093850220938402292F30E09830CE
:100F700008F0E9C081E001C0880F9A95EAF78093F4
:100F8000860280918D0290918E020197F1F70E9466
:100F90009C010E949C010E94F40160937401709373
:100FA000750180937601909377018DE990E00E941E
:100FB000300488E690E00E94300480E0282E80E033
:100FC000382E81E792E00E949D03892B09F4B7C176
:100FD00081E792E00E94B303C82F80919D01909118
:100FE0009E01A0919F01B091A0010196A11DB11D8C
:100FF00080939D0190939E01A0939F01B093A001C7
:101000008091C5019091C601809771F44FE150E045
:1010100066EA71E085EA91E00E94750B8FE190E04D
:101020009093C6018093C5018091C5019091C6013E
:101030009C012F5F3F4F3093C6012093C501875617
:101040009E4FFC01C4872032310509F0BACF44E03D
:1010500050E067E271E085EA91E00E94680B892B1D
:1010600009F0AFCF8091A901843009F079C0C09117
:10107000AA018FEF8C0F853008F072C00091C30178
:101080001091C40185EA91E00E94840108171907B4
:1010900009F066C08090AB019090AC01A090AD01CA
:1010A000B090AE014090AF015090B0016090B1019E
:1010B0007090B201C090B301D090B401E090B5013E
:1010C000F090B601842D880D8C0F8C0DE7EBF1E0CC
:1010D00092E3980F82502191291342C09F5E98138A
:1010E000FACF1092C6011092C5018091A101909192
:1010F000A201A091A301B091A4010196A11DB11D6F
:101100008093A1019093A201A093A301B093A401A5
:1011100080919801813009F0B9C0C230A9F1809165
:10112000840190918501A0918601B091870101967B
:10113000A11DB11D8093840190938501A093860128
:10114000B09387013ECF9E3040F42850310981E0B2
:1011500001C0880F2A95EAF712CF2E503109F7CF38
:101160008091990190919A01A0919B01B0919C016D
:101170000196A11DB11D8093990190939A01A093AE
:101180009B01B0939C011DCF80919401909195019A
:10119000A0919601B091970188159905AA05BB0504
:1011A00009F0BDCF8091900190919101A0919201A1
:1011B000B091930184159505A605B70509F0AFCF49
:1011C000C814D904EA04FB0409F0A9CF0E94F40171
:1011D00000918C0110918D0120918E0130918F0131
:1011E000601B710B820B930B643F7140810591056D
:1011F00008F095CF8091880190918901A0918A0192
:10120000B0918B010196A11DB11D8093880190932F
:101210008901A0938A01B0938B018BE292E00E9436
:10122000ED02C701B6010E9425048BE192E00E9405
:10123000ED020E94F40100918C0110918D0120912A
:101240008E0130918F01601B710B820B930B0E94FA
:101250003C044091940150919501609196017091E8
:1012600097016A017B0100E010E0980183E00E9491
:1012700049040E94F40160938C0170938D01809366
:101280008E0190938F01C09398019BCE823009F01C
:1012900046CFC43009F043CF8091940190919501DD
:1012A000A0919601B09197018C159D05AE05BF05E3
:1012B00009F035CF0E94F40100918C0110918D014D
:1012C00020918E0130918F01601B710B820B930B6B
:1012D000643F71408105910508F021CF8091800124
:1012E00090918101A0918201B09183010196A11D8D
:1012F000B11D8093800190938101A0938201B093EE
:10130000830193018201B501A40185E00E94490493
:101310001092980189EF91E00E94ED02C501B4019D
:101320000E9425048FEE91E00E94ED02C301B201FC
:101330000E94250482EE91E00E94300442CE0E9479
:10134000F4014B015C01809198018823D9F140910F
:101350008C0150918D0160918E0170918F019501EA
:101360008401041B150B260B370BB901A801443F60
:1013700051406105710530F1813009F04FC1809114
:101380007C0190917D01A0917E01B0917F01019639
:10139000A11DB11D80937C0190937D01A0937E01DE
:1013A000B0937F018AEB91E00E94ED02609194017D
:1013B0007091950180919601909197010E943C0453
:1013C000109298018091980181117FC080917401E1
:1013D00090917501A0917601B0917701A5019401DA
:1013E000281B390B4A0B5B0BDA01C901883E93407D
:1013F000A105B10508F469C00E94F4018B019C01AC
:1014000000939001109391012093920130939301E6
:1014100040919401509195016091960170919701CE
:101420004F5F5F4F6F4F7F4F4093940150939501F3
:1014300060939601709397016A017B0181E00E949D
:1014400049040E94F40160938C0170938D01809394
:101450008E0190938F016093740170937501809356
:1014600076019093770181E08093980180917001DB
:1014700090917101A0917201B09173010196A11D2B
:10148000B11D8093700190937101A0937201B0938C
:1014900073018FE691E00E94ED02609194017091DA
:1014A000950180919601909197010E94250486E60E
:1014B00091E00E94ED026091900170919101809104
:1014C0009201909193010E943C0480916C01909153
:1014D0006D01A0916E01B0916F0195018401081B0F
:1014E000190B2A0B3B0BD901C80180319742A1058A
:1014F000B10508F478C080926C0190926D01A092C1
:101500006E01B0926F018FE491E00E94ED02609154
:1015100070017091710180917201909173010E942C
:1015200025048EE391E00E94ED02609188017091A4
:10153000890180918A0190918B010E94250484E3A6
:1015400091E00E94ED026091800170918101809193
:101550008201909183010E94250486E291E00E941D
:10156000ED0260917C0170917D0180917E019091EE
:101570007F010E94250481E191E00E94ED026091CB
:1015800078017091790180917A0190917B010E949C
:10159000250486E091E00E94ED0260919D0170912A
:1015A0009E0180919F019091A0010E9425048AEFE5
:1015B00090E00E94ED026091990170919A018091F2
:1015C0009B0190919C010E9425048CEE90E00E946A
:1015D000ED02609184017091850180918601909166
:1015E00087010E943C040E94CF016B017C010E9494
:1015F000CF016C197D098E099F09683E73408105F2
:101600009105A8F32114310409F4DBCC0E946A028D
:10161000882309F4D6CC0E940000D3CC80917801B5
:1016200090917901A0917A01B0917B010196A11D61
:10163000B11D8093780190937901A0937A01B093C2
:101640007B018EE891E0B0CE86E191E0909372024A
:10165000809371028091D2019091D3018157924081
:1016600071F4E0918402F09185029081809186026C
:101670008095892380831092D3011092D20108951E
:10168000A1E21A2EAA1BBB1BFD010DC0AA1FBB1F86
:10169000EE1FFF1FA217B307E407F50720F0A21BF8
:1016A000B30BE40BF50B661F771F881F991F1A9465
:1016B00069F760957095809590959B01AC01BD018F
:1016C000CF010895EE0FFF1F0590F491E02D0994CE
:1016D000FB01DC0104C08D910190801921F441507F
:1016E0005040C8F7881B990B08956817790768F46C
:1016F000FB01DC01E40FF51FA40FB51F02C002902F
:101700000E9241505040D8F708950C94870BFB017E
:10171000DC0102C001900D9241505040D8F708956D
:1017200011E0C9E5D1E004C0FE010E94620B2196E0
:0A173000CA35D107C9F7F894FFCFBE
:10173A0000000000A00200022D0208035E023C0223
:10174A0050020000000041030002D40340039D033D
:0C175A00B30328030D0A004D343835009D
:00000001FF
