:020000040804EE
:100000000000082459B50508A5B5050899F10408AC
:100010009FF10408A5F10408ABF1040800000000FA
:1000200000000000000000000000000061700408F3
:10003000A5B5050800000000FB7004080B7104085A
:10004000A5B50508A5B50508A5B50508A5B5050814
:10005000A5B50508A5B50508A5B50508A5B5050804
:10006000A5B50508A5B50508A5B50508A5B50508F4
:10007000A5B50508A5B50508A5B50508A5B50508E4
:10008000A5B50508A5B50508A5B505085DC405080D
:100090006DC4050869C4050879C40508A5B5050837
:1000A000A5B50508A5B50508A5B50508A5B50508B4
:1000B000A5B50508A5B50508A5B50508A5B50508A4
:1000C000A5B50508A5B50508A5B50508A5B5050894
:1000D000A5B50508A5B50508A5B50508A5B5050884
:1000E000A5B50508A5B5050800000000A5B50508DB
:1000F000A5B50508A5B50508A5B50508A5B5050864
:10010000A5B50508E5B20508A5B50508A5B5050816
:10011000A5B50508A5B50508A5B50508A5B5050843
:10012000A5B50508A5B50508A5B50508A5B5050833
:10013000A5B505089B9F0408A5B50508A5B5050844
:10014000A5B50508A5B505080000000000000000E1
:10015000A5B50508A5B50508A5B50508A5B5050803
:10016000A5B50508A5B50508A5B50508A5B50508F3
:10017000A5B50508A5B50508A5B50508000000004A
:10018000A5B50508A5B50508A5B50508A5B50508D3
:10019000A5B50508A5B50508A5B50508A5B50508C3
:1001A000A5B50508A5B50508A5B50508A5B50508B3
:1001B000A5B50508A5B50508A5B50508A5B50508A3
:1001C000A5B50508A5B50508A5B50508A5B5050893
:1001D000A5B50508A5B50508A5B50508A5B5050883
:1001E000A5B50508A5B50508A5B50508A5B5050873
:1001F000A5B50508A5B50508A5B50508A5B5050863
:10020000A5B50508A5B50508A5B50508A5B5050852
:10021000A5B50508A5B50508A5B50508A5B5050842
:10022000A5B50508A5B50508A5B50508A5B5050832
:10023000A5B5050855B50508A5B50508A5B5050872
:10024000A5B50508A5B50508A5B50508A5B5050812
:10025000A5B50508A5B50508A5B50508A5B5050802
:10026000A5B50508A5B50508A5B50508A5B50508F2
:10027000A5B50508A5B50508A5B50508A5B50508E2
:10028000A5B50508A5B50508A5B505080000000039
:10029000A5B50508A5B5050810B5054C237833B9F3
:1002A000044B13B10448AFF300800123237010BD49
:1002B0006018002400000000D42C070808B5034B88
:1002C0001BB103490348AFF3008008BD00000000E4
:1002D00064180024D42C0708154B002B08BF134BBF
:1002E0009D46A3F5803A00218B460F461348144AD9
:1002F000121A23F02DFF0F4B002B00D098470E4B06
:10030000002B00D098470020002104000D000D486C
:10031000002802D00C480FF0F9FD23F0FFF920006F
:10032000290009F0B1F810F005F800BF000008003E
:100330000000082400000000E59304086018002471
:10034000B81501240DFF04080000000070470000EC
:10035000094B30B51A46094CD3F89450A542FBD14D
:10036000036829B181680B604FF44073536130BD5D
:10037000C1681B04F7E700BF006402580003008057
:1003800038B5674D674B297849B2002900F0BA802B
:100390001A886549013292B21A801A8809889142F6
:1003A0002FD8624C002262481A80237883F0010320
:1003B00023702178FFF7CCFF237813B35D4B2A78A5
:1003C00019685D4841FA82F21A600178C9B12A7849
:1003D00052B2002A04DD594A19681268914207DABC
:1003E0002A7814060DD5554A19681268914208DC1E
:1003F000524A002112681A60297001704C48FFF7B8
:10040000A7FF4F4D4F4B297849B200297ED01A885B
:100410004D49013292B21A801A88098891422FD828
:100420004A4C00224A481A80237883F00103237043
:100430002178FFF78DFF237813B3464B2A7819688C
:10044000454841FA82F21A600178C9B12A7852B25D
:10045000002A04DD414A19681268914207DA2A78B5
:1004600011060DD53D4A19681268914208DC3B4AD5
:10047000002112681A60297001703548FFF768FF83
:10048000374C384B217849B2002943D01A88364975
:10049000013292B21A801A88098891423ED8334DAF
:1004A000002233481A802B7883F001032B702978BF
:1004B000FFF74EFF2B78002B30D02E4B2278196897
:1004C0002D4841FA82F21A60017839B3227852B28B
:1004D000002A04DD294A19681268914207DA227855
:1004E00012061BD5254A19681268914216DC234A68
:1004F000002112681A60217001701D48BDE8384063
:10050000FFF726BF1980094B197077E719800F4B49
:100510001970B2E71980154B1970EEE738BD00BFAE
:10052000181900248C1800240400002486190024C3
:10053000AC1E002478190024301900242C19002442
:10054000191900248E18002406000024871900249D
:10055000741E00247C1900243C190024381900243E
:100560001A19002490180024080000248819002477
:100570003C1E00248019002448190024441900243A
:100580000B6803604B6843608B68836070470C3076
:10059000704708B5FFF7FBFF0023036008BDC36881
:1005A0000BB19B68184770470144002310B588427F
:1005B0000FD010F8014B08225C406300013A24067A
:1005C000DBB248BF83F0070312F0FF021C46F4D1F0
:1005D000EDE7184610BD000072B6024B186862B60F
:1005E000704700BF7819002472B6024B186862B6D3
:1005F000704700BF7C19002472B6024B186862B6BF
:10060000704700BF8019002472B6024B186062B6B2
:10061000704700BF7819002472B6024B186062B6AA
:10062000704700BF7C19002472B6024B186062B696
:10063000704700BF8019002472B6024B1878C0B210
:1006400062B670473019002472B6024B1878C0B2F7
:1006500062B670473C19002472B6024B1878C0B2DB
:1006600062B670474819002472B60D4B1B78A3B9C7
:100670000C4B1B788BB90C4B1B7873B90B4B1B784D
:1006800003F0FF003BB90A4B1B7803F0FF0013B9DE
:10069000084B1878C0B262B670470120FBE700BF74
:1006A00018190024191900241A19002430190024DB
:1006B0003C1900244819002410B51C4C0521204683
:1006C00003F042FAB0FA80F0194B08214009187083
:1006D000204603F039FAB0FA80F0164B04214009A5
:1006E0001870204603F030FAB0FA80F0124B022165
:1006F00040091870204603F027FAB0FA80F00F4B3B
:10070000012140091870204603F01EFAB0FA80F06B
:100710000B4B002140091870204603F015FAB0FA7F
:1007200080F0084B4009187010BD00BFC81D0024A0
:10073000C0180024C1180024C3180024C2180024C3
:10074000C5180024C41800240B4B1B7813B10B4BA5
:100750001B786BB90A4B1B7813B10A4B1B783BB95A
:10076000094B1B7833B1094B187880F001007047B2
:100770000020704701207047C0180024C1180024D1
:10078000C2180024C3180024C5180024C41800246B
:10079000084B187868B9084B187850B9074B187887
:1007A00038B9074B187820B9064B187808B9064BAA
:1007B00018787047C0180024C1180024C2180024FB
:1007C000C3180024C5180024C418002472B60021E0
:1007D000054B1970054B1970054B1980054B1970A5
:1007E00062B60548FFF7B4BD18190024301900247B
:1007F0008C18002486190024AC1E002472B6002137
:10080000054B1970054B1970054B1980054B197074
:1008100062B60548FFF79CBD191900243C19002455
:100820008E18002487190024741E002472B600213B
:10083000054B1970054B1970054B1980054B197044
:1008400062B60548FFF784BD1A1900244819002430
:1008500090180024881900243C1E002408B5FFF7D6
:10086000B5FFFFF7CBFFBDE80840FFF7DFBF000093
:100870002DE9F0418846054618B9BDE8F041FFF77B
:10088000A5BF72B6144C154E2278154F52B2824253
:1008900007D133782BB93B88994202D162B6BDE8C3
:1008A000F08162B6FFF792FF962006F09FFA002DC6
:1008B0000C48D4BF00210121FFF74AFD0A2006F0B1
:1008C00095FA72B60023084AA7F800801380074AF9
:1008D000137033702570E1E71819002430190024D3
:1008E00004000024C81E00248C180024861900244B
:1008F0002DE9F0418846054618B9BDE8F041FFF7FB
:100900007DBF72B6144C154E2278154F52B28242FA
:1009100007D133782BB93B88994202D162B6BDE842
:10092000F08162B6FFF76AFF962006F05FFA002DAD
:100930000C48D4BF00210121FFF70AFD0A2006F070
:1009400055FA72B60023084AA7F800801380074AB8
:10095000137033702570E1E7191900243C19002445
:1009600006000024901E00248E18002487190024FD
:100970002DE9F0418846054618B9BDE8F041FFF77A
:1009800055BF72B6144C154E2278154F52B28242A2
:1009900007D133782BB93B88994202D162B6BDE8C2
:1009A000F08162B6FFF742FF962006F01FFA002D95
:1009B0000C48D4BF00210121FFF7CAFC0A2006F031
:1009C00015FA72B60023084AA7F800801380074A78
:1009D000137033702570E1E71A19002448190024B8
:1009E00008000024581E00249018002488190024B0
:1009F00070B505460E46FFF7EFFDA84203D1BDE8EE
:100A00007040FFF7E3BEACBF4FF0FF340124FFF7A7
:100A1000DDFE962006F0EAF9631E0C485942594162
:100A2000FFF796FC0A2006F0E1F972B6084B0122A6
:100A30001D60084B1A70084B084A1E800023138063
:100A4000074A1370074B1C7062B670BDC81E0024A5
:100A50002C19002430190024040000248C180024D0
:100A6000861900241819002470B505460E46FFF7B4
:100A7000BBFDA84203D1BDE87040FFF7BFBEACBFCD
:100A80004FF0FF340124FFF7B9FE962006F0AEF9CF
:100A9000631E0C4859425941FFF75AFC0A2006F0E0
:100AA000A5F972B6084B01221D60084B1A70084B5D
:100AB000084A1E8000231380074A1370074B1C70DE
:100AC00062B670BD901E0024381900243C19002421
:100AD000060000248E180024871900241919002408
:100AE00070B505460E46FFF787FDA84203D1BDE865
:100AF0007040FFF79BBEACBF4FF0FF340124FFF7FF
:100B000095FE962006F072F9631E0C485942594131
:100B1000FFF71EFC0A2006F069F972B6084B0122A5
:100B20001D60084B1A70084B084A1E800023138072
:100B3000074A1370074B1C7062B670BD581E002424
:100B400044190024481900240800002490180024A7
:100B5000881900241A19002410B51C4C227852B2AE
:100B6000002A04DD1A4B1B780BB1FFF72FFE237808
:100B7000190604D5174B1B780BB1FFF727FE164C4F
:100B8000227852B2002A04DD144B1B780BB1FFF718
:100B900035FE23781A0604D5114B1B780BB1FFF7ED
:100BA0002DFE104C227852B2002A04DD0E4B1B7829
:100BB0000BB1FFF73BFE23781B0606D50B4B1B78CA
:100BC0001BB1BDE81040FFF731BE10BD181900245D
:100BD000C0180024C118002419190024C2180024C8
:100BE000C31800241A190024C5180024C4180024AE
:100BF0000A4BD3ED007AF5EEC07AF1EE10FA0ADD79
:100C0000074BD3ED007AF5EEC07AF1EE10FACCBFC7
:100C10000120002070470020704700BF7019002499
:100C2000741900240C4AD2ED007AF5EEC07A08B5AA
:100C3000F1EE10FA0CDDFFF7CFFC07EE900A92ED13
:100C4000007AF8EEE76AC6EE877A17EE900A08BDDA
:100C5000DFED027AF9E700BF701900240000000000
:100C60000C4AD2ED007AF5EEC07A08B5F1EE10FA32
:100C70000CDDFFF7B9FC07EE900A92ED007AF8EE72
:100C8000E76AC6EE877A17EE900A08BDDFED027AB2
:100C9000F9E700BF74190024000000000A4BD3EDEF
:100CA000006AF5EEC06AF1EE10FAC9BF074B9FED7E
:100CB000087AD3ED007AF8EEE77AC8BF87EEA67A15
:100CC00017EE100A704700BF701900248C19002419
:100CD000000000000A4BD3ED006AF5EEC06AF1EEA9
:100CE00010FAC9BF074B9FED087AD3ED007AF8EEF2
:100CF000E77AC8BF87EEA67A17EE100A704700BFE2
:100D0000741900249019002400000000034B186897
:100D1000022390FBF3F3C01A704700BF8C19002424
:100D2000034B1868022390FBF3F3C01A704700BF0F
:100D300090190024254B37B51A68254D002A254CFB
:100D400003DD254B1B68002B09DC002323492448C5
:100D50002B60236005F050FD002003B030BD07EE8E
:100D6000902ADFED206A2049F8EEE77A1C4887EEEA
:100D7000A67A07EE903ADFED1D6AF8EEE77A85ED88
:100D8000007A87EEA67A84ED007A05F022FDD5ED93
:100D9000007A06251248B7EEE77A009553EC172B38
:100DA00005F046FE12490E4805F013FDD4ED007A19
:100DB0000095B7EEE77A0A4853EC172B05F038FE9A
:100DC0000C49074805F018FD0120C6E78C190024DE
:100DD0007019002474190024901900245ACD0608B3
:100DE000043100240000F8438DCD06080080A8439C
:100DF0009DCD0608ABCD06082DE9F0432DED028B05
:100E000008EE900ADFED497A83B008EE101AF0EE92
:100E1000E86A07EE102A1F460C9DF4EE676AF1EEB1
:100E200010FA0DD8F0EEC86AF4EE676AF1EE10FA27
:100E300006D8B0EEC77AB4EE677AF1EE10FA04D9AC
:100E40003B493C4805F0D8FC66E03B4B1B78002B47
:100E500069D0FFF7CDFE0446002864D0374EDFF896
:100E6000F480D6ED007A68EEA77A17EE900A21F0AA
:100E700085FCD8ED007A386068EE277A17EE900A84
:100E800021F07CFCD6ED007A286077EEA77A17EE89
:100E9000900A21F073FCD8ED007A06464FF0020864
:100EA00077EEA77A17EE900A21F068FC244B0146F2
:100EB0001A6892FBF8F2B21AFFF728FF8146FFF793
:100EC0002FFF3B689A420EDCA9EB06069E420ADB26
:100ED0001C4B2A681B6893FBF8F3CB1A934202DC85
:100EE000401A904219DA18490224124805F071FCA0
:100EF000B7EEE87A00940F4853EC172B05F098FDF5
:100F000012490C4805F065FCB7EEC87A0094094810
:100F100053EC172B05F08EFD0024204603B0BDECEA
:100F2000028BBDE8F0830A498BE700BFFFFF7F7F9C
:100F300020CE0608043100248318002470190024F0
:100F40008C1900249019002447CE0608D3C6060841
:100F500071CE06087419002406EE900A9FED187AE7
:100F600006EE101AF0EEE67AF4EE477AF1EE10FA99
:100F700001D900207047F0EEC67AF4EE477AF1EE20
:100F800010FAF6D8DFED0F7A77EEE66A77EEC67ADA
:100F9000C2ED006AC3ED007AD2ED006AF0EEE66AB7
:100FA000F4EE476AF1EE10FAE3D8F0EEE77AF4EEE9
:100FB000477AF1EE10FA94BF01200020704700BF7D
:100FC000FFFF7F7F0000000008B50F4B1B780BB9B7
:100FD000002008BD0D4B1B78002BF9D0FFF7FCFA61
:100FE0000028F5D1FFF700FB0028F1D1FFF704FB43
:100FF0000028EDD1FFF738FB0028E9D1044B187821
:1010000080F00100E5E700BF831800248418002465
:101010001B1900242DE9F0412DED048B84B01F46EF
:10102000002509EE100A03AB08EE901A08EE102A0C
:10103000009302ABCDE90255FFF7DEFE064600281D
:1010400063D0FFF70BFC364A029982ED009A354ACD
:10105000354BC2ED008A354A98461D7082ED008AF4
:10106000334A344B1160344A0399344C116034498B
:101070003448022F18BF1946257005F0AAFBB7EEB9
:10108000C97A02252F4853EC172B009505F0D0FCA8
:101090002D492C4805F09DFBB7EEE87A00952948CC
:1010A00053EC172B05F0C4FC2849264805F091FBAA
:1010B000B7EEC87A0095234853EC172B05F0B8FC1F
:1010C0002349204805F098FB01210298FFF790FC86
:1010D00001210398FFF7C8FCFFF7AEFA10B9FFF73C
:1010E000B3FAC0B101233846237088F8000005F038
:1010F0005DFE184B186023787BB91749174B1148D0
:10110000022F18BF194605F077FB304604B0BDEC3E
:10111000048BBDE8F0812070E7E71E46F5E700BFCD
:101120003419002440190024841900244C19002487
:101130002419002472C60608281900241B1900244B
:101140005FC6060804310024CFC60608D7C60608C5
:10115000DFC60608B018002484C60608AAC606081A
:10116000F8B5104C05460F462678FFF777FB0023AD
:101170000D4A237013700FB10C4A1370022E07D161
:101180000B4B1B8823B10B4A138003220A4B1A70A6
:101190000A490B4805F01DFB29460948BDE8F840FF
:1011A00005F03EBB841900241B1900248318002479
:1011B0009A1900247C180024881800245CCF0608A3
:1011C00004310024044B1B781B2B9ABF034A52F8AE
:1011D00023000348704700BFA418002450C5060828
:1011E0007CC90608094B10B5094C187005F0DEFDE6
:1011F000084B09491860204605F0EBFAFFF7E2FFBB
:1012000001462046BDE8104005F00ABBA4180024A2
:1012100004310024AC180024C9C906081A4B1B78F5
:101220001B2B10B523D1194B19491C68204623F0FC
:101230005BFBF0B11749204623F056FBD8B11649A5
:10124000204623F051FBC0B11449204623F04CFB4B
:10125000A8B11349204623F047FB90B1114920461D
:1012600023F042FB00280CBF0620FF2010BD002009
:10127000FCE70120FAE70220F8E70320F6E7042064
:10128000F4E70520F2E700BFA41800240C000024B6
:10129000D0C90608E7C90608F8C9060809CA060839
:1012A0001ACA060838CA060808B5FFF7D7FA002395
:1012B000104A11491370114A11481370114A1370E2
:1012C000114A137000220A6010490A60104A11493D
:1012D0001360114A1360114A1360114A1370114BC5
:1012E000114A1A6005F088FA0120BDE80840FFF7AE
:1012F00079BF00BF1B190024701900248419002431
:101300000431002483180024841800247419002454
:101310008C19002407CC0608901900249419002485
:10132000A61800240C000024B4ED0608034B1B781B
:101330000C2B9ABF024AD05C0A2070479F180024E9
:10134000C0C50608034B1B780C2B9ABF024AD05C21
:10135000082070479D180024CDC5060808B50D4B20
:101360001B780BB9002008BD0B4B1B78002BF9D064
:1013700005F01CFD094B1B68C01A9628F2D805F031
:1013800015FD074B1B68C01A96288CBF0020012052
:10139000E9E700BFA21800249E190024B819002410
:1013A000B4190024024B987900F00100704700BF87
:1013B00051190024024B1878C0F3C000704700BFD9
:1013C000A5180024024B1878C0F30010704700BF26
:1013D000A5180024024B1878C0F34010704700BFD6
:1013E000A5180024024B1878C0F38010704700BF86
:1013F000A518002408B5FFF7DDFF98B1FFF7E2FF5D
:1014000080B1FFF7E7FF68B1084B1B78072B0AD1C3
:10141000074B93F90030002B05DB064B1878B0FA28
:1014200080F0400908BD0020FCE700BF9E180024A2
:10143000A51800249C18002410B5C3790133DBB231
:10144000022B20D8037A0133DBB2022B1BD8437A5C
:101450000133DBB2022B8CBF00230123C27A847AD2
:10146000B42A12D8027BB42A8CBF00220122417B0D
:101470006BB114F0FC0F0AD11AB108298CBF0022FD
:101480000122104610BD0023E8E70022EFE700220A
:10149000F7E70000624AF8B5137804468188614D89
:1014A00088B2614E614F002B40F08C802980012171
:1014B0005F4811705F4A60491380604A337013704F
:1014C0005F4A138005F085F90A222988584805F0FB
:1014D000F2F93278E37812B13A789A4206D03B704A
:1014E0000123337005F062FC564B18602346564AC0
:1014F00004F11C0153F8040B8B4242F8040BF9D1A0
:10150000E279524BA1791A70227A514B51481A70E4
:10151000627A514B514D1A70C1F34002504B1A7010
:10152000E27A504B1A70227B4F4B1A70A37A03F069
:10153000010203F00206C3F3400302704B4803703C
:1015400022B1287810B94A4801270770494826B1C6
:10155000067816B9484E012737702A700370627BEF
:10156000464B1A70A27B464B1A70464B227C197070
:10157000454B1A70627C5A70A27C9A70E27CDA70D9
:10158000227D424B1A70A27D637D43EA0223404ACA
:101590001380227EE37D43EA02233E4A1380A27E2B
:1015A000637E43EA02233C4A138001233B4A1370C3
:1015B0003B4A137005F0FAFB3A4B002218603A4B95
:1015C0001A70F8BD2B88834283D03849184805F03B
:1015D00000F90A222988164805F06BF934491448A5
:1015E00005F0F7F80A22A188114805F064F962793C
:1015F0002379012143EA02232E4A2B800023117014
:101600000C4A337013800D4A13700D4A13802A4B15
:101610001B781BB12948FFF7A3FD5AE7E3785EE783
:10162000A2190024A01900249E190024B019002436
:10163000043100247C180024A0CB0608881800245C
:101640009A190024B419002451190024B418002454
:10165000B518002480180024B6180024811800242E
:101660008218002415000024140000247E18002491
:10167000A11800247F180024A01800249E1800241C
:101680009C180024A51800241C1900248718002485
:1016900020190024221900249C190024A2180024D7
:1016A00085190024B8190024A3180024BCCB06080F
:1016B00013C70608851800241B190024DACB060876
:1016C00038B51F4B1C781F4B1B780BB144F002043C
:1016D000FFF77AFC08B144F004041B4D2B78092B6A
:1016E00008BF44F00804FEF7BFFF38B9174B1B785A
:1016F00023B9174B1B78013B182B01D844F0100479
:101700002B78144A0C2B127808BF44F020041AB12D
:101710000C2B18BF44F04004FFF720FE68B12B7873
:101720000C2B0AD0A3F10802022A04D9042B02D000
:10173000064B1B780BB144F08004204638BD00BF37
:1017400083180024841800249F1800241B190024E7
:10175000A41800248618002408B5114B1A78114BE0
:101760001B780BB142F002020F4B1B780BB142F019
:1017700004020E4B1B780BB142F008020C4B1B7895
:101780000BB142F010020B4B1B780BB142F0200260
:10179000FEF7DAFF08B142F04002104608BD00BF74
:1017A000C0180024C1180024C2180024C318002443
:1017B000C5180024C4180024424B1B7803F0F7021C
:1017C000032A10B504462DED028B0FD13E4B1B783A
:1017D000C0F80F303D4B1B78C0F813303C4B1A88D3
:1017E0005B88C0F81720C4F81B3047E0042B01D0F9
:1017F0000A2B0ED1FEF7F0FEC4F80F00FEF7F4FE40
:10180000344BC4F813001B68C4F81730324B1B6804
:10181000E9E7092B02D0314A127892B3B2EE048A7A
:10182000FFF700FA07EE900A67EE887A17EE900A43
:1018300020F0A4FFC4F80F00FFF712FA07EE900A99
:1018400067EE887A17EE900A20F098FF244BC4F8D0
:101850001300D3ED007A67EE887A17EE900A20F035
:101860008DFF204BC4F81700D3ED007A67EE887A1D
:1018700017EE900A20F082FFC4F81B00BDEC028B2B
:1018800010BD0C2B0ED1184B1B78C0F80F30174B26
:101890001B78C0F813300D4B1B78C0F81730FFF7DA
:1018A000BDFCE9E7FEF798FEC4F80F00FEF79CFECA
:1018B000C4F81300FEF7A0FE0D4BC4F817001B88F8
:1018C00091E700BF9F1800249E1800249C18002454
:1018D0001C1900248C190024901900241B190024C1
:1018E00034190024401900249D180024C019002434
:1018F000A019002410B520220021044622F028FC63
:10190000FFF714FD294BE0701B782371284B1B78DF
:101910006371FFF7D5FEA071FFF71EFFE07172B68D
:10192000244B254A1B7825495BB212780878002B96
:1019300052B240B22DDC2ED1002A59B22DDC2ED16C
:101940001346002841EA83022BDC2CD1034642EAED
:101950000313237262B6FFF7F5FC194B6072204641
:101960001B78A372174B1B78E372174B1B88A3815C
:10197000164B1B78A373FFF71FFFA7231F212046D9
:101980002370022363702023A370FEF70DFEE0771F
:1019900010BD0123D0E70223CEE70123D1E70223C4
:1019A000CFE70123D3E70223D1E700BF501900247A
:1019B000A418002418190024191900241A19002445
:1019C00089180024981900247C1800248818002401
:1019D00038B5104C0022104D2378287001330F4980
:1019E0000F4813F0FF0308BF012323700D4B1A703B
:1019F00004F0EFFE0A222978094804F07DFF0A4925
:101A0000074804F0E6FE21780A220548BDE8384080
:101A100004F074BF9819002489180024ECCB060840
:101A200004310024A7180024FBCB06081C4B1A78AD
:101A3000824210B5044632D0187005F0B7F9194B40
:101A400019491860194B1A481A781A4B1A7004F081
:101A5000C0FEFFF76BFC0A220146154804F04EFF5A
:101A60000C2C1CD8DFE804F0141414070E14141402
:101A700014140E071400FEF7F1FE0220BDE810401A
:101A8000FFF7A6BFFEF7EAFEBDE81040FFF70CBC6B
:101A9000FEF7E4FE0023084A1370084A137010BDD5
:101AA0009F180024A8180024FEC60608B5180024B4
:101AB00004310024921800241B19002484190024E6
:101AC00038B505460C46FEF7C9FE214B1A78022AA6
:101AD0001A4607D11F4B1B8823B11F490B800321D6
:101AE0001E4B197000231E4913701E4A0B7012788A
:101AF000042A01D00A2A0BD11B4A13701B4A137007
:101B00001B4B1A781B2A1FBF1A4A14601B221A701B
:101B1000194B0C20194A1D70194B1C6000231370BF
:101B2000184A1370FFF782FF1749184804F051FE56
:101B300029460A22154804F0DFFE1549134804F02F
:101B400048FE21461148BDE8384004F069BE00BF98
:101B5000841900249A1900247C1800248818002471
:101B60001B1900249F1800248318002484180024C3
:101B7000A41800240C0000249D180024A11800249F
:101B800010000024A01800244FC6060804310024C9
:101B900023EA060870B52B4D2B78002B51D02A4E26
:101BA00033785BB2002B03DD284B1B78002B41D12F
:101BB00033781A0603D5264B1B78002B3AD1254CD7
:101BC00023785BB2002B03DD234B1B78002B31D134
:101BD00023781B0602D5214B1B785BBB05F0E6F88A
:101BE0001F4B1B68C01A1F4B984209D901211E4880
:101BF000FFF7B6FA1D490720BDE87040FFF760BF48
:101C0000FEF71AFDE8B9FEF71FFDD0B93378C3B966
:101C100023785BB2ABB9164A2B7011781370154A52
:101C2000154B164802290CBF11461946BDE87040F5
:101C300004F0E2BD01211248FFF792FA1149082091
:101C4000DAE770BD1B19002418190024C0180024FD
:101C5000C118002419190024C2180024C318002434
:101C6000B018002420BF0200ABCF0608B3CF06088F
:101C70008419002478CF060892CF06080431002486
:101C8000CCCF0608E8CF060838B50446FEF7E6FDD7
:101C900000230C4A0C4D1B2013700C4A13700C4B84
:101CA0001C60FFF79FFA0B49284604F092FD21467D
:101CB000284604F0B5FD21460520BDE83840FFF771
:101CC000FFBE00BF831800240431002484180024C0
:101CD0000C00002412CE0608F8B5A34C2378002B84
:101CE00000F0F1811A3B012B40F2ED8105F05EF826
:101CF0009E4B1B68C01A9E4B984204D99D48BDE874
:101D0000F840FFF7C1BF2378013B182B00F2DB81BD
:101D1000DFE813F0190027003B0042004E00560098
:101D200065006C0086009400A500AC00B800C000FF
:101D3000CF00D600F000FE000F01160122014C0179
:101D40005B0161017E018C4B1B7833B1FEF73EFDD8
:101D50000220BDE8F840FFF745BA02214FF0FF30FE
:101D60000FE0854B1B7853B9FEF730FDFEF734FCCE
:101D7000022100F59670FEF73BFE0320E9E7022101
:101D80000120BDE8F840FEF773BDFEF755FC0028C2
:101D900040F099810420DCE7774B1B7833B1FEF7E4
:101DA00015FD0020FEF730FC0520D2E70821D5E71D
:101DB000724B1B78002BE2D0FEF708FD0620C8E727
:101DC0006E4B1B78002BC8D1FEF700FDFEF704FC1C
:101DD0000221A0F59670FEF70BFE0720B9E7FEF78B
:101DE0002BFC002840F06F810820B2E7634B1B7882
:101DF000A3B1FEF7EBFC624CFEF7EEFB632820601C
:101E000001DC60487BE76049604804F0E2FC0A229C
:101E100021685E4804F059FD09209AE70821AFE7E0
:101E20005B4B1B781BB1FEF7E9FC0A2091E702210E
:101E30004FF0FF30BDE8F840FEF75ABD544B1B7819
:101E400053B9FEF7DBFCFEF7CFFB022100F59670DD
:101E5000FEF70AFE0B207CE702210120EAE7FEF7ED
:101E6000F3FB002840F02F810C2072E7484B1B78D1
:101E700033B1FEF7C3FC0020FEF7CEFB0D2068E770
:101E80000821D5E7434B1B78002BE5D0FEF7B6FCC5
:101E90000E205EE73F4B1B78002BC8D1FEF7AEFC4F
:101EA000FEF7A2FB0221A0F59670FEF7DDFD0F20E4
:101EB0004FE7FEF7C9FB002840F00581102048E7F6
:101EC000344B1B78A3B1FEF799FC334CFEF78CFB27
:101ED0006328206001DC314811E731492B4804F0C8
:101EE00078FC0A222168294804F0EFFC112030E731
:101EF0000821B2E72B4B1B781BB1FEF797FC122091
:101F000027E702214FF0FF30BDE8F840FEF730BD73
:101F1000244B1B7853B9FEF789FCFEF76DFB0221B9
:101F200000F59670FEF7DCFD132012E70221012078
:101F3000EAE7FEF791FB002840F0C580142008E78F
:101F4000184B1B7833B1FEF771FC0020FEF76CFBD9
:101F50001520FEE60821D5E7134B1B78002BE5D0B2
:101F6000FEF764FC1620F4E6A4180024AC18002444
:101F700020BF0200D0C90608C1180024C0180024E0
:101F80008C190024E7C90608B5CD060804310024E1
:101F9000C3180024C218002490190024F8C90608A8
:101FA000C5CD0608C4180024C5180024464B1B786C
:101FB000002BA6D1FEF73AFCFEF71EFB0221A0F58E
:101FC0009670FEF78DFD1720C3E6FEF745FB00284F
:101FD00079D11820BDE63C4B1B78BBB1FEF726FC3F
:101FE0003A4CFEF709FB6328206001DC384886E69E
:101FF0003849394804F0EDFB0A222168364804F0DC
:1020000064FC364B002219201A70A2E608218EE7E4
:10201000334B02241F68334B1E682C4B1D682F4B1B
:102020001A7897FBF4F796FBF4F695FBF4F56AB98A
:102030000122214638461A70FEF7DAFC2146304666
:10204000FEF712FD21462846FEF74AFDFEF7F4FA98
:10205000002838D1FEF7F8FA002834D1FEF7FCFA50
:1020600088BB214B1B7873BB204B1B785BBB204B81
:102070001A7852B23ABBFEF7AFFA874213D1FEF795
:10208000B3FA86420FD1FEF7B7FA85420BD110465C
:10209000FEF7BAFAFEF7C0FAFEF7C6FAFEF74AFEF6
:1020A00018B914482BE6144829E60123134A1A20CC
:1020B0001370134A1370FFF795F812490648BDE8EC
:1020C000F84004F099BBF8BDC51800249419002409
:1020D00009CA0608D5CD060804310024A618002434
:1020E0008C190024901900241819002419190024AF
:1020F0001A1900241ACA060838CA060883180024C8
:1021000084180024E5CD060808B5FFF727F9002854
:1021100040D02C4B1B78002B3ED0FFF743F9002812
:102120003AD0FFF747F9002838D0274B1B78072B08
:1021300034D1264B1B78002B30D1FFF743F978B30D
:10214000FFF748F970B3224B1B786BB3FEF750FDD5
:1021500050B3204B1B784BB3FEF736FF40B3FEF76E
:1021600083FA38BB1C4B1B7823BB1C4B1B781BB35F
:102170001B4B1B781B2B21D01A4B1B681B78EBB910
:10218000FEF7E2FAE0B1FEF703FB002814BF0C20D3
:10219000002008BD0120FCE70220FAE70320F8E751
:1021A0000420F6E70520F4E70620F2E70720F0E731
:1021B0000820EEE70920ECE70A20EAE70B20E8E731
:1021C0000C20E6E7851900249E1800249C180024A2
:1021D00083180024841800241B190024821800246A
:1021E000A41800240C000024294B1B7870B523B9D7
:1021F0000520BDE87040FFF719BC264B1B78002B6B
:1022000045D1FEF731FA002841D1234D234E95F9EF
:10221000001099B196F9003083B9214C23785B1AEC
:102220001BD4042BA8BF00231E491F48237004F0B1
:10223000D0FA0A2221781C4804F060FB2B78337016
:102240001A4B1A781AB300221A70154B1978032901
:102250001CD8DFE801F0040617190323E4E708207F
:10226000C7E7134B1B783BB1124B1B7823B1FFF729
:10227000C1F808B10920BCE70F490B48BDE8704020
:1022800004F0BABA0A20B4E70B20B2E71A7070BDA6
:10229000821800241B190024B51800249218002469
:1022A0005019002488C9060804310024A11800240C
:1022B000831800248418002497C9060838B5234BD6
:1022C0001B7833B9FEF7CAFA0520BDE83840FFF79E
:1022D000ADBB1F4B1A782AB100221A70FEF7BEFA66
:1022E0000720F2E71B4B93F900001B4B002893F9E2
:1022F00000501A4B93F900401FDD194B1B78002B3F
:1023000018BF0020002D1BDD164B1B78002B18BFBB
:102310000025002C17DD144B1B78002B18BF002460
:102320000121FEF7A5FA28460121FEF7E1FA204631
:102330000121BDE83840FEF71BBBE3D00B4BDDE7C6
:10234000E7D00B4BE1E7EBD00A4BE5E7821800241E
:10235000A0180024B4180024B5180024B6180024CE
:10236000C0180024C2180024C5180024C118002475
:10237000C3180024C4180024054B02220549188004
:102380000A20054B1A700022044B1A80FFF798BBF5
:102390007C18002491CE0608881800249A1900247D
:1023A0002DE9F0412DED028B86B0FEF73FFA634B2D
:1023B0001978634B61B91B7813B16248FEF7D0FE00
:1023C0000520FFF733FB06B0BDEC028BBDE8F081C2
:1023D0001A785D4B197839B10021197012B15B4838
:1023E000FEF7BEFE0720ECE7FFF704F8014640B910
:1023F00012B15748FEF7B4FE56490420FFF760FBC0
:10240000E1E7002ADFD1FEF72FF907460028DAD1ED
:10241000FEF7E8FF0028D6D0DFF86C81B8F800306E
:102420004546002BCFD04C4C22889A42CBD04B4B08
:10243000B2EE047A002602AAB3F90030029607EE43
:10244000903A474BF8EEE77AB3F90030C7EE878A47
:1024500007EE903A06AB43F80C6DF8EEE77A87EE9C
:10246000878A18EE900A18EE101AFEF775FD20B94B
:10247000B8F80000FFF780FFA5E705AB32460399E7
:10248000009304AB0298CDE90477FEF7B5FC08B9D8
:102490002888EFE7B8F80030324A238001241380FF
:1024A000314B324932481C7004F093F9314B0A2207
:1024B0002F48197804F020FA2F492D4804F089F9A3
:1024C000B7EEE87A00942A4853EC172B04F0B0FAE0
:1024D0002A49274804F07DF9B7EEC87A00942448C9
:1024E00053EC172B04F0A4FA2549214804F071F9A4
:1024F000DDED027A0094B7EEE77A1D4853EC172B16
:1025000004F096FA1D491A4804F063F9DDED037AE8
:102510000094B7EEE77A164853EC172B04F088FACC
:102520001849134804F068F902230022039902981D
:10253000FEF770FD00287FF446AFA9E7821800245B
:102540001B19002403CB0608A018002422CB060880
:1025500038CB060853CB06087C1800242019002429
:10256000221900249A1900248818002476CB060822
:1025700004310024871800248ACB060894CB06086F
:1025800096CB060829E806089C1900242C4B70B548
:10259000DE7B04462B4B1D78AE421CD12A4B1A78A9
:1025A000072A0AD1294B93F90030002B05DBFEF7EF
:1025B00009FF10B1FEF70EFF20B9254B0121082AB3
:1025C000197002D0234B1B782BB123490420BDE89E
:1025D0007040FFF775BA04F0E9FB204B1B68C01A86
:1025E0001F4B984202D91F490320F0E7AE4205D1A4
:1025F000174B1B7813B1FEF7FDFE08B98CB170BD07
:1026000019491A4804F0F8F824B10420BDE87040D4
:10261000FFF70CBA164B1B78002B14BF07200520C0
:10262000F4E7144B1A78002AE9D0114A1278002AEC
:10263000E5D001201C70FFF7CBF90720E6E700BFCB
:1026400051190024981900249E180024A51800246C
:10265000A71800249C1800240FD00608A8180024EE
:1026600080A903002AD0060844D0060804310024BB
:1026700082180024A018002438B50446FFF72CFB6C
:10268000144B1B780C2B24D0134D2B781A2B0CD108
:1026900024B10520BDE83840FFF7C8B90F4B1B78BF
:1026A000002B14BF07200520F4E794B90C4B1A78CF
:1026B0007AB10A4A127862B11C70FEF7CFF8094B62
:1026C0000720094A1C70094B2C701C70084B1A60BB
:1026D000E0E738BD9F180024A418002482180024C5
:1026E000A018002483180024B4ED060884180024E0
:1026F0000C0000241B4A10B511781B4C237881B1C3
:102700000021022B117004D80120BDE81040FFF712
:102710008DB90C2B24D015490B20BDE81040FFF7D4
:10272000CFB9134A1278092A06D9012B18D90C2BD4
:1027300016D010490220F0E7012B11D90C2B0FD035
:10274000FEF70CFE60B9FEF789F82378022B04D15E
:1027500009490A4804F050F8D6E709490120DCE7A6
:1027600010BD00BF851800249F180024BDCE0608A8
:10277000A3180024F1CE060815CF06080431002462
:1027800040CF060808B5FEF769F80023134A14493C
:102790001370144A137000220A6013490A60134A26
:1027A00013491370134A0A6013490B7013490A60E6
:1027B000134A1370134A1370134A1380134A137089
:1027C000134A1380FEF7CAFD10B10420FFF700F989
:1027D0000020BDE80840FFF729B900BF8318002496
:1027E000701900248418002474190024A4180024EB
:1027F0000C000024B4ED06089D18002410000024ED
:10280000C0190024861800247C180024881800248D
:102810009A1900244F4B1B7810B50C2B00F29880AE
:10282000DFE803F007182C393E435074787C80822F
:102830008400FEF713F804F0B9FA474B1B68C01A7E
:1028400040F6B733984240F283800120BDE8104043
:10285000FFF7ECB8FEF702F8FEF780FD002877D00E
:102860003E4B1B78002B73D0FEF79CFD00286FD0E9
:102870003B493C4803F0C0FF0220E7E7FDF7EEFFCD
:1028800004F094FA344B1B68C01A41F28733984223
:102890005ED90320DAE70120BDE81040FFF776BEDD
:1028A0000120BDE81040FFF7E7BEFDF7D7FF2E4B34
:1028B0001B78002B4CD02D4B1B78002B14BF07200E
:1028C0000620C3E7FDF7CAFFFFF71EFC284B187070
:1028D00040B9264B0122274922481A7003F08CFF89
:1028E0000720B3E70C28244996BF244B244C53F807
:1028F00020401C4803F06DFF21461A4803F090FF6A
:1029000021460920BDE81040FFF7DAB8BDE81040C5
:10291000FFF76ABCBDE81040FFF7D0BCBDE810402F
:10292000FFF73EBD0020BCE70020B5E7FDF796FFAE
:102930000D4B1B7863B1134B1A784AB10022124930
:1029400008481A7003F058FFBDE81040FFF71ABF9F
:1029500010BD00BF9F180024A8180024851900246A
:1029600084CA060804310024821800248618002432
:10297000C0190024ABCA0608C5CA0608DCC506088B
:1029800030C60608A1180024DFCA060807B5314979
:10299000314803F031FF31492F4803F01AFFFEF7A9
:1029A00027F980B1FEF73EF907EE900A02232A4884
:1029B000B7EEE77A009353EC172B04F039F8284967
:1029C000254803F006FFFDF707FE0A2201462248CC
:1029D00003F04DFF2349204803F00EFF22491E4813
:1029E00003F0F7FEFEF704F980B1FEF739F907EEC0
:1029F000900A02231848B7EEE77A009353EC172B9E
:102A000004F016F81649144803F0E3FEFDF7ECFD58
:102A10000A220146104803F02AFF12490E4803F02B
:102A2000EBFE12490C4803F0D4FEFDF7E5FD0A2247
:102A30000146094803F01BFF0D49074803F0C9FE92
:102A40000C4B0A220448196803B05DF804EB03F04C
:102A50003CBF00BF4ACA0608043100249ACD0608CC
:102A600066CA06086DCA0608D4C60608DCC606088B
:102A700074CA06089419002437B54D494D484E4D87
:102A800003F0BAFE4D494B4803F0A3FE0A22296821
:102A9000484803F0ECFE4A49464803F09AFEFEF728
:102AA000A7F8A0B14749434803F093FEFEF7F6F8B4
:102AB00007EE900A02233F48B7EEE77A009353EC03
:102AC000172B03F0B5FF40493A4803F082FE39481E
:102AD0003E4C03F08BFE3E49364803F07AFE0A2254
:102AE0002168344803F0C3FE3549324803F071FED3
:102AF000FEF77EF8A0B133492E4803F06AFEFEF7D8
:102B0000E9F807EE900A02232A48B7EEE77A009325
:102B100053EC172B03F08CFF2B49264803F059FE8A
:102B2000244803F063FE2B49224803F052FE2A4B4F
:102B30000A222048196803F09AFE21491D4803F033
:102B40005BFE26491B4803F044FE296802250A2241
:102B5000184891FBF5F1494203F089FE20491548D8
:102B600003F037FEFEF7D2F80A220146114803F0BF
:102B7000ACFE1C490F4803F02CFE21680A220D48C8
:102B800091FBF5F1494203F072FE1549094803F043
:102B900020FEFEF7C5F80A220146064803F095FE1E
:102BA0001149044803B0BDE8304003F025BE00BF22
:102BB0006FC70608043100248C1900248EC706084C
:102BC0006DCA060897C7060878C906089019002438
:102BD0009BC70608A4C7060894190024ADC70608B9
:102BE000C2C70608C6C70608DBC7060810B5154CDD
:102BF0001549204603F000FE1449204603F0FCFD71
:102C00001349204603F0F8FD1249204603F0F4FD75
:102C10001149204603F0F0FD1049204603F0ECFD79
:102C20000F49204603F0E8FD0E49204603F0E4FD7D
:102C30000D49204603F0E0FD20460C49BDE8104058
:102C400003F0DABD04310024FFC7060820C80608D7
:102C500058C806087FC80608A6C80608C5C80608DA
:102C6000E7C8060807C906083CC9060856C9060889
:102C700008B50C4B1B78072B01D0002008BDFEF7D0
:102C80006DFB0028F9D0084B1B78002BF5D0FDF721
:102C9000AFFF0028F1D0054B187801288CBF002029
:102CA0000120EBE79F1800248318002484190024D6
:102CB00038B51B4D2C78042C20D0A4F10A035C42BB
:102CC0005C41184B1B78DBB100211748FEF748FA2E
:102CD000CCB10023154A16490C201370154A137005
:102CE000154B164A1A601B22154B1A70FEF7E8FEA8
:102CF00014491548BDE8384003F07EBD0124E0E7E3
:102D0000FDF7ACFDE4E72B78083B012BF0D80F4B27
:102D10001B78002B14BF07200520FEF787FEE7E78E
:102D20009F1800241B19002418C7060883180024C4
:102D300035C70608841800240C00002423C70608A1
:102D4000A418002454C70608043100248218002463
:102D500070B505468EB003F0B4FFAB68002B00F0F1
:102D6000C380294605A803F0FEFE05A803F09DFFD9
:102D7000654905A803F03DFF10B1FFF737FFB0E04C
:102D8000624905A803F035FF10B1FFF7FFFDA8E089
:102D90005F4905A803F02DFF10B1FFF76DFEA0E01D
:102DA0005C4905A803F025FF10B1FFF781FF98E00B
:102DB000594905A803F01DFF78B1584B1B780C2B1F
:102DC00004D05749574803F017FD8AE05649554843
:102DD00003F012FDFFF7D6FC83E0544905A803F089
:102DE00008FF58B1FFF744FF08B95149EAE700224C
:102DF000012311461046FEF70DF972E0FFF738FF88
:102E000008B94C49DEE7294608A803F0ACFE0BAC34
:102E10004949204603F066FE214605A803F011FF4C
:102E20000646204603F013FE66B1AB68052229462C
:102E3000204603F00FFF214608A803F09EFE20461F
:102E400003F005FE20222C210DEB020003F022FFEF
:102E5000002303AA3949039304930B930023089892
:102E60008DF80B300DF10B03CDE9004304AB21F0DD
:102E700051FC032826D19DED037ADFED317AF0EE87
:102E8000C76AF4EE676AF1EE10FA1BD8DDED046A4A
:102E9000B0EEE66AB4EE676AF1EE10FA12D89DED74
:102EA0000B6AF0EEC65AF4EE675AF1EE10FA09D842
:102EB000012316EE102A16EE901A17EE100AFEF7EE
:102EC000A9F80BE01F49174803F083FC2946154871
:102ED00003F09CFC1C49134803F08EFC08A803F087
:102EE000B6FD05A803F0B3FD0EB070BD204603F09B
:102EF000AEFD08A803F0ABFD05A803F0A8FD1DF08A
:102F000095FFF3E7F5E7F7E732CC060838CC06087B
:102F10003CCC06081EC7060842CC06089F180024B1
:102F20004DCC0608043100247FCC06087AD406086C
:102F3000B0CC0608E4CC060818CD06081ECD06085D
:102F4000FFFF7F7F2ACD06084ACD060810B504464C
:102F5000FDF725FB204610BD38B5074B0546044656
:102F600045F8283B09F05CF82846FFF7EFFF2046BC
:102F700009F062F9204638BD64E30608044BC360DB
:102F800003460A6843F8042B002242605A607047E7
:102F900044C5060813B50446019121B9FDF7F9FAB5
:102FA000204602B010BD01A9FFF7E8FFF8E703686B
:102FB000184708B5FFF7FBFF08BD000038B50B4CFC
:102FC0000B4D204609F01CF820460A4C2A460A49B7
:102FD0000CF09AFF0949204603F084FD2A4620465A
:102FE0000749BDE838400CF08FBF00BFD818002457
:102FF00000000024C8180024592F0408B4ED060866
:103000004F6A040870B51C2288B04021334801F093
:1030100083F91C28044609D0304C204601F0F7F90A
:1030200000284FD0204601F0FCF9F6E72B4801F0CC
:10303000EEF91B28F0DD01AD2246284E00240021C8
:10304000284621F085F8304601F0EBF92855013487
:103050001C2CF8D1214C204601F0D9F918B120469A
:1030600001F0DFF9F7E79DF80430E32B1ED19DF85E
:103070000530022B1AD19DF806301C2B16D19DF875
:103080001F401B212846FDF78FFA84420ED12846A7
:10309000FEF7D2F9044648B12846FEF7FBF9104A7C
:1030A000136801331360204608B070BD0D4A002438
:1030B0001368013313600C4A1378FF2B1CBF0133D4
:1030C0001370F0E7074A0446136801331360064A99
:1030D0001378FF2B1CBF01331370E4E7582400243E
:1030E000BC180024B8180024A318002410B588B018
:1030F00020220021684621F02BF86846FEF7FAFBF3
:1031000040210E4801F0FEF8202269460B4803F0EA
:1031100037FB04460121094801F066F9202C07D14C
:1031200030B9074A012013680133136008B010BD9D
:10313000044A0020136801331360F7E75824002481
:1031400098180024941800247FB51B4D1B4C1C4E6E
:10315000284601F0C5FE68B3284601F033FFA36896
:10316000C1B20A2901D00D2910D1002BF0D021467F
:1031700001A803F0F8FC01A8FFF7EAFD01A803F09D
:1031800066FC3146204603F0FEFCE1E74F2B03D8F6
:10319000204603F023FDDBE73146204603F0F3FC35
:1031A0000849284603F028FBD2E701A803F04FFCAA
:1031B0001DF03CFE04B070BD04310024C81800248A
:1031C000B4ED060810C6060838B5414DFFF7BCFF40
:1031D000FDF772FA03F0EAFD2B78044683B93D4B04
:1031E00040F6B7321B68C31A934209D901233A4902
:1031F0002B703A4B18603A4B18603A4803F0FCFACF
:103200002B783BB1364A1368E31A632B56D9146006
:10321000FFF76CFFFDF798FA38B9334B1B780C2B8E
:1032200003D032490620FEF74BFCFEF7B3FCFFF754
:1032300061FAFFF7EFFAFDF78FFC00232C4A1370B9
:103240002C4A13702C4A1368E31AB3F57A7F3ED3E5
:103250002A492448146003F0BCFA294B0A22214869
:10326000196803F03CFB27491E4803F0B2FA264BCD
:103270000A221C48196803F032FB2449194803F05C
:10328000A8FA234B0A221748196803F028FB2149A2
:10329000144803F09EFA204B0A221248196803F0E2
:1032A0001EFB1E490F4803F094FAFEF73FF80A226E
:1032B00001460C48BDE8384003F020BB074A1368BC
:1032C000E31A042BA6D91460FFF79CFEA2E738BDD1
:1032D0008A180024AC1900246BD00608A819002411
:1032E000A4190024043100249F18002495D0060856
:1032F000A1180024A0180024BC190024BBD0060883
:10330000BC180024C7D00608B8180024D1D006087D
:1033100098180024D8D0060894180024E2D0060893
:103320001FB54FF4E131314801F0C0FE304801F0E3
:103330001DF830492E4801F048F823212E4800F0AE
:1033400010FD00212D48FDF703F800212C48FCF763
:10335000FFFF00212B48FCF7FBFF00212A48FCF768
:10336000F7FF00212948FCF7F3FF00212848FCF76C
:10337000EFFFFDF773FAFDF79FF926496846FFF75F
:1033800009FE642200236946234808F064FE68466B
:10339000FFF7DCFD03F00AFD204B214A1860214BAA
:1033A00021491860214B1860214B186000230F48F9
:1033B0001370204A1370204A137003F01DFA1F493E
:1033C0000A4803F019FA1E49084803F015FA1D4986
:1033D000064803F011FAFFF709FC05B05DF804FB9D
:1033E0006846FFF7B3FD1DF021FD00BF0431002446
:1033F00058240024A0860100C81D0024AC1E00240F
:10340000741E00243C1E0024C81E0024901E0024AC
:10341000581E002481030408D8180024AC19002485
:103420008A180024A8180024EBD00608A819002444
:10343000A4190024891800249819002422D1060810
:103440005FD106088BD10608704710B504461C30C2
:103450000AF098FE204610BD10B504460AF092FE10
:10346000204610BD10B504466C3007F051FF04F142
:10347000480007F04DFF04F1240007F049FF204603
:1034800007F046FF204610BD38B504460D461C2205
:10349000002120F05DFE204629460AF0EFFE20467E
:1034A00038BD000038B504463421FFF7EDFF352163
:1034B00004F11C00254DFFF7E7FF432104F138001C
:1034C000FFF7E2FF632104F15400FFF7DDFF37212E
:1034D00004F17000FFF7D8FF762104F18C00FFF7AC
:1034E000D3FF972104F1A800FFF7CEFF7F2104F15D
:1034F000C400FFF7C9FF7A2104F1E000FFF7C4FF21
:10350000042104F1FC00FFF7BFFF082104F58C70D3
:10351000FFF7BAFF262104F59A70FFF7B5FF2A4698
:1035200040F6230104F5A87007F084FB2A4640F614
:10353000220104F5E07007F07DFB2A4640F6010108
:1035400004F50C7007F076FB204638BD0000C07F04
:1035500010B504461221FFF797FF862104F11C00E5
:10356000FFF792FF792104F13800FFF78DFF9921D1
:1035700004F15400FFF788FF422104F17000FFF7C7
:1035800083FF832104F18C00FFF77EFF822104F189
:10359000A800FFF779FF332104F1C400FFF774FF9F
:1035A0000E2104F1E000FFF76FFF204610BD10B5BB
:1035B0000446A43007F0FCFD04F1540007F0F8FDC8
:1035C000201D07F0F5FD204610BD10B5044600F59E
:1035D0008470FFF7ECFF2046FFF7E9FF204610BD9F
:1035E00010B5044600F59C7007F0B2FB204610BDF4
:1035F0002DE9F3414FF47A73002504464FF48072AD
:10360000C561294604F59C76058404F52677C0E952
:103610000153224B03602023C0E90535892328305C
:1036200020F8063C4FF6FF7320F8043C20F8023CDB
:1036300020F08EFDC4F8285184F834517D22C4F85E
:103640002C511821C4F83051304607F023FB28468E
:1036500003F07EFB05468D2003F07AFB80468A202E
:1036600003F076FB009043462A462146384600F098
:1036700015FE04F533731C220021184620F068FD66
:1036800000220D210AF0E4FD04E0304607F060FB63
:103690001DF0CCFB204602B0BDE8F081F4D5060851
:1036A00037B506214F4800F0D7F84F4A07214F4859
:1036B00000F020FA36214E48FFF7E6FE84214D48FF
:1036C000FFF7E2FE6A214C48FFF7DEFE2F214B4850
:1036D000FFF7DAFE4A48FFF78BFF4A4A4A49484853
:1036E0000CF012FC4948FFF7DDFE464A48494748BE
:1036F0000CF00AFC9B21474807F0ECFDA12146484D
:1037000007F0E8FD6721454807F0E4FD272144481C
:1037100007F0E0FD002401253A4A42493D480CF0FB
:10372000F3FB7B237C2298213F48CDE9004500F044
:1037300039F99A2387222D213C48CDE9004500F034
:1037400031F90CE0354807F0E3FD334807F0E0FDC0
:10375000304807F0DDFD1DF069FBF6E7F8E7294A80
:10376000334931480CF0D0FB3248FFF7F1FE3248C4
:1037700000F0E0FB314800F0DDFB7E213048FFF730
:1037800083FE304800F0B4F91C2200212D4820F0BF
:10379000DFFC012219212B480AF058FD194A2A4959
:1037A00028480CF0B1FB1C220021284820F0D0FC56
:1037B00000221E2125480AF04BFD1C22002124482E
:1037C00020F0C6FC1F2122480AF03DFD0D4A214988
:1037D0001E4803B0BDE830400CF096BB1248FFF71E
:1037E000E6FEB8E7541A00240C2400245C1A0024D6
:1037F000701A00248C1A0024A81A0024C41A002469
:10380000E01A002400000024E13504084C210024C3
:1038100049340408C4190024E81900240C1A0024AF
:10382000301A0024653404083C1F0024442000247E
:10383000CB350408201E0024C81D00241C1F0024B2
:10384000201F0024CC1D002459340408E81D002446
:10385000041E00244B340408014A01804260704772
:103860000C240024044B054A1A6001221A715A7173
:1038700000229A71704700BFEC23002440420F00E1
:10388000D0F804310133C0F80431704738B504462C
:10389000043007F05FFC054604F1540007F05AFCC1
:1038A000237840EA4500C4F8FC003BB903281ED148
:1038B000D4F800310133C4F8003107E0012B18D1EE
:1038C000D4F8F830032B04D10028F1D0C4F8F80064
:1038D00038BD13B90328F9D1EAE7022B05D1012835
:1038E000F4D1D4F80031013BE5E7012BEED10228F9
:1038F000F6E7022BEAD1D4F8F83080EA0302032A73
:10390000E4D09842E2D083EA6003D4F8002113F0B7
:10391000010308BF4FF0FF33D31ACCE710B4D0E94E
:10392000003409686210E4075DF8044B01EB020003
:1039300044BF8A58D35818470146043008B5FFF7EA
:10394000EDFF08BD034A0346C26007C983E80700CC
:10395000704700BF94D4060810B586B004460391A2
:10396000684606A980E80C0001E90C00204603A97E
:10397000FFF7E8FF204606B010BD37B56C46054698
:1039800084E80C0094E80C00FFF7E6FF284603B03B
:1039900030BD08B5FFF7D0FF08BD08B5FFF7F9FF48
:1039A00008BD00002DE9F0470446061D8EB01546FF
:1039B00004F1540730469A469DF85C9007F0D2FB1C
:1039C0002946384607F0CEFB04F1A408514640468C
:1039D00007F0C8FB002384F800903046C4F800319B
:1039E000C4F80431169BC4F8F43007F0B3FB054665
:1039F000384607F0AFFB002340EA45003A4D214628
:103A000001936B460095C4E93E000CCB0AA8FFF772
:103A1000B4FF0AA9304607F0E9FB0AA8FFF796FAB7
:103A2000B9F1000F32D00023029521460AA8039372
:103A300002AB0CCBFFF7A1FF0AA9304607F0F3FB5E
:103A40000AA8FFF783FAB9F1020F1FD100230495EA
:103A500021460AA8059304AB0CCBFFF78EFF0AA9F9
:103A6000384607F0C3FB0AA8FFF770FA0023069553
:103A70002146079306AB0AA80CCBFFF77EFF0AA9E5
:103A8000384607F0D0FB0AA8FFF760FABAF1FF3F0B
:103A900010D0164B21460AA808930023099308ABBF
:103AA0000CCBFFF76AFF0AA9404607F09FFB0AA864
:103AB000FFF74CFA20460EB0BDE8F0870AA8FFF7E2
:103AC00045FA404607F074FB384607F071FB304674
:103AD00007F06EFB1DF0AAF9F0E7EFE7EEE7EDE780
:103AE000EFE7F1E7F3E700BF8D38040881380408F9
:103AF00070470000C0E90112054A012110B5C260FB
:103B00000022044C027404604174827410BD00BF32
:103B100000093D0066660640074B0121074A5974BB
:103B20001A6007225A60064A9A60064ADA60002242
:103B30001A749A74704700BFF42300246666064026
:103B40000C24002400093D0038B505460C4600F061
:103B50004EFA222806D1A4F10C030B2B0BD94FF0FF
:103B6000FF3038BD284600F042FA2328F7D1082C50
:103B7000F5D8032CF3D0A1B2284600F0F3F9F0E712
:103B8000C1F307220023C9B200F012BA10B50446EF
:103B900000F02DFA222840F0BA800022204611467B
:103BA00000F0F8F920460022012100F0F3F9204648
:103BB0000022022100F0EEF920460022032100F04D
:103BC000E9F920460022072100F0E4F9204600220E
:103BD000062100F0DFF920460022052100F0DAF985
:103BE00020460022042100F0D5F9204600220821B9
:103BF00000F0D0F920460022092100F0CBF9204640
:103C000000220A2100F0C6F9204600220B2100F014
:103C1000C1F900222046114600F0D9F920460022C1
:103C2000012100F0D4F920460022022100F0CFF952
:103C300020460022032100F0CAF920460022072175
:103C400000F0C5F920460022062100F0C0F9204608
:103C50000022052100F0BBF920460022042100F0DB
:103C6000B6F920460022082100F0B1F920460022D2
:103C7000092100F0ACF9204600220A2100F0A7F942
:103C8000204600220B2100F0A2F920460122172134
:103C900000F09DF920460122162100F098F92046F7
:103CA0000122152100F093F920460122142100F091
:103CB0008EF920460122132100F089F920460122C5
:103CC000122100F084F920460122112100F07FF931
:103CD00020460122102100F07AF9204601220F210E
:103CE00000F075F9204601220E2100F070F92046FF
:103CF00001220D2100F06BF920460C21012200F079
:103D000066F920460021BDE81040FFF739BF204684
:103D10000122082100F05BF920460122052100F074
:103D200056F920460122042100F051F920460122D3
:103D3000022100F04CF901222046114600F047F91B
:103D400020460122002100F042F9204601220721ED
:103D500000F03DF9204601220621BDE8104000F0A8
:103D600036B938B5054600F040F9284600F0E6F8C7
:103D7000044610B12846FFF709FF204638BD000071
:103D8000014800F0D7B800BF082400242DE9F74F00
:103D90000D9C1746009382468B46BDF8308003F099
:103DA00005F8274B00268146002C08BF1C46402FF3
:103DB0003B463546A8BF40230193B74230DD236818
:103DC00051462046DB6A98472368594620461B68BF
:103DD0009847236820465B6B9847BA1B2368514677
:103DE000402A2046DB6BA8BF402298472368204624
:103DF0001B69984788B1B8F1000F08D123682046A5
:103E00005B699847009B58550135EDB2EEE702F02B
:103E1000CDFFA0EB09004045F0D3019B1E44CCE749
:103E2000B8F1000F08D002F0C1FFA0EB0900404537
:103E300002D3BD4238BFFF2568B203B0BDE8F08FA2
:103E40005824002413B5049CCDE900341346012204
:103E5000FFF79CFF02B010BD30B585B01C4615467B
:103E6000099B0DF10F020093BDF82030FFF7EAFF28
:103E700001229DF80F30AA401A40227005B030BDD3
:103E8000F8B5069C1D46114B16460F46013D002C09
:103E900008BF1C4601462E4423682046DB6A98472B
:103EA0002368394620461B689847B542236805D0E9
:103EB0001B68204615F8011F9847F6E75B6B204604
:103EC0009847B0FA80F04009F8BD00BF582400249C
:103ED0001FB504AC04F8012D012200932346FFF71F
:103EE000CFFF04B010BD00002DE9FF410A9C1F4622
:103EF0000F4B90460DF10F0205461B880E460094AD
:103F0000FFF7A0FF01229DF80F3002FA08F252B22B
:103F10005FB11A43D2B22346314628468DF80F20AE
:103F2000FFF7D6FF04B0BDE8F08123EA0202F2E712
:103F300016000024222303707047000007B50021FB
:103F4000074A034600780191128801330092032248
:103F5000FFF71CFFC31E5842584103B05DF804FB35
:103F600016000024002301F0070213B50446007870
:103F70000193C1F3C701064B1B880093631CFFF735
:103F80006BFF6078003018BF012002B010BD00BF89
:103F90001600002413B5CC080023007804340093E5
:103FA000134601F00702E1B2FFF79EFF02B010BD19
:103FB00013B5C370002304784170842182700322FA
:103FC0000093431C2046FFF75BFF02B010BD13B502
:103FD000CC08002300780C340093134601F007024C
:103FE000E1B2FFF781FF02B010BD017070470078A9
:103FF000704710B5C36886B001228DF80F100DF11F
:104000000F01186803680092DC680DF11703A047E0
:104010009DF8170006B010BDF8B5427A0446036853
:104020000E46CFB29B680D0A62B93946984723689D
:1040300060F3070629469B682046984760F30F26E1
:10404000B0B2F8BD29469847236860F30F26394679
:104050009B682046984760F30706F1E7C36813B5ED
:10406000186803680092DC680B46A04702B010BDD8
:10407000704770477047C36810B5044653B118685D
:1040800040B103685B6898470421E0680CF0C2F90E
:104090000023E36010BD10B5044618210CF0BAF9F6
:1040A000204610BD436873B599426D4604460E46DE
:1040B00085E8060005D18268019B534033F07F43B9
:1040C00011D0E36808219DF80420186807F061FB0F
:1040D000E3683146186807F07AFB0098A988AA7946
:1040E00060602181A27202B070BD73B5C5680446DC
:1040F00025B904200CF05AF9E0600560E3681B68FC
:1041000083B94FF0FF3674200CF050F9B4F9143035
:10411000B4F910200546B4F91210009607F03EFCE1
:10412000E3681D6002B070BD742128460CF072F97E
:104130001CF07CFE38B50A2002F01EFE0546082061
:1041400002F01AFE0446092002F016FE094B0A4A44
:104150000121988218461A60002259725A601A7218
:104160009A72DA601D825C82044A0549BDE83840D3
:104170000BF0CABE0C240024A8D4060800000024BA
:1041800075400408002070470268322313B500937D
:10419000946A40F21342A04702B010BD13B5046800
:1041A00000931346A46A40F21342A04702B010BD28
:1041B00013B5322304680093A46AA04702B010BD6F
:1041C000006903681B691847006903689B69184701
:1041D000006903685B69184700690368DB68184772
:1041E0000120704770B504460D4616460499C56215
:1041F0002286026A002A08BF1A46436A002B18BFAB
:104200001946026241628069002807DB0121C0B2C1
:1042100002F02EFE0021207E02F0AEFEE0690028B2
:1042200007DB0121C0B202F023FE0121207F02F052
:10423000A3FE002320693246294684F8283003680B
:10424000BDE870401B6A184710B504460069036852
:104250005B6A9847A069002807DB0021C0B202F022
:104260008BFE0021207E02F003FEE069002809DBBE
:104270000021C0B202F080FE207F0021BDE8104086
:1042800002F0F6BD10BD034690F8280018B1186979
:1042900003681B68184701225A60704770B50025F3
:1042A0004FF47A768361049B456280F82850C0E918
:1042B0000156034EC0E904120660C0E9073570BD1F
:1042C000E4D406080A4B00224FF47A7101205A62A6
:1042D00083F82820C3E901210649196006491961BC
:1042E0001521C3E905011421C3E90712704700BF76
:1042F00024240024E4D406085C2D00240368C9B2F9
:104300001B68184749000023C161C0F82C32704770
:10431000036801211B6B184710B403689C6B0123D1
:10432000A4465DF8044B6047D0F82C32B3F5807F8B
:104330001FBF5A1CC0F82C22C01880F82C1114BFC3
:104340000120002070477047C0F830127047C0F855
:1043500034127047D0F828312BB1D0F824311844EA
:1043600090F8200070474FF0FF30704738B5036871
:1043700004465B6A9847FC200CF018F8B4F91A2040
:10438000B4F91810054606F067FE656138BDFC21DA
:1043900028460CF03FF81CF049FD38B5D0F82C3217
:1043A0001446054600F596701A441844B2F5807F0D
:1043B00088BFC3F5807422461FF0CCFDD5F82C329F
:1043C00020462344C5F82C3238BD38B50446406930
:1043D0000D4608B106F059FD206920B12946BDE817
:1043E000384006F091BE38BD07B581F0010100F5F7
:1043F00096720091D0F82C32C169406906F058FDE0
:10440000002814BF0220002003B05DF804FB10B5A3
:1044100004460BF099F9D4F828410BF0ABF920468B
:1044200010BD10B504460BF08FF9D4F82831BBB19C
:10443000D4F82831A3B1D4F82431234493F82000D0
:10444000D4F824310133DBB2C4F82431D4F8283154
:10445000013BC4F8283104460BF08CF9204610BD0E
:104460004FF0FF34F8E710B50446406920B1036807
:10447000DB6898470023636123699BB1D4F8380255
:104480000CF08FFAD4F838020CF0EFFAD4F83802B6
:1044900010B103685B6898479C2120690BF0BAFF54
:1044A0000023236110BD70B5B2F5807FC2B083F0E8
:1044B0000103044628BF4FF4807202AE0093490006
:1044C000154613464069324606F011FDC8B9A842A8
:1044D00018D0D4F82831B3F5807F10D0D4F820312B
:1044E000325C234483F82020D4F820310133DBB23E
:1044F000C4F82031D4F828310133C4F82831013010
:10450000E5E70025284642B070BD70B50446C0B04E
:104510000025206906F001FE0328FAD8DFE800F044
:104520005F021E1ED4F8343203B19847D4F82C32FF
:10453000002BEED00BF008F994F82C6204F596717C
:10454000684632461FF006FDC4F82C520BF012F9F3
:1045500032466946206906F0E4FDDAE7F022694652
:10456000206906F0DCFD06460BF0EEF80022C4F8E8
:104570002051C4F82451C4F82851B2421DDAD4F8AD
:104580002831B3F5807F18D0D4F82831B3F5807F77
:1045900011D0D4F820311DF80210234483F82010E4
:1045A000D4F820310133DBB2C4F82031D4F82831FB
:1045B0000133C4F828310132DFE70BF0DBF8236860
:1045C00020461B6998470028A3DDD4F83062002EEE
:1045D0009FD0236820461B699847B04799E702F0AF
:1045E00015FC96E70022C2607047000038B5002530
:1045F0004FF47A7304460183428329464FF4807254
:10460000C0E901530A4BC0E90455036020301FF094
:104610009FFDC4F82051C4F82C522046C4F8245100
:10462000C4F83052C4F82851C4F8345238BD00BF21
:1046300038D5060810B504460021FFF7D3FF204601
:1046400010BD10B4D0E9003409686210E4075DF8C9
:10465000044B01EB020044BF8A58D3581847014667
:10466000043008B5FFF7EDFF08BD0000034A03461C
:10467000C26007C983E80700704700BF18D5060865
:1046800010B586B004460391684606A980E80C0080
:1046900001E90C00204603A9FFF7E8FF204606B019
:1046A00010BD37B56C46054684E80C0094E80C0054
:1046B000FFF7E6FF284603B030BD00002DE9F041CA
:1046C0000368054688B00E465B6A98479C200BF04D
:1046D0006DFEB5F91A20B5F91810044606F0FAFC7B
:1046E000710020462C6106F011FDBC200BF05EFE2F
:1046F00004460646234B04F1400746F8043B304687
:10470000FFF798FF002138460CF0C6F804F1540872
:1047100040460CF05FF81C4B4FF400621821204615
:10472000009300230CF032F9184B294604A8C5F871
:10473000384202930023039302AB0CCBFFF7B1FF87
:1047400004A920460CF0CCF910E040460CF082F8A9
:1047500038460CF0CAF83046FEF7F8FBBC2120467C
:104760000BF058FE1CF062FBF2E7F4E704A8FEF73A
:10477000EDFB08B0BDE8F0819C21F0E704A8FEF74E
:10478000E5FBEFE760F4060824D506080B450408AE
:1047900008B5FFF764FF08BD08B5FFF7F9FF08BDCE
:1047A00010B50B2002F0E8FA04460C2002F0E4FAFF
:1047B000214602460748FFF719FF1622172106482F
:1047C000FFF714FF7B227C210448BDE81040FFF76F
:1047D0000DBF00BF5824002494260024D0280024B4
:1047E000002070470020704730B5A1F1100400256B
:1047F00000F00F02CD7302390009D3B2092ACCBFF1
:10480000373330330B748C42F2D130BD2DE9FF4782
:104810000024061D05468A46904699460094234684
:104820004FF0FF32B1213046CDE9014406F0D4FE0D
:1048300029682846DDE90C23CDE9002342464F696B
:104840004B465146B847009423464FF0FF32C121F2
:104850003046CDE9014406F0BFFE204604B0BDE875
:10486000F0872DE9D04F9B460368924604469B6A29
:10487000DDE90889984702460B46504659461CF028
:1048800077FE134302D00020BDE8D08F2368204676
:104890009B6A984702460B46404649461CF068FE14
:1048A0001343F0D11AEB0806236820464BEB0907A7
:1048B0009B6B9847B94208BFB0422CBF0120002033
:1048C000E2E701682DE9F04114461D46096B0646F2
:1048D000884702460B46204629461CF049FE1343F2
:1048E00002D00020BDE8F081DDE906233046A7189C
:1048F00045EB030817F1FF323368196B48F1FF33BA
:10490000884702460B46384641461CF031FE1343A9
:10491000E7D1336830469B6B9847414508BFB842A2
:104920002CBF01200020DDE72DE9D04F9B46036816
:10493000924604465B6ADDE90889984702460B46C1
:10494000504659461CF014FE134302D00020BDE827
:10495000D08F236820465B6A984702460B46404644
:1049600049461CF005FE1343F0D11AEB08062368F4
:1049700020464BEB09079B6B9847B94208BFB042F2
:104980002CBF01200020E2E7C2207047244830B548
:10499000037887B0BFF35B8F13F001041CD10BF0D9
:1049A000C3FAC8B11F4B66223B211F48CDE9034320
:1049B0005A23CDE901323D233C22009357230DF0C9
:1049C0005DFA194C194B164823600BF0CFFA184AC0
:1049D000204618490BF098FA13480DF089FC164D43
:1049E0001A22002329461048CDE900230023002283
:1049F000FFF70CFF2B780446B52B04D10F4B012297
:104A00001D600F4B1A7008480DF0CEFAB4FA84F00E
:104A1000400907B030BD02480BF0B0FC1CF006FAAC
:104A2000302B0024005A6202382B002490D506084F
:104A300000000024F14B0408402D0024180000243D
:104A4000342B002410B504460EF0EEF82146FFF793
:104A5000CBFE0EF0EFF804F11001FFF7C5FE0EF0EB
:104A6000EFF804F12001FFF7BFFE302010BD000079
:104A700008B54DF659720021074814F027FBBFF323
:104A80004F8F0649064BCA6802F4E0621343CB60BD
:104A9000BFF34F8F00BFFDE70C2B002400ED00E0BB
:104AA0000400FA0510B50446FBF779FD204610BD59
:104AB000064B10B504460360806A08B10AF048F856
:104AC000201DFFF7EFFF204610BD00BF30E20608B3
:104AD00000B5C3B01622172103A806F0BDFA4FF4A3
:104AE000A17302AA1021ADF80830002303A8009397
:104AF000022306F0DDF903A8FFF7DAFF43B05DF803
:104B000004FB03A8FFF7D4FF1CF090F91D4B012113
:104B10001D4AA62070B51A6002F0F4F90121A62002
:104B200002F070FAFFF7D4FF184B43F2D2021A607A
:104B3000FFF72CFF164B1B7833B1164B1B689A8876
:104B400040F209439A421BD8134B9B6D03F4604318
:104B5000B3F5004F14D002F029F9104D044602F0CD
:104B600037F9064602F034F9801BA842FAD902F060
:104B70001DF9001B642803D0BDE8704019F07AB914
:104B800070BD00BF0C2B00240040005800400052B4
:104B9000342B002418000024004402589F86010092
:104BA00010B50446FFF784FFFC2120460BF032FCD1
:104BB000204610BD38B5074B0546044645F8BC3BBA
:104BC0000DF0F2F928460BF045FE201D06F044FDDD
:104BD000204638BD9000070810B50446FFF7EAFFED
:104BE0004FF4027120460BF015FC204610BD00006A
:104BF000034B10B504460360FFF7DCFF204610BDF1
:104C000090D5060810B50446FFF7F2FF4FF4027185
:104C100020460BF0FFFB204610BD70B590F83431F4
:104C200005461446F3B90368DB69984704F47063DA
:104C300004F00F02B3F5407F04F0F0030CBF07212E
:104C40000821302B0CBF02230123012A08D0901E1B
:104C500042424241A869BDE87040006806F0C6BF04
:104C60000222F7E770BD10B590F8343104462BB935
:104C7000A369186806F0FEFF0028F9D010BD38B50A
:104C800090F834510446A5B983695BB1186848B1FE
:104C90000368DB689847A36904211D60A0690BF0D5
:104CA000B9FBA5610023C4F82831C4F82C31C4F83D
:104CB000303138BD13B590F8343104466BBBA3696D
:104CC000186806F0ABFF40B30AF03EFDA36901226D
:104CD0000DF10701186803685B699847D4F8303113
:104CE000B3F5807F16D0D4F83031B3F5807F11D082
:104CF000D4F828319DF80720234483F82820D4F8DD
:104D000028310133DBB2C4F82831D4F83031013313
:104D1000C4F830310AF02EFDD1E702B010BD00001A
:104D200008B590F834313BB1012002F05DF8064837
:104D3000BDE8084001F051BA82691AB11368003326
:104D400018BF0123184608BDD037002470B50446AB
:104D50000D4601F042FA30B12368294620461B6C0B
:104D6000BDE87040184770BDA0F59860EEE7000000
:104D700013B590F8343104468DF807102BB1C9B241
:104D80000B48FFF7E3FF02B010BDA369186806F0F7
:104D900071FF0028F9D0A36901220DF107011868FD
:104DA00003681B699847013018BF0120EBE700BF7B
:104DB000D03700242DE9F04107468846164601F019
:104DC0000CFA80B10024A6420ED9351B08EB040171
:104DD0003846B5F5007F28BF4FF400752A462C44AD
:104DE00000F044FFEFE704462046BDE8F081A0F55F
:104DF0009860DFE770B590F8343105460E461446EA
:104E00002BB10F48FFF7D6FF0446204670BDAB69B3
:104E1000186806F02FFF0028F9D0AB690121186847
:104E2000D0F8883088301B6B9847AB6922463146F2
:104E3000186803681B699847013008BF0024E4E73D
:104E4000D037002430B50446C3B001F0B1F90546AF
:104E5000D4F8D835C3F58073984203DDD4F8D8551B
:104E6000C5F580752A4601AB02A9204600F0F5FF82
:104E7000019902AB00226D1A1D44D4F8D835B3F560
:104E8000807F19D08A4217D0D4F8D835B3F5807F07
:104E900010D0D4F8D035A85C234483F8D004D4F8DB
:104EA000D0350133DBB2C4F8D035D4F8D83501336E
:104EB000C4F8D8350132E0E743B030BD38B5044618
:104EC00000F0BCFB2046FFF7BDFFD4F8D8552046C4
:104ED00000F0BCFB284638BDA0F59860EEE7000066
:104EE00010B590F8343104462BB10648FFF7E6FFC1
:104EF0000446204610BD0AF027FCD4F830410AF0E1
:104F000039FCF6E7D037002438B5044600F096FBAC
:104F10002046FFF797FFD4F8D8354BB1D4F8D435F5
:104F2000234493F8D054204600F090FB284638BD27
:104F30004FF0FF35F7E7A0F59860E5E710B590F87A
:104F4000343104462BB10B48FFF7DEFF0446204600
:104F500010BD0AF0F9FBD4F830313BB1D4F82C0184
:104F6000044494F828400AF005FCF0E74FF0FF34C1
:104F7000F9E700BFD037002438B5044600F05EFBE7
:104F80002046FFF75FFFD4F8D835A3B1D4F8D43565
:104F9000234493F8D054D4F8D4350133DBB2C4F8A9
:104FA000D435D4F8D835013BC4F8D835204600F0C4
:104FB0004DFB284638BD4FF0FF35F7E7A0F5986068
:104FC000DAE7000010B590F8343104462BB11148EF
:104FD000FFF7D2FF0446204610BD0AF0B5FBD4F817
:104FE00030319BB1D4F82C31234493F82800D4F805
:104FF0002C310133DBB2C4F82C31D4F83031013B11
:10500000C4F8303104460AF0B5FBE4E74FF0FF3452
:10501000F9E700BFD037002408B54FF480720021B3
:105020001FF096F80022C0F80021C0F80421C0F853
:10503000082108BD10B4D0E9003409686210E40703
:105040005DF8044B01EB020044BF8A58D35818475F
:105050000146043008B5FFF7EDFF08BD034A0346DB
:10506000C26007C983E80700704700BFE0D50608A3
:1050700010B586B004460391684606A980E80C0086
:1050800001E90C00204603A9FFF7E8FF204606B01F
:1050900010BD37B56C46054684E80C0094E80C005A
:1050A000FFF7E6FF284603B030BD000070B590F86A
:1050B000343186B004460E46002B3BD1856925B9B4
:1050C00004200BF073F9A0610560A369186850BB58
:1050D0008C200BF06BF93346B4F922200546B4F965
:1050E000201007F04FF9A3691D60B4F92420531C68
:1050F00006D0A0690321B4F92630006807F052F900
:10510000A3691D68B5B1114B0026214602A8009382
:105110006B4601960CCBFFF7BCFF324602A928462E
:1051200006F016FE03E0314606F04DFDDDE702A86D
:10513000FDF70CFF06B070BD8C2128460BF06AF914
:105140001BF074FE02A8FDF701FFF9E7B54C040857
:1051500008B5FFF77DFF08BD08B5FFF7F9FF08BDEB
:105160002DE9F84300242D4D4FF47A782C4F20265A
:1051700005F128002F60EC61C5E90148C5E9056427
:10518000FFF74AFF01230E2085F8343101F0F4FDCA
:10519000244D81460D2001F0EFFDA5F820904FF63B
:1051A000FF79688405F128002F60EC61A5F8249050
:1051B000A5F82690C5E90148C5E90564FFF72CFF6D
:1051C00085F834410F23184D2B84562305F1280010
:1051D0002F606B845823EC61AB845923C5E90148E7
:1051E000EB84C5E90564FFF717FF85F83441982380
:1051F0000E4D2B84992305F128002F60EC616B8400
:10520000A5F82490A5F82690C5E90148C5E90564EC
:10521000FFF702FF85F83441BDE8F883043100242C
:10522000F4D506085C2D0024942E0024CC2F0024F5
:10523000002070477047704710B5D0F88C452CB1EE
:1052400023682046DB6A9847A468F8E710BD38B5A4
:105250000D46D0F88C4534B1236820462946DB68DA
:105260009847A468F7E738BD00487047C0D60608DD
:10527000054B10B50446036008F009FB204608F012
:1052800017FC204610BD00BF40D6060810B50446E6
:10529000FFF7EEFF4FF4B26120460BF0BBF820465B
:1052A00010BDF7B5002305460E46D0F88C45A4B1D5
:1052B000236831460DF1030220461F6901ABB84750
:1052C0009DF803100346042905D0019A284607F0EB
:1052D000EDFD03B0F0BDA468E9E7019A9DF8031065
:1052E000F4E770B505460E4622B10021BDE87040D6
:1052F00007F0E8BBD0F88C455CB12368002231464A
:1053000020465B69984710B101212846EEE7A46862
:10531000F2E72146F9E770B50E460546D0F88C4510
:1053200000213CB12368314620469B699847A46818
:105330000146F6E72846BDE8704007F0B7BCF8B56F
:1053400005460E461746D0F88C453CB123682046EA
:105350003A463146DB699847A468F6E728460121BA
:10536000BDE8F84007F000BD70B5002186B00446E6
:1053700007F0E7FE00234FF48975A188EF26ADF80A
:1053800006302389ADF8045002258DF810301B0A31
:10539000E2888DF8113040F201238DF80750ADF806
:1053A000123040F203138DF809500125ADF8143086
:1053B00004F10A038DF8086005AE8DF80A501C460A
:1053C0008DF80C1001AD090A8DF80E20120A8DF827
:1053D0000B008DF80D108DF80F202A46083303CAF4
:1053E000B24243F8080C43F8041C1546F5D1128864
:1053F00020461A8006B070BDF8B5002406460D465A
:10540000274630461FF0DCFBA04207D9335D05F884
:10541000143005EB440301345F70F2E7400000F004
:10542000FE00F8BD38B50446D0F88C5535B12B6870
:1054300028465B6A984710B9AD68F7E7284640F2FE
:10544000023304F24A51A4F84835FFF7D5FF94F827
:105450004835184484F8480504F5A96038BD0000B3
:1054600040F2023300F20A5110B50446A0F80835A4
:105470000548FFF7C1FF94F80835184484F808057B
:1054800004F5A16010BD00BF2CD6060840F202331F
:1054900010B50446A0F8C83400F2CA40FFF7D2FAAB
:1054A00094F8C834184484F8C80404F5996010BD11
:1054B0002DE9FF4100231D4A044600F54E788DF882
:1054C0000A30092590F888350192FA228DF80830C3
:1054D00001238DF80C208DF80930C0238DF80B3096
:1054E00001AB03CBC4F83803C8F8041088F80820CF
:1054F000D4F88C658EB13368002130469B6898479C
:10550000478805F54E7300F10901093FE0183A4656
:105510003D441EF01FFDB668ECE784F83A53404660
:105520002D1284F83B5304B0BDE8F0810902FFFF5F
:1055300073B504460D46164616F000FF4FF480730F
:1055400001462A4620460093334608F06DFA024B86
:105550002046236002B070BD40D6060810B5D0F8D2
:105560008C350446A3B9C0F88C1594F888350846E4
:105570004A790B7194F88835134484F888350B68A0
:105580009B6A9847238918442081012010BD134647
:105590009A68002AFBD19960E7E71FB5044607F037
:1055A000CBFD0146684606F0C5FF4021684607F07E
:1055B00033F8D4F88C4534B12368694620461B6A19
:1055C0009847A468F7E7684606F0BBFF04B010BD33
:1055D000684606F0B6FF1BF029FC10B50446FFF73D
:1055E000DCFF2046BDE8104007F08DBD0F4808B530
:1055F0000378BFF35B8FDB0711D40AF095FC70B121
:1056000040F25B2242F241310948FFF791FF07481F
:105610000AF0ACFC074A084905480AF075FC044842
:1056200008BD02480AF0AAFE1BF000FC3C32002430
:1056300040320024000000247152040810B5FFF726
:10564000D5FF0368BDE810405B6F184710B5FFF742
:10565000CDFF0368BDE810409B6F184710B5FFF7FA
:10566000C5FF0368BDE81040DB6F184707F00AB9B3
:1056700007F01EB907F0F6B8704770477047436AE5
:1056800093F878007047D0F8A40470470120704761
:10569000004870472CD806082DE9F04794B004461E
:1056A0000F464B22002101A81EF052FD2679D4F8A6
:1056B000A434751C94F80E90002B94F80C80EDB275
:1056C00094F80DE014BF05200020002F40F09380D7
:1056D00040F2092309218DF81D0042F20540ADF882
:1056E00004304FF481738DF815100121ADF80830A6
:1056F0008023ADF81E0010208DF80B3032234FF0C0
:10570000040A24278DF80C3008234FF0030C4B2299
:105710008DF80D300B238DF819101D348DF80E30D7
:1057200040F202238DF81C10ADF8103002238DF8E2
:10573000210005208DF822108DF825108DF82710F6
:1057400006218DF806208DF80F608DF812308DF847
:1057500017608DF81A308DF81B308DF823008DF806
:1057600026C08DF82A308DF82B108DF82C008DF87E
:1057700016A08DF824708DF828A08DF829708DF86A
:105780002D708DF82E1007218DF82F6041F2020642
:105790008DF831108DF8411040F207518DF83050DE
:1057A000ADF8366040F209468DF83A5040F60225D1
:1057B0008DF832008DF842002046ADF848100DEB10
:1057C0000A018DF833908DF834C0ADF83860ADF82B
:1057D0003C508DF843808DF844308DF846308DF87C
:1057E0004AE08DF84B308DF84D301EF0B3FB20466B
:1057F00014B0BDE8F0870020FAE700000A4B10B5AE
:1058000004460360FFF7F2FE08F041F804F5247047
:1058100006F09CFF04F17C0006F098FF04F1700094
:1058200006F094FF204610BDECD7060810B50446DC
:10583000FFF7E4FF4FF4956120460AF0EBFD2046A8
:1058400010BDFFF70BBF0000034B10B5044603600B
:1058500006F038FE204610BD08D7060810B50446ED
:10586000FFF7F2FF282120460AF0D4FD204610BDA4
:10587000034B10B50446036006F024FE204610BD1D
:10588000D8D6060810B50446FFF7F2FF34212046AB
:105890000AF0C0FD204610BD034B10B5044603605E
:1058A00006F010FE204610BDF0D6060810B50446DE
:1058B000FFF7F2FF382120460AF0ACFD204610BD6C
:1058C00038B51E4B0D4604464FF400721968C0F8F7
:1058D0000F1099889B79A0F8131002214375284670
:1058E00006F090FE4FF4007220730221284606F065
:1058F0008EFE4FF4007260730321284606F082FE8C
:10590000A073284606F01EFE20B9AF220C490D48B0
:1059100009F022FE04F185020023C4F8882204F273
:10592000992284F8783084F88430C4F88C3284F872
:105930009832C4F89C24C4F8A03438BD24D7060893
:10594000C7D70608D2D706082DE9F34104460E460C
:105950001546FFF783FEF28823799A4237D1002D4E
:1059600035D17778012F2ED1F378202B27D13289AA
:10597000072A24D104F10F0804F1160540462946F0
:105980001EF0B6FAD0B1D4F81630C4F80F30638BDD
:10599000207CE17BA4F8133001EB0021E57C607CE6
:1059A000237F01EB00410095A07C2568637501EB26
:1059B0000061237D2046627D6D6BA8473D46F378EC
:1059C000212B08BF0125284602B0BDE8F081002543
:1059D000F9E710B50446FFF741FEFFF707FE217B0C
:1059E00007F0F2FD04F1850304F17C00C4F888326D
:1059F0000023C4F88C3284F8843006F05CFE94F8FE
:105A000084302BB923682046DB6BBDE81040184773
:105A100010BD000070B50446FFF720FED4F8A05476
:105A20002DB140F2DD120F490F4809F095FD04F247
:105A30009923C4F89C34FFF7D9FD617B07F022FD60
:105A400084F89852C4F8A00404F5247006F033FEDC
:105A500094F898322BB9236820469B6BBDE87040C0
:105A6000184770BDC7D7060830D7060802232DE9AE
:105A7000F041437100230446054683609046144B71
:105A800004F17C0645F8703B284606F007FE3046D8
:105A900006F004FE04F52477384606F0FFFDC4F84E
:105AA000A484FFF7A3FD2146FFF758FD0CE038461C
:105AB00006F04CFE304606F049FE284606F046FE4B
:105AC0001BF0B4F9F6E7F8E72046BDE8F08100BF27
:105AD000ECD7060870B504460D46FFF7BFFD84F805
