:100000000C947B010C94A3010C94A3010C94A30108
:100010000C94A3010C94A3010C94A3010C94A301D0
:100020000C94A3010C94A3010C94A3010C94A301C0
:100030000C94A3010C94A3010C94A3010C94A301B0
:100040000C942A050C94A3010C949A050C94740545
:100050000C94A3010C94A3010C94A3010C94A30190
:100060000C94A3010C94A3015B4E414E4F5D2030D4
:100070003A20646574656E657220792064657368E2
:100080006162696C69746172206D6F64756C6F2E4A
:10009000203F3A206D656E752E005B4E414E4F5DE0
:1000A00020323A207265746F726E6F2065737461CE
:1000B0007469636F2C20636F6D7061726120524FA1
:1000C00020636F6E20444920636164612035207392
:1000D0002E005B4E414E4F5D20313A2073616C69BA
:1000E000646120412F422C20444920616C74657268
:1000F0006E612063616461203520733B206D65640F
:10010000697220412D422E005B4E414E4F5D2051C1
:100110007569746172207075656E74652044452D33
:100120002F52453B20412F422073696E20506F7241
:1001300074656E74612E000A5B4E414E4F5D204D1A
:100140004158343835206169736C61646F2E2044E6
:10015000323D524F2044333D44492044343D4445D0
:100160002044353D2F52452E00000000002300267C
:100170000029003B204E4F5F434F494E43494445C1
:10018000003B204F4B5F455354415449434F003B84
:100190002066616C6C6F733D003B206C6563747509
:1001A0007261733D004C4F570048494748003B205F
:1001B000524F204C4549444F3D003B20412D4220A9
:1001C000657370657261646F204E454741544956AE
:1001D0004F003B20412D4220657370657261646F52
:1001E00020504F53495449564F004C4F5720287EBA
:1001F00030205629004849474820287E3520562976
:10020000005B4E414E4F5D204449204F5244454EC5
:1002100041444F3D005B4E414E4F5D2053414C49A0
:1002200044413A2044453D48494748202F52453DE6
:10023000484947483B206E6F206576616C75617256
:1002400020524F2E005B4E414E4F5D205245544F81
:10025000524E4F3A2044453D48494748202F524589
:100260003D4C4F572E005B4E414E4F5D2044455450
:10027000454E49444F3A2044453D4C4F57202F525C
:10028000453D484947482044493D4C4F573B205243
:100290004F20616C746120696D706564616E636983
:1002A000612E0000000000240027002A000000004A
:1002B00000250028002B00040404040404040402A4
:1002C00002020202020303030303030102040810F3
:1002D00020408001020408102001020408102000C0
:1002E00000000800020100000304070000000000F5
:1002F00000000000D00611241FBECFEFD8E0DEBF03
:10030000CDBF11E0A0E0B1E0EEE4FEE002C0059058
:100310000D92A631B107D9F721E0A6E1B1E001C005
:100320001D92AA3CB207E1F711E0CBE7D1E004C08F
:100330002197FE010E941F07CA37D107C9F70E9403
:10034000CC050C9425070C940000833081F028F430
:10035000813099F08230A9F008958730A9F0883073
:10036000C9F08430B1F4809180008F7D03C080910A
:1003700080008F7780938000089584B58F7784BD47
:10038000089584B58F7DFBCF8091B0008F778093E7
:10039000B00008958091B0008F7DF9CF1F93CF9367
:1003A000DF93282F30E0F901E152FD4F8491F901EC
:1003B000E553FD4FD491F901E954FD4FC491CC238D
:1003C000A9F0162F81110E94A501EC2FF0E0EE0F8D
:1003D000FF1FE355FD4FA591B4918FB7F894EC91B1
:1003E000111108C0D095DE23DC938FBFDF91CF9130
:1003F0001F910895DE2BF8CFCF93DF9390E0FC019F
:10040000E553FD4F249189549D4FFC01849188232D
:10041000D1F090E0880F991FFC01ED55FD4FA5919B
:10042000B491FC01E355FD4FC591D49161110EC00B
:100430009FB7F8948C91E22FE0958E238C932881BE
:10044000E223E8839FBFDF91CF9108958FB7F8949F
:10045000EC91E22BEC938FBFF6CF3FB7F8948091ED
:10046000290190912A01A0912B01B0912C0126B570
:10047000A89B05C02F3F19F00196A11DB11D3FBFDC
:10048000BA2FA92F982F8827BC01CD01620F711DAB
:10049000811D911D42E0660F771F881F991F4A95A5
:1004A000D1F708958F929F92AF92BF92CF92DF9231
:1004B000EF92FF924B015C010E942D026B017C01C7
:1004C0000E942D026C197D098E099F09683E7340B8
:1004D00081059105A8F321E0821A9108A108B108CD
:1004E00088EEC80E83E0D81EE11CF11C8114910433
:1004F000A104B10429F7FF90EF90DF90CF90BF9057
:10050000AF909F908F900895AF92BF92CF92DF925D
:10051000EF92FF920F931F93CF93DF936C017B01B8
:100520008B01040F151FEB015E01AE18BF08C01749
:10053000D10759F06991D601ED91FC910190F081BC
:10054000E02DC6010995892B79F7C501DF91CF917F
:100550001F910F91FF90EF90DF90CF90BF90AF90E1
:100560000895FC01538D448D252F30E0842F90E0B9
:10057000821B930B541710F0CF960895019708959E
:10058000FC01918D828D981761F0A28DAE0FBF2F67
:10059000B11D5D968C91928D9F5F9F73928F90E0BD
:1005A00008958FEF9FEF0895FC01918D828D98172C
:1005B00031F0828DE80FF11D858D90E008958FEF69
:1005C0009FEF0895FC01918D228D892F90E0805C32
:1005D0009F4F821B91098F73992708958DE291E0B7
:1005E0000E94E20221E0892B09F420E0822F089585
:1005F00080E090E0892B29F00E94EE0281110C949A
:1006000000000895FC01A48DA80FB92FB11DA35AB5
:10061000BF4F2C91848D90E001968F739927848F22
:10062000A689B7892C93A089B1898C918370806445
:100630008C93938D848D981306C00288F389E02DE6
:1006400080818F7D80830895EF92FF920F931F9397
:10065000CF93DF93EC0181E0888F9B8D8C8D981375
:100660001AC0E889F989808185FF15C09FB7F89481
:10067000EE89FF896083E889F989808183708064CD
:1006800080839FBF81E090E0DF91CF911F910F9118
:10069000FF90EF900895F62E0B8D10E00F5F1F4F27
:1006A0000F731127E02E8C8D8E110CC00FB607FC36
:1006B000FACFE889F989808185FFF5CFCE010E94C4
:1006C0000203F1CFEB8DEC0FFD2FF11DE35AFF4F2D
:1006D000F0829FB7F8940B8FEA89FB898081806252
:1006E000CFCF0F931F93CF93DF938C01D0E0C0E067
:1006F000F801EC0FFD1F6491662341F08DE291E05B
:100700000E942403892B11F02196F2CFCE01DF91B4
:10071000CF911F910F910895CF93DF93EC01888DB6
:100720008823B9F0AA89BB89E889F9898C9185FD6C
:1007300003C0808186FD0DC00FB607FCF7CF8C91FA
:1007400085FFF2CF808185FFEDCFCE010E940203AD
:10075000E9CFDF91CF9108958F929F92AF92BF9290
:100760000F931F93CF93DF93CDB7DEB7A1970FB64B
:10077000F894DEBF0FBECDBF19A2423008F44AE0A4
:100780008E010F5D1F4F842E912CB12CA12CA50141
:1007900094010E94FD06E62FB901CA01EA3044F532
:1007A000E05DD801EE938D01232B242B252B79F7C7
:1007B00090E080E0109769F0FD0101900020E9F7DA
:1007C0003197AF014A1B5B0BBD018DE291E00E94A6
:1007D0008402A1960FB6F894DEBF0FBECDBFDF91A5
:1007E000CF911F910F91BF90AF909F908F900895E0
:1007F000E95CD7CF42E050E062E171E08DE291E048
:100800000C948402CF93DF930E947103EC010E9449
:10081000FA038C0F9D1FDF91CF91089587E391E03C
:100820000E94020488E091E00E94020482ED90E0C0
:100830000E9402048AE990E00E94020488E690E0A7
:100840000C940204CF92DF92EF92FF920F931F93CA
:10085000CF93DF93D82F80931E01682F83E00E94EF
:10086000CE0162E070E080E090E00E94520281E000
:1008700092E00E9471038AEE91E0DD2311F085EF92
:1008800091E00E9471038AEB91E0DD2311F082ED8B
:1008900091E00E94710380912301823009F078C0B9
:1008A000E1EEF2E08491EDECF2E01491E9EBF2E09C
:1008B000C491CC2309F476C081110E94A501EC2FCC
:1008C000F0E0EE0FFF1FE759FE4FA591B491EC91B8
:1008D000E12391E080E009F490E0092F182FC02F68
:1008E000C170C0901A01D0901B01E0901C01F090E3
:1008F0001D018FEFC81AD80AE80AF80AC0921A0137
:10090000D0921B01E0921C01F0921D01DC1799F0BE
:100910008091160190911701A0911801B0911901D1
:100920000196A11DB11D8093160190931701A0930C
:100930001801B09319018EEA91E00E94710385EAD3
:1009400091E00130110511F489EA91E00E947103F0
:1009500083E791E0DC1302C081E891E00E9471031B
:1009600089E991E00E9471034AE0C701B6010E9443
:10097000AC038FE891E00E947103609116017091C1
:10098000170180911801909119014AE00E94AC036F
:10099000DF91CF911F910F91FF90EF90DF90CF905B
:1009A0000C94FA0310E000E09ACFCF93C82F60E0D8
:1009B00084E00E94CE0161E085E00E94CE0160E00B
:1009C00083E00E94CE01C093230110921E01109279
:1009D0001A0110921B0110921C0110921D0110921D
:1009E00016011092170110921801109219012FB7D9
:1009F000F8948091250190912601A0912701B09152
:100A000028012FBF80931F0190932001A093210103
:100A1000B0932201C0912301C11105C086E692E086
:100A2000CF910C94020461E0C23009F460E085E0EB
:100A30000E94CE0161E084E00E94CE0185E192E057
:100A4000C23011F485E492E00E94020480E0CF916C
:100A50000C9422041F920F920FB60F9211242F9321
:100A60003F938F939F93AF93BF9380912501909174
:100A70002601A0912701B09128013091240123E0A3
:100A8000230F2D3758F50196A11DB11D2093240188
:100A90008093250190932601A0932701B09328010C
:100AA0008091290190912A01A0912B01B0912C01F4
:100AB0000196A11DB11D8093290190932A01A09355
:100AC0002B01B0932C01BF91AF919F918F913F91DA
:100AD0002F910F900FBE0F901F90189526E8230FAF
:100AE0000296A11DB11DD2CF1F920F920FB60F9289
:100AF00011242F933F934F935F936F937F938F9323
:100B00009F93AF93BF93EF93FF938DE291E00E9489
:100B10000203FF91EF91BF91AF919F918F917F91D0
:100B20006F915F914F913F912F910F900FBE0F905A
:100B30001F9018951F920F920FB60F9211242F93AA
:100B40008F939F93EF93FF93E0913D01F0913E01CE
:100B50008081E0914301F091440182FD1BC09081AE
:100B6000809146018F5F8F7320914701821741F07A
:100B7000E0914601F0E0E35DFE4F958F80934601E2
:100B8000FF91EF919F918F912F910F900FBE0F903A
:100B90001F9018958081F4CF789484B5826084BDCD
:100BA00084B5816084BD85B5826085BD85B5816071
:100BB00085BD80916E00816080936E0010928100EF
:100BC00080918100826080938100809181008160AA
:100BD000809381008091800081608093800080916B
:100BE000B10084608093B1008091B00081608093F7
:100BF000B00080917A00846080937A0080917A00BE
:100C0000826080937A0080917A00816080937A007C
:100C100080917A00806880937A001092C10060E031
:100C200084E00E94CE0161E085E00E94CE0160E098
:100C300083E00E94CE0161E084E00E94FC0161E05B
:100C400085E00E94FC0161E083E00E94FC0160E01D
:100C500082E00E94FC01E0913D01F0913E0182E0C2
:100C60008083E0913901F0913A011082E0913B01DB
:100C7000F0913C0180E1808310924501E0914101B7
:100C8000F091420186E08083E0913F01F0914001C4
:100C9000808180618083E0913F01F09140018081FB
:100CA00088608083E0913F01F091400180818068FD
:100CB0008083E0913F01F091400180818F7D8083AE
:100CC0006CE271E080E090E00E9452020E940E040B
:100CD00080E00E94D504C0E0D0E08DE291E00E9467
:100CE000E202892BD1F08DE291E00E94C0028133B3
:100CF000910569F024F4C09781F780E009C0823340
:100D0000910549F0CF9749F70E940E04E6CF81E0A4
:100D10000E94D504E2CF82E0FBCF2FB7F8948091F8
:100D2000250190912601A0912701B09128012FBFA4
:100D300020912301222319F140911F01509120019C
:100D400060912101709122018C019D01041B150B02
:100D5000260B370BB901A8014838534161057105CD
:100D600070F080931F0190932001A0932101B09314
:100D7000220190911E0181E089270E94220461E0F6
:100D800070E080E090E00E945202209709F4A5CF25
:100D90000E94EE02882309F4A0CF0E9400009DCF9C
:100DA000EDE2F1E01382128288EE93E0A0E0B0E081
:100DB00084839583A683B78384E091E091838083C5
:100DC00085EC90E09587848784EC90E09787868710
:100DD00080EC90E0918B808B81EC90E0938B828B08
:100DE00082EC90E0958B848B86EC90E0978B868BE1
:100DF000118E128E138E148E0895A1E21A2EAA1B44
:100E0000BB1BFD010DC0AA1FBB1FEE1FFF1FA217BA
:100E1000B307E407F50720F0A21BB30BE40BF50BB7
:100E2000661F771F881F991F1A9469F76095709540
:100E3000809590959B01AC01BD01CF010895EE0F07
:0E0E4000FF1F0590F491E02D0994F894FFCF68
:100E4E000000000024038402B1028C03E202C002FF
:060E5E00D4020D0A0000A1
:00000001FF
