:020000040804EE
:1000000000000824358105088181050875BD0408B4
:100010007BBD040881BD040887BD04080000000002
:100020000000000000000000000000007D3D04080A
:100030008181050800000000173E0408273E0408DF
:100040008181050881810508818105088181050874
:100050008181050881810508818105088181050864
:100060008181050881810508818105088181050854
:100070008181050881810508818105088181050844
:10008000818105088181050881810508399005086D
:100090004990050845900508559005088181050897
:1000A0008181050881810508818105088181050814
:1000B0008181050881810508818105088181050804
:1000C00081810508818105088181050881810508F4
:1000D00081810508818105088181050881810508E4
:1000E00081810508818105080000000081810508E3
:1000F00081810508818105088181050881810508C4
:1001000081810508C17E0508818105088181050876
:1001100081810508818105088181050881810508A3
:100120008181050881810508818105088181050893
:1001300081810508B76C0408818105088181050863
:100140008181050881810508000000000000000091
:100150008181050881810508818105088181050863
:100160008181050881810508818105088181050853
:100170008181050881810508818105080000000052
:100180008181050881810508818105088181050833
:100190008181050881810508818105088181050823
:1001A0008181050881810508818105088181050813
:1001B0008181050881810508818105088181050803
:1001C00081810508818105088181050881810508F3
:1001D00081810508818105088181050881810508E3
:1001E00081810508818105088181050881810508D3
:1001F00081810508818105088181050881810508C3
:1002000081810508818105088181050881810508B2
:1002100081810508818105088181050881810508A2
:100220008181050881810508818105088181050892
:1002300081810508318105088181050881810508D2
:100240008181050881810508818105088181050872
:100250008181050881810508818105088181050862
:100260008181050881810508818105088181050852
:100270008181050881810508818105088181050842
:100280008181050881810508818105080000000041
:10029000818105088181050810B5054C237833B9A3
:1002A000044B13B10448AFF300800123237010BD49
:1002B0006018002400000000F4B7060808B5034BDE
:1002C0001BB103490348AFF3008008BD00000000E4
:1002D00064180024F4B70608154B002B08BF134B15
:1002E0009D46A3F5803A00218B460F461348144AD9
:1002F000121A20F0CDFC0F4B002B00D098470E4B6C
:10030000002B00D098470020002104000D000D486C
:10031000002802D00C480CF0E7FB1FF0BBFF2000C8
:10032000290005F03FFF0CF0F3FD00BF00000800BE
:100330000000082400000000016104086018002487
:10034000D0140124E9CA04080000000030B50144BB
:100350004FF6FF7341F22105884212D010F8014B8D
:10036000082283EA042414F4004F4FEA440302F104
:10037000FF3218BF6B4012F0FF029BB21C46F2D155
:10038000EAE7184630BD013900230144184611F848
:10039000012F9A400833202B40EA0200F7D1704722
:1003A00001390023084422FA03F10833202B00F816
:1003B000011FF8D170470000F0B51D4689B0234BEE
:1003C000174604460A46009303230E468DF805009F
:1003D000062168468DF80430FFF7E2FF3A460A210D
:1003E0006846FFF7DDFF2A460E216846FFF7D8FF73
:1003F00005F1320212213A4422443244D2B20DF8BD
:100400000120013111321E29D2B2F8D16846FFF71E
:100410009DFF8DF81E0000128DF81F004FF4FA604A
:1004200003F072FB0A4801F001F8094800F0D0FF20
:1004300020226946064803F087FA054800F0D9FFF4
:10044000034800F0EBFF09B0F0BD00BF523438356F
:10045000901C002473B54FF4E1314A4801F0E2FEEC
:10046000484D03F031FB40F6C3160446284601F020
:1004700013FD40B903F028FB001BB04203D80A204B
:1004800003F040FBF2E7002003F0F0FA0021C0B2D5
:1004900003F000FC892003F0E9FA0021C0B203F068
:1004A000F9FB182003F0E2FA0121C0B203F0F2FBDD
:1004B0007D2003F0DBFA0121C0B203F0EBFB6920E1
:1004C00003F0D4FA0021C0B203F0E4FB0A2003F0E9
:1004D000CDFA0121C0B203F0DDFB092003F0C6FA1A
:1004E0000121C0B203F0D6FB8F2003F0BFFA002138
:1004F000C0B203F0CFFB8E2003F0B8FA0021C0B2E7
:1005000003F0C8FB6E2003F0B1FA0121C0B203F082
:10051000C1FB0A2003F0AAFA0121C0B203F0BAFB22
:10052000092003F0A3FA0121C0B203F0B3FB8E202F
:1005300003F09CFA0121C0B203F0ACFB692003F088
:1005400095FA0121C0B203F0A5FB4FF4FA7340F213
:1005500013424FF41651009332230B4800F0C8FEAB
:10056000094800F05BFF03F0AFFA084B0849186038
:10057000044803F01FFA0749024802B0BDE8704082
:1005800003F018BA1C300024901C0024D01800245A
:10059000BA600608126106082DE9F04F804C89B058
:1005A000804E304600F092FE002800F01F81304659
:1005B00000F094FE6368C5B201336360E36A202BE8
:1005C00006D179491F22481E20F0FEFA1F23E3625C
:1005D000E36A5A1C2344202AE2621D73E1D10422FB
:1005E0007249734820F024FA0028DAD1237C032BC7
:1005F00040F09680657C6B1E042B00F291801E21DA
:100600006B48FFF7A3FE94F82B2094F82A3043EAB6
:100610000223834240F0848006216548FFF7B3FE41
:1006200007460A216248FFF7AEFE07440E216048E4
:10063000FFB2FFF7A8FE5F4A3D442844C0B200F174
:1006400032030238DBB2C0B212F8011F994267D1FF
:100650001133DBB28342F7D1554E6D460FCE0FC535
:1006600096E80F0085E80F00002306216846524DEA
:10067000E362A3680133A360FFF785FE0A21074602
:100680006846FFF780FE0E2106466846FFF77BFEB0
:100690002A788246012A47D19DF805B0BBF1020FA6
:1006A00042D1DFF83091D9F80020BA423CD1434919
:1006B0000968B14238D1524536D1DFF81C8103F0C8
:1006C00003FAD8F80020801AB0F5FA7F2CD23C4A01
:1006D0003C4913683C480133136003F05EF90A2279
:1006E000D9F80010384803F08CF93849364803F03F
:1006F00054F903F0E9F9D8F800100A22411A3248F7
:1007000003F08EF9D9F80030002203201946FFF7D4
:1007100053FE03F0D9F985F800B0C8F800003FE7B0
:100720002368013323603CE72A78022A04D0284A50
:1007300013680133136033E79DF80520042AF6D1CE
:10074000244A12685245F2D103F0BEF9224A1268D7
:10075000801AB0F5FA7FEAD22049534605200A688C
:1007600001320A6032463946FFF726FE00231C4953
:1007700015482B7003F011F90A223946124803F08C
:1007800040F91849104803F008F931460A220E488A
:1007900003F037F914490C4803F00CF900E700BFE7
:1007A00094180024901C0024A11800240C5F060853
:1007B000A0180024B118002484180024D81800249C
:1007C0007C180024115F06081C300024445F0608D2
:1007D00088180024901800248C180024C4180024C1
:1007E000545F06087F5F0608895F06085B4C03F0CC
:1007F0006BF905462278C2B1594B1B68C31AB3F591
:10080000FA7F12D3012A40F0A380564A5649136852
:1008100001331360554803F0C0F8554B0A22534882
:10082000196803F0FDF8002323702378002B32D1E0
:10083000DFF88C81D8F80030EB1AB3F57A7F2AD331
:100840004B4E03F041F94B4F0246336838600120AC
:10085000013319463360FFF7AFFD03F035F9404B24
:10086000454A18600123C8F8000023701368434903
:1008700001333E48136003F090F80A2231683B4888
:1008800003F0BFF83E49394803F087F80A22396877
:10089000364803F0C5F83B4A42F20F711368EB1A71
:1008A0008B424FD938493148156003F076F8324B06
:1008B0000A222E48196803F0A4F834492B4803F0A3
:1008C0006CF8334B0A222948196803F09AF8314929
:1008D000264803F062F8304B0A222448196803F0D6
:1008E00090F82E49214803F058F81E4B0A221F4861
:1008F000196803F086F82A491C4803F04EF8294B82
:100900000A22294C1968194803F07BF8274917482F
:1009100003F043F80A226168144803F072F824498E
:10092000124803F03AF80A222168104803F069F8E7
:1009300020490E4803F031F81F4B0A220B48196872
:1009400003F06EF8012003F0DDF809B0BDE8F08F88
:10095000144A1A491368013313605BE784180024B2
:100960008C180024C8180024965F06081C30002448
:1009700090180024D818002480180024FC5F060872
:1009800024600608D4180024326006084D6006086A
:100990007C18002463600608C41800246D600608F3
:1009A00080600608CC18002494180024956006087E
:1009B000A0600608AC60060888180024C75F060817
:1009C000D0180024704710B504461C300AF0C8F94E
:1009D000204610BD10B504460AF0C2F9204610BDED
:1009E00010B504466C3007F021FB04F1480007F015
:1009F0001DFB04F1240007F019FB204607F016FB4D
:100A0000204610BD38B504460D461C22002120F0BA
:100A10003FF9204629460AF01FFA204638BD00005B
:100A200038B504463421FFF7EDFF352104F11C00F1
:100A3000254DFFF7E7FF432104F13800FFF7E2FF00
:100A4000632104F15400FFF7DDFF372104F170004A
:100A5000FFF7D8FF762104F18C00FFF7D3FF972131
:100A600004F1A800FFF7CEFF7F2104F1C400FFF7D7
:100A7000C9FF7A2104F1E000FFF7C4FF042104F16B
:100A8000FC00FFF7BFFF082104F58C70FFF7BAFFE9
:100A9000262104F59A70FFF7B5FF2A4640F6230198
:100AA00004F5A87006F054FF2A4640F6220104F52A
:100AB000E07006F04DFF2A4640F6010104F50C7087
:100AC00006F046FF204638BD0000C07F10B5044642
:100AD0001221FFF797FF862104F11C00FFF792FF18
:100AE000792104F13800FFF78DFF992104F15400BA
:100AF000FFF788FF422104F17000FFF783FF832195
:100B000004F18C00FFF77EFF822104F1A800FFF7BB
:100B100079FF332104F1C400FFF774FF0E2104F1C3
:100B2000E000FFF76FFF204610BD10B50446A4306B
:100B300007F0CCF904F1540007F0C8F9201D07F0C4
:100B4000C5F9204610BD10B5044600F58470FFF7C6
:100B5000ECFF2046FFF7E9FF204610BD10B5044624
:100B600000F59C7006F082FF204610BD2DE9F34190
:100B70004FF47A73002504464FF48072C56129460C
:100B800004F59C76058404F52677C0E90153224BD1
:100B900003602023C0E905358923283020F8063C6E
:100BA0004FF6FF7320F8043C20F8023C20F070F868
:100BB000C4F8285184F834517D22C4F82C511821EE
:100BC000C4F83051304606F0F3FE284602F04EFFDE
:100BD00005468D2002F04AFF80468A2002F046FF3B
:100BE000009043462A462146384600F0DDFB04F5D6
:100BF00033731C220021184620F04AF800220D21F0
:100C00000AF014F904E0304606F030FF1CF0FCFE58
:100C1000204602B0BDE8F081B862060837B506216B
:100C20004F4800F0D7F84F4A07214F4800F034FAF8
:100C300036214E48FFF7E6FE84214D48FFF7E2FEDD
:100C40006A214C48FFF7DEFE2F214B48FFF7DAFE02
:100C50004A48FFF78BFF4A4A4A4948480BF042FF8F
:100C60004948FFF7DDFE464A484947480BF03AFF3E
:100C70009B21474807F0BCF9A121464807F0B8F985
:100C80006721454807F0B4F92721444807F0B0F937
:100C9000002401253A4A42493D480BF023FF7B23BB
:100CA0007C2298213F48CDE9004500F04DF99A2378
:100CB00087222D213C48CDE9004500F045F90CE0A4
:100CC000354807F0B3F9334807F0B0F9304807F07A
:100CD000ADF91CF099FEF6E7F8E7294A33493148A7
:100CE0000BF000FF3248FFF7F1FE324800F004FA43
:100CF000314800F001FA7E213048FFF783FE30488A
:100D000000F0C8F91C2200212D481FF0C1FF01226C
:100D100019212B480AF088F8194A2A4928480BF06B
:100D2000E1FE1C22002128481FF0B2FF00221E21F4
:100D300025480AF07BF81C22002124481FF0A8FF58
:100D40001F2122480AF06DF80D4A21491E4803B0C0
:100D5000BDE830400BF0C6BE1248FFF7E6FEB8E72C
:100D60006C190024242300247419002488190024F9
:100D7000A4190024C0190024DC190024F819002447
:100D8000000000245D0B040864200024C509040849
:100D9000DC18002400190024241900244819002418
:100DA000E1090408541E00245C1F0024470B0408BA
:100DB000381D0024E01C0024341E0024381E0024AA
:100DC000E41C0024D5090408001D00241C1D002477
:100DD000C7090408014A01804260704724230024A7
:100DE000044B054A1A6001221A715A7100229A7145
:100DF000704700BF0423002440420F007047D0F822
:100E000004310133C0F80431704738B5044604306A
:100E100007F02EF8054604F1540007F029F823786E
:100E200040EA4500C4F8FC003BB903281ED1D4F8C1
:100E300000310133C4F8003107E0012B18D1D4F898
:100E4000F830032B04D10028F1D0C4F8F80038BDE5
:100E500013B90328F9D1EAE7022B05D10128F4D10F
:100E6000D4F80031013BE5E7012BEED10228F6E78B
:100E7000022BEAD1D4F8F83080EA0302032AE4D046
:100E80009842E2D083EA6003D4F8002113F0010312
:100E900008BF4FF0FF33D31ACCE70B6803604B68F1
:100EA00043608B6883607047C3680BB19B681847C9
:100EB000704710B50446FFF7F7FF204610BD10B489
:100EC000D0E9003409686210E4075DF8044B01EBD7
:100ED000020044BF8A58D35818470146043008B569
:100EE000FFF7EDFF08BD0000034A0346C26007C9D3
:100EF00083E80700704700BF5861060810B586B048
:100F000004460391684606A980E80C0001E90C003C
:100F1000204603A9FFF7E8FF204606B010BD37B50D
:100F20006C46054684E80C0094E80C00FFF7E6FFE9
:100F3000284603B030BD08B5FFF7CFFF08BD08B5A0
:100F4000FFF7F9FF08BD00002DE9F0470446061D34
:100F50008EB0154604F1540730469A469DF85C90D1
:100F600006F08EFF2946384606F08AFF04F1A408F1
:100F70005146404606F084FF002384F80090304636
:100F8000C4F80031C4F80431169BC4F8F43006F0FC
:100F90006FFF0546384606F06BFF002340EA450028
:100FA0003A4D214601936B460095C4E93E000CCBB7
:100FB0000AA8FFF7B4FF0AA9304606F0A5FF0AA861
:100FC000FFF777FFB9F1000F32D0002302952146D9
:100FD0000AA8039302AB0CCBFFF7A1FF0AA9304686
:100FE00006F0AFFF0AA8FFF764FFB9F1020F1FD1A7
:100FF0000023049521460AA8059304AB0CCBFFF708
:101000008EFF0AA9384606F07FFF0AA8FFF751FFB6
:10101000002306952146079306AB0AA80CCBFFF7E1
:101020007EFF0AA9384606F08CFF0AA8FFF741FFA9
:10103000BAF1FF3F10D0164B21460AA808930023AF
:10104000099308AB0CCBFFF76AFF0AA9404606F0EC
:101050005BFF0AA8FFF72DFF20460EB0BDE8F08722
:101060000AA8FFF726FF404606F030FF384606F094
:101070002DFF304606F02AFF1CF0C6FCF0E7EFE734
:10108000EEE7EDE7EFE7F1E7F3E700BF0B0E04084B
:10109000FF0D040870470000C0E90112054A012154
:1010A00010B5C2600022044C027404604174827462
:1010B00010BD00BF00093D0066660640074B0121D8
:1010C000074A59741A6007225A60064A9A60064A0B
:1010D000DA6000221A749A74704700BF0C2300244F
:1010E000666606402423002400093D00014800F004
:1010F00003B800BF2023002422230370704710B5DB
:10110000C36886B001228DF80F100DF10F01186829
:1011100003680092DC680DF11703A0479DF81700E3
:1011200006B010BDF8B5427A044603680E46CFB249
:101130009B680D0A62B939469847236860F3070631
:1011400029469B682046984760F30F26B0B2F8BD49
:1011500029469847236860F30F2639469B68204646
:10116000984760F30706F1E7C36813B5186803688A
:101170000092DC680B46A04702B010BD7047704774
:101180007047C36810B5044653B1186840B103688E
:101190005B6898470421E0680BF02AFF0023E360B6
:1011A00010BD10B5044618210BF022FF204610BDDB
:1011B000436873B599426D4604460E4685E80600BD
:1011C00005D18268019B534033F07F4311D0E3681F
:1011D00008219DF80420186807F069F9E368314692
:1011E000186807F082F90098A988AA7960602181BF
:1011F000A27202B070BD73B5C568044625B904205B
:101200000BF0C2FEE0600560E3681B6883B94FF035
:10121000FF3674200BF0B8FEB4F91430B4F9102086
:101220000546B4F91210009607F046FAE3681D600F
:1012300002B070BD742128460BF0DAFE1CF0E4FB0E
:1012400038B50A2002F026FC0546082002F022FCF0
:101250000446092002F01EFC094B0A4A012198822B
:1012600018461A60002259725A601A729A72DA602D
:101270001D825C82044A0549BDE838400BF032BC4F
:10128000242300246C610608000000248111040856
:10129000002070470268322313B50093946A40F22D
:1012A0001342A04702B010BD13B504680093134663
:1012B000A46A40F21342A04702B010BD13B5322316
:1012C00004680093A46AA04702B010BD00690368D7
:1012D0001B691847006903689B6918470069036820
:1012E0005B69184700690368DB681847012070478D
:1012F00070B504460D4616460499C5622286026AF8
:10130000002A08BF1A46436A002B18BF194602621A
:1013100041628069002807DB0121C0B202F036FC7F
:101320000021207E02F0B6FCE069002807DB0121E5
:10133000C0B202F02BFC0121207F02F0ABFC0023A5
:1013400020693246294684F828300368BDE8704099
:101350001B6A184710B50446006903685B6A984722
:10136000A069002807DB0021C0B202F093FC002135
:10137000207E02F00BFCE069002809DB0021C0B2EE
:1013800002F088FC207F0021BDE8104002F0FEBB87
:1013900010BD034690F8280018B1186903681B684F
:1013A000184701225A60704770B500254FF47A76CD
:1013B0008361049B456280F82850C0E90156034EC2
:1013C000C0E904120660C0E9073570BDA8610608CF
:1013D00010B504468069002807DBC0B2012102F085
:1013E00059FC206A08B102F08FFB012384F82830F1
:1013F00010BD10B5044600690368DB689847A3690F
:10140000002B07DB606A08B102F07EFB0021207E22
:1014100002F040FC002384F8283010BDC069002889
:1014200003DB0021C0B202F035BC7047C069002860
:1014300003DB0121C0B202F02DBC70470A4B002231
:101440004FF47A7101205A6283F82820C3E9012100
:1014500006491960064919611521C3E905011421DE
:10146000C3E90712704700BF3C230024A8610608A7
:10147000742C00240368C9B21B6818474900002374
:10148000C161C0F82C327047036801211B6B1847FB
:1014900010B403689C6B0123A4465DF8044B6047BD
:1014A000D0F82C32B3F5807F1FBF5A1CC0F82C2215
:1014B000C01880F82C1114BF01200020704770471D
:1014C000C0F830127047C0F834127047D0F8283195
:1014D0002BB1D0F82431184490F8200070474FF019
:1014E000FF30704738B5036804465B6A9847FC20B4
:1014F0000BF04AFDB4F91A20B4F91810054606F0AD
:1015000039FC656138BDFC2128460BF071FD1CF0EB
:101510007BFA38B5D0F82C321446054600F59670A3
:101520001A441844B2F5807F88BFC3F58074224600
:101530001FF0B0FAD5F82C3220462344C5F82C32DF
:1015400038BD38B5044640690D4608B106F02BFB9E
:10155000206920B12946BDE8384006F063BC38BD9B
:1015600007B581F0010100F596720091D0F82C3298
:10157000C169406906F02AFB002814BF0220002040
:1015800003B05DF804FB10B504460AF0CBFED4F8B6
:1015900028410AF0DDFE204610BD10B504460AF0D1
:1015A000C1FED4F82831BBB1D4F82831A3B1D4F8A6
:1015B0002431234493F82000D4F824310133DBB2E2
:1015C000C4F82431D4F82831013BC4F8283104464A
:1015D0000AF0BEFE204610BD4FF0FF34F8E710B50C
:1015E0000446406920B10368DB68984700236361C3
:1015F00023699BB1D4F838020BF0C1FFD4F838024C
:101600000CF021F8D4F8380210B103685B689847F1
:101610009C2120690BF0ECFC0023236110BD70B508
:10162000B2F5807FC2B083F00103044628BF4FF4B7
:10163000807202AE00934900154613464069324657
:1016400006F0E3FAC8B9A84218D0D4F82831B3F5A7
:10165000807F10D0D4F82031325C234483F82020DE
:10166000D4F820310133DBB2C4F82031D4F828316A
:101670000133C4F828310130E5E70025284642B09F
:1016800070BD70B50446C0B00025206906F0D3FBDC
:101690000328FAD8DFE800F05F021E1ED4F83432C7
:1016A00003B19847D4F82C32002BEED00AF03AFE62
:1016B00094F82C6204F59671684632461FF0EAF9F8
:1016C000C4F82C520AF044FE32466946206906F0FE
:1016D000B6FBDAE7F0226946206906F0AEFB064663
:1016E0000AF020FE0022C4F82051C4F82451C4F8A6
:1016F0002851B2421DDAD4F82831B3F5807F18D0D2
:10170000D4F82831B3F5807F11D0D4F820311DF8FA
:101710000210234483F82010D4F820310133DBB2C7
:10172000C4F82031D4F828310133C4F8283101320B
:10173000DFE70AF00DFE236820461B699847002862
:10174000A3DDD4F83062002E9FD0236820461B69A9
:101750009847B04799E702F0E7F996E70022C260A0
:101760007047000038B500254FF47A7304460183B2
:10177000428329464FF48072C0E901530A4BC0E905
:101780000455036020301FF083FAC4F82051C4F8D8
:101790002C522046C4F82451C4F83052C4F82851C1
:1017A000C4F8345238BD00BFFC61060810B50446C9
:1017B0000021FFF7D3FF204610BD10B4D0E900345C
:1017C00009686210E4075DF8044B01EB020044BFB6
:1017D0008A58D35818470146043008B5FFF7EDFF83
:1017E00008BD0000034A0346C26007C983E807003A
:1017F000704700BFDC61060810B586B0044603914F
:10180000684606A980E80C0001E90C00204603A9FF
:10181000FFF7E8FF204606B010BD37B56C46054619
:1018200084E80C0094E80C00FFF7E6FF284603B0BC
:1018300030BD00002DE9F0410368054688B00E4632
:101840005B6A98479C200BF09FFBB5F91A20B5F90D
:101850001810044606F0CCFA710020462C6106F000
:10186000E3FABC200BF090FB04460646234B04F140
:10187000400746F8043B3046FFF798FF0021384602
:101880000BF0F8FD04F1540840460BF091FD1C4BA1
:101890004FF4006218212046009300230BF064FEF1
:1018A000184B294604A8C5F8384202930023039335
:1018B00002AB0CCBFFF7B1FF04A920460BF0FEFEF4
:1018C00010E040460BF0B4FD38460BF0FCFD30460E
:1018D000FFF7EFFABC2120460BF08AFB1CF094F8CE
:1018E000F2E7F4E704A8FFF7E4FA08B0BDE8F081F6
:1018F0009C21F0E704A8FFF7DCFAEFE70C8106086B
:10190000E86106088316040808B5FFF764FF08BD00
:1019100008B5FFF7F9FF08BD10B50B2002F0BAF8C3
:1019200004460C2002F0B6F8214602460748FFF7AD
:1019300019FF162217210648FFF714FF7B227C218E
:101940000448BDE81040FFF70DBF00BF702300241E
:10195000AC250024E82700240020704700207047B1
:1019600030B5A1F11004002500F00F02CD7302394B
:101970000009D3B2092ACCBF373330330B748C4201
:10198000F2D130BD2DE9FF470024061D05468A46E9
:1019900090469946009423464FF0FF32B1213046DD
:1019A000CDE9014406F0A6FC29682846DDE90C23B0
:1019B000CDE9002342464F694B465146B847009453
:1019C00023464FF0FF32C1213046CDE9014406F0F5
:1019D00091FC204604B0BDE8F0872DE9D04F9B462E
:1019E0000368924604469B6ADDE9088998470246E7
:1019F0000B46504659461CF0A9FB134302D0002069
:101A0000BDE8D08F236820469B6A984702460B4664
:101A1000404649461CF09AFB1343F0D11AEB0806E6
:101A2000236820464BEB09079B6B9847B94208BFD8
:101A3000B0422CBF01200020E2E701682DE9F0410F
:101A400014461D46096B0646884702460B4620464B
:101A500029461CF07BFB134302D00020BDE8F08137
:101A6000DDE906233046A71845EB030817F1FF32DE
:101A70003368196B48F1FF33884702460B463846F6
:101A800041461CF063FB1343E7D1336830469B6B40
:101A90009847414508BFB8422CBF01200020DDE730
:101AA0002DE9D04F9B460368924604465B6ADDE908
:101AB0000889984702460B46504659461CF046FB9B
:101AC000134302D00020BDE8D08F236820465B6A14
:101AD000984702460B46404649461CF037FB1343E5
:101AE000F0D11AEB0806236820464BEB09079B6BE5
:101AF0009847B94208BFB0422CBF01200020E2E75E
:101B0000C2207047244830B5037887B0BFF35B8F9D
:101B100013F001041CD10AF0F5FFC8B11F4B662277
:101B20003B211F48CDE903435A23CDE901323D2330
:101B30003C22009357230CF08FFF194C194B164889
:101B400023600BF001F8184A204618490AF0CAFF32
:101B500013480DF0BBF9164D1A22002329461048F0
:101B6000CDE9002300230022FFF70CFF2B78044669
:101B7000B52B04D10F4B01221D600F4B1A70084882
:101B80000DF000F8B4FA84F0400907B030BD024807
:101B90000BF0E2F91BF038FF482A0024005A6202D9
:101BA000502A00245462060800000024691D04081D
:101BB000582C0024040000244C2A002410B50446AC
:101BC0000DF020FE2146FFF7CBFE0DF021FE04F1C3
:101BD0001001FFF7C5FE0DF021FE04F12001FFF713
:101BE000BFFE302010BD000008B54DF6597200212F
:101BF000074814F059F8BFF34F8F0649064BCA68DF
:101C000002F4E0621343CB60BFF34F8F00BFFDE7E8
:101C1000242A002400ED00E00400FA0510B5044673
:101C2000FFF742F9204610BD064B10B5044603608D
:101C3000806A08B109F07AFD201DFFF7EFFF20460A
:101C400010BD00BFE86E060800B5C3B0162217210C
:101C500003A806F08FF84FF4A17302AA1021ADF883
:101C60000830002303A80093022305F0AFFF03A868
:101C7000FFF7DAFF43B05DF804FB03A8FFF7D4FFDA
:101C80001BF0C2FE1D4B01211D4AA62070B51A6033
:101C900001F0C6FF0121A62002F042F8FFF7D4FFB1
:101CA000184B43F2D2021A60FFF72CFF164B1B7839
:101CB00033B1164B1B689A8840F209439A421BD8ED
:101CC000134B9B6D03F46043B3F5004F14D001F048
:101CD000FBFE104D044601F009FF064601F006FF29
:101CE000801BA842FAD901F0EFFE001B642803D044
:101CF000BDE8704018F0ACBE70BD00BF242A0024BF
:101D000000400058004000524C2A002404000024E7
:101D1000004402589F86010010B50446FFF784FF77
:101D2000FC2120460BF064F9204610BD38B5074B66
:101D30000546044645F8BC3B0CF024FF28460BF052
:101D400077FB201D06F016FB204638BD3C8D0608AB
:101D500010B50446FFF7EAFF4FF4027120460BF07E
:101D600047F9204610BD0000034B10B50446036040
:101D7000FFF7DCFF204610BD5462060810B504468C
:101D8000FFF7F2FF4FF4027120460BF031F92046C5
:101D900010BD70B590F8343105461446F3B90368A8
:101DA000DB69984704F4706304F00F02B3F5407FD9
:101DB00004F0F0030CBF07210821302B0CBF0223D5
:101DC0000123012A08D0901E42424241A869BDE881
:101DD0007040006806F098BD0222F7E770BD10B5AC
:101DE00090F8343104462BB9A369186806F0D0FD89
:101DF0000028F9D010BD38B590F834510446A5B983
:101E000083695BB1186848B10368DB689847A369C8
:101E100004211D60A0690BF0EBF8A5610023C4F854
:101E20002831C4F82C31C4F8303138BD13B590F8DE
:101E3000343104466BBBA369186806F07DFD40B3DE
:101E40000AF070FAA36901220DF10701186803680E
:101E50005B699847D4F83031B3F5807F16D0D4F859
:101E60003031B3F5807F11D0D4F828319DF80720A8
:101E7000234483F82820D4F828310133DBB2C4F896
:101E80002831D4F830310133C4F830310AF060FA27
:101E9000D1E702B010BD000008B590F834313BB175
:101EA000012001F02FFE0648BDE8084001F059BAB4
:101EB00082691AB11368003318BF0123184608BDA0
:101EC000E836002470B504460D4601F04AFA30B1F8
:101ED0002368294620461B6CBDE87040184770BD3A
:101EE000A0F59860EEE7000013B590F83431044691
:101EF0008DF807102BB1C9B20B48FFF7E3FF02B012
:101F000010BDA369186806F043FD0028F9D0A36945
:101F100001220DF10701186803681B699847013019
:101F200018BF0120EBE700BFE83600242DE9F0419F
:101F300007468846164601F014FA80B10024A642EE
:101F40000ED9351B08EB04013846B5F5007F28BFD4
:101F50004FF400752A462C4400F044FFEFE7044696
:101F60002046BDE8F081A0F59860DFE770B590F8F5
:101F7000343105460E4614462BB10F48FFF7D6FF05
:101F80000446204670BDAB69186806F001FD0028C4
:101F9000F9D0AB6901211868D0F8883088301B6B04
:101FA0009847AB6922463146186803681B69984711
:101FB000013008BF0024E4E7E836002430B50446C9
:101FC000C3B001F0B9F90546D4F8D835C3F580732C
:101FD000984203DDD4F8D855C5F580752A4601AB83
:101FE00002A9204600F0F5FF019902AB00226D1A0C
:101FF0001D44D4F8D835B3F5807F19D08A4217D064
:10200000D4F8D835B3F5807F10D0D4F8D035A85C9B
:10201000234483F8D004D4F8D0350133DBB2C4F8BC
:10202000D035D4F8D8350133C4F8D8350132E0E7DB
:1020300043B030BD38B5044600F0BCFB2046FFF786
:10204000BDFFD4F8D855204600F0BCFB284638BD6B
:10205000A0F59860EEE7000010B590F83431044622
:102060002BB10648FFF7E6FF0446204610BD0AF0F4
:1020700059F9D4F830410AF06BF9F6E7E836002454
:1020800038B5044600F096FB2046FFF797FFD4F8DA
:10209000D8354BB1D4F8D435234493F8D0542046E6
:1020A00000F090FB284638BD4FF0FF35F7E7A0F56C
:1020B0009860E5E710B590F8343104462BB10B4831
:1020C000FFF7DEFF0446204610BD0AF02BF9D4F8D6
:1020D00030313BB1D4F82C01044494F828400AF084
:1020E00037F9F0E74FF0FF34F9E700BFE836002496
:1020F00038B5044600F05EFB2046FFF75FFFD4F8DA
:10210000D835A3B1D4F8D435234493F8D054D4F8B7
:10211000D4350133DBB2C4F8D435D4F8D835013B1B
:10212000C4F8D835204600F04DFB284638BD4FF0A6
:10213000FF35F7E7A0F59860DAE7000010B590F8F2
:10214000343104462BB11148FFF7D2FF0446204634
:1021500010BD0AF0E7F8D4F830319BB1D4F82C3137
:10216000234493F82800D4F82C310133DBB2C4F8AF
:102170002C31D4F83031013BC4F8303104460AF038
:10218000E7F8E4E74FF0FF34F9E700BFE836002452
:1021900008B54FF4807200211EF07AFD0022C0F8CD
:1021A0000021C0F80421C0F8082108BD10B4D0E90E
:1021B000003409686210E4075DF8044B01EB02008B
:1021C00044BF8A58D35818470146043008B5FFF772
:1021D000EDFF08BD034A0346C26007C983E8070054
:1021E000704700BFA462060810B586B0044603918C
:1021F000684606A980E80C0001E90C00204603A906
:10220000FFF7E8FF204606B010BD37B56C4605461F
:1022100084E80C0094E80C00FFF7E6FF284603B0C2
:1022200030BD000070B590F8343186B004460E46DB
:10223000002B3BD1856925B904200AF0A5FEA061D9
:102240000560A369186850BB8C200AF09DFE3346D8
:10225000B4F922200546B4F9201006F081FEA369E6
:102260001D60B4F92420531C06D0A0690321B4F9E1
:102270002630006806F084FEA3691D68B5B1114BD5
:102280000026214602A800936B4601960CCBFFF76F
:10229000BCFF324602A9284606F0E8FB03E03146BF
:1022A00006F01FFBDDE702A8FEF703FE06B070BDD7
:1022B0008C2128460AF09CFE1BF0A6FB02A8FEF724
:1022C000F8FDF9E72D1E040808B5FFF77DFF08BDEE
:1022D00008B5FFF7F9FF08BD2DE9F84300242D4D9F
:1022E0004FF47A782C4F202605F128002F60EC61FE
:1022F000C5E90148C5E90564FFF74AFF01230E203F
:1023000085F8343101F0C6FB244D81460D2001F0E3
:10231000C1FBA5F820904FF6FF79688405F12800ED
:102320002F60EC61A5F82490A5F82690C5E9014836
:10233000C5E90564FFF72CFF85F834410F23184DDC
:102340002B84562305F128002F606B845823EC6101
:10235000AB845923C5E90148EB84C5E90564FFF75F
:1023600017FF85F8344198230E4D2B84992305F1EE
:1023700028002F60EC616B84A5F82490A5F82690C6
:10238000C5E90148C5E90564FFF702FF85F8344156
:10239000BDE8F8831C300024B8620608742C0024C1
:1023A000AC2D0024E42E00240020704770477047B5
:1023B00010B5D0F88C452CB123682046DB6A9847CD
:1023C000A468F8E710BD38B50D46D0F88C4534B197
:1023D000236820462946DB689847A468F7E738BD9C
:1023E0000048704778630608054B10B50446036043
:1023F00008F03BF8204608F049F9204610BD00BF20
:10240000F862060810B50446FFF7EEFF4FF4B2611C
:1024100020460AF0EDFD204610BDF7B50023054625
:102420000E46D0F88C45A4B1236831460DF1030265
:1024300020461F6901ABB8479DF8031003460429E5
:1024400005D0019A284607F01FFB03B0F0BDA46831
:10245000E9E7019A9DF80310F4E770B505460E46CA
:1024600022B10021BDE8704007F01AB9D0F88C45C0
:102470005CB123680022314620465B69984710B161
:1024800001212846EEE7A468F2E72146F9E770B596
:102490000E460546D0F88C4500213CB123683146F4
:1024A00020469B699847A4680146F6E72846BDE8A0
:1024B000704007F0E9B9F8B505460E461746D0F862
:1024C0008C453CB1236820463A463146DB69984743
:1024D000A468F6E728460121BDE8F84007F032BAC3
:1024E00070B5002186B0044607F019FC00234FF4B4
:1024F0008975A188EF26ADF806302389ADF8045020
:1025000002258DF810301B0AE2888DF8113040F258
:1025100001238DF80750ADF8123040F203138DF807
:1025200009500125ADF8143004F10A038DF8086054
:1025300005AE8DF80A501C468DF80C1001AD090A45
:102540008DF80E20120A8DF80B008DF80D108DF805
:102550000F202A46083303CAB24243F8080C43F856
:10256000041C1546F5D1128820461A8006B070BDAD
:10257000F8B5002406460D46274630461FF080F881
:10258000A04207D9335D05F8143005EB440301344C
:102590005F70F2E7400000F0FE00F8BD38B5044679
:1025A000D0F88C5535B12B6828465B6A984710B92E
:1025B000AD68F7E7284640F2023304F24A51A4F826
:1025C0004835FFF7D5FF94F84835184484F8480596
:1025D00004F5A96038BD000040F2023300F20A5150
:1025E00010B50446A0F808350548FFF7C1FF94F878
:1025F0000835184484F8080504F5A16010BD00BF33
:10260000E462060840F2023310B50446A0F8C8346C
:1026100000F2CA40FFF7D2FA94F8C834184484F89C
:10262000C80404F5996010BD2DE9FF4100231D4A3F
:10263000044600F54E788DF80A30092590F8883563
:102640000192FA228DF8083001238DF80C208DF8C4
:102650000930C0238DF80B3001AB03CBC4F838032D
:10266000C8F8041088F80820D4F88C658EB1336857
:10267000002130469B689847478805F54E7300F166
:102680000901093FE0183A463D441EF003FAB668D6
:10269000ECE784F83A5340462D1284F83B5304B0DB
:1026A000BDE8F0810902FFFF73B504460D461646EA
:1026B00016F032FC4FF4807301462A462046009300
:1026C000334607F09FFF024B2046236002B070BDE7
:1026D000F862060810B5D0F88C350446A3B9C0F8E6
:1026E0008C1594F8883508464A790B7194F888352A
:1026F000134484F888350B689B6A984723891844EB
:102700002081012010BD13469A68002AFBD19960F0
:10271000E7E71FB5044607F0FDFA0146684606F0F4
:10272000F7FC4021684606F065FDD4F88C4534B1CD
:102730002368694620461B6A9847A468F7E76846FD
:1027400006F0EDFC04B010BD684606F0E8FC1BF096
:102750005BF910B50446FFF7DCFF2046BDE81040EA
:1027600007F0BFBA0F4808B50378BFF35B8FDB07EC
:1027700011D40AF0C7F970B140F25B2242F2413144
:102780000948FFF791FF07480AF0DEF9074A0849B0
:1027900005480AF0A7F9044808BD02480AF0DCFB26
:1027A0001BF032F954310024583100240000002479
:1027B000E923040810B5FFF7D5FF0368BDE8104012
:1027C0005B6F184710B5FFF7CDFF0368BDE81040F9
:1027D0009B6F184710B5FFF7C5FF0368BDE81040B1
:1027E000DB6F184706F03CBE06F050BE06F028BE70
:1027F000704770477047436A93F878007047D0F885
:10280000A40470470120704700487047E46406083C
:102810002DE9F04794B004460F464B22002101A851
:102820001EF036FA2679D4F8A434751C94F80E906C
:10283000002B94F80C80EDB294F80DE014BF052045
:102840000020002F40F0938040F2092309218DF8E9
:102850001D0042F20540ADF804304FF481738DF84D
:1028600015100121ADF808308023ADF81E001020AE
:102870008DF80B3032234FF0040A24278DF80C30EA
:1028800008234FF0030C4B228DF80D300B238DF8ED
:1028900019101D348DF80E3040F202238DF81C10F3
:1028A000ADF8103002238DF8210005208DF822109C
:1028B0008DF825108DF8271006218DF806208DF84B
:1028C0000F608DF812308DF817608DF81A308DF882
:1028D0001B308DF823008DF826C08DF82A308DF836
:1028E0002B108DF82C008DF816A08DF824708DF823
:1028F00028A08DF829708DF82D708DF82E100721E5
:102900008DF82F6041F202068DF831108DF84110DC
:1029100040F207518DF83050ADF8366040F209466C
:102920008DF83A5040F602258DF832008DF84200BD
:102930002046ADF848100DEB0A018DF833908DF864
:1029400034C0ADF83860ADF83C508DF843808DF858
:1029500044308DF846308DF84AE08DF84B308DF8D4
:102960004D301EF097F8204614B0BDE8F0870020E7
:10297000FAE700000A4B10B504460360FFF7F2FEC9
:1029800007F073FD04F5247006F0CEFC04F17C0022
:1029900006F0CAFC04F1700006F0C6FC204610BD2B
:1029A000A464060810B50446FFF7E4FF4FF49561F0
:1029B00020460AF01DFB204610BDFFF70BBF0000AC
:1029C000034B10B50446036006F06AFB204610BDB9
:1029D000C063060810B50446FFF7F2FF2821204621
:1029E0000AF006FB204610BD034B10B504460360F9
:1029F00006F056FB204610BD9063060810B504464D
:102A0000FFF7F2FF342120460AF0F2FA204610BD0B
:102A1000034B10B50446036006F042FB204610BD90
:102A2000A863060810B50446FFF7F2FF38212046D8
:102A30000AF0DEFA204610BD38B51E4B0D4604469E
:102A40004FF400721968C0F80F1099889B79A0F8AC
:102A5000131002214375284606F0C2FB4FF40072A2
:102A600020730221284606F0C0FB4FF40072607309
:102A70000321284606F0B4FBA073284606F050FB5D
:102A800020B9AF220C490D4809F054FB04F185022E
:102A90000023C4F8882204F2992284F8783084F85C
:102AA0008430C4F88C3284F89832C4F89C24C4F87A
:102AB000A03438BDDC6306087F6406088A64060813
:102AC0002DE9F34104460E461546FFF783FEF288D2
:102AD00023799A4237D1002D35D17778012F2ED125
:102AE000F378202B27D13289072A24D104F10F084B
:102AF00004F11605404629461DF09AFFD0B1D4F8DE
:102B00001630C4F80F30638B207CE17BA4F81330BF
:102B100001EB0021E57C607C237F01EB0041009507
:102B2000A07C2568637501EB0061237D2046627DF2
:102B30006D6BA8473D46F378212B08BF0125284639
:102B400002B0BDE8F0810025F9E710B50446FFF7B3
:102B500041FEFFF707FE217B07F024FB04F185030C
:102B600004F17C00C4F888320023C4F88C3284F865
:102B7000843006F08EFB94F884302BB9236820460D
:102B8000DB6BBDE81040184710BD000070B504466F
:102B9000FFF720FED4F8A0542DB140F2DD120F490A
:102BA0000F4809F0C7FA04F29923C4F89C34FFF7E0
:102BB000D9FD617B07F054FA84F89852C4F8A00458
:102BC00004F5247006F065FB94F898322BB923685D
:102BD00020469B6BBDE87040184770BD7F640608B7
:102BE000E863060802232DE9F041437100230446FF
:102BF000054683609046144B04F17C0645F8703B13
:102C0000284606F039FB304606F036FB04F52477FB
:102C1000384606F031FBC4F8A484FFF7A3FD214633
:102C2000FFF758FD0CE0384606F07EFB304606F014
:102C30007BFB284606F078FB1AF0E6FEF6E7F8E79D
:102C40002046BDE8F08100BFA464060870B50446C4
:102C50000D46FFF7BFFD84F87850002D3ED194F863
:102C6000843033B1FFF77EFD217B07F073F884F8E1
:102C7000845004F1850304F17C0600253046C4F835
:102C80008832C4F88C5206F004FB304606F0FAFA9B
:102C900028B94FF4A2721449144809F04BFA94F879
:102CA000983233B1FFF75EFD217B07F053F884F8CB
:102CB000985204F2992304F52475C4F89C34002337
:102CC0002846C4F8A03406F0E4FA284606F0DAFAFA
:102CD00020B94FF4A77204490548DEE704F17000FB
:102CE000BDE8704006F0D5BA7F640608F6630608B2
:102CF0000764060810B50446FFF76CFD0021204666
:102D0000BDE81040FFF7A2BF38B50D460446FFF7F7
:102D100061FD042D05D020460021BDE83840FFF7B5
:102D200095BF38BDF8B5164604460D461F46FFF759
:102D300051FD0423EA88337023799A4225D16978BA
:102D4000012922D1EA78212A08D0222A0BD0202A70
:102D50004FF000001BD13070163401E00F34317099
:102D600007203C60F8BDAB88204613F0010308BF84
:102D70001946FFF76BFFAB8803F00103E366AB88EE
:102D800003F00203A366022333700020EAE7032363
:102D90003370E7E710B58AB00446FFF70BFD6846CD
:102DA00006F06EF90D4B694604F17000009309942A
:102DB00006F087FA2046FFF705FD094B002168461B
:102DC0001A6806F023F96846FFF7FAFD0AB010BD4D
:102DD0006846FFF7F5FD1AF017FE00BFC06306084E
:102DE000E463060870B58EB004460E461546FFF73C
:102DF000E1FC01A806F044F9114B01A904F17C00A3
:102E0000019300230C958DF83430CDE90A4606F085
:102E100058FA2046FFF7D6FC0A4B002101A81A6891
:102E200006F0F4F804E001A8FFF7DEFD1AF0ECFD6F
:102E30009DF8344001A8FFF7D7FD20460EB070BDC5
:102E400090630608E463060810B50446FFF7C2FC69
:102E500094F884307BB9D4F88C3263B1FFF782FCEC
:102E6000D4F88C3204F18502217B07F039F910B1D6
:102E7000012384F8843010BD2DE9F8431E46044632
:102E8000894690469DF82070FFF794FC002333603C
:102E900094F87830E3B194F88430CBB9D4F88C52FC
:102EA000C5F50075454528BF4546B8F1000F05D06A
:102EB0002A464946D4F888021DF0ECFDD4F88C323D
:102EC0002B44C4F88C32356017B12046FFF7BCFFA5
:102ED0002046BDE8F843FFF775BCF0B50446406AEC
:102EE00085B0012690F878502DB984F830503546D9
:102EF000284605B0F0BD04AB0027D4E90A1243F818
:102F0000047D0096FFF7B8FF0399E36AA26A5B1A93
:102F10000A44E362A26213B984F83060E8E7606AA9
:102F20003D46FFF791FFE3E72DE9F0431C4691B0E2
:102F3000054689469046FFF73DFC002C4FF0000601
:102F400002A806BF01AC01270027266006F098F80A
:102F5000134B02A905F5247002938DF83C708DF88F
:102F60003D60CDE90B59CDE90D8406F0AAF928465C
:102F7000FFF728FC0B4B314602A81A6806F046F80A
:102F800004E002A8FFF744FD1AF03EFD9DF83D4025
:102F900002A8FFF73DFD204611B0BDE8F08300BF59
:102FA000A8630608E463060810B5D0F8A034044608
:102FB00073B990F898325BB9FFF7D4FB4FF4007304
:102FC00004F29922617B06F0EDFF012384F8983228
:102FD00010BD70B504461E4600230846336094F8C1
:102FE0007830EBB194F89832D3B9D4F8A054D4F82F
:102FF0009C14954228BF15462A461DF04BFD3560AE
:10300000D4F89C34D4F8A0242B44551BC4F89C3429
:10301000C4F8A05425B92046BDE87040FFF7C4BFEE
:1030200070BD37B50446406A90F878502DB984F8E1
:1030300035500125284603B030BD02AB002243F8CD
:10304000042DD4E90A12FFF7C4FF0199A26A0A44C9
:10305000A262226B13680B4413600199E36A5B1A46
:1030600094F83410E36209B9126802B91BB901235C
:1030700084F83530DEE7606A0025FFF795FFD9E771
:1030800010B50446FEF792FB204610BD10B4D0E9FF
:10309000003409686210E4075DF8044B01EB02009C
:1030A00044BF8A58D35818470146043008B5FFF783
:1030B000EDFF08BD034A0346C26007C983E8070065
:1030C000704700BFD063060810B586B00446039170
:1030D000684606A980E80C0001E90C00204603A917
:1030E000FFF7E8FF204606B010BD37B56C46054631
:1030F00084E80C0094E80C00FFF7E6FF284603B0D4
:1031000030BD0000F0B58BB00546FFF763FB06ACA1
:10311000FFF728FBAF7B064600212046FFF7B0FFF4
:10312000009403234FF400723946304607F000FA4A
:103130002046FDF7BEFEFFF715FB234B06462F7B0F
:103140000293002329462046039302AB0CCBFFF7E2
:10315000CCFF009402234FF400723946304607F04A
:10316000E7F92046FDF7A5FEFFF7FCFA174B0646E8
:103170006F7B0493002329462046059304AB0CCBB8
:10318000FFF7B3FF009402234FF400723946304634
:1031900007F0CEF906E02046FDF78BFE1AF034FC6E
:1031A000F9E7F8E72046FDF784FEFFF7DBFA4FF476
:1031B0000073D5F89C24697B06F0F4FE012085F8A5
:1031C00098020BB0F0BD00BF4B2B04088D2B0408F8
:1031D00008B5FFF769FF08BD08B5FFF7F9FF08BD9F
:1031E0006FF01500704700290CBF6FF01800002029
:1031F0007047012070476FF0150070476FF01500A1
:1032000070471120704770477047704703689B6C88
:103210001847A0F59860F9E7704770477047704706
:1032200010B50446012000F06DFC94F8780010BD44
:10323000A0F59860F4E7000038B54FF0FF320123A5
:10324000FF210B480AF072F80A4D00F03DFC0446DD
:1032500095F878301BB1012000F054FCF8E700F03D
:1032600033FC001BC728F6D9BDE83840FEF7BCBCCC
:10327000203D0024E836002407B502AB012243F8C4
:10328000041D1946FFF7AEFD18B1019803B05DF8B3
:1032900004FB4FF0FF30F9E7A0F59560FFF7ECBFB6
:1032A00007B5002302A9012201F8013DFFF73CFE0A
:1032B00020B19DF8070003B05DF804FB4FF0FF302C
:1032C000F9E7A0F59560FFF7EBBF2DE9F843044659
:1032D000884617461E46089DFFF77CFAD4F8F095FD
:1032E000B9F1000F04D02B46324639464046C84754
:1032F000C4F8E085C4F8E475C4F8E865C4F8EC5592
:10330000BDE8F883B0F5966F03D10121014809F0BB
:10331000EFBF7047203D0024006870470C307047B5
:1033200008B5FFF7FBFF0023036008BDCB68C3604F
:103330000BB15B681847704738B50546FFF73AFA96
:1033400095F898325BB9D5F8A044B4F5007F28BF52
:103350004FF400742846FFF735FA204638BD0024A4
:10336000F8E790F878007047114B03F1780270B5D8
:1033700003600446C0F8A82400F2F45603F1D80212
:1033800000F23465E833C0F8AC24C0F8C034AE4273
:1033900004D0103D2846FDF78CFDF8E704F5956054
:1033A00008F04AFB2046FFF7E5FA204670BD00BF53
:1033B000BC650608A0F59560FFF7D6BFA0F2AC404B
:1033C000FFF7D2BF10B50446FFF7CEFF4FF4C76139
:1033D000204609F00DFE204610BDA0F2AC40FFF7DC
:1033E000F1BFA0F59560FFF7EDBF00002DE9F743B1
:1033F00004461E468846154615F08EFDBDF82C3055
:1034000004F59567014601932A46BDF82830204609
:1034100000933346FFF7E6FB0021384608F0E2FA56
:103420004FF47A73002504F2F45904F59A60C4F855
:10343000C8342946204B4E46C4F8C45403F17802E0
:103440002360C4F8A82403F1D802E833C4F8AC24FC
:103450004FF48072C4F8C0341DF01AFCC4F8D05583
:10346000C4F8D455C4F8D85504F234653046103643
:10347000FEF79CF9B542F9D10023C4F83436C4F8FC
:10348000F035B8F1000F13D02046FFF783FC0FE0B2
:103490004D4504D0103D2846FDF70BFDF8E73846B2
:1034A00008F0CAFA2046FFF765FA1AF0ADFAF9E714
:1034B000204603B0BDE8F083BC650608884238B5F5
:1034C000044606D00D46FDF7EFFC20462946FFF7DF
:1034D0002DFF204638BD08B5FFF720FF00680030FB
:1034E00018BF012008BD000010B50446FFF7F3FF28
:1034F00028B940F202220649064808F01BFEE0689F
:10350000FFF70AFF03462046BDE81040184700BFFA
:103510009D650608A8650608F8B506460025FFF76C
:1035200059F906F2F454D6F83436AB420AD920469B
:103530002746FFF7D0FF103420B138460135FFF79A
:10354000D3FFF0E7F8BD0000044BC36003460A68F0
:1035500043F8042B002242605A6070470865060851
:1035600013B50446019121B9FFF7DAFE204602B0F7
:1035700010BD01A9FFF7E8FFF8E710B4D0E9003467
:1035800009686210E4075DF8044B01EB020044BFD8
:103590008A58D35818470146043008B5FFF7EDFFA5
:1035A00008BD0000034A0346C26007C983E807005C
:1035B000704700BFFC64060810B586B0044603914E
:1035C000684606A980E80C0001E90C00204603A922
:1035D000FFF7E8FF204606B010BD37B56C4605463C
:1035E00084E80C0094E80C00FFF7E6FF284603B0DF
:1035F00030BD00002DE9F04188B00446FFF7DAF84D
:10360000384B2046C4F8F035FFF7DCF8364B04A8F9
:10361000214602930023039302AB0CCBFFF7DDFF9F
:103620002046FFF7C7F8D4F83406032803D920460C
:10363000FFF7C8F80AE0431C04EB001004A9C4F823
:10364000343600F2F450FFF739FFF0E704A8FDF735
:1036500030FCBC2009F098FC05460646234B05F1DA
:10366000400746F8043B3046FEF7A0F800213846F4
:1036700009F000FF05F15408404609F099FE1C4B83
:103680004FF48072182128460093002309F06CFF44
:10369000184904A8C4F8DC55FFF762FF04A92846BE
:1036A0000AF00CF810E0404609F0C2FE384609F076
:1036B0000AFF3046FDF7FDFBBC21284609F098FCC7
:1036C0001AF0A2F9F2E7F4E704A8FDF7F2FB2046AE
:1036D000FEF774FC08B0BDE8F08104A8FDF7E9FB33
:1036E000EEE7FAE705330408BD1F04080C8106085D
:1036F0001465060839320408A0F59860FFF77ABF10
:103700000368184708B5FFF7FBFF08BD08B5FFF7CA
:1037100042FF08BD08B5FFF7F9FF08BD37B50F4CEC
:103720000F4D204609F0D4FD2A460E49204609F0E7
:10373000D9F942F2120301220B4CCDE900320022EA
:103740004FF4F85320461146FFF750FE2A4607492A
:10375000204603B0BDE8304009F0C4B9203D002444
:1037600000000024F7D20408E83600246933040876
:1037700008B51BF0F1FD2DE9F04F027D85B005463F
:103780000E46012A40F08E8000214FF0FF3B044698
:103790000B465F4694F804C048B2BCF1000F73D1E9
:1037A00094F805C0BCF1000F6ED1B7F1FF3F17BF11
:1037B0000133012338465BB2934201DD1A4683464A
:1037C0000131023408295DD1002402EB0B03A1462C
:1037D0000293CB4502DC029B4B4558DC95F80580F3
:1037E00095F804A04FEA281708F00F080AF00F0315
:1037F0005FEA2A1AFAB201926FD05FFA8AF1BAF13F
:10380000090F30460393D4BF3031573100F0C9F867
:10381000039B0444092B3046039394BF03F130010A
:1038200003F1570100F0BDF80444BAF1000F02D1D2
:10383000039B03B94FB1092F019F3046D4BF3037E6
:103840005737F9B200F0ADF80444B8F1090F30462B
:1038500094BF08F1300108F1570100F0A2F8B9F166
:10386000070F044404D03A21304600F09AF804448B
:1038700009F101090235B9F1080FAAD1204605B0B6
:10388000BDE8F08F074685E74FF0FF3098E7CB455E
:10389000EED1BBF1000FE6D13A21304600F081F8BD
:1038A0000444E0E700F1100700F11309002417F8C1
:1038B000011B0A22304600F0B1F880462E21304626
:1038C00000F06FF8B94540440444F0D10A22E97C85
:1038D000304600F0A3F80444D0E7002B9AD1A9E7C2
:1038E000054B102210B50446036001750021043019
:1038F0001DF0CEF9204610BDD866060870B5074DFC
:103900008374056000259DF810300575456085605D
:10391000C56001744274C37470BD00BFD8660608E8
:1039200007B501210648FFF7DBFF002305481A46CB
:1039300019460093FFF7E2FF03B05DF804FB00BFF8
:10394000343D00244C3D00242DE9F04106460D464F
:1039500001EB02080C464445A4EB050707D0336889
:10396000304614F8011B1B6898470028F3D13846ED
:10397000BDE8F08170B5044608460D461DF080FE96
:1039800023680246294620465B68BDE87040184718
:1039900009B1FFF7EFBF0846704708B5FFF7F8FF1A
:1039A00008BD03681B6818470149FFF7E3BF00BF64
:1039B000CAB2060838B50546FFF7EAFF04462846AE
:1039C000FFF7F2FF204438BD70B58AB00D460023E2
:1039D000012A98BF0A220AA901F8043DB5FBF2F4B6
:1039E00002FB14562546F3B2092E94BF3033373309
:1039F000DBB201F8013D002CF0D1FFF7C9FF0AB09E
:103A000070BD10B42AB90368C9B25DF8044B1B68D5
:103A10001847D2B25DF8044BFFF7D6BFFFF7F1BFEE
:103A200038B50546FFF7EDFF04462846FFF7BCFF13
:103A3000204438BD10B500F069F80A4CFEF722F9B1
:103A4000FEF790FEFEF785FE4FF4E1310648FFF7E2
:103A5000D1FDFCF7FFFCFCF79FFD002CFBD0AFF382
:103A60000080F8E700000000E836002470B5054645
:103A70000024074EFEF744F8E3B2984206D91846F0
:103A80001B010134F35EAB42F4D170BDFF20FCE7B3
:103A90000800002410B50446FEF732F884423BBF0C
:103AA0002401024B4FF0FF30185F10BD08000024C6
:103AB00010B5044605F000F9204610BD10B50446C7
:103AC00005F0FAF8204610BD07B50749684605F02D
:103AD00030F94FF47A720023DDE900011AF0E6FABA
:103AE00003B05DF804FB00BF683D002407B504493E
:103AF000684605F01EF9009803B05DF804FB00BFAE
:103B0000803D002409F0E6BC09F0BEBB08B50448BE
:103B100005F0DCF80348BDE8084005F0D7B800BF61
:103B2000803D0024683D002409F0E4BC38B50A4C0F
:103B30000A4D204605F03AF92046094C2A46094923
:103B400008F0D0FF204605F03CF92A4620460649F9
:103B5000BDE8384008F0C6BF803D002400000024C6
:103B6000683D0024BD3A0408B13A040870B5044623
:103B70000D46164600211C221DF08AF820463246CA
:103B8000294607F051F9204670BD00002DE9F041AB
:103B900004460E46FDF7B4FF84423CD21F4D270178
:103BA000EA19D06810B11C2109F022FA2046FFF76B
:103BB00071FF80461C2009F0E7F9044600211C2211
:103BC0001DF066F84146204607F02BF9EB19012E4F
:103BD000DC6010D006D3022E12D0204603F09BFFEB
:103BE000022103E0204603F096FF00212046BDE8B5
:103BF000F04103F09DBF2046BDE8F04103F07EBFD9
:103C0000204603F088FF0121F0E71C21204609F03F
:103C1000EFF919F0F9FEBDE8F08100BF08000024BB
:103C200030B589B004460D46FFF720FFC0B2FF282B
:103C300004D02946FFF7AAFF09B030BD012D14D0EA
:103C40000AD3022D1CD00222214601A8FFF78EFFC5
:103C500001A807F085F8EFE70022214601A8FFF749
:103C600085FF01A807F07CF8E6E71C22002101A8E7
:103C70001DF00EF80022214601A807F0D7F8DBE777
:103C80000122214601A8FFF771FF01A807F068F89B
:103C9000D2E700002DE9F34106460F46FDF730FF5D
:103CA00086422AD21B4D4FEA061805EB0802D4685B
:103CB000ACB93046FFF7EEFE06461C2009F064F969
:103CC00004461C2200211CF0E3FF00970023012280
:103CD0003146204607F0C3F805EB0803DC600E4BC5
:103CE0000E491A46D3F894008842FBD123683FB1AD
:103CF000A1680B604FF44073536102B0BDE8F081DE
:103D0000E1681B04F5E71C21204609F071F919F060
:103D10007BFE00BF080000240064025800030080FE
:103D200030B589B005460C46FFF7A0FEC0B2FF28AB
:103D300004D02146FFF7AEFF09B030BD1C220021A0
:103D400001A81CF0A5FF294601A807F085F8094B3A
:103D500009491A46D3F894008842FBD1019B2CB143
:103D600003990B604FF440735361E5E71B0404991A
:103D7000F7E700BF00640258000300801EF0040F44
:103D80000CBFEFF30880EFF30980816911F8021C82
:103D9000002932D101B590E80F10E047BDE800508E
:103DA0008CE80300244B93E80600914208BF70475B
:103DB0001A6041B91EF0100F10D1204B186820F086
:103DC000010018600AE02CE9F00F1EF0100F08BF88
:103DD0002CED108A81F822E0C1F838C0906B92F87F
:103DE000221061F0FF0E1EF0100F08BFB0EC108A19
:103DF000B0E8F00F80F309887047114A13689942C0
:103E0000FAD801B552F821C00FC8E047BDE800500C
:103E1000CCF80000704701B501F0D4FBBDE80140CB
:103E2000EFF3098CBEE701B501F090FBBDE801405E
:103E3000EFF3098CB6E700003C0C002434EF00E0FF
:103E4000A4670608014608B530B96FF0030000F01A
:103E50001DFA6FF0030008BD132001F0ABFF30B96D
:103E60004FF0FF3000F012FA4FF0FF30F3E7002080
:103E7000F1E7000008B5EFF305832BB9EFF31083EA
:103E800013B9EFF3118333B16FF0050000F0FEF9C1
:103E90006FF0050008BDDFF808C000DFFAE700BFDB
:103EA000453E0408EFF310832BB9EFF3118000387F
:103EB00018BF012070470120704710B520B103786A
:103EC000F32B01D1002906DA6FF0030102F05CFA4E
:103ED0006FF0030010BD00F10C0353E8000F20EA5F
:103EE000010243E8002404B1F7E7F3E738B50546DB
:103EF000A0B1846802686CB114F0030302D1C168F8
:103F00000F2926D800246FF00801002002F03CFAA7
:103F1000204638BDC368002BF4D11546104BD3F8AA
:103F2000900078B100F087FC0446A0B10123F32291
:103F3000A3700023656022700A4AC4E90233084B6B
:103F40005A66E5E701221021D3F8800000F0FAFB61
:103F5000EAE71546EBE76FF0040102F015FAD7E740
:103F6000280C0024D13F0408930710B502F0010487
:103F700022D400F10C0384B153E8000F00EA0102DF
:103F80008A4203D0BFF32F8F002005E020EA010210
:103F900043E8002404B1EFE710BD53E8000F0842E6
:103FA00003D1BFF32F8F002005E020EA010243E890
:103FB000002404B1F1E7EFE7C06801EA00031CB197
:103FC000994218BF0020E7E7002B08BF0020E3E775
:103FD000F8B50546846804B9F8BD94F8232028464E
:103FE000616AA768FFF7C0FF064638B1204601F0B6
:103FF00062FC00223146204601F0F6FD3C46EAE72D
:10400000F8B50D4617461E46044620B10378F32B3B
:1040100001D1002907DA20466FF0030102F0B4F95C
:104020006FF00300F8BDFFF79FFF0028FAD186B1BB
:104030003146432001F0BEFE40B1074B20465E6989
:10404000314601F01DFC756286F823706FF00100A7
:10405000E8E76FF00200E5E7280C002470B505469C
:1040600010B10378F32B07D028466FF0030102F05C
:104070008BF96FF0030070BD836863B1284601F0CF
:1040800011FC00226FF0020101F0AEFDA8680028CB
:10409000F4D101F08FFCAB78002613F001032E70F1
:1040A0000FD0094B2946D3F8904024B1204600F0A8
:1040B000DCFB3046DFE7D3F8800000F078FB2046D9
:1040C000D9E71846D7E700BF280C00242DE9F041B6
:1040D000064620B10378F32B01D1002909DA6FF0ED
:1040E00003056FF00301304602F04EF92846BDE8A3
:1040F000F08100F10C0353E8002F42EA010543E888
:10410000005000B1F7E7B4681CB9204601F052FC3A
:10411000ECE794F823203046616AD4F80880FFF772
:1041200023FF074678B194F823309B0756BF656A92
:10413000054620EA0505204601F0BDFB0022394670
:10414000204601F051FD4446DEE70000024608B576
:10415000EFF3058333B100206FF0050102F014F98D
:10416000002008BDFFF79EFE0028F4D11046DFF8BE
:1041700008C000DFF5E700BFED3E0408024638B591
:10418000EFF305834BB192B96FF003046FF00301B5
:10419000104602F0F9F8204638BDFFF783FE0028EC
:1041A000F1D11046DFF82CC000DF0446F3E71378A6
:1041B000F32BE9D10029E7DB02F10C0353E8000FF0
:1041C00040EA010443E8004505B1F7E7104601F075
:1041D00041FAE0E7CD400408024608B5EFF3058355
:1041E00023B11046BDE80840FFF767BEFFF75AFE4F
:1041F0000028F6D11046DFF808C000DF08BD00BF78
:10420000BB3E040838B504461D46EFF3058343B1B1
:104210008CB920466FF0030102F0B6F86FF003008E
:1042200038BDFFF73FFE0028F2D120462B46DFF8CD
:1042300024C000DFF4E72378F32BEAD1002DE8D186
:104240000029E6DB2046FFF78FFE002808BF6FF04D
:104250000200E5E701400408024608B5EFF30583D4
:104260003BB110466FF0050102F08EF86FF00500CB
:1042700008BDFFF717FE0028F3D11046DFF804C091
:1042800000DFF5E75D400408704770477047EFF3C3
:1042900010832BB9EFF31180003818BF012070474D
:1042A00001207047064BDA6A3AB1D0695B6C1BB1EA
:1042B0001B69984228BF184670474FF0FF30F5E75A
:1042C000280C0024014BD868704700BF280C00243C
:1042D00008B5094B1A7A022A08D0032A0AD04FF0EF
:1042E000FF3002F045F84FF0FF3002E003220020DB
:1042F0001A7208BD0120FCE7280C002470B5464C5A
:10430000237A012B00F0858033B14FF0FF3002F0AB
:104310002FF84FF0FF3070BD404DEB68E3652B8AFE
:10432000D5E90B61A4F85430AB683046236400F043
:10433000F1F908B1C4F88060D5E90561304600F0B4
:10434000E9F908B9D4F880606667D5E907613046B5
:1043500000F0E0F908B9D4F88060A667D5E90961F2
:10436000304600F0D7F908B9D4F88060E6676E6B84
:104370003EB131683046D6E9022300F03BFAC4F87A
:104380008460AE6B3EB131683046D6E9022300F05E
:1043900031FAC4F88860EE6B3EB131683046D6E938
:1043A000022300F027FAC4F88C602E6C3EB131680D
:1043B0003046D6E9022300F01DFAC4F890606E6C16
:1043C0003EB131683046D6E9022300F013FAC4F852
:1043D0009460AE6C3EB131683046D6E9022300F0FD
:1043E00009FAC4F89860EE6C3EB131683046D6E9FF
:1043F000022300F0FFF9C4F89C602D6D3DB12968DF
:104400002846D5E9022300F0F5F9C4F8A0500123AD
:10441000237200207FE700BF280C002434670608C1
:1044200070B5254D2B7A012B07D06FF006004FF0A9
:10443000FF3401F09DFF204670BD01F01FFD10B953
:104440004FF0FF30F3E71D4AFF231D4E82F8223064
:1044500092F82230D26863F0FF031A49C2F30222B5
:104460007068DB4314BFB3FA83F32023C3F1200346
:10447000934298BF531CFE2202FA03F30F4ADBB2A9
:10448000D37701F0D1FF04460028D9D102F024F8F7
:10449000286102F00DF80C4801F004FA01F082FAEC
:1044A0003368DB074CBF0223032383F31488BFF375
:1044B0006F8F02232B72BEE7280C002400ED00E072
:1044C00034670608273E0408440C002408B50A4B4C
:1044D0001A7A023A012A02D840B1012809D04FF0D5
:1044E000FF3001F045FF4FF0FF3001E002221A7269
:1044F00008BD0322FBE700BF280C002410B50F4CB9
:10450000237A022B13D101F0DBFF01236372BFF387
:104510004F8F0B4A5168C90003D54FF000615160BD
:10452000A37204232372BDE81040FFF7BBBE6FF0F7
:10453000070001F01DFF002010BD00BF280C002463
:1045400000ED00E038B51E4C0546237A042B35D12A
:10455000FFF7A8FEE26AA842034694BF00F1FF33CA
:104560002B4612B1D069C01AD061626C12B11069C9
:10457000C01A1061E06803440544E360E368AB429D
:1045800013D102230020237201F014FA0023637276
:10459000BFF34F8FA27A22B1A3724FF08052094B22
:1045A0005A60BDE8384001F083BF0133E36001F099
:1045B000BFF9236D002BE1D09847DFE738BD00BF7E
:1045C000280C002400ED00E0704738B504460D4685
:1045D000FFF75AFE29462046BDE8384001F08ABE62
:1045E00008B5FFF7F1FFEFF3058333B16FF0050076
:1045F00001F0BEFE6FF0050008BDFFF748FE002881
:10460000F4D1DFF808C000DFF6E700BFFD42040880
:1046100008B5EFF3058333B16FF0050001F0A8FE94
:104620006FF0050008BDFFF732FE0028F4D1DFF877
:1046300008C000DFF6E700BF2144040808B5EFF327
:10464000058333B16FF0050001F092FE6FF00500B5
:1046500008BDFFF71CFE0028F4D1DFF808C000DF1A
:10466000F6E700BFD1420408024608B5EFF3058320
:1046700033B16FF0050001F07BFE6FF0050008BD5F
:10468000FFF705FE0028F4D11046DFF808C000DF70
:10469000F5E700BFCD44040808B5EFF305832BB15F
:1046A0006FF0050001F064FE002008BDFFF7EFFD8C
:1046B0000028F5D1DFF804C000DFF6E7FD44040868
:1046C000024608B5EFF305832BB16FF00500BDE896
:1046D000084001F04DBEFFF7DAFD0028F5D1104685
:1046E000DFF804C000DF08BD4545040808B5EFF356
:1046F000058313B1054BD86808BDFFF7C8FD002836
:10470000F8D1DFF80CC000DFF6E700BF280C00246A
:10471000C542040810B598B140EA010313F007033D
:104720000ED117290AD90160083910220C184260ED
:1047300084600B5081684A60C3600123184610BD35
:104740000023FBE7F0B580B399B132F003032CD11D
:104750000F3100F1080521F007072B462D685C6832
:10476000E91A24F00304091B8F4204D9296800299F
:10477000F3D10846F0BD46683A4304683E444660BB
:10478000204450F8041C08388E4288BF46605868A0
:1047900018B903F108015A60EBE720F0030019187B
:1047A0001D504A6019600831E3E70021E1E730B5A8
:1047B00090B1D9B1A1F1080500F108040022AC4282
:1047C0000BD151F8043C23F0030443681B1B4360E6
:1047D00042B941F8042C012030BD236822463BB188
:1047E0001C46ECE751F8083C1360F4E70846F3E791
:1047F0001846F1E730B5C0B189B1C2B1CBB10024E0
:104800000160C3604361C0E9014202FB01F41D196C
:1048100005611846013904D1A21A995001210846B0
:1048200030BD851805602846F4E70146F7E71146D4
:10483000F5E71946F3E7034610B5A8B100F11402F5
:1048400052E8000F10B9BFF32F8F04E0016842E86F
:10485000001404B1F4E738B1043353E8002F511CBD
:1048600043E8001404B1F8E710BD30B5F0B1C368F7
:104870008B421BD803698B4218D900F114031A68C4
:104880000A60BFF35F8F53E8002F0C689442F6D1A3
:1048900043E8001505B1F2E7043050E8003F5A1E26
:1048A00040E8002101B1F8E7002030BD6FF00300BF
:1048B000FBE7EFF310832BB9EFF31180003818BF3B
:1048C0000120704701207047036B30B5E3B1CD780C
:1048D0000024DA78AA420FD31A46C1E901248AB12A
:1048E0009160A4B16160283050E8003F5A1C40E854
:1048F000002101B1F8E730BD5A681C46002AECD00F
:104900001346E6E7C162ECE7C1E90133C162016326
:10491000E9E7D1E9013223B19A608A681AB153609C
:104920007047C262F9E703637047F8B587780446B9
:104930008FB3C5680027014605F10C062846FFF72E
:10494000E8FF27703046FFF790FFAB68002B48D098
:104950003046FFF770FF0446002842D0284600F09A
:10496000A1FF06463A46394601F03EF9304601F0CD
:104970000FF86A6A0646816804F10C001CF08AF898
:10498000F923A7702370F368E37021462846BDE839
:10499000F840FFF799BF8568AB68002BF5D05B78CE
:1049A000832BF2D1284600F07DFF06463A46394671
:1049B00001F01AF9304600F0EBFF06466A6A04F18E
:1049C0000C0180681CF066F8F3680BB1E2781A708D
:1049D0000023214605F10C002370BDE8F840FFF7E5
:1049E00044BFF8BD2DE9F0410C46174698460546F0
:1049F00018B10378FA2B00D141B928466FF00301B2
:104A000001F0D8FC6FF00300BDE8F0818368C3B10A
:104A10005B78832B15D100F045FF0646012200216B
:104A200001F0E2F8304600F0B3FF06466A6A21461C
:104A300080681CF02FF8F0680028E5D0077000208F
:104A4000E2E705F10C00FFF7F6FE064670B12146DD
:104A50006A6A0C3000241CF01DF8F9233146284600
:104A60003370B470F770FFF72FFFE8E7B8F1000F6D
:104A700010D04146932001F09DF940B1074B2846E4
:104A8000596900F0FDFEEFF30983C3E902476FF0B7
:104A90000100B9E76FF00200B6E700BF280C002460
:104AA0002DE9F84F8846074638B131B1B0FA80F3A6
:104AB000B1FA81F10B441F2B06DC6FF003010020DB
:104AC000002401F077FC70E008F1030626F00306ED
:104AD0000C3606FB00F9F2B194683CB1A30702D191
:104AE000D368332B05D86FF00801E8E7D368002BB3
:104AF000F9D1D2F800A0D2E904533DB115F0030B6F
:104B000001D1994554D96FF00901D8E7002BFAD1AA
:104B10001CB19B460CE092461546274BD3F8A000EB
:104B2000D8B1FFF788FE0446A0B14FF0010B35BBAA
:104B3000214B00224946D86FFFF704FE0546C0B955
:104B4000BBF1000F06D01C4B2146D3F8A00058B192
:104B5000FFF78BFE6FF00401B1E701223421D3F897
:104B60008000FFF7EFFDDEE7D3F88000FFF71FFEC0
:104B7000F0E74BF0020B4A4600211CF089F8FA23BB
:104B80003246394604F10C002370002384F802B049
:104B9000A360C4F804A0C4E90983C4E90B332B461D
:104BA000FFF728FE044B054A1A672046BDE8F88F38
:104BB000002CE4D1B1E700BF280C00242B490408E5
:104BC00000F1280310B553E8002F12B9BFF32F8F5F
:104BD00004E0511E43E8001404B1F4E70AB90020D0
:104BE00010BDC06A01230028F9D0821CD2E84F1FF3
:104BF000C2E8443F04B1F9E711F0FF0FF0D080683C
:104C0000F1E700002DE9F0410F46154698460446AD
:104C100018B10378FA2B00D141B920466FF0030197
:104C200001F0C8FB6FF00300BDE8F081FFF7C8FF9B
:104C3000064600283AD001462046FFF76AFE626A1F
:104C400006F10C0138461BF025FF0DB1F3782B70EF
:104C5000002504F10C07314638463570FFF705FE94
:104C6000A3680BB90020DFE73846FFF7E4FD0646EE
:104C70000028F7D0204600F015FE074629460122FD
:104C800000F0B2FF384600F083FE626A0746816892
:104C900006F10C001BF0FEFEF923B57031463370AF
:104CA0002046FB68F370FFF70FFEDBE7B8F1000F5B
:104CB00010D04146832001F07DF840B1074B2046DB
:104CC000596900F0DDFDEFF30983C3E902756FF068
:104CD0000100A9E76FF00200A6E700BF280C00243E
:104CE00008B5064B08219A6ED86EFFF7D9FE044B23
:104CF000D864B0FA80F04009404208BD3467060825
:104D0000280C00242DE9F04106460F4690461C462B
:104D1000EFF305834BB196B930466FF0030101F014
:104D200049FB6FF00300BDE8F081FFF7C2FD0028EA
:104D3000F1D130462346DFF848C000DFF3E733788F
:104D4000FA2BE9D1002FE7D0002CE5D106F10C00B9
:104D5000FFF771FD054680B1726A39460C301BF0D1
:104D600099FEF9232846AC702B7085F80380C5E9BD
:104D7000017600F06FFC2046D5E76FF00200D2E725
:104D8000E5490408F8B504460F4616461D46EFF3FC
:104D9000058343B18CB920466FF0030101F00AFB93
:104DA0006FF00300F8BDFFF784FD0028F2D1204624
:104DB0002B46DFF844C000DFF4E72378FA2BEAD172
:104DC000002FE8D0002DE6D12046FFF7F9FE05467A
:104DD00070B100F10C01626A38461BF05BFE0EB147
:104DE000EB7833702846EC6000F034FC0020D9E703
:104DF0006FF00200D6E700BF054C0408EFF3108304
:104E00002BB9EFF31180003818BF01207047012043
:104E10007047000070B5A8B38468D0E900566CB143
:104E200014F0030302D1C2681B2A1AD800246FF0C1
:104E30000801002001F0AEFA204670BDC368002BC7
:104E4000F4D1124BD3F8940030B901221C21D3F8CD
:104E50008000FFF777FC01E0FFF7EDFC044660B14E
:104E60000123F522A3700023E6702270656023768B
:104E7000C4E90233C4E90433DEE76FF0040101F052
:104E800089FAD9E705460646DBE700BF280C00246F
:104E9000284B70B55D6904460E4635B96FF00701C1
:104EA00001F078FA4FF0FF3070BD10B10378F52BA8
:104EB00007D020466FF0030101F06CFA6FF0030099
:104EC000F2E7037E53B9C0E90353EB6A436103B1D0
:104ED00018610123EC6200202376E5E7C278D10750
:104EE0000DD5C168A9420AD1FF2B06D16FF00F0181
:104EF00001F050FA6FF00200D6E70133EBE7002E25
:104F0000F8D093070AD5E06895F9203090F9202071
:104F10009A4203DA80F8203000F0D6FC3146532064
:104F200000F048FF18B12946204600F0A9FC6FF0B8
:104F30000100B9E7280C00242E4B5A6970B50446CD
:104F400032B96FF0070101F025FA4FF0FF3070BD64
:104F500010B10378F52B07D020466FF0030101F064
:104F600019FA6FF00300F2E7037E33B96FF00E0118
:104F700001F010FA6FF00200E9E7C168914202D037
:104F80006FF00D01F4E7013BDBB2037613BB43691D
:104F90000BB1016919612169F1B14B6192F92130BD
:104FA000D56ADDB982F82030A36883B1204600F0CD
:104FB00079FC06462A46294600F016FEF36AC4E943
:104FC0000365636103B11C610123F4622376002051
:104FD00000F0F0FC0020BAE7D362DFE7E978890748
:104FE00006D5A96821B191F920108B42B8BF0B46B4
:104FF0006D69D6E7280C002470B5044610B103781B
:10500000F52B07D020466FF0030101F0C3F96FF0D4
:10501000030070BD037EBBB16369C0680BB1226938
:105020001A61226902B3536190F92120C36AEBB976
:1050300090F92030934203D080F8202000F044FC07
:10504000A068F8B900F0B6FCA078002610F00100C6
:105050002670DED0134B2146D3F89450DDB128469C
:10506000FFF703FC3046D4E7C362DDE7D978890750
:1050700006D5996821B191F920108A42B8BF0A4635
:105080005B69D4E7204600F00DFC00226FF00201BE
:1050900000F0AAFDD4E7D3F88000FFF788FB28468C
:1050A000B7E700BF280C00242DE9F0410446002694
:1050B00001270CB9BDE8F081E378D4F814801B0710
:1050C00012D5A36826767BB1204600F0EBFB0022C8
:1050D0000546114600F088FDEB6AC4E9035663619A
:1050E00003B11C61EC6227764446E2E710B4C37852
:1050F0009B071DD5C06890F92120C36ADC78A407FE
:1051000009D59C688C4208BF8C6824B194F9204072
:10511000A242B8BF22465B69002BEFD190F9203044
:10512000934205D080F820205DF8044B00F0CCBB02
:105130005DF8044B70470000024608B5EFF30583A5
:1051400033B100206FF0050101F024F9002008BD03
:10515000FFF754FE0028F4D11046DFF808C000DF46
:10516000F5E700BF154E0408024608B5EFF30583C6
:105170003BB110466FF0050101F00CF96FF005002E
:1051800008BDFFF73BFE0028F3D11046DFF804C04E
:1051900000DFF5E7914E0408024608B5EFF30583FA
:1051A0003BB110466FF0050101F0F4F86FF0050017
:1051B00008BDFFF723FE0028F3D11046DFF804C036
:1051C00000DFF5E7394F0408024608B5EFF3058321
:1051D0003BB110466FF0050101F0DCF86FF00500FF
:1051E00008BDFFF70BFE0028F3D11046DFF804C01E
:1051F00000DFF5E7F94F0408EFF310832BB9EFF365
:105200001180003818BF01207047012070470C3012
:10521000D0E85F3F13B9BFF32F8F04E05A1EC0E8F8
:10522000512F01B1F4E798B2003818BF0120704740
:1052300030B500F10C02C189D2E85F3F994202D833
:10524000BFF32F8F04E05C1CC2E8554F05B1F3E7B4
:10525000C0899BB2984294BF0020012030BD00005D
:10526000F8B515464FF6FE73421E06460F469A42A3
:1052700001D8884207D26FF003010024002001F01A
:105280008FF82046F8BD7DB1AC682A6844B114F0AF
:10529000030302D1E9680F2922D86FF00801ECE777
:1052A000EB68002BF9D11546114BD3F8980080B16B
:1052B000FFF7C1FA0446A8B10123F622A370002328
:1052C00065602270A3600B4A094BA781E6819A664C
:1052D000D7E701221021D3F88000FFF733FAE9E77E
:1052E0001546EAE76FF0040101F05AF8C9E700BF7C
:1052F000280C0024F9520408836810B504465BB1F9
:10530000FFF785FF40B1204600F0CCFA0022BDE84F
:105310001040114600F068BC10BD38B5054610B10C
:105320000378F62B07D028466FF0030101F038F818
:105330006FF0030038BD84683CB100F0B3FA01227D
:10534000002100F051FC0020F4E7FFF771FF38B9AD
:1053500028466FF0100101F023F86FF00200E9E732
:105360002046E7E738B50D46044610B10378F62B22
:1053700007D020466FF0030101F012F86FF0030030
:1053800038BDFFF744FF68B975B12946632000F0C6
:1053900011FD20B1064B2046596900F071FA6FF0FB
:1053A0000100EDE70020EBE76FF00200E8E700BF47
:1053B000280C002470B5054610B10378F62B07D0F1
:1053C00028466FF0030100F0EBFF6FF0030070BDA3
:1053D000836863B1284600F065FA00226FF002018D
:1053E00000F002FCA8680028F4D100F0E3FAAB78E2
:1053F000002613F001032E700FD0094B2946D3F875
:10540000984024B12046FFF730FA3046DFE7D3F862
:105410008000FFF7CCF92046D9E71846D7E700BF50
:10542000280C002410B50446EFF3058333B10020A7
:105430006FF0050100F0B4FF002010BDFFF7DCFEA7
:105440000028F4D12046DFF808C000DFF5E700BFF0
:1054500061520408024608B5EFF3058343B182B9EF
:1054600010466FF0030100F09BFF6FF0030008BDD2
:10547000FFF7C2FE0028F2D11046DFF824C000DF9B
:10548000F5E71378F62BEBD10029E9D11046FFF7A9
:10549000BEFE002814BF00206FF00200E7E700BF47
:1054A0006553040810B50446EFF3058343B184B98E
:1054B00020466FF0030100F073FF6FF0030010BD92
:1054C000FFF79AFE0028F2D12046DFF830C000DF57
:1054D000F5E72378F62BEBD12046FFF7A9FE20B1A4
:1054E000204600F0B7F80020E9E720466FF01001F1
:1054F00000F056FF6FF00200E1E700BF1B53040805
:10550000024608B5EFF305833BB110466FF0050185
:1055100000F046FF6FF0050008BDFFF76DFE0028A4
:10552000F3D11046DFF804C000DFF5E7B5530408F7
:1055300010B5D0E85F3F5A1C914200D80022C0E865
:10554000542F04B1F5E798B210BD000038B51C4CDB
:1055500000F0BCFFE3680133E36000F0E9F90020EC
:1055600000F028FA236D03B19847226C32B3A36987
:10557000E16B994203D0D969E36301B9DA61DA6971
:10558000C2B9237A022B19D1656ABDB1E36B95F9D3
:10559000202093F920309A4210D1284600F08BF950
:1055A000E06B00F0A3F9284600F0FCF9236CE563FA
:1055B000EB6103E0013ADA61002AE2D038BD00BFB6
:1055C000280C002470B5224C04F1560504F15A064B
:1055D000B4F85410D5E85F3F13B9BFF32F8F04E040
:1055E0005A1EC5E8502F00B1F4E79BB25BB33046BA
:1055F000FFF79EFFE36D53F8200020B30378F13BE3
:10560000082BE5D801A252F823F000BF3156040858
:10561000D155040837560408D1550408D15504085B
:105620003B5604083F560408D15504084356040865
:10563000236E9847CCE7636EFBE7A36EF9E7E36E52
:10564000F7E7236FF5E70020BDE8704000F0B2B93E
:10565000280C002470B5164C0546B4F8541004F11B
:105660005602D2E85F3F994202D8BFF32F8F04E081
:10567000581CC2E8560F06B1F3E79BB2994205D811
:1056800029460220BDE87040FEF79FBF04F1580094
:10569000FFF74EFFE36D43F82050637A23B9054BC3
:1056A0004FF080525A6070BD0123A372FBE700BF28
:1056B000280C002400ED00E0EFF310832BB9EFF38A
:1056C0001180003818BF012070470120704703780F
:1056D000F12B00D07047C068F9E7000010B5C4692D
:1056E000621CD0E904310CD103B1596142691AB18D
:1056F00013610023436101E0074A13630023C36180
:1057000010BD1BB1DA6959612244DA614269002A8D
:10571000EED1014AD362F1E7280C002401230A4AA2
:1057200090F9201043701C32936810B51BB193F9A7
:1057300020408C4205DCC0E90232906003B1D860A1
:1057400010BD1A469B68F1E7280C0024014B5869EC
:10575000704700BF280C002408B500F031FEDFF8C8
:1057600010C000DF4FF0FF31002000F007FEFEE721
:10577000515C0408930710B502F0010422D400F133
:10578000280384B153E8000F00EA01028A4203D0E3
:10579000BFF32F8F002005E020EA010243E8002438
:1057A00004B1EFE710BD53E8000F084203D1BFF387
:1057B0002F8F002005E020EA010243E8002404B115
:1057C000F1E7EFE7806A01EA00031CB1994218BFD4
:1057D0000020E7E7002B08BF0020E3E7084A00218C
:1057E000136B10B53BB94FF0FF34C0E90431C4610D
:1057F00021B1086110BD19461B69F3E71063F9E791
:10580000280C0024002310B50380044683789A07EF
:1058100008D513F0100F016B0E4B0FD0D3F8840096
:10582000FFF723F8A378DB0712D50A4B2146D3F8FC
:10583000880038B1BDE81040FFF717B8586FFEF781
:10584000B6FFEFE7D3F88000BDE81040FEF7AFBF2A
:1058500010BD00BF280C0024C2780346D20701D433
:10586000FFF7D0BF042242700022C260034A516B8E
:10587000816001B1C8605363704700BF280C0024E9
:1058800091F92020836810B51BB193F92040944210
:1058900005DAC1E90230816003B1D96010BD184654
:1058A0009B68F1E783689A68826002B1D060002249
:1058B0001846DA607047C2682AB18368936003B102
:1058C000DA600023C360704710B50146044664B136
:1058D0002378F12B07D00846FFF7EDFF2046BDE8FF
:1058E0001040FFF7CDBFE468F1E710BD012301468A
:1058F00043700148FFF7C4BF440C002470B50B4D42
:105900002E7A022E10D16C6A74B1696994F9202044
:1059100091F920309A4207D12046FFF7CCFF084684
:10592000FFF7E4FF6670AC61002070BD280C002416
:1059300038B5164DEC6A44B3E369013BE36123BB20
:105940006378732B06D009D8532B0BD003F0DF03F9
:10595000432B0DD12046FFF7BAFE09E003F0EF0319
:10596000832BF6E72046FFF7B2FE2146FFF7BEFB8A
:105970002046FFF7A0FFFFF7B9FF246924B1E369D0
:10598000002BDDD000236361EC6238BD280C0024BD
:1059900090F82230826B13F0100F0CBF6020202093
:1059A0001044704702234370014B9861704700BF59
:1059B000280C002470B5124D04462E7A696990B9FE
:1059C000022E0FD16C6A6CB194F9202091F920302D
:1059D0009A4207DD2046FFF76EFF0846FFF79EFE5E
:1059E0006670AC6170BD022E05D190F9202091F94E
:1059F00020309A42F1DC2046BDE87040FFF776BFC8
:105A0000280C00242DE9F04F85B08146029128B979
:105A10006FF00301002400F0B1FCBCE0002A45D087
:105A2000966846B1B40702D1D368432B06D86FF00D
:105A300008010020EEE7D368002BF8D19769D2E97E
:105A400004453CB1600702D1002D40F0B2806FF0F8
:105A50000A01EEE72FB17B1E372B03D96FF00B0144
:105A6000E7E71827002D40F0A880D2E900A30193B2
:105A70004EBB574BD3F88800F0B1FEF7DCFE06466C
:105A800000283AD04FF00108002C44D1DFF840B193
:105A9000E5B9504ADBF88400556DB8B1FEF7CBFE8E
:105AA0000246E0B148F01008344623E0924614461E
:105AB000182715460192DCE701224421D3F8800023
:105AC000FEF740FEDBE74FF00008DDE722462946FF
:105AD000DBF87400FEF736FE02460028E4D1B8F188
