:020000040804EE
:1000000000000824A1DD0508EDDD0508E11905085B
:10001000E7190508ED190508F319050800000000A7
:1000200000000000000000000000000039980408F3
:10003000EDDD050800000000D3980408E3980408EB
:10004000EDDD0508EDDD0508EDDD0508EDDD050854
:10005000EDDD0508EDDD0508EDDD0508EDDD050844
:10006000EDDD0508EDDD0508EDDD0508EDDD050834
:10007000EDDD0508EDDD0508EDDD0508EDDD050824
:10008000EDDD0508EDDD0508EDDD0508A5EC05084D
:10009000B5EC0508B1EC0508C1EC0508EDDD050877
:1000A000EDDD0508EDDD0508EDDD0508EDDD0508F4
:1000B000EDDD0508EDDD0508EDDD0508EDDD0508E4
:1000C000EDDD0508EDDD0508EDDD0508EDDD0508D4
:1000D000EDDD0508EDDD0508EDDD0508EDDD0508C4
:1000E000EDDD0508EDDD050800000000EDDD05088B
:1000F000EDDD0508EDDD0508EDDD0508EDDD0508A4
:10010000EDDD05082DDB0508EDDD0508EDDD050855
:10011000EDDD0508EDDD0508EDDD0508EDDD050883
:10012000EDDD0508EDDD0508EDDD0508EDDD050873
:10013000EDDD050873C70408EDDD0508EDDD0508F4
:10014000EDDD0508EDDD0508000000000000000001
:10015000EDDD0508EDDD0508EDDD0508EDDD050843
:10016000EDDD0508EDDD0508EDDD0508EDDD050833
:10017000EDDD0508EDDD0508EDDD050800000000FA
:10018000EDDD0508EDDD0508EDDD0508EDDD050813
:10019000EDDD0508EDDD0508EDDD0508EDDD050803
:1001A000EDDD0508EDDD0508EDDD0508EDDD0508F3
:1001B000EDDD0508EDDD0508EDDD0508EDDD0508E3
:1001C000EDDD0508EDDD0508EDDD0508EDDD0508D3
:1001D000EDDD0508EDDD0508EDDD0508EDDD0508C3
:1001E000EDDD0508EDDD0508EDDD0508EDDD0508B3
:1001F000EDDD0508EDDD0508EDDD0508EDDD0508A3
:10020000EDDD0508EDDD0508EDDD0508EDDD050892
:10021000EDDD0508EDDD0508EDDD0508EDDD050882
:10022000EDDD0508EDDD0508EDDD0508EDDD050872
:10023000EDDD05089DDD0508EDDD0508EDDD0508B2
:10024000EDDD0508EDDD0508EDDD0508EDDD050852
:10025000EDDD0508EDDD0508EDDD0508EDDD050842
:10026000EDDD0508EDDD0508EDDD0508EDDD050832
:10027000EDDD0508EDDD0508EDDD0508EDDD050822
:10028000EDDD0508EDDD0508EDDD050800000000E9
:10029000EDDD0508EDDD050810B5054C237833B913
:1002A000044B13B10448AFF300800123237010BD49
:1002B0008018002400000000246A070808B5034BDA
:1002C0001BB103490348AFF3008008BD00000000E4
:1002D00084180024246A0708154B002B08BF134B11
:1002E0009D46A3F5803A00218B460F461348144AD9
:1002F000121A26F09DFC0F4B002B00D098470E4B96
:10030000002B00D098470020002104000D000D486C
:10031000002802D00C4812F01DFA25F071FF2000D1
:1003200029000BF09DFC12F029FC00BF0000080022
:100330000000082400000000BDBB04088018002451
:100340001817012455270508000000007047000019
:10035000094B30B51A46094CD3F89450A542FBD14D
:10036000036829B181680B604FF44073536130BD5D
:10037000C1681B04F7E700BF006402580003008057
:1003800038B5674D674B297849B2002900F0BA802B
:100390001A886549013292B21A801A8809889142F6
:1003A0002FD8624C002262481A80237883F0010320
:1003B00023702178FFF7CCFF237813B35D4B2A78A5
:1003C00019685D4841FA82F21A600178C9B12A7849
:1003D00052B2002A04DD594A19681268914207DABC
:1003E0002A7814060DD5554A19681268914208DC1E
:1003F000524A002112681A60297001704C48FFF7B8
:10040000A7FF4F4D4F4B297849B200297ED01A885B
:100410004D49013292B21A801A88098891422FD828
:100420004A4C00224A481A80237883F00103237043
:100430002178FFF78DFF237813B3464B2A7819688C
:10044000454841FA82F21A600178C9B12A7852B25D
:10045000002A04DD414A19681268914207DA2A78B5
:1004600011060DD53D4A19681268914208DC3B4AD5
:10047000002112681A60297001703548FFF768FF83
:10048000374C384B217849B2002943D01A88364975
:10049000013292B21A801A88098891423ED8334DAF
:1004A000002233481A802B7883F001032B702978BF
:1004B000FFF74EFF2B78002B30D02E4B2278196897
:1004C0002D4841FA82F21A60017839B3227852B28B
:1004D000002A04DD294A19681268914207DA227855
:1004E00012061BD5254A19681268914216DC234A68
:1004F000002112681A60217001701D48BDE8384063
:10050000FFF726BF1980094B197077E719800F4B49
:100510001970B2E71980154B1970EEE738BD00BFAE
:10052000181A00244C190024040000248A1A0024FC
:10053000F81F00247C1A0024301A00242C1A0024EE
:10054000191A00244E190024060000248B1A0024D6
:10055000C01F0024801A00243C1A0024381A0024EA
:100560001A1A002450190024080000248C1A0024B0
:10057000881F0024841A0024481A0024441A0024E6
:100580000B6803604B6843608B68836070470C3076
:10059000704708B5FFF7FBFF0023036008BDC36881
:1005A0000BB19B68184770470144002310B588427F
:1005B0000FD010F8014B08225C406300013A24067A
:1005C000DBB248BF83F0070312F0FF021C46F4D1F0
:1005D000EDE7184610BD000072B6024B186862B60F
:1005E000704700BF7C1A002472B6024B186862B6CE
:1005F000704700BF801A002472B6024B186862B6BA
:10060000704700BF841A002472B6024B186062B6AD
:10061000704700BF7C1A002472B6024B186062B6A5
:10062000704700BF801A002472B6024B186062B691
:10063000704700BF841A002472B6024B1878C0B20B
:1006400062B67047301A002472B6024B1878C0B2F6
:1006500062B670473C1A002472B6024B1878C0B2DA
:1006600062B67047481A002472B60D4B1B78A3B9C6
:100670000C4B1B788BB90C4B1B7873B90B4B1B784D
:1006800003F0FF003BB90A4B1B7803F0FF0013B9DE
:10069000084B1878C0B262B670470120FBE700BF74
:1006A000181A0024191A00241A1A0024301A0024D7
:1006B0003C1A0024481A002410B51C4C0521204681
:1006C00005F01EFEB0FA80F0194B082140091870A1
:1006D000204605F015FEB0FA80F0164B04214009C3
:1006E0001870204605F00CFEB0FA80F0124B022183
:1006F00040091870204605F003FEB0FA80F00F4B59
:10070000012140091870204605F0FAFDB0FA80F08A
:100710000B4B002140091870204605F0F1FDB0FA9E
:1007200080F0084B4009187010BD00BF141F002452
:10073000C0190024C1190024C3190024C2190024BF
:10074000C4190024C51900240B4B1B7813B10B4BA3
:100750001B786BB90A4B1B7813B10A4B1B783BB95A
:10076000094B1B7833B1094B187880F001007047B2
:100770000020704701207047C0190024C1190024CF
:10078000C2190024C3190024C5190024C419002467
:1007900072B60021054B1970054B1970054B198075
:1007A000054B197062B60548FFF7D2BD181A002430
:1007B000301A00244C1900248A1A0024F81F00243F
:1007C00072B60021054B1970054B1970054B198045
:1007D000054B197062B60548FFF7BABD191A002417
:1007E0003C1A00244E1900248B1A0024C01F002438
:1007F00072B60021054B1970054B1970054B198015
:10080000054B197062B60548FFF7A2BD1A1A0024FD
:10081000481A0024501900248C1A0024881F002430
:1008200008B5FFF7B5FFFFF7CBFFBDE80840FFF7BE
:10083000DFBF00002DE9F0418846054618B9BDE844
:10084000F041FFF7A5BF72B6144C154E2278154F34
:1008500052B2824207D133782BB93B88994202D1F8
:1008600062B6BDE8F08162B6FFF792FF962008F00D
:10087000A9FE002D0C48D4BF00210121FFF768FD1F
:100880000A2008F09FFE72B60023084AA7F80080ED
:100890001380074A137033702570E1E7181A00249B
:1008A000301A002404000024142000244C190024D1
:1008B0008A1A00242DE9F0418846054618B9BDE89A
:1008C000F041FFF77DBF72B6144C154E2278154FDC
:1008D00052B2824207D133782BB93B88994202D178
:1008E00062B6BDE8F08162B6FFF76AFF962008F0B5
:1008F00069FE002D0C48D4BF00210121FFF728FD1F
:100900000A2008F05FFE72B60023084AA7F80080AC
:100910001380074A137033702570E1E7191A002419
:100920003C1A002406000024DC1F00244E19002479
:100930008B1A00242DE9F0418846054618B9BDE818
:10094000F041FFF755BF72B6144C154E2278154F83
:1009500052B2824207D133782BB93B88994202D1F7
:1009600062B6BDE8F08162B6FFF742FF962008F05C
:1009700029FE002D0C48CCBF00210121FFF7E8FC27
:100980000A2008F01FFE72B60023084AA7F800806C
:100990001380074A137033702570E1E71A1A002498
:1009A000481A002408000024A41F00245019002421
:1009B0008C1A002470B505460E46FFF70DFEA842BE
:1009C00003D1BDE87040FFF7E3BEACBF4FF0FF348A
:1009D0000124FFF7DDFE962008F0F4FD631E0C48AD
:1009E00059425941FFF7B4FC0A2008F0EBFD72B6FA
:1009F000084B01221D60084B1A70084B084A1E80E4
:100A000000231380074A1370074B1C7062B670BD39
:100A1000142000242C1A0024301A0024040000247E
:100A20004C1900248A1A0024181A002470B50546AF
:100A30000E46FFF7D9FDA84203D1BDE87040FFF78D
:100A4000BFBEACBF4FF0FF340124FFF7B9FE9620C4
:100A500008F0B8FD631E0C4859425941FFF778FC75
:100A60000A2008F0AFFD72B6084B01221D60084B4A
:100A70001A70084B084A1E8000231380074A13701F
:100A8000074B1C7062B670BDDC1F0024381A0024AE
:100A90003C1A0024060000244E1900248B1A00245E
:100AA000191A002470B505460E46FFF7A5FDA842A9
:100AB00003D1BDE87040FFF79BBEACBF4FF0FF34E1
:100AC0000124FFF795FE962008F07CFD14F1FF311C
:100AD0000C4818BF0121FFF73BFC0A2008F072FD0B
:100AE00072B6094B01221D60084B1A70084B094A67
:100AF0001E8000231380084A1370084B1C7062B6D6
:100B000070BD00BFA41F0024441A0024481A00240A
:100B100008000024501900248C1A00241A1A0024FA
:100B200010B51C4C227852B2002A04DD1A4B1B78F7
:100B30000BB1FFF72DFE2378190604D5174B1B7850
:100B40000BB1FFF725FE164C227852B2002A04DDC5
:100B5000144B1B780BB1FFF733FE23781A0604D52C
:100B6000114B1B780BB1FFF72BFE104C227852B2C1
:100B7000002A04DD0E4B1B780BB1FFF739FE2378FA
:100B80001B0606D50B4B1B781BB1BDE81040FFF7C9
:100B90002FBE10BD181A0024C0190024C11900244A
:100BA000191A0024C2190024C31900241A1A002497
:100BB000C5190024C41900240A4BD3ED007AF5EEC0
:100BC000C07AF1EE10FA0ADD074BD3ED007AF5EEAC
:100BD000C07AF1EE10FACCBF01200020704700204F
:100BE000704700BF741A0024781A00240C4AD2ED12
:100BF000007AF5EEC07A08B5F1EE10FA0CDDFFF7D9
:100C0000EBFC07EE900A92ED007AF8EEE76AC6EE8A
:100C1000877A17EE900A08BDDFED027AF9E700BF88
:100C2000741A0024000000000C4AD2ED007AF5EEA0
:100C3000C07A08B5F1EE10FA0CDDFFF7D5FC07EE2F
:100C4000900A92ED007AF8EEE76AC6EE877A17EE20
:100C5000900A08BDDFED027AF9E700BF781A002498
:100C6000000000000A4BD3ED006AF5EEC06AF1EE19
:100C700010FAC9BF074B9FED087AD3ED007AF8EE62
:100C8000E77AC8BF87EEA67A17EE100A704700BF52
:100C9000741A0024901A0024000000000A4BD3EDBF
:100CA000006AF5EEC06AF1EE10FAC9BF074B9FED7E
:100CB000087AD3ED007AF8EEE77AC8BF87EEA67A15
:100CC00017EE100A704700BF781A0024941A002407
:100CD00000000000034B1868022390FBF3F3C01AD6
:100CE000704700BF901A0024034B1868022390FB42
:100CF000F3F3C01A704700BF941A0024034B18681E
:100D0000022390FBF3F3C01A704700BF981A002427
:100D100008B50B4B0246187878B10A4B1B68002BBC
:100D20000CDD022193FBF1F35B42934206DCFFF7FB
:100D3000E5FF8242CCBF0020012008BD0020FCE777
:100D40002A190024981A0024254B37B51A68254D16
:100D5000002A254C03DD254B1B68002B09DC0023F2
:100D6000234924482B60236008F026F9002003B0B3
:100D700030BD07EE902ADFED206A2049F8EEE77AD1
:100D80001C4887EEA67A07EE903ADFED1D6AF8EE72
:100D9000E77A85ED007A87EEA67A84ED007A08F08E
:100DA000F4F8D5ED007A06251248B7EEE77A0095FB
:100DB00053EC172B08F028FA12490E4808F0E5F812
:100DC000D4ED007A0095B7EEE77A0A4853EC172B7A
:100DD00008F01AFA0C49074808F0EEF80120C6E7B7
:100DE000901A0024741A0024781A0024941A0024FB
:100DF00035FD0608543200240000DF4368FD060874
:100E00000000A84378FD060886FD06082DE9F0439A
:100E10002DED028B08EE900ADFED497A83B008EEE3
:100E2000101AF0EEE86A07EE102A1F460C9DF4EE49
:100E3000676AF1EE10FA0DD8F0EEC86AF4EE676A50
:100E4000F1EE10FA06D8B0EEC77AB4EE677AF1EE9A
:100E500010FA04D93B493C4808F0AEF866E03B4B39
:100E60001B78002B69D0FFF7A7FE0446002864D04A
:100E7000374EDFF8F480D6ED007A68EEA77A17EEE9
:100E8000900A24F0EDF9D8ED007A386068EE277A00
:100E900017EE900A24F0E4F9D6ED007A286077EE98
:100EA000A77A17EE900A24F0DBF9D8ED007A06460F
:100EB0004FF0020877EEA77A17EE900A24F0D0F9E7
:100EC000244B01461A6892FBF8F2B21AFFF702FFB0
:100ED0008146FFF709FF3B689A420EDCA9EB060644
:100EE0009E420ADB1C4B2A681B6893FBF8F3CB1A63
:100EF000934202DC401A904219DA1849022412483F
:100F000008F043F8B7EEE87A00940F4853EC172B3B
:100F100008F07AF912490C4808F037F8B7EEC87AA9
:100F20000094094853EC172B08F070F90024204670
:100F300003B0BDEC028BBDE8F0830A498BE700BF2C
:100F4000FFFF7F7F3B070708543200242919002444
:100F5000741A0024901A0024941A002462070708C7
:100F6000ADF206088B070708781A002406EE900AEF
:100F70009FED187A06EE101AF0EEE67AF4EE477A54
:100F8000F1EE10FA01D900207047F0EEC67AF4EEC7
:100F9000477AF1EE10FAF6D8DFED0F7A77EEE66ACF
:100FA00077EEC67AC2ED006AC3ED007AD2ED006A30
:100FB000F0EEE66AF4EE476AF1EE10FAE3D8F0EEEE
:100FC000E77AF4EE477AF1EE10FA94BF01200020A0
:100FD000704700BFFFFF7F7F0000000008B50F4B88
:100FE0001B780BB9002008BD0D4B1B78002BF9D0E6
:100FF000FFF7F2FA0028F5D1FFF7F6FA0028F1D151
:10100000FFF7FAFA0028EDD1FFF72EFB0028E9D10F
:10101000044B187880F00100E5E700BF291900248F
:101020002A1900241B1A00242DE9F0412DED048B10
:1010300084B01F46002509EE100A03AB08EE901A93
:1010400008EE102A009302ABCDE90255FFF7DEFE51
:101050000646002863D0FFF7E3FB364A029982ED8B
:10106000009A354A354BC2ED008A354A98461D70C4
:1010700082ED008A334A344B1160344A0399344C70
:10108000116034493448022F18BF1946257007F003
:101090007CFFB7EEC97A02252F4853EC172B009539
:1010A00008F0B2F82D492C4807F06FFFB7EEE87A48
:1010B0000095294853EC172B08F0A6F82849264834
:1010C00007F063FFB7EEC87A0095234853EC172B5F
:1010D00008F09AF82349204807F06EFF0121029892
:1010E000FFF768FC01210398FFF7A0FCFFF7A4FAC3
:1010F00010B9FFF7A9FAC0B101233846237088F868
:10110000000008F03FFA184B186023787BB91749A4
:10111000174B1148022F18BF194607F04DFF3046F4
:1011200004B0BDEC048BBDE8F0812070E7E71E46FB
:10113000F5E700BF341A0024401A0024881A00245E
:101140004C1A0024241A00244CF20608281A002401
:101150001B1A002439F2060854320024A9F20608AA
:10116000B1F20608B9F20608A81900245EF20608D2
:1011700084F20608F8B5104C05460F462678FFF7AE
:101180004FFB00230D4A237013700FB10C4A1370EC
:10119000022E07D10B4B1B8823B10B4A138003226D
:1011A0000A4B1A700A490B4807F0EFFE2946094816
:1011B000BDE8F84007F014BF881A00241B1A002469
:1011C00029190024AC1A00249C1800243619002484
:1011D000EA08070854320024044B1B781B2B9ABFE3
:1011E000034A52F823000348704700BF8E190024B9
:1011F00050F006081CF70608094B10B5094C18708A
:1012000008F0C0F9084B09491860204607F0BDFEF8
:10121000FFF7E2FF01462046BDE8104007F0E0BEC0
:101220008E19002454320024A419002456F706080D
:1012300008B5FFF7F5FA0023104A11491370114A57
:1012400011481370114A1370114A137000220A607A
:1012500010490A60104A11491360114A1360114A7B
:101260001360114A1370114B114A1A6007F0A4FE63
:101270000120BDE80840FFF7BFBF00BF1B1A0024D4
:10128000741A0024881A00245432002429190024D6
:101290002A190024781A0024901A0024E2F906087A
:1012A000941A0024981A0024941900241000002491
:1012B000042B07080138C0B207289ABF024B53F825
:1012C00020000248704700BFCCF006081CF7060853
:1012D0000138C0B20C289ABF024B53F820000248D4
:1012E000704700BFECF00608D2020708034B1B78DA
:1012F000122B9ABF024AD05C0A2070478219002440
:1013000020F10608034B1B780C2B9ABF024AD05CD5
:10131000082070476D19002433F1060808B50D4BFD
:101320001B780BB9002008BD0B4B1B78002BF9D0A4
:1013300008F028F9094B1B68C01A9628F2D808F063
:1013400021F9074B1B68C01A96288CBF002001208A
:10135000E9E700BF86190024B01A0024F01A00241F
:10136000D81A0024024B987900F00100704700BFA2
:10137000531A0024024B1878C0F3C000704700BF16
:101380008F190024024B1878C0F30010704700BF7B
:101390008F190024024B1878C0F34010704700BF2B
:1013A0008F190024024B1878C0F38010704700BFDB
:1013B0008F19002408B5FFF7DDFF98B1FFF7E2FFB2
:1013C00080B1FFF7E7FF68B1084B1B78072B0AD104
:1013D000074B93F90030002B05DB064B1878B0FA69
:1013E00080F0400908BD0020FCE700BF8019002400
:1013F0008F1900246C1900242DE9F04F2DED028B7C
:1014000087B008F0BFF8AC4A054613689046C41A86
:10141000092C40F21981002BC8F80000A74808BF2A
:101420000A2404F050FE0746A44804F04FFE064686
:10143000A24804F045FEA24BA24A18600120A2492E
:101440001070A2480B68D0ED006AFB1AF5EEC06A76
:10145000F1EE10FA0ADDF0EEE67A9FED9D7AF4EEF9
:10146000477AF1EE10FA9CBF032010709948DFF81C
:10147000B0C2D0F800E08146BEF1000F00F0E98074
:10148000107840F0040A82F800A0002B40F0EA80B7
:10149000A5EB0E05B5F5FA7F00F2DE80DCED007AF3
:1014A00040F00C03F5EEC07A1370F1EE10FA46DD51
:1014B00040F01C00107042E0F0EE467A30E007EE9B
:1014C000903A9FED855A07EE104A844BF8EEE77A82
:1014D000B8EE477A93F9003027EE856A66EEA77A70
:1014E000C6EE075A06EE103AB8EEC66A66EE277ADE
:1014F00067EE857A87EE876A794BC3ED005AD8F894
:101500000030AB4202D1BEF1000FD5D0DFED757ACD
:10151000DCED006A66EE277A9FED737AE6EE877A55
:10152000B5EEC06A1378CCED007AC9F80050F1EE40
:1015300010FAD4BF43F00C0343F01C0313706B4B41
:101540006B4A1F606B4B0F601E6013880133138062
:10155000694B1A689846B24276D0684B684A197847
:101560009946DFF8C0B1DFF8C0A1002935D0136873
:10157000F31A32D0DBF80040002BA7EB0404B8BF0D
:101580005B422046E11708EE103A002871F1000393
:10159000CDE9020104DA434261EB4104CDE90234B2
:1015A000DDE90201059222F0BFFCB8EE487A07EEB1
:1015B000900A544918EE102AC7EE877A0B68134434
:1015C000059A0B60504BDDE90245D3E90001241870
:1015D0004D41C3E90045CAED007A01234B494C480F
:1015E00089F800301660CBF8007007F0CEFC0A22B4
:1015F0003146474807F03DFD4649454807F0C5FCE0
:101600000A223946424807F012FDDAED007AF5EE7B
:10161000C07AF1EE10FA12DD3F493D4807F0B5FC03
:10162000DAED007A02233A48B7EEE77A009353ECFA
:10163000172B07F0E9FD3949354807F0A6FC344877
:1016400007F0B4FCC8F8006007B0BDEC028BBDE841
:10165000F08F002B7FF433AF0023214ACCF8003009
:1016600013606CE707EE903A1C4BDFED1B5A07EE58
:10167000104A93F90030F8EEE77AB8EE477A06EEB2
:10168000103A174B66EEA76AB8EEC66A67EEA57AFF
:1016900066EE266A66EEA56AC7EE875ADFED117A16
:1016A00086EE876A93ED007A65EEA75ADFED0E7A33
:1016B000E7EE275A20E700BFD01A00248820002434
:1016C000E41A002481190024E01A00240C000024EC
:1016D000FFFF7F7FF41A002400007A441C000024DE
:1016E00090190024CDCC4C3ECDCC4C3F4019002469
:1016F000AA1A0024A41A0024E81A00249C1A002420
:1017000098190024B01900245819002437F7060846
:101710005432002437FA06084DF7060804F6060886
:10172000041B002444190024CC1A00240E4B187802
:10173000C0B10E4BD3ED007AF5EEC07AF1EE10FA9F
:101740000FDD0B4BD3ED007AF5EEC07AF1EE10FA17
:1017500007DD084B187800F02300C31E584258419B
:1017600070470020704700BF281900240C1B00247C
:101770000C0000248119002438B50C4C054620705B
:1017800007F000FF606007F0FDFE094BA0601B68DA
:101790000849C4E90333084C204607F0F6FB294604
:1017A00020460A22BDE8384007F088BC0019002412
:1017B00040190024D60807085432002438B5002206
:1017C0000D4B0E4C05461A7000230D4A13600D4A4E
:1017D00013600D4B58620520FFF7CEFF0B492046E2
:1017E00007F0D3FB2946204607F0FAFB20460849BC
:1017F000BDE8384007F0E0BB28190024543200242B
:101800000C1B0024081B00240019002490FD06086E
:10181000A3FD060837B5254C2822002101252046C6
:1018200025F006FA07F0AEFE606007F0ABFE204B35
:101830000022A0601B681F49C4E903334FF0FF4337
:10184000A3611D4B63621D4B1D4C1A7000231D4A82
:10185000204613601C4A13601C4B1D7007F0ACFB44
:101860001B49204607F0A8FB1A49204607F08DFBCC
:101870000022194B2046009507F0C6FC1749204668
:1018800007F083FB164B2046D3ED007A0923B7EE11
:10189000E77A009353EC172B07F0B6FC114920466A
:1018A00003B0BDE8304007F087BB00BF001900243B
:1018B00040190024DA020708042B0708281900241D
:1018C000543200240C1B0024081B00241C0000249C
:1018D0000A0307084E03070800002E406B030708A1
:1018E0000C0000247D030708044B187800F0180052
:1018F000A0F1180358425841704700BF81190024D5
:1019000010B5C3790133DBB2022B23D8037A01333C
:10191000DBB2022B1ED8437A0133DBB2022B8CBF21
:1019200000230123C27A817AB42A15D8027BB42A13
:101930008CBF00220122447BC07C7BB111F0F801F6
:101940000CD12AB1082C0BD808288CBF0022012208
:10195000104610BD0023E5E70022ECE70022F7E780
:101960000A46F5E738B5254B1C78254B1B780BB19B
:1019700044F00204FFF732FB08B144F00404214DA7
:101980002B7803F0FB03092B08BF44F00804FEF793
:101990006BFE78B91C4B1B7863B91C4B1B78013B61
:1019A000182B07D92B780D2B06D1194B1B781BB19F
:1019B000072B01D044F010042B780C2B154B1B780F
:1019C00008BF44F020040BB144F04004FFF7A6FC2C
:1019D00088B12B780C2B0ED0043BDBB2092B05D839
:1019E00040F2712222FA03F3DB0702D4064B1B7884
:1019F0000BB144F08004204638BD00BF29190024F3
:101A00002A190024821900241B1A00248E1900248C
:101A1000A01800242819002408B5114B1A78114B7E
:101A20001B780BB142F002020F4B1B780BB142F056
:101A300004020E4B1B780BB142F008020C4B1B78D2
:101A40000BB142F010020B4B1B780BB142F020029D
:101A5000FEF77AFE08B142F04002104608BD00BF12
:101A6000C0190024C1190024C2190024C31900247C
:101A7000C5190024C419002410B5202200210446F1
:101A800025F0D6F8FFF732FC5F4BE0701B78122B85
:101A900005D15E4B1B7823715D4B1B7804E0002B56
:101AA0007DD15C4A127822716371FFF75BFFA071F0
:101AB000FFF7B2FFE07172B6574B584A1B7858498E
:101AC0005BB212780878002B52B240B27ADC7BD13C
:101AD000002A59B27ADC7BD11346002841EA8302FE
:101AE00078DC79D1034642EA0313237262B6FFF72A
:101AF00009FC4C4B60721B78A3724B4B1B78E37252
:101B00004A4B1B88A3814A4B1B78A373494B1B6824
:101B1000C4F80F30484B93ED007A9FED356BB7EE6C
:101B2000C77A27EE067B9FED346BB4EEC67BF1EEF1
:101B300010FA53D49FED326BB4EEC67BF1EE10FA7F
:101B40004FDCFDEEC77B17EE903AC4F813303B4BE9
:101B5000D3ED007AF5EEC07AF1EE10FA44DD9FED98
:101B6000387A67EE877A17EE900A23F079FB354BC7
:101B70001F21C4F8170020461B88A4F81B30324BE5
:101B80001B786377314B1B78A377A7232370072338
:101B900063702023A370FEF707FDE07710BD0F2BC5
:101BA00009D0112B0CBF2A4A2A4A12780D2B227118
:101BB00003D1294B71E7294AF7E70E2B0CBF284BBD
:101BC000284B6AE7012383E7022381E7012384E7A7
:101BD000022382E7012386E7022384E74FF00043D4
:101BE000B3E76FF00043B0E70020C0E7AFF3008039
:101BF0000000000080842E41000000000000E0C1D1
:101C00000000C0FFFFFFDF41821900242C190024CF
:101C1000601900242D190024181A0024191A002410
:101C20001A1A002437190024A81A00249C1800242A
:101C30003619002440190024041B00240C00002441
:101C400000247449AA1A0024811900241C000024CD
:101C5000521A0024511A0024A0180024501A0024FB
:101C6000001900248E19002473B504460E469448CA
:101C7000944907F08AF907F085FC0A22014690484A
:101C800007F00DFA90498E4807F07FF98F4B1978CD
:101C900009B18F4B19880A22894807F0EAF98D4962
:101CA000874807F072F9214685488B4C07F076F992
:101CB0008A49834807F069F9E18909B9884B19888D
:101CC0000A227F4807F0D5F986497D4807F05DF97B
:101CD000854B0A227A48198807F0CBF9834978485E
:101CE00007F053F9824B0A227548196807F09FF9EB
:101CF0008049734807F049F9E389002B00F0DD8043
:101D0000E1690A226E4807F092F97B496C4807F0B6
:101D10003CF90A2221786A4807F0CEF977496848E9
:101D200007F033F9217C09B9754B19780A22644808
:101D300007F0C2F973496248032507F026F9FEF758
:101D400055FF07EE900A0095B7EEE77A5C4853EC32
:101D5000172B07F059FA6C49594807F016F9FEF7A6
:101D600063FF07EE900A0095B7EEE77A544853EC0C
:101D7000172B07F049FA6549514807F006F9FEF7B5
:101D80003BFC0A2201464E4807F051F960494C4895
:101D900007F0FBF8D4ED087A4948B7EEE77A0095EA
:101DA00053EC172B07F030FA5A49454807F0EDF885
:101DB000D4ED097A4248B7EEE77A009553EC172B39
:101DC00007F022FA54493E4807F0DFF8D4ED157ABF
:101DD0003B48B7EEE77A009553EC172B07F014FA5F
:101DE0004E49374807F0D1F8D4ED147A3448B7EEAD
:101DF000E77A009553EC172B07F006FA484930486C
:101E000007F0C3F8474B2E48D3ED007A0095B7EEA4
:101E1000E77A53EC172B07F0F7F94349284807F006
:101E2000B4F8424B0A222648197849B207F021F942
:101E30003F49234807F0A9F83E4B0A222048197869
:101E400049B207F016F93C491D4807F09EF83B4B94
:101E50000A221B48197849B207F00BF9384918488B
:101E600007F093F8374B0A221548198807F001F953
:101E70003549134807F089F8344B0A22104819787D
:101E800007F01AF932490E4807F07FF8314B0A2261
:101E90000B48197807F010F94EB133783BB12E4951
:101EA000074807F072F83146054807F077F804480C
:101EB00002B0BDE8704007F079B8284B196820E7F8
:101EC000543200248803070894030708B41A002436
:101ED000B21A00249E030708A0180024A6030708CE
:101EE000AE1A0024AC030708AA1A0024B503070899
:101EF00040190024BB030708C5030708CD030708E2
:101F000035190024D5030708DD030708E503070892
:101F1000EF030708FA030708050407080F0407087A
:101F200019040708041B00241F040708181A0024BA
:101F300027040708191A00242F0407081A1A002476
:101F4000370407089C1800243D04070836190024AC
:101F5000480407086D190024500407084819002494
:101F6000834A2DE9F041137804468188814D88B277
:101F7000814E824F002B40F0C18029800121804892
:101F80001170804A80491380804A33701370804AF0
:101F9000138006F0FAFF0A222988794807F069F8C9
:101FA0007C49774806F0F1FFE07CFFF783F90146B2
:101FB000734807F015F83278E37812B13A789A420C
:101FC00006D03B700123337007F0DCFA724B1860C7
:101FD0002346724A04F1200153F8040B8B4242F865
:101FE000040BF9D1E27C6E4B6E4D1A70E2796E4BA8
:101FF0006E4F1A70227A6E4B6E4E1A70627A6E4B6A
:10200000DFF82C821A70A3796C4AC3F34003137073
:10201000E27A6B4B1A70227B6A4B1A70A37A03F038
:102020000102C3F38001C3F340032A703970337097
:102030006AB198F8003053B9634B01221A70634BB0
:102040001B780D2B03D162496248FFF70DFE3878EB
:10205000614920B10B7813B9604B01221A703278B4
:102060005F4B22B11E7816B95E4E012737701A7089
:10207000627B5D4B08701A70A27B5C4B2D781A70E6
:10208000A2795B4B88F800501A70A37C228A1B044B
:1020900003F470231343574A03F01F011170C3F375
:1020A00044115170C3F38421DB0B9170D370227DF6
:1020B000514B1A70A27D637D43EA02234F4A13807D
:1020C000227EE37D43EA02234D4A1380A27E637E93
:1020D00043EA02234B4A13804B4BD4F81B201A606F
:1020E00001234A4A13704A4A137007F04BFA494BCE
:1020F00000221860484B1A70BDE8F0812B8883429B
:102100003FF459AF45491E4806F03FFF0A2229888F
:102110001B4806F0AEFF4249194806F036FF0A2276
:10212000A188174806F0A5FF1A49154806F02DFFAB
:10213000E07CFFF7BFF80146114806F051FF6279D5
:102140002379012143EA0223364A2B8000231170B0
:102150000C4A337013800D4A13700D4A1380324BB2
:102160001B781BB13148FFF705F824E7E37828E72F
:10217000B41A0024B21A0024B01A0024D41A00247D
:10218000543200249C1800244BF906083619002408
:10219000AC1A002467F90608D81A0024531A002440
:1021A00034190024FC180024B4190024F818002461
:1021B000B5190024FA180024B6190024FE180024CA
:1021C0001A00002419000024851900248219002413
:1021D0009FF90608B1F90608F918002483190024AC
:1021E000FB18002484190024801900246C19002491
:1021F0008F1900241C1A002435190024201A0024E9
:10220000221A0024AE1A002448190024861900243A
:10221000891A0024F01A00248D1900246FF9060889
:10222000D7F906082B1900241B1A00248DF906087B
:10223000FD18002401460148FFF716BD47F90608BE
:1022400008B5094B1B780D2B0DD107F09BF9074AF8
:102250001368C31A312B06D9106005490548BDE83B
:102260000840FFF701BD08BD82190024EC1A0024C4
:10227000042B07080609070838B5104C0022104D3A
:102280002378287001330F490F4813F0FF0308BF6C
:10229000012323700D4B1A7006F077FE0A2229786D
:1022A000094806F009FF0A49074806F06EFE217842
:1022B0000A220548BDE8384006F000BFA81A0024ED
:1022C00037190024BAF90608543200249C19002456
:1022D000DB07070838B5144B022205460C46188068
:1022E000124B13491A700022124B13481A8006F041
:1022F0004CFE0A222946104806F0BBFE0F490E4844
:1023000006F043FE21460C4806F06AFE0C4B1B7893
:102310000D2B08D121460B48FFF7A6FC0A48BDE863
:102320003840FFF787BF38BD9C18002436190024B9
:10233000AB070708AC1A002454320024E70707084B
:1023400082190024F0070708F707070838B50E4D73
:102350000446287007F016F9002368600B490C4802
:10236000AB6006F012FE082C094896BF094B0A4CD8
:1023700053F82440214606F033FE21460748BDE8C5
:102380003840FFF771BC00BFA0180024C9F9060847
:102390005432002440F106081CF70608DCF9060850
:1023A00010B5094C58220021204624F041FC07F0CA
:1023B000E9F86060FEF738FC044BA0621B68E3623A
:1023C00007F0E0F8206310BDA01800244019002495
:1023D00070B5394E0446357885424FD00D2D05D164
:1023E0000D2803D035493648FFF73EFC347007F01E
:1023F000C9F8344B34491860344B35481A78354B9A
:102400001A7006F0C2FDFEF771FF0A22014630483D
:1024100006F054FE122C16D8DFE804F03131310AF0
:10242000113131253131110A31391A25313131005B
:10243000FEF7F6F90220BDE87040FFF71DBFFEF77A
:10244000EFF9FEF7F5FE0D2D18D00D2C16D129E071
:10245000FEF7E6F90023204A1370204ABDE87040D9
:102460001370FFF7D7B900241D4B1C701D4B1C7057
:10247000FEF7D6F9184B1C70184B1C7070BDFEF798
:10248000CFF90023144A1370144A1370DBE7FEF7E8
:10249000C7F90023104A1370104A1370FFF780FF2A
:1024A0000D2DEBD0104B0022104911481A60BDE8E9
:1024B0007040FFF7D9BB00BF82190024D8F206088C
:1024C000F0F20608A0190024FCF20608B519002451
:1024D00054320024611900241B1A0024881A002495
:1024E0008519002483190024EC1A002416F3060829
:1024F0002EF306081A4B1B7813B90520FFF768BFA7
:10250000184B1A781AB1002207201A70F6E7164BFA
:10251000164893F9002052B190F900303BB91449A4
:102520000B789B1A14D4032BA8BF00230B70114BFC
:1025300002701A789AB100221A7007220E4B1A7094
:102540000F220E4B1A700A4B1B781BB90A20D5E7D5
:102550000223EBE7012B0CBF0B200E20CEE77047C8
:10256000FE18002484190024B519002461190024E0
:10257000501A002485190024180000241B00002490
:1025800008B5FEF74DF90E4B1B7823B90520BDE8C1
:102590000840FFF71DBF0B4B1A781AB10022072025
:1025A0001A70F4E7084B1B78112B08D1074B1978E8
:1025B00029B11A70064A1378C3F10103137008BDDC
:1025C000FE1800248419002482190024851900248F
:1025D000521A002438B5234B1B7833B9FEF720F983
:1025E0000520BDE83840FFF7F3BE1F4B1A782AB12B
:1025F00000221A70FEF714F90720F2E71B4B93F93B
:1026000000001B4B002893F900501A4B93F900402F
:102610001FDD194B1B78002B18BF0020002D1BDD80
:10262000164B1B78002B18BF0025002C17DD144B10
:102630001B78002B18BF00240121FEF7FBF8284669
:102640000121FEF737F920460121BDE83840FEF7A9
:1026500071B9E3D00B4BDDE7E7D00B4BE1E7EBD0F3
:102660000A4BE5E7FE18002484190024B41900245D
:10267000B5190024B6190024C0190024C219002479
:10268000C5190024C1190024C3190024C419002449
:1026900038B50C460546FEF7C3F8274B27491A788C
:1026A000023A012A1A4602D90B780D2B07D1244B86
:1026B0001B8823B1234803800320234B1870002379
:1026C000224813700A780370042A01D00A2A0BD119
:1026D0001F490B701F490B701F4B19781B291FBF17
:1026E0001E490C601B2119701D4B0D2A1D701D4BBE
:1026F0001C6003D121461C48FFF7B6FA00231B4A91
:102700000C2013701A4A13701A4A1370FFF760FEF8
:1027100019491A4806F039FC29460A22174806F0DA
:10272000CBFC1749154806F030FC21461348BDE89C
:10273000384006F055BC00BF881A002482190024D6
:10274000AC1A00249C180024361900241B1A0024FB
:10275000291900242A1900248E19002410000024AD
:102760006D1900241400002423F2060885190024A2
:10277000831900248419002429F206085432002405
:102780007327070870B52B4D2B78002B51D02A4E9C
:1027900033785BB2002B03DD284B1B78002B41D133
:1027A00033781A0603D5264B1B78002B3AD1254CDB
:1027B00023785BB2002B03DD234B1B78002B31D138
:1027C00023781B0602D5214B1B785BBB06F0DAFE93
:1027D0001F4B1B68C01A1F4B984209D901211E4884
:1027E000FEF7C8FC1D490720BDE87040FFF750BF49
:1027F000FDF722FFE8B9FDF727FFD0B93378C3B959
:1028000023785BB2ABB9164A2B7011781370154A56
:10281000154B164802290CBF11461946BDE87040F9
:1028200006F0CABB01211248FEF7A4FC114908209A
:10283000DAE770BD1B1A0024181A0024C0190024FE
:10284000C1190024191A0024C2190024C319002434
:10285000A819002420BF0200740907087C09070892
:10286000881A0024410907085B090708543200242C
:1028700095090708B109070838B50446FDF7D0FFE8
:1028800000230C4A0C4D1B2013700C4A13700C4B88
:102890001C60FEF7B1FC0B49284606F076FB21468A
:1028A000284606F09DFB21460520BDE83840FFF78D
:1028B000EFBE00BF29190024543200242A19002435
:1028C0001000002495FD0608F8B5A34C2378002BD2
:1028D00000F0F1811A3B012B40F2ED8106F052FE2F
:1028E0009E4B1B68C01A9E4B984204D99D48BDE878
:1028F000F840FFF7C1BF2378013B182B00F2DB81C2
:10290000DFE813F0190027003B0042004E0056009C
:1029100065006C0086009400A500AC00B800C00003
:10292000CF00D600F000FE000F01160122014C017D
:102930005B0161017E018C4B1B7833B1FDF728FFF1
:102940000220BDE8F840FEF757BC02214FF0FF30EF
:102950000FE0854B1B7853B9FDF71AFFFDF73CFEDE
:10296000022100F59670FEF725F80320E9E7022121
:102970000120BDE8F840FDF75DBFFDF75DFE0028D2
:1029800040F099810420DCE7774B1B7833B1FDF7E9
:10299000FFFE0020FDF738FE0520D2E70821D5E72D
:1029A000724B1B78002BE2D0FDF7F2FE0620C8E741
:1029B0006E4B1B78002BC8D1FDF7EAFEFDF70CFE2D
:1029C0000221A0F59670FDF7F5FF0720B9E7FDF7A6
:1029D00033FE002840F06F810820B2E7634B1B787C
:1029E000A3B1FDF7D5FE624CFDF7F6FD632820602C
:1029F00001DC60487BE76049604806F0C6FA0A22BD
:102A000021685E4806F041FB09209AE70821AFE7FC
:102A10005B4B1B781BB1FDF7D3FE0A2091E7022127
:102A20004FF0FF30BDE8F840FDF744BF544B1B7832
:102A300053B9FDF7C5FEFDF7D7FD022100F59670ED
:102A4000FDF7F4FF0B207CE702210120EAE7FDF708
:102A5000FBFD002840F02F810C2072E7484B1B78CB
:102A600033B1FDF7ADFE0020FDF7D6FD0D2068E780
:102A70000821D5E7434B1B78002BE5D0FDF7A0FEDE
:102A80000E205EE73F4B1B78002BC8D1FDF798FE68
:102A9000FDF7AAFD0221A0F59670FDF7C7FF0F20F4
:102AA0004FE7FDF7D1FD002840F00581102048E7F1
:102AB000344B1B78A3B1FDF783FE334CFDF794FD37
:102AC0006328206001DC314811E731492B4806F0CA
:102AD0005CFA0A222168294806F0D7FA112030E76B
:102AE0000821B2E72B4B1B781BB1FDF781FE1220AA
:102AF00027E702214FF0FF30BDE8F840FDF71ABF8D
:102B0000244B1B7853B9FDF773FEFDF775FD0221C9
:102B100000F59670FDF7C6FF132012E70221012091
:102B2000EAE7FDF799FD002840F0C580142008E78A
:102B3000184B1B7833B1FDF75BFE0020FDF774FDE9
:102B40001520FEE60821D5E7134B1B78002BE5D0B6
:102B5000FDF74EFE1620F4E68E190024A419002479
:102B600020BF02005DF70608C1190024C019002427
:102B7000901A002474F70608DCFD0608543200247D
:102B8000C3190024C2190024941A002485F70608EA
:102B9000ECFD0608C4190024C5190024464B1B7817
:102BA000002BA6D1FDF724FEFDF726FD0221A0F59E
:102BB0009670FDF777FF1720C3E6FDF74DFD00285F
:102BC00079D11820BDE63C4B1B78BBB1FDF710FE58
:102BD0003A4CFDF711FD6328206001DC384886E699
:102BE0003849394806F0D1F90A222168364806F0FA
:102BF0004CFA364B002219201A70A2E608218EE703
:102C0000334B02241F68334B1E682C4B1D682F4B1F
:102C10001A7897FBF4F796FBF4F695FBF4F56AB98E
:102C20000122214638461A70FDF7C4FE214630467F
:102C3000FDF7FCFE21462846FDF734FFFDF7FCFCBE
:102C4000002838D1FDF700FD002834D1FDF704FD40
:102C500088BB214B1B7873BB204B1B785BBB204B85
:102C60001A7852B23ABBFDF7B7FC874213D1FDF791
:102C7000BBFC86420FD1FDF7BFFC85420BD110464D
:102C8000FDF7C2FCFDF7C8FCFDF7CEFCFEF75CF8D3
:102C900018B914482BE6144829E60123134A1A20D0
:102CA0001370134A1370FEF7A7FA12490648BDE8DD
:102CB000F84006F081B9F8BDC5190024981A00241F
:102CC00096F70608FCFD06085432002494190024E7
:102CD000901A0024941A0024181A0024191A0024A7
:102CE0001A1A0024A7F70608C5F7060829190024B0
:102CF0002A1900240CFE06082DE9F0412DED028B67
:102D000086B0FDF775FD644B1978644B61B91B788B
:102D100013B16348FEF72EFA0520FFF759FB06B002
:102D2000BDEC028BBDE8F0811A785E4B197839B1A1
:102D30000021197012B15C48FEF71CFA0720ECE77D
:102D4000FEF738FB014640B912B15848FEF712FAB7
:102D500057490420FFF79CFCE1E7002ADFD1FDF78B
:102D600083FC07460028DAD1FEF71CFB0028D6D0EA
:102D7000DFF87481B8F800304546002BCFD04D4CB9
:102D800022889A42CBD04C4BB2EE047A002602AA9B
:102D9000B3F90030029607EE903A484BF8EEE77A26
:102DA000B3F90030C7EE878A07EE903A06AB43F8D6
:102DB0000C6DF8EEE77A87EE878A18EE900A18EE27
:102DC000101AFEF7D3F828B93D49B8F80000FFF70C
:102DD00081FAA4E705AB32460399009304AB02984D
:102DE000CDE90477FEF712F810B935492888EEE7E7
:102DF000B8F80030334A238001241380324B334922
:102E000033481C7006F0C1F8324B0A22304819785A
:102E100006F052F930492E4806F0B7F8B7EEE87AD6
:102E200000942B4853EC172B06F0EEF92B49284859
:102E300006F0ABF8B7EEC87A0094254853EC172B90
:102E400006F0E2F92649224806F09FF8DDED027A05
:102E50000094B7EEE77A1E4853EC172B06F0D4F92E
:102E60001E491B4806F091F8DDED037A0094B7EE99
:102E7000E77A174853EC172B06F0C6F9194914489E
:102E800006F09AF80223002203990298FEF7CCF884
:102E900000287FF444AFA8E7FE1800241B1A002482
:102EA00092F8060884190024B1F80608C7F8060845
:102EB000E2F806089C180024201A0024221A002494
:102EC00005F90608AC1A0024361900241DF9060875
:102ED000543200243519002431F906083BF906085C
:102EE0003DF9060879250708AE1A002410B5274CCD
:102EF0002278A2F10803012B01D90D2A44D1244BD9
:102F00001B7823B90520BDE81040FFF761BA214BBB
:102F10001B782BB1204B1B7813B1FDF74DFE28B960
:102F20001E491F4806F048F80A20ECE7082A04D09A
:102F3000FEF740FA28B10D2A09D007232078237024
:102F4000E1E71849164806F037F80B20DBE7FEF7F3
:102F5000EDFB28B91449124806F02EF80E20D2E7EE
:102F6000FDF74AFB48B9114B1868022390FBF3F0B8
:102F70004042FDF7CDFE0028DFD10D49084806F09C
:102F80001BF807202070BEE710BD00BF180000240A
:102F9000FE180024291900242A19002484F10608A7
:102FA00054320024A7F10608D3F10608981A002429
:102FB000F8F10608074B1B78072B01D0FFF796BFE7
:102FC000054B1B781BB1054B1878FFF701BA05209C
:102FD000FBE700BF18000024FE1800241B0000249B
:102FE000F0B52DED028B83B0FDF71AFC6C4A6D4BEA
:102FF0001178A9B1197899B1002313706A4B1A7826
:10300000072A4FF007020CBF684910461A7008BF24
:10301000087803B0BDEC028BBDE8F040FFF7D8B9EB
:103020001B782BB96249634805F0C6FF0520F0E71D
:10303000614C06F0A7FA2378052B00F2AC81DFE89B
:1030400013F0060021004A008101AA019E015B4B9A
:103050001A78002A00F09F8100221A70584B1B78C2
:103060001A0708D45749534803B0BDEC028BBDE89A
:10307000F04005F0A1BF544B01206362FEF77CFBDA
:103080005249F0E76368C01AB0F5FA6FC0F0838167
:103090004F4BE2681B689B1A03F11302262A07D8DC
:1030A0004C4803B0BDEC028BBDE8F040FEF786BB98
:1030B00000224FF0FF4102209342E2612284CCBF04
:1030C00001234FF0FF33C4E9052184F82230FEF7D5
:1030D00053FB4149C7E7A268821AC72A15D93C4B5E
:1030E00019682369CB1A002B28DC05D04FF0FF3577
:1030F00094F92260AE4223D094F82130FF2B02D005
:10310000013384F82130A06021616368C01A41F264
:103110008733984240F23F812D4B1A68E368D31AF7
:1031200003F16301C62907D994F82010132903D9A4
:1031300094F8211001295BD92848B2E70125D7E787
:1031400007EE903A9FED267A94F82030F8EEE77A71
:10315000F0EEE77A67EE877A07EE102AB8EE477A44
:10316000C7EE876AD4ED057A77EEA67AC4ED057AC4
:10317000D4ED067AF4EEE76AD4ED077AF1EE10FAB0
:10318000F4EEE76A48BFC4ED066AF1EE10FAC8BF74
:10319000C4ED076AFF2B1CBF013384F82030B2E76F
:1031A00084190024FE180024180000241B000024A9
:1031B0005A040708543200240019002485190024F9
:1031C0008119002492040708042B0708CE0407087D
:1031D00040190024F6040708200507084D050708D4
:1031E00000007A44FFFF7F7F6666663FCDCC8C3F50
:1031F00007EE903AB8EEE77A5FED077AB0EEC77A5D
:1032000027EE277A07EE900AF8EE677A87EE278A8C
:103210005FED0C7AB4EE678AF1EE10FA00F290805E
:10322000B5EEC08AF1EE10FA40F28A805FED127AB4
:1032300094ED067A68EE277AF4EEC77AF1EE10FA8A
:103240007EDC5FED167A94ED077A68EE277AF4EE6D
:10325000C77AF1EE10FA73D4002B514D5149CCBF0F
:1032600001234FF0FF33504E2B70504B504FD3ED96
:10327000007A00234F4868EE277A0B604E49C6ED6E
:10328000007A77EEA77A0B604C4B4D49C7ED007A78
:103290001A6005F07AFED6ED007A02264548B7EEB0
:1032A000E77A009653EC172B05F0AEFF45494148ED
:1032B00005F06BFED7ED007A3E48B7EEE77A009650
:1032C00053EC172B05F0A0FF3F493A4805F05DFE8F
:1032D0000A2295F900100125364805F0CCFE3B493D
:1032E000344805F052FED4ED067A0095B7EEE77A41
:1032F000304853EC172B05F087FF2F212D4805F0A0
:1033000051FEB7EEC87A00952A4853EC172B05F00A
:103310007BFF2F21274805F045FED4ED077A009565
:10332000B7EEE77A234853EC172B05F06DFF2849D9
:10333000204805F041FE0320FEF71EFA254992E6DB
:103340002548AEE6254B1B781B0710D4244B0122E1
:1033500004201A70FEF710FA2249164805F02CFED8
:1033600003B0BDEC028BBDE8F040FFF723BE6368FD
:10337000C01A47F2305398420DD91B4891E61B4BB7
:103380001A7842B100221A7003B0BDEC028BBDE87E
:10339000F040FEF73FBA03B0BDEC028BF0BD00BFBA
:1033A0001C000024041B00240C1B00240C0000241F
:1033B000081B00245432002490190024E01A002431
:1033C000B5050708C6050708DE050708EC05070868
:1033D0000F0607081A060708880507088119002440
:1033E000281900243C0607086706070885190024E9
:1033F000314B1B7873B52BB9052002B0BDE8704086
:10340000FEF7E6BF2D4B1B78002B52D1FDF72CF9B0
:1034100000284ED12A4B2B4D009340F2067395F9AC
:103420000010ADF80430284EC9B196F90030B3B998
:10343000264A13785B1A23D4062BA8BF00231370E7
:1034400002AA234C13442349234813F8083C237051
:1034500005F09BFD0A2221781F4805F02FFE2B78EE
:103460001E4A3370137823B300231370184A11785F
:1034700007291DD8DFE801F0060E1C1C11141618D0
:103480000523DCE7164B08221A7002B0BDE8704035
:10349000FFF72CBD124B0922F6E7114B0D22F3E783
:1034A0000F20AAE71020A8E70E4A11201370A4E706
:1034B000137002B070BD00BFFE1800241B1A002458
:1034C00000010405B5190024611900249519002490
:1034D000511A002428F706085432002485190024C4
:1034E00018000024521A002438B5FDF799F900237A
:1034F000104A1370104A1370104A1380104B1D7B32
:103500005C7BFEF74DFF15B90E4B1B7823B90520E8
:10351000BDE83840FEF75CBF0CB10720F8E70A4968
:103520000A4805F049FD0A490A48BDE83840FEF757
:103530009BBB00BF1B1A0024881A0024AC1A00246D
:10354000A0180024FE180024D809070854320024CB
:103550000A0A07081E0A0708F8B505460F46194863
:1035600016461949194C05F010FD2946154805F075
:1035700037FDE3893BB1164A164813800322164BE8
:103580001A70FEF757FE29461448FEF76DFB00251A
:10359000FDF7FEF8FDF714F9114B082027731D7095
:1035A000104B66731D70FEF7D1FEFDF725F818B9B4
:1035B000BDE8F840FFF798BF28460121BDE8F84074
:1035C000FDF770BA5432002410090708A01800242F
:1035D0009C18002427090708361900243A0907080F
:1035E0001B1A0024881A002438B5294CDFED296AFB
:1035F0002DED028B9FED288AD4ED058A78EE688A3E
:10360000F0EEE87AF4EE667AF1EE10FA3DD8234D4A
:10361000E2692B689B1A07EE903A214B93F9003030
:10362000B8EEE77A07EE903A1E4BF8EEE77A67EECF
:10363000277A94ED067A38EE478A9FED1B7A38EEAA
:10364000478A93ED007AA7EE878AF0EEC87AF4EE07
:10365000667AF1EE10FA18D805F094FF2B68E26A4A
:103660009A4207D0226B2AB182423CBF84ED0A8A7B
:10367000C4E90B300D4B0120C4ED088A1B6884EDB2
:10368000098A6363BDEC028B38BD0020FAE700BFF6
:10369000A0180024FFFF7F7F0000000040190024D5
:1036A0001C0000240C00002400405344041B002490
:1036B000094B02229FED097A1B6893FBF2F35B42F0
:1036C00007EE903AF8EEE77AF0EEE77AC7EE877AFF
:1036D00017EE900A704700BF981A002400409C45DE
:1036E00008B50C4BDFED0C6A93ED006A86FE866A26
:1036F000FFF7DEFFF6EE007A07EE100A77EE277A84
:10370000B0EE667AA6EE277A76EEC77A17EE900AC2
:1037100008BD00BF041B0024000000004A4BB3F9A1
:10372000003007EE903A494BF0B5F8EEE77AB3F97E
:1037300000700026464D2DED048BB2EE049A9FEDED
:10374000458A85B018EE102A18EE101AC7EE899A2D
:1037500003AB009302ABCDE9026678EE698A18EEFE
:10376000900AFDF753FB38B93B492888FEF7B2FDB4
:1037700005B0BDEC048BF0BD07EE907A374C2B887A
:10378000F8EEE77AC4ED059AE381354B87EE897A46
:10379000C4ED088A1B7884ED098A2374314B84EDCB
:1037A0000A8A1B68E361304B1B68E36284ED067A8A
:1037B00005F0E8FE2D4B2E4A1B6884F83C6001267C
:1037C000A3632B88206313802A4A2B4913802B4B39
:1037D0002B481E7084ED108A05F0D7FB0A22E18980
:1037E000274805F046FC2749254805F0CEFB0A226C
:1037F000E169234805F01BFC2349214805F0C5FB7E
:10380000022300221E480093002305F0FFFC03233F
:1038100018EE102A18EE101A18EE900AFDF704FCA4
:1038200030B91A492888FEF755FDFEF7B9FD9FE724
:1038300017491848FEF718FA1548FEF7FBFC304602
:10384000FEF784FD94E700BF201A0024221A00240A
:10385000AE1A00240000000099060708A0180024F2
:10386000351900244819002440190024041B0024A1
:10387000AC1A00249C180024C90607083619002435
:1038800054320024EA060708F4060708FD06070874
:10389000220707083407070810B50B4C0B492046D0
:1038A00005F073FB0A4B0A222046196805F0F7FB66
:1038B0000849204605F069FB074B20460A22196893
:1038C000BDE8104005F004BC54320024B9F30608EA
:1038D000AC190024CDF306088819002438B5044635
:1038E000FCF79EFF104B114DDA89114B2846114908
:1038F0001A800422104B1A700022104B1A8005F017
:1039000044FB2146284605F06BFB21460C48FEF798
:10391000ABF90C48FEF78EFCFFF7BEFF0720BDE8B1
:103920003840FEF713BD00BFA01800245432002415
:103930009C1800243CF3060836190024AC1A002415
:1039400047F306084EF306082DE9F0419C4C217818
:1039500008292DED028B82B033D19A4A13785BB2DD
:10396000002B02DD984B1B78E3B913781B0602D5B8
:10397000964B1B78B3B9FCF76FFEC0B105F002FEA1
:103980006368C01A47F23053984240F25D83FCF7F7
:1039900047FF8F49072002B0BDEC028BBDE8F04124
:1039A000FEF776BEFCF73CFF8A490820F3E7137860
:1039B000002BE3D102B0BDEC028BBDE8F041FFF774
:1039C00093BD854B1A7842B90121844802B0BDEC01
:1039D000028BBDE8F041FFF7BFBD814B187820B1E5
:1039E000002101227F481970F0E7042905D1754BA9
:1039F0001B781F0644BF754B18787B4F3B785BB232
:103A0000002B03DD794B1B78002B34D13B781E064D
:103A100003D5774B1B78002B2DD1764E33785BB2D4
:103A2000002B02DD744B1B782BBB33781D0602D5AF
:103A3000724B1B78FBB9634D2B785BB2002B02DD18
:103A4000614B1B78BBB92B781B0603D55F4B1B78EA
:103A500003B180B14B1E022B02D98B1F5A425A412F
:103A6000FDF7A8FC58B951B902B0BDEC028BBDE816
:103A7000F041FCF7D5BEFCF7D3FE614995E7FDF7B1
:103A800055FE30B90029EFD0D2B1024601465D485B
:103A90009CE71AB1FDF728FF024670B181B923787F
:103AA000072B00F2D182DFE813F019003100640027
:103AB00010012901E6010302BF020146524885E7D1
:103AC0000729ECD005F05EFD6368C01A47F2305359
:103AD0009842E4D900224D48114677E7FCF7A0FE52
:103AE000FDF760FC002800F0AF82494B1B88002BDB
:103AF00000F0AA82474A12889A4200F0A58202B0DA
:103B0000BDEC028BBDE8F041FFF708BEFFF76CFD8E
:103B1000024610B90146404858E7F1EE047A94EDA8
:103B2000097AB4EEE77AF1EE10FA03DD00223B48A1
:103B300011464BE73A4B1B78002B40F08582FCF78F
:103B40007BFD002840F08082FCF77EFD002840F0DD
:103B50007B823B78002B40F077823378002B40F05B
:103B60007382022002B0BDEC028BBDE8F041FEF78B
:103B7000EDBBFCF725FEFFF737FD024610B9014605
:103B8000284823E7D4ED095AC4ED145AFFF7A8FDDD
:103B9000B1EE047A07EE900A2064F4EEC75AF1EE13
:103BA00010FA03DD0022204811460FE7F4EEE75A31
:103BB000F1EE10FA3CDD00221C48114606E700BF7A
:103BC000A01800241A1A0024C5190024C4190024BE
:103BD00058FE060839FE0608FE18002492F806086A
:103BE00084190024B1F80608181A0024C01900240A
:103BF000C1190024191A0024C2190024C319002471
:103C00007DFE0608A4FE0608B6FE0608C9FE0608E4
:103C1000AE1A00249C180024D9FE0608F7FE0608F8
:103C20001B1A00242EFF060860FF060882FF060804
:103C3000AB490225AB4805F0A8F9D4ED097AA948AB
:103C4000B7EEE77A009553EC172B05F0DDFAA6499D
:103C5000A44805F09AF9D4ED107AA2480324B7EEEF
:103C6000E77A009553EC172B05F0CEFA9F499D4853
:103C700005F08BF99E4B9B48D3ED007A0095B7EE8B
:103C8000E77A53EC172B05F0BFFA9A49954805F0EF
:103C90007CF9FFF70DFD07EE900A0094B7EEE77A86
:103CA000904853EC172B05F0AFFA93498D4805F077
:103CB0006CF90022914B00948A4805F0A7FA9048CD
:103CC0009049FDF7D1FF20464CE7FCF779FD8E4B7C
:103CD0001D68022395FBF3F56D422846FDF718F8A1
:103CE000024610B90146894870E6002328460121A2
:103CF00084F83C30FCF7D6FE042033E7844EFCF712
:103D00005FFD327862B1FCF773FD7F4B18680223C8
:103D100090FBF3F04042FCF787FC002384F83C3032
:103D2000FCF79AFC002840F08F812B78002B40F0A4
:103D30008B81327802BB94F83C30D3B901237549AA
:103D4000684884F83C3005F037F973497348FDF74B
:103D50008BFF6D4B08211868022390FBF3F0404263
:103D6000A0F5167002B0BDEC028BBDE8F041FCF787
:103D700099BE11466A4829E694ED086AFCF736FFB9
:103D800007EE900A76EE677AC4ED157AFDF7CEFC61
:103D900008B1FFF729FC636A0225624E236505F02E
:103DA000F1FB3368604AA3640023606484F84C30FC
:103DB0001370FCF705FDFCF71BFD5C49494805F055
:103DC000E4F8FCF713FF07EE900A0095B7EEE77AE8
:103DD000444853EC172B05F017FA5549414805F0B4
:103DE000D4F8FCF721FF07EE900A0095B7EEE77ACA
:103DF0003C4853EC172B05F007FA4E49394805F0BB
:103E0000C4F8D4ED157A3748B7EEE77A009553EC4D
:103E1000172B05F0F9F94849324805F0B6F8D4ED0A
:103E2000147A3048B7EEE77A009553EC172B05F07B
:103E3000EBF942492B4805F0A8F82D4B2948D3ED62
:103E4000007A0095B7EEE77A53EC172B05F0DCF912
:103E50003B49244805F099F80A223168214805F0C9
:103E6000E6F838491F4805F0A7F837483749FDF705
:103E7000FBFE062076E6FCF7A3FCFCF7EDFB002832
:103E800040F0E2802B78002B40F0DE8094F84C204C
:103E900012B911462E4899E52E4A2F48136801336E
:103EA000136002B0BDEC028BBDE8F041FFF716BD18
:103EB000FCF76EFC0026FCF783FCFCF799FC1A4B20
:103EC0001E70134B1A7812B9114624487EE5FFF78D
:103ED0008BFB0246002845D10146214876E500BF0C
:103EE000B6FF060854320024DEFF0608EEFF06087F
:103EF000041B0024F4FF0608F9FF06080000E03F59
:103F00003000070804000708981A00243800070842
:103F1000C41900245B00070890000708B8000708D0
:103F2000C10007084019002485190024F300070880
:103F3000ADF206081C010708250107082E01070835
:103F4000EA0607083A0107089E0107086A01070800
:103F5000AA01070888190024D2010708E30107080D
:103F600011020708D4ED097AF5EEC07AC4ED147A8F
:103F7000F1EE10FA68D4374A0127136884F84C70C0
:103F80003B44136005F0FEFA636C3349A0EB030871
:103F9000324B33481D68A36CED1A324B93F9003055
:103FA00007EE905A08EE103AF8EEE77A2E4BB8EE8C
:103FB000C88A28EE278AD3ED007A28EE278A04F0F3
:103FC000E4FF0A224146264805F069F827492448BB
:103FD00004F0DBFF0A222946214805F028F824498D
:103FE0001F48032504F0D1FFB7EEC87A00951C489E
:103FF00053EC172B05F008F91E49194804F0C5FFCA
:10400000D4ED097A1648B7EEE77A009553EC172BF2
:1040100005F0FCF818491948FDF726FE30463946E8
:10402000FCF740FD05209DE5FCF7FAFB05F0AAFA38
:104030006368C01AB0F5FA7F06D302B0BDEC028BFC
:10404000BDE8F041FEF7ACB902B0BDEC028BBDE8B3
:10405000F08100BFAC190024400207084019002479
:10406000543200241C0000240C00002472020708B3
:104070008202070894020708AD020708CA0207086F
:104080002E4B70B5DE7B04462D4B1D78AE421CD105
:104090002C4B1A78072A0AD12B4B93F90030002BAE
:1040A00005DBFDF76FF910B1FDF774F920B9274B67
:1040B0000121082A197002D0254B1B782BB1254904
:1040C0000420BDE87040FEF7E3BA05F05BFA224B2E
:1040D0001B68C01A214B984202D921490320F0E7FE
:1040E000AE4205D1194B1B7813B1FDF763F908B93E
:1040F00044B170BD1B491C4804F05EFFBDE8704030
:10410000FEF758BF194B1A78002AF2D0184A1278D5
:10411000002AEED01C700120164B1A78072A4FF0A7
:1041200007020CBF144914461A7008BF0C78FEF73A
:10413000A3F82046BDE87040FEF74AB9531A0024A0
:10414000A81A0024801900248F1900249C19002427
:104150006C190024550A0708A019002480A903003F
:10416000700A07088A0A07085432002484190024B8
:10417000FE180024180000241B00002470B504461B
:10418000FEF7A2FB164B1B780C2B28D0154E32786D
:104190001A2A03D1BDE87040FEF70CBFFCB9124BE0
:1041A0001A78E2B1114A1278CAB11C70104C227808
:1041B000072A0ABF0F4B07251D78FCF731FB0023A8
:1041C0000D4A284613700D4A337013700C4B0D4A7C
:1041D0001A6007232370BDE87040FEF7F9B870BD80
:1041E000821900248E19002484190024FE1800244A
:1041F000180000241B000024291900242A19002477
:1042000010000024042B0708022804D003280CBF48
:1042100009200A2070470820704700002DE9F0416E
:10422000074605F0AFF9714B06461B78002B00F0EE
:10423000CA806F4B1D68451B6E4B1A789846002A42
:1042400000F0C4806C4B1C68341B6C496C4804F053
:104250009CFE0A2231466A4804F021FF69496848F9
:1042600004F093FE684B1878FDF732F80146644875
:1042700004F094FE6549624804F087FE644B0A220C
:104280005F48197804F018FF62495D4804F07DFE2C
:10429000FDF72CF80A220146594804F00DFF5E494B
:1042A000574804F072FE5D4B197809B15C4B1988D0
:1042B0000A22534804F0DDFE5A49514804F065FED5
:1042C000594B1878FCF7F6FF01464D4804F066FE9E
:1042D00056494B4804F059FE98F8001009B1544B68
:1042E00019780A22464804F0C4FE5249444804F0B2
:1042F0004CFE6A1C6DD15049414804F046FE4F49BE
:104300003F4804F042FE631C69D14B493C4804F02D
:104310003CFE4B493A4804F038FE4A4B0A223848E2
:10432000197804F0C9FE4849354804F02EFE474B81
:104330000A223348197804F0BFFE4549304804F09A
:1043400024FE444B0A222E48197804F0B5FE424957
:104350002B4804F01AFE414B0A222948196804F040
:104360009EFE3F49264804F010FE3E4B0A22244898
:10437000196804F094FE3C49214804F006FE3B4BCA
:104380000A221F48196804F08AFE39491C4804F0C3
:10439000FCFD384B0A221A48196804F080FE3649A1
:1043A000174804F0F2FD354B0A221548196804F04D
:1043B00076FE3349124804F0E8FD39461048BDE85E
:1043C000F04104F00DBE4FF0FF3535E74FF0FF34FC
:1043D0003BE70A2229460A4804F061FE8FE70A22D9
:1043E0002146074804F05BFE93E700BF86190024CE
:1043F000F01A0024B01A0024D81A0024A7FC0608DA
:1044000054320024D30B07082C190024B6FC0608EC
:1044100060190024BFFC060894030708B41A00249E
:10442000B21A0024C7FC060834190024D3FC06087D
:10443000D41A0024D9FC0608D7020708E2FC0608B3
:10444000ECFC06088D190024F6FC06088C190024E3
:1044500000FD0608DC1A00240AFD0608781900246D
:1044600010FD06087419002419FD060870190024AF
:104470001FFD06087C1900242AFD0608D419002413
:1044800050040708F8B5274F144605460E463A78FB
:10449000122A0DD1012844D1234B1A78012A40D089
:1044A00018702046214B1970BDE8F840FFF7B6BEE2
:1044B000FCF7DAF870B3FCF7B3F900231C4A1D4986
:1044C00013701D4A1D48137004F076FD1C4B1A88AA
:1044D00032B11C490A8003211B4A117000221A8044
:1044E0003B78A3F10802012A01D90D2B02D1174B09
:1044F00007221A700C4B214610481D700B4B1E7082
:1045000004F06EFD2046FFF789FE1220BDE8F8405A
:10451000FDF75EBF0E4B1B78002BCCD1FCF780F96A
:10452000D4E7F8BD821900242C1900246019002456
:1045300029190024DDF606082A1900245432002423
:10454000AC1A00249C1800243619002418000024FA
:104550001B1A00242D4A08B511782D4B1B7859B130
:1045600000210C2B117050D02A4B01202A4A1978B7
:10457000BDE80840FFF786BF284A1178092909D904
:10458000122B03D8264ADA40D00703D4254B264AFB
:104590001878EDE7254A1278092A0CD9122B03D88E
:1045A0001F4ADA40D20708D4214B19780846FFF792
:1045B0002BFE204ADCE7122B04D8194A22FA03F317
:1045C000DB0722D4FCF7AAFEF8B904F0DBFF1A4B94
:1045D0001B7833B1194B1B68C31A962B8CBF002371
:1045E0000123174A127822B1164A1268801A9628B7
:1045F00003D80720144A0021BAE7002B134B124AB4
:104600000EBF072006201A46F5E708BD2B19002427
:104610008219002434190024530807088D19002436
:1046200003100400C41A0024850807088C1900240C
:10463000DC1A0024AB08070886190024F01A0024AD
:10464000B01A0024D81A0024290807080A08070805
:10465000034B1878033802288CBF002001207047D4
:10466000001B0024064B1B78DA1E012A03D9092BF4
:1046700003D1FFF7EDBF012070470020704700BF56
:104680006D19002410B5FCF7CBF800241B4B1C4A15
:104690001C701C4B1C491C7000231C4813601C4AD6
:1046A00013601C4A14701C4A0A601C490C701C4997
:1046B0000A6021461B4A14701B4A14701B4A13607F
:1046C0001B4A136001221B4B1A70282222F0B0FAF9
:1046D000194B1A4A1C801A4B1C701A4B1C8007235A
:1046E0001370194A1370FCF719FE10B10420FDF77E
:1046F000C3FD0020BDE81040FDF76ABE2919002463
:10470000741A00242A19002410000024001900241F
:10471000781A00248E190024042B07086D19002430
:1047200014000024001B0024281900240C1B002462
:10473000081B00241C0000249C18002418000024DE
:1047400036190024AC1A00241B00002410B5FFF712
:1047500089FF0446FCF7E2FD20B90120BDE81040C6
:10476000FDF736BE0E4A1378033B022B03D9BDE892
:104770001040FFF787BF00230A4913700A4A1160EF
:104780000A4A13700A4B1B78072B03D0BDE8104070
:10479000FEF7ACBB002C14BF0B200A20DEE700BFE5
:1047A0006D190024042B0708140000248519002427
:1047B0001800002408B5554B1B78122B00F2A4807A
:1047C000DFE803F00A183051565B6D7480848C8EDC
:1047D000908869787C7C4200FCF722F804F0D2FED5
:1047E0004B4B1B68C01A40F6B733984240F28C809E
:1047F000012013E0FCF714F8FCF790FD002800F00E
:104800008380444B1B78002B7ED0FCF7ABFD002847
:104810007AD04149414804F0CFFB0220BDE808406E
:10482000FDF7D6BDFBF7FCFF04F0ACFE384B1B6870
:10483000C01A41F28733984266D9394B1B7813BBB3
:104840000520EBE70720E9E7FBF7EAFF04F09AFE13
:104850002F4B1B68C01AB0F5FA6F55D331492F485A
:1048600004F0AAFBC4E70120BDE80840FFF708BC3C
:104870000120BDE80840FFF781BCFBF7D1FF284BC2
:104880001B78002B40D0284B1B78072BDAD0BDE8D3
:104890000840FEF72BBBBDE80840FEF7A1BB204B4C
:1048A0001B78002B14BF07200520B7E7BDE80840A0
:1048B000FEF79EBDBDE80840FDF71CBEBDE8084000
:1048C000FDF75EBEBDE80840FDF784BEBDE80840C8
:1048D000FEF712BABDE80840FFF736B80020C8E777
:1048E0000020C1E7FBF79CFF0D4B1B7863B10F4B1A
:1048F0001A784AB100220E4908481A7004F05CFB8D
:10490000BDE80840FFF722BF08BD00BF82190024A0
:10491000A0190024891A002411F806085432002432
:10492000FE18002438F80608180000248519002411
:104930006EF8060807B53149314804F03DFB3149AE
:104940002F4804F022FBFCF737F980B1FCF74EF951
:1049500007EE900A02232A48B7EEE77A009353EC59
:10496000172B04F051FC2849254804F00EFBFBF7F7
:1049700033FE0A220146224804F059FB234920480D
:1049800004F01AFB22491E4804F0FFFAFCF714F960
:1049900080B1FCF749F907EE900A02231848B7EEF8
:1049A000E77A009353EC172B04F02EFC16491448B9
:1049B00004F0EBFAFBF718FE0A220146104804F057
:1049C00036FB12490E4804F0F7FA12490C4804F07D
:1049D000DCFAFBF711FE0A220146094804F027FB26
:1049E0000D49074804F0D1FA0C4B0A220448196813
:1049F00003B05DF804EB04F048BB00BFD7F706082E
:104A00005432002419010708F3F70608FAF70608DC
:104A1000AEF20608B6F2060801F80608981A002455
:104A200037B54D494D484E4D04F0C6FA4D494B48F7
:104A300004F0ABFA0A222968484804F0F8FA4A4917
:104A4000464804F0A2FAFCF7B7F8A0B1474943483A
:104A500004F09BFAFCF706F907EE900A02233F48A0
:104A6000B7EEE77A009353EC172B04F0CDFB4049E7
:104A70003A4804F08AFA39483E4C04F097FA3E4925
:104A8000364804F082FA0A222168344804F0CFFA4A
:104A90003549324804F079FAFCF78EF8A0B1334971
:104AA0002E4804F072FAFCF7F9F807EE900A022398
:104AB0002A48B7EEE77A009353EC172B04F0A4FBD7
:104AC0002B49264804F061FA244804F06FFA2B4978
:104AD000224804F05AFA2A4B0A222048196804F0A6
:104AE000A6FA21491D4804F067FA26491B4804F03C
:104AF0004CFA296802250A22184891FBF5F149422F
:104B000004F095FA2049154804F03FFAFCF7E2F862
:104B10000A220146114804F0B8FA1C490F4804F073
:104B200034FA21680A220D4891FBF5F1494204F05C
:104B30007EFA1549094804F028FAFCF7D5F80A224C
:104B40000146064804F0A1FA1149044803B0BDE843
:104B5000304004F031BA00BFE3F3060854320024B9
:104B6000901A002402F40608FAF706080BF4060867
:104B7000D9F60608941A00240FF4060818F406085B
:104B8000981A002421F4060836F406083AF40608B8
:104B90004FF4060810B51D4C1D49204604F00CFAD0
:104BA0001C49204604F008FA1B49204604F004FA88
:104BB0001A49204604F000FA1949204604F0FCF98D
:104BC0001849204604F0F8F91749204604F0F4F992
:104BD0001649204604F0F0F91549204604F0ECF996
:104BE0001449204604F0E8F91349204604F0E4F99A
:104BF0001249204604F0E0F91149204604F0DCF99E
:104C000020461049BDE8104004F0D6B954320024C3
:104C100073F4060894F40608CCF40608F3F40608C6
:104C20001AF5060839F506085BF506088FF506083B
:104C3000D9F5060814F6060848F6060868F60608C8
:104C40009DF60608B7F6060808B50C4B1B78072B2F
:104C500001D0002008BDFCF761FB0028F9D0084B0B
:104C60001B78002BF5D0FBF7A7FF0028F1D0054BF0
:104C7000187801288CBF00200120EBE7821900245E
:104C800029190024881A002438B51D4D2C78042CCD
:104C900020D0A4F10A035C425C411A4B1B78DBB1C3
:104CA00000211948FCF766FACCB10023174A1849CD
:104CB0000C201370174A1370174B184A1A601B22E6
:104CC000174B1A70FDF7E4FC16491748BDE8384049
:104CD00004F072B90124E0E7FBF7A2FDE4E72B78CA
:104CE000A3F10802012A01D90D2BEDD10F4B1B783E
:104CF000002B14BF07200520FDF76AFBE4E700BF87
:104D0000821900241B1A002462F3060829190024C2
:104D10007FF306082A190024100000246DF306080A
:104D20008E1900249EF3060854320024FE18002435
:104D300070B505462DED028B8EB004F0AEFBAB686E
:104D4000002B00F09982294605A804F0F8FA05A87E
:104D500004F097FBAC4905A804F037FB10B1FFF74E
:104D600019FF86E2A94905A804F02FFB10B1FFF74F
:104D7000E1FD7EE2A64905A804F027FB10B1FFF78C
:104D80004FFE76E2A34905A804F01FFB20B1A2491B
:104D9000A24804F0FAF811E0A14905A804F015FBB7
:104DA0000028F4D19F4905A804F00FFB002800F06B
:104DB00087819D49994804F0E8F8BAE09B4D0A22A2
:104DC0009648296804F033F99949944804F0DDF8CD
:104DD000984C0A2228682168411A904804F027F963
:104DE00095498E4804F0D1F8944B02228B481968FB
:104DF00004F03FF99249894804F0C7F8914B0A2220
:104E00008648196804F035F98F49844804F0BDF8E4
:104E10008E4B10228148197804F04EF98C497F4856
:104E200004F0B3F88B4B7D48D3ED007A0123B7EE45
:104E3000E77A009353EC172B04F0E6F9864977489C
:104E400004F0A3F8854B7548D3ED007A0323B7EE41
:104E5000E77A009353EC172B04F0D6F980496F489A
:104E600004F093F8226803212B687E4C9B1A7E4D38
:104E70006A4807EE903A95ED007A94F90030F8EE22
:104E8000E77A009127EE877A07EE903AF8EEE77A14
:104E900067EE277AB7EEE77A53EC172B04F0B4F9F4
:104EA00072495E4804F071F8D5ED007A09235B4839
:104EB000B7EEE77A009353EC172B04F0A5F96C4991
:104EC000564804F062F80A2294F90010534804F09E
:104ED000D0F86849514804F058F8674B4F48D3ED73
:104EE000007A0223B7EEE77A009353EC172B04F015
:104EF0008BF96249494804F048F8614B4748D3EDC3
:104F0000007A0223B7EEE77A009353EC172B04F0F4
:104F10007BF95C49414804F038F85B4B5B4A1978EF
:104F20005B4B002914BF114619463C4804F044F875
:104F30009FE1444B0A223948196804F09AF8554910
:104F4000364804F022F8544C0A223448216804F010
:104F5000A6F824681CB9314804F028F889E14F4BC1
:104F6000D3E900011EF0E0FF07EE904A07EE100AB9
:104F70004B49F8EE677A294887EE278A04F005F84E
:104F8000484B2648D3ED007A0223B7EEE77A009328
:104F900053EC172B04F038F94349204803F0F5FF90
:104FA000B7EEC87A02231D48009353EC172B04F088
:104FB0002BF93E49194803F0E8FF0A224FF400613B
:104FC000164804F056F83A49144803F0DEFFDFEDC6
:104FD000397A0223114838EE678ADFED377A009379
:104FE000B0EEC88A28EE278ADFED347A28EE278AC9
:104FF000B7EEC87A53EC172B04F006F925210748C1
:1050000003F0D0FFA7E700BF17FA06081DFA06084D
:1050100021FA060827FA060832FA06085432002454
:10502000C202070840FA0608CCFA06084019002414
:105030004BFA06083C19002456FA0608E41A002424
:105040005DFA0608A41A002466FA060881190024ED
:1050500070FA0608901900242E010708041B00248A
:105060007CFA06081C0000240C0000248DFA0608B7
:1050700099FA0608ABFA06080C1B0024B1FA0608D8
:10508000081B0024C1FA060828190024E1110708AA
:105090000DFA0608E3FA0608B0190024581900248E
:1050A0004DF70608CC1A0024FAFA06080BFB06088E
:1050B00019FB0608000000450000C8420000003A45
:1050C000764905A804F081F9002833D0744B1B7889
:1050D0000D3B012B09D9FBF7C7FA30B9714B1B788F
:1050E0001BB9714800F0E6FF01E070491DE700239D
:1050F0006F4A0021002013606E4A13606E4A1360ED
:105100006E4A13606E4A13606E4A13706E4A1360E3
:105110006E4A13606E4A13606E4AC2E900010022B3
:105120006D490A606D490B606D4B6E491A606E4B9C
:105130001A60FAE66D4905A804F047F910B1FFF7C7
:10514000A3FD96E06A4905A804F03FF960B1544B0D
:105150001B780C2B01D06749E7E66749674803F0E5
:105160002BFFFFF7F3FA84E0654905A804F02DF959
:1051700058B1FFF769FD08B96249D6E6002201235C
:1051800011461046FBF750FF73E0FFF75DFD08B9CD
:105190005D49CAE6294608A804F0D1F80BAC5B4982
:1051A000204604F08BF8214605A804F036F906469F
:1051B000204604F038F866B1AB680522294620463F
:1051C00004F034F9214608A804F0C3F8204604F09E
:1051D0002AF820222C210DEB020004F047F90023CD
:1051E00003AA4B49039304930B93002308988DF86B
:1051F0000B300DF10B03CDE9004304AB21F0FAFFB6
:1052000003281CD19DED037ADFED427AF0EEC76AE8
:10521000F4EE676AF1EE10FA11D8DDED046AB0EE33
:10522000E66AB4EE676AF1EE10FA08D89DED0B6AF3
:10523000F0EEC65AF4EE675AF1EE10FA04D9364988
:105240002E4803F0A2FE09E0012316EE102A16EE06
:10525000901A17EE100AFBF7E7FE07E029462748E9
:1052600003F0B4FE2D49254803F0A6FE08A803F07C
:10527000DAFF05A803F0D7FF0EB0BDEC028B70BDBE
:10528000204603F0D0FF08A803F0CDFF05A803F0E7
:10529000CAFF1EF02FFAF3E7F5E7F7E721FB060850
:1052A000821900241B1A0024882000242AFB0608E7
:1052B00040190024E01A00243C190024A41A0024F8
:1052C000E81A00249C1A0024981900244419002488
:1052D000B019002458190024CC1A0024F41A002410
:1052E000041B002459FB06089019002468F30608E3
:1052F0008FFB06089AFB0608CCFB060854320024F4
:10530000D0110708FDFB060831FC060865FC0608FD
:105310006BFC0608FFFF7F7F77FC060897FC0608FA
:1053200010B50446FBF73BF9204610BD38B5074BD6
:105330000546044645F8283B09F096FA2846FFF74B
:10534000EFFF204609F09CFB204638BDB42007083B
:10535000044BC36003460A6843F8042B00224260F2
:105360005A60704744F0060813B50446019121B90C
:10537000FBF70FF9204602B010BD01A9FFF7E8FFC7
:10538000F8E70368184708B5FFF7FBFF08BD000002
:1053900038B50B4C0B4D204609F056FA20460A4C06
:1053A0002A460A490DF0D4F90949204603F086FF40
:1053B0002A4620460749BDE838400DF0C9B900BF6C
:1053C000D819002400000024C81900242D53040813
:1053D000042B07082792040830B5202289B0402109
:1053E0004A4801F075FB2028044609D0474C204666
:1053F00001F0E9FB002875D0204601F0EEFBF6E74E
:10540000424801F0E0FB1F28F0DD22463F4D00241A
:105410000021684621F00CFC284601F0DEFB0DF867
:1054200004000134202CF7D1384D284601F0CBFB85
:10543000044618B1284601F0D0FBF6E79DF800308D
:10544000E32B07D19DF80130072B03D19DF80230E3
:10545000202B12D02E4A1368013313602D4A136893
:105460000133136003222C4B1A702C4A1378FF2B44
:105470001BD10024204609B030BD9DF81F501F21CC
:105480006846FBF791F8854212D16846FCF738FA76
:105490000446F8B91E4A136801331360204A1368A2
:1054A0000133136005221C4B0CE001331370E0E75D
:1054B000174A1368013313601A4A136801331360E3
:1054C0000422154B1A70154A1378FF2BD1D00133E3
:1054D0001370CFE76846FCF743FD134A13680133A6
:1054E0001360C7E70A4A04461368013313600F4A82
:1054F0001368013313600222074B1A70074A1378AE
:10550000FF2B1CBF01331370B4E700BFA425002498
:10551000B819002474190024C41A00248D19002419
:105520007C19002470190024BC1900247819002467
:1055300010B588B020220021684621F079FB68462A
:10554000FCF79AFA4021134801F0B8FA2022694684
:10555000104803F0F1FC044601210E4801F020FB45
:10556000202C0D490D4A09D140B90D4C0870236813
:10557000107001200133236008B010BD094C087081
:1055800000202368013323601378FF2B1CBF0133F5
:105590001370F1E7A4250024DC1A00248C190024E0
:1055A00068190024641900241E4B1B7810B5002BC9
:1055B00037D0FBF7B3FE002833D11B4B1A78122AE1
:1055C0002FD81A4BD340DB072BD5FBF74DF840BB48
:1055D000174B1C782CBB03F0D5FF164A1368C31A6F
:1055E000B3F57A7F1DD31060134801F018FB124801
:1055F00001F098FA1149104801F0C3FA104B114913
:105600001C70114B11481C70114C2368013323602E
:1056100003F0BBFC21680A220C48BDE8104003F0EF
:1056200057BD10BD3819002482190024071004004A
:105630001B1A0024F81A0024A4250024A0860100C7
:105640008D190024240A07088C19002454320024E0
:10565000A01A00247FB51B4D1B4C1C4E284602F09F
:105660001BF868B3284602F089F8A368C1B20A297A
:1056700001D00D2910D1002BF0D0214601A803F054
:105680005EFE01A8FFF754FB01A803F0CCFD3146F4
:10569000204603F064FEE1E74F2B03D8204603F0D9
:1056A00089FEDBE73146204603F059FE08492846CB
:1056B00003F082FCD2E701A803F0B5FD1EF01AF852
:1056C00004B070BD54320024C8190024042B07080C
:1056D00064F1060837B503F055FF864A13682BB10D
:1056E0008549C31A0C689C4238BF0B60834D10601B
:1056F000FBF782FEFFF7AEFFFAF7DEFF03F042FF93
:105700002B78044683B97E4B40F6B7321B68C31A28
:10571000934209D901237B492B707B4B18607B4B4B
:1057200018607B4803F048FC2B7843B1774A136834
:10573000E31A132B40F2D2801460FFF7F9FEFBF757
:1057400003F838B9734B1B780C2B03D07249062031
:10575000FCF79EFFFDF716F80025FEF7FBFEFFF7AE
:1057600029F8FCF76DFDFBF7DBF9FFF71DFF6B4B2D
:105770006B4A1D706B4B1D706B4B1D701368E31AE9
:10578000B3F57A7FC0F0B48068496148146003F0D3
:10579000FCFB674B0A225E48196803F080FC6549F0
:1057A0005B4803F0F2FB644B0A225948196803F086
:1057B00076FC6249564803F0E8FB614B0A225448E4
:1057C000196803F06CFC5F49514803F0DEFB5E4B47
:1057D0000A224F48196803F062FC5C494C4803F008
:1057E000D4FB5B4B0A224A48196803F058FC59491C
:1057F000474803F0CAFB584B0A224548196803F092
:105800004EFC2921424803F0CDFB5449404803F0A7
:10581000BCFB534B0A223E48196803F040FC514937
:105820003B4803F0B2FB504B0A223948196803F099
:1058300036FC4E49364803F0A8FB4D4B0A2234484B
:10584000197803F039FC4B49314803F09EFB4A4B71
:105850000A222F48197803F02FFC48492C4803F0FE
:1058600094FB474B0A222A48196803F018FC454963
:10587000274803F08AFB204B0A222548196803F0C9
:105880000EFC4149224803F080FB404B2048D3EDF9
:10589000007A0123B7EEE77A009353EC172B03F05D
:1058A000B3FC3B491A4803F070FB3A4B1848D3ED60
:1058B000007A0095B7EEE77A53EC172B03F0A4FCBF
:1058C0003549134803F061FBFBF710FD0A2201463E
:1058D0000F4803B0BDE8304003F0F0BB0A4A13683C
:1058E000E31A092B7FF62BAF1460FFF775FD26E74F
:1058F00003B030BDC81A0024D4190024381900247C
:10590000C01A0024B10A0708BC1A0024B81A0024DF
:105910005432002482190024DB0A07088519002468
:10592000FC1A00248319002484190024010B0708A1
:10593000BC1900240D0B0708B8190024170B070821
:10594000781900241D0B070874190024230B07087D
:1059500070190024290B07087C1900242F0B070855
:1059600068190024360B070864190024400B070847
:10597000DC1A00244B0B07088C190024560B07086F
:10598000A01A0024620B0708710B0708041B0024EF
:105990007C0B070890190024850B07080000000005
:1059A00070B586B0684D08F079FA064608F05CFAE2
:1059B000664C0B2E4FF4E131286094BF644B0823F2
:1059C000644898BF9B5D237001F04CFF624801F072
:1059D000A9F86249604801F0D4F82321604800F03A
:1059E0009CFD604800F066FB00215F48FAF7B0FCC0
:1059F00000215E48FAF7ACFC00215D48FAF7A8FCEC
:105A000000215C48FAF7A4FC00215B48FAF7A0FCEF
:105A100000215A48FAF79CFCFAF702FFFAF74CFE0D
:105A2000574902A8FFF7A0FC6422002302A95548A9
:105A300008F035FF02A8FFF773FC03F0A3FD524BFB
:105A4000524A1860524B53491860534B1860534BDD
:105A5000186000233F481370514A1370514A137065
:105A600003F0AAFA50493B4803F08FFA2078FBF77D
:105A700021FC01463748012403F090FA4B49354890
:105A800003F083FA0A223146324803F015FB4849F5
:105A9000304803F07AFA102229682E4803F018FBE8
:105AA00044492C4803F088FA43492A4803F084FA11
:105AB0004249284803F080FA4149264803F07CFA1D
:105AC0004049244803F061FA3F4B2248D3ED007A65
:105AD0000923B7EEE77A009353EC172B03F094FBFE
