:020000040804EE
:100000000000082401E205084DE20508411E05082C
:10001000471E05084D1E0508531E05080000000078
:10002000000000000000000000000000999C04088F
:100030004DE2050800000000339D0408439D0408BC
:100040004DE205084DE205084DE205084DE20508C0
:100050004DE205084DE205084DE205084DE20508B0
:100060004DE205084DE205084DE205084DE20508A0
:100070004DE205084DE205084DE205084DE2050890
:100080004DE205084DE205084DE2050805F10508B9
:1000900015F1050811F1050821F105084DE20508E3
:1000A0004DE205084DE205084DE205084DE2050860
:1000B0004DE205084DE205084DE205084DE2050850
:1000C0004DE205084DE205084DE205084DE2050840
:1000D0004DE205084DE205084DE205084DE2050830
:1000E0004DE205084DE20508000000004DE205085C
:1000F0004DE205084DE205084DE205084DE2050810
:100100004DE205088DDF05084DE205084DE20508C2
:100110004DE205084DE205084DE205084DE20508EF
:100120004DE205084DE205084DE205084DE20508DF
:100130004DE20508D3CB04084DE205084DE2050861
:100140004DE205084DE20508000000000000000037
:100150004DE205084DE205084DE205084DE20508AF
:100160004DE205084DE205084DE205084DE205089F
:100170004DE205084DE205084DE2050800000000CB
:100180004DE205084DE205084DE205084DE205087F
:100190004DE205084DE205084DE205084DE205086F
:1001A0004DE205084DE205084DE205084DE205085F
:1001B0004DE205084DE205084DE205084DE205084F
:1001C0004DE205084DE205084DE205084DE205083F
:1001D0004DE205084DE205084DE205084DE205082F
:1001E0004DE205084DE205084DE205084DE205081F
:1001F0004DE205084DE205084DE205084DE205080F
:100200004DE205084DE205084DE205084DE20508FE
:100210004DE205084DE205084DE205084DE20508EE
:100220004DE205084DE205084DE205084DE20508DE
:100230004DE20508FDE105084DE205084DE205081F
:100240004DE205084DE205084DE205084DE20508BE
:100250004DE205084DE205084DE205084DE20508AE
:100260004DE205084DE205084DE205084DE205089E
:100270004DE205084DE205084DE205084DE205088E
:100280004DE205084DE205084DE2050800000000BA
:100290004DE205084DE2050810B5054C237833B949
:1002A000044B13B10448AFF300800123237010BD49
:1002B00080180024000000000C6F070808B5034BED
:1002C0001BB103490348AFF3008008BD00000000E4
:1002D000841800240C6F0708154B002B08BF134B24
:1002E0009D46A3F5803A00218B460F461348144AD9
:1002F000121A26F0CDFE0F4B002B00D098470E4B64
:10030000002B00D098470020002104000D000D486C
:10031000002802D00C4812F04DFC26F0A1F9200074
:1003200029000BF0CDFE12F059FE00BF00000800BE
:1003300000000824000000001DC0040880180024EC
:1003400068170124B52B0508000000007047000065
:10035000094B30B51A46094CD3F89450A542FBD14D
:10036000036829B181680B604FF44073536130BD5D
:10037000C1681B04F7E700BF006402580003008057
:1003800038B5674D674B297849B2002900F0BA802B
:100390001A886549013292B21A801A8809889142F6
:1003A0002FD8624C002262481A80237883F0010320
:1003B00023702178FFF7CCFF237813B35D4B2A78A5
:1003C00019685D4841FA82F21A600178C9B12A7849
:1003D00052B2002A04DD594A19681268914207DABC
:1003E0002A7814060DD5554A19681268914208DC1E
:1003F000524A002112681A60297001704C48FFF7B8
:10040000A7FF4F4D4F4B297849B200297ED01A885B
:100410004D49013292B21A801A88098891422FD828
:100420004A4C00224A481A80237883F00103237043
:100430002178FFF78DFF237813B3464B2A7819688C
:10044000454841FA82F21A600178C9B12A7852B25D
:10045000002A04DD414A19681268914207DA2A78B5
:1004600011060DD53D4A19681268914208DC3B4AD5
:10047000002112681A60297001703548FFF768FF83
:10048000374C384B217849B2002943D01A88364975
:10049000013292B21A801A88098891423ED8334DAF
:1004A000002233481A802B7883F001032B702978BF
:1004B000FFF74EFF2B78002B30D02E4B2278196897
:1004C0002D4841FA82F21A60017839B3227852B28B
:1004D000002A04DD294A19681268914207DA227855
:1004E00012061BD5254A19681268914216DC234A68
:1004F000002112681A60217001701D48BDE8384063
:10050000FFF726BF1980094B197077E719800F4B49
:100510001970B2E71980154B1970EEE738BD00BFAE
:10052000201A00244C19002404000024C01A0024BE
:1005300048200024A81A00243C1A0024381A002459
:10054000211A00244E19002406000024C11A002498
:1005500010200024AC1A0024481A0024441A002455
:10056000221A0024501900240A000024C21A002470
:10057000D81F0024B01A0024541A0024501A002452
:100580000B6803604B6843608B68836070470C3076
:10059000704708B5FFF7FBFF0023036008BDC36881
:1005A0000BB19B68184770470144002310B588427F
:1005B0000FD010F8014B08225C406300013A24067A
:1005C000DBB248BF83F0070312F0FF021C46F4D1F0
:1005D000EDE7184610BD000072B6024B186862B60F
:1005E000704700BFA81A002472B6024B186862B6A2
:1005F000704700BFAC1A002472B6024B186862B68E
:10060000704700BFB01A002472B6024B186062B681
:10061000704700BFA81A002472B6024B186062B679
:10062000704700BFAC1A002472B6024B186062B665
:10063000704700BFB01A002472B6024B1878C0B2DF
:1006400062B670473C1A002472B6024B1878C0B2EA
:1006500062B67047481A002472B6024B1878C0B2CE
:1006600062B67047541A002472B60D4B1B78A3B9BA
:100670000C4B1B788BB90C4B1B7873B90B4B1B784D
:1006800003F0FF003BB90A4B1B7803F0FF0013B9DE
:10069000084B1878C0B262B670470120FBE700BF74
:1006A000201A0024211A0024221A00243C1A0024B3
:1006B000481A0024541A002410B51C4C0521204669
:1006C00006F04EF8B0FA80F0194B08214009187076
:1006D000204606F045F8B0FA80F0164B0421400998
:1006E0001870204606F03CF8B0FA80F0124B022158
:1006F00040091870204606F033F8B0FA80F00F4B2E
:10070000012140091870204606F02AF8B0FA80F05E
:100710000B4B002140091870204606F021F8B0FA72
:1007200080F0084B4009187010BD00BF641F002402
:10073000C8190024C9190024CB190024CA1900249F
:10074000CC190024CD1900240B4B1B7813B10B4B93
:100750001B786BB90A4B1B7813B10A4B1B783BB95A
:10076000094B1B7833B1094B187880F001007047B2
:100770000020704701207047C8190024C9190024BF
:10078000CA190024CB190024CD190024CC19002447
:1007900072B60021054B1970054B1970054B198075
:1007A000054B197062B60548FFF7D2BD201A002428
:1007B0003C1A00244C190024C01A002448200024AC
:1007C00072B60021084B01221970084B1970084BB2
:1007D0001980084B1970084B1A8062B6074B0848FD
:1007E0001970FFF7B5BD00BF211A0024481A002474
:1007F0004E190024C11A002408000024C81A00243D
:100800001020002472B60021054B1970054B197099
:10081000054B1980054B197062B60548FFF798BD66
:10082000221A0024541A002450190024C21A002449
:10083000D81F002408B5FFF7ABFFFFF7C1FFBDE8E5
:100840000840FFF7DFBF00002DE9F041884605466C
:1008500018B9BDE8F041FFF79BBF72B6144C154EB6
:100860002278154F52B2824207D133782BB93B8898
:10087000994202D162B6BDE8F08162B6FFF788FF07
:10088000962009F0CFF8002D0C48D4BF002101219B
:10089000FFF75EFD0A2009F0C5F872B60023084A8A
:1008A000A7F800801380074A137033702570E1E7C2
:1008B000201A00243C1A0024040000246420002490
:1008C0004C190024C01A00242DE9F0410C460746BB
:1008D00018B9BDE8F041FFF773BF72B61E4EDFF8DE
:1008E000988033781D4D5BB2834208D198F8003070
:1008F0002BB92B88994202D162B6BDE8F08162B66D
:10090000FFF75EFF962009F08DF8002F1448D4BF42
:1009100000210121FFF71CFD0A2009F083F8082CB3
:10092000224638BF082272B60E4B0F491A800023A8
:100930002C800B800D490B7088F80030377062B640
:1009400094420B4B2CBF002401241C7009F04AF880
:10095000084B4B301860D0E7211A0024080000240F
:100960002C200024060000244E190024C11A002463
:10097000C81A0024B81A0024481A00242DE9F041AE
:100980008846054618B9BDE8F041FFF73BBF72B68F
:10099000144C154E2278154F52B2824207D133784B
:1009A0002BB93B88994202D162B6BDE8F08162B6AC
:1009B000FFF728FF962009F035F8002D0C48CCBF32
:1009C00000210121FFF7C4FC0A2009F02BF872B6C0
:1009D0000023084AA7F800801380074A1370337079
:1009E0002570E1E7221A0024541A00240A0000248A
:1009F000F41F002450190024C21A002470B50546C3
:100A00000E46FFF7E9FDA84203D1BDE87040FFF7AD
:100A1000BFBEACBF4FF0FF340124FFF7B9FE9620F4
:100A200009F000F8631E0C4859425941FFF790FC49
:100A30000A2008F0F7FF72B6084B01221D60084B30
:100A40001A70084B084A1E8000231380074A13704F
:100A5000074B1C7062B670BD64200024381A002455
:100A60003C1A0024040000244C190024C01A00245D
:100A7000201A002470B506460C46FFF7B5FDB042BB
:100A800003D1BDE87040FFF79BBEACBF4FF0FF3510
:100A90000125FFF795FE962008F0C4FF6B1E154850
:100AA00059425941FFF754FC0A2008F0BBFF082CBB
:100AB000234638BF082372B60F4A012116600F4A39
:100AC00011700F4A0F4913800F4A148000220A80C8
:100AD0000E490A700E4A157062B69C420D4B2CBF2F
:100AE000002401241C7008F07DFF0B4B4B30186074
:100AF00070BD00BF2C200024441A0024481A002492
:100B0000060000244E19002408000024C11A002405
:100B1000211A0024C81A0024B81A002470B5184CF1
:100B20002378B3B108F05EFF16490B68C31A002B97
:100B30000FDB72B6144B154D154A1E782B881288A0
:100B400076B29BB292B262B60EB1934202D8002343
:100B5000237070BD042B8CBF023B03F1FF339BB2AB
:100B6000934238BF134672B62B8062B69A4200F1A8
:100B70004B002CBF0023012308602370E9E700BF6E
:100B8000C81A0024B81A0024211A002406000024E0
:100B90000800002470B505460E46FFF72DFDA8425B
:100BA00003D1BDE87040FFF72DBEACBF4FF0FF345E
:100BB0000124FFF727FE962008F034FF14F1FF31DF
:100BC0000C4818BF0121FFF7C3FB0A2008F02AFFD9
:100BD00072B6094B01221D60084B1A70084B094A76
:100BE0001E8000231380084A1370084B1C7062B6E5
:100BF00070BD00BFF41F0024501A0024541A0024B2
:100C00000A00002450190024C21A0024221A0024C9
:100C100010B51C4C227852B2002A04DD1A4B1B7806
:100C20000BB1FFF7B5FD2378190604D5174B1B78D8
:100C30000BB1FFF7ADFD164C227852B2002A04DD4D
:100C4000144B1B780BB1FFF7BBFD23781A0604D5B4
:100C5000114B1B780BB1FFF7B3FD104C227852B249
:100C6000002A04DD0E4B1B780BB1FFF7CBFD237878
:100C70001B0606D50B4B1B781BB1BDE81040FFF7D8
:100C8000C1BD10BD201A0024C8190024C9190024B0
:100C9000211A0024CA190024CB190024221A002486
:100CA000CD190024CC1900240A4BD3ED007AF5EEBF
:100CB000C07AF1EE10FA0ADD074BD3ED007AF5EEBB
:100CC000C07AF1EE10FACCBF01200020704700205E
:100CD000704700BFA01A0024A41A00240C4AD2EDC9
:100CE000007AF5EEC07A08B5F1EE10FA0CDDFFF7E8
:100CF00073FC07EE900A92ED007AF8EEE76AC6EE12
:100D0000877A17EE900A08BDDFED027AF9E700BF97
:100D1000A01A0024000000000C4AD2ED007AF5EE83
:100D2000C07A08B5F1EE10FA0CDDFFF75DFC07EEB6
:100D3000900A92ED007AF8EEE76AC6EE877A17EE2F
:100D4000900A08BDDFED027AF9E700BFA41A00247B
:100D5000000000000A4BD3ED006AF5EEC06AF1EE28
:100D600010FAC9BF074B9FED087AD3ED007AF8EE71
:100D7000E77AC8BF87EEA67A17EE100A704700BF61
:100D8000A01A0024CC1A0024000000000A4BD3ED66
:100D9000006AF5EEC06AF1EE10FAC9BF074B9FED8D
:100DA000087AD3ED007AF8EEE77AC8BF87EEA67A24
:100DB00017EE100A704700BFA41A0024D01A0024AE
:100DC00000000000034B1868022390FBF3F3C01AE5
:100DD000704700BFCC1A0024034B1868022390FB15
:100DE000F3F3C01A704700BFD01A0024034B1868F1
:100DF000022390FBF3F3C01A704700BFD41A0024FB
:100E000008B50B4B0246187878B10A4B1B68002BCB
:100E10000CDD022193FBF1F35B42934206DCFFF70A
:100E2000E5FF8242CCBF0020012008BD0020FCE786
:100E30002A190024D41A0024254B37B51A68254DE9
:100E4000002A254C03DD254B1B68002B09DC002301
:100E5000234924482B60236008F0DEFA002003B009
:100E600030BD07EE902ADFED206A2049F8EEE77AE0
:100E70001C4887EEA67A07EE903ADFED1D6AF8EE81
:100E8000E77A85ED007A87EEA67A84ED007A08F09D
:100E9000ACFAD5ED007A06251248B7EEE77A009550
:100EA00053EC172B08F0E0FB12490E4808F09DFAAE
:100EB000D4ED007A0095B7EEE77A0A4853EC172B89
:100EC00008F0D2FB0C49074808F0A6FA0120C6E753
:100ED000CC1A0024A01A0024A41A0024D01A00243A
:100EE000AD010708A43200240000DF43E001070839
:100EF0000000A843F0010708FE0107082DE9F043B0
:100F00002DED028B08EE900ADFED497A83B008EEF2
:100F1000101AF0EEE86A07EE102A1F460C9DF4EE58
:100F2000676AF1EE10FA0DD8F0EEC86AF4EE676A5F
:100F3000F1EE10FA06D8B0EEC77AB4EE677AF1EEA9
:100F400010FA04D93B493C4808F066FA66E03B4B8E
:100F50001B78002B69D0FFF7A7FE0446002864D059
:100F6000374EDFF8F480D6ED007A68EEA77A17EEF8
:100F7000900A24F0A5FBD8ED007A386068EE277A55
:100F800017EE900A24F09CFBD6ED007A286077EEED
:100F9000A77A17EE900A24F093FBD8ED007A064664
:100FA0004FF0020877EEA77A17EE900A24F088FB3C
:100FB000244B01461A6892FBF8F2B21AFFF702FFBF
:100FC0008146FFF709FF3B689A420EDCA9EB060653
:100FD0009E420ADB1C4B2A681B6893FBF8F3CB1A72
:100FE000934202DC401A904219DA1849022412484E
:100FF00008F0FBF9B7EEE87A00940F4853EC172B92
:1010000008F032FB12490C4808F0EFF9B7EEC87A45
:101010000094094853EC172B08F028FB00242046C5
:1010200003B0BDEC028BBDE8F0830A498BE700BF3B
:10103000FFFF7F7FB30B0708A43200242919002487
:10104000A01A0024CC1A0024D01A0024DA0B0708B6
:10105000EDF60608030C0708A41A002406EE900A11
:101060009FED187A06EE101AF0EEE67AF4EE477A63
:10107000F1EE10FA01D900207047F0EEC67AF4EED6
:10108000477AF1EE10FAF6D8DFED0F7A77EEE66ADE
:1010900077EEC67AC2ED006AC3ED007AD2ED006A3F
:1010A000F0EEE66AF4EE476AF1EE10FAE3D8F0EEFD
:1010B000E77AF4EE477AF1EE10FA94BF01200020AF
:1010C000704700BFFFFF7F7F0000000008B50F4B97
:1010D0001B780BB9002008BD0D4B1B78002BF9D0F5
:1010E000FFF77AFA0028F5D1FFF77EFA0028F1D150
:1010F000FFF782FA0028EDD1FFF7B6FA0028E9D110
:10110000044B187880F00100E5E700BF291900249E
:101110002A190024231A00242DE9F0412DED048B17
:1011200084B01F46002509EE100A03AB08EE901AA2
:1011300008EE102A009302ABCDE90255FFF7DEFE60
:101140000646002863D0FFF775FB364A029982ED08
:10115000009A354A354BC2ED008A354A98461D70D3
:1011600082ED008A334A344B1160344A0399344C7F
:10117000116034493448022F18BF1946257008F011
:1011800034F9B7EEC97A02252F4853EC172B009596
:1011900008F06AFA2D492C4808F027F9B7EEE87AEA
:1011A0000095294853EC172B08F05EFA2849264889
:1011B00008F01BF9B7EEC87A0095234853EC172BBB
:1011C00008F052FA2349204808F026F90121029834
:1011D000FFF714FC01210398FFF74CFCFFF72CFAF2
:1011E00010B9FFF731FAC0B101233846237088F8EF
:1011F000000008F0F7FB184B186023787BB91749FB
:10120000174B1148022F18BF194608F005F9304650
:1012100004B0BDEC048BBDE8F0812070E7E71E460A
:10122000F5E700BF401A00244C1A0024B41A002429
:10123000581A0024301A00248CF60608341A0024A8
:10124000231A002479F60608A4320024E9F60608D9
:10125000F1F60608F9F60608AC1900249EF6060811
:10126000C4F60608F8B5104C05460F462678FFF779
:10127000E1FA00230D4A237013700FB10C4A13706A
:10128000022E07D10B4B1B8823B10B4A138003227C
:101290000A4B1A700A490B4808F0A7F82946094872
:1012A000BDE8F84008F0CCB8B41A0024231A002492
:1012B00029190024EC1A00249C1800243619002453
:1012C000620D0708A4320024044B1B781B2B9ABF25
:1012D000034A52F823000348704700BF92190024C4
:1012E00090F406085CFB0608094B10B5094C187011
:1012F00008F078FB084B09491860204608F075F89B
:10130000FFF7E2FF01462046BDE8104008F098B81C
:1013100092190024A4320024A819002496FB060880
:1013200008B5FFF787FA0023104A11491370114AD4
:1013300011481370114A1370114A137000220A6089
:1013400010490A60104A11491360114A1360114A8A
:101350001360114A1370114B114A1A6008F05CF8BF
:101360000120BDE80840FFF7BFBF00BF231A0024DB
:10137000A01A0024B41A0024A4320024291900243D
:101380002A190024A41A0024CC1A002422FE0608DC
:10139000D01A0024D41A0024981900241000002424
:1013A000E82F07080138C0B207289ABF024B53F84C
:1013B00020000248704700BF0CF506085CFB0608D9
:1013C0000138C0B20C289ABF024B53F820000248E3
:1013D000704700BF2CF506084A070708034B1B7827
:1013E000122B9ABF024AD05C0A207047861900244B
:1013F00060F50608034B1B780C2B9ABF024AD05CA1
:10140000082070477119002473F5060808B50D4BC4
:101410001B780BB9002008BD0B4B1B78002BF9D0B3
:1014200008F0E0FA094B1B68C01A9628F2D808F0B9
:10143000D9FA074B1B68C01A96288CBF00200120E0
:10144000E9E700BF8A190024F01A0024301B0024A9
:10145000181B0024024B987900F00100704700BF70
:101460005F1A0024024B1878C0F3C000704700BF19
:1014700093190024024B1878C0F30010704700BF86
:1014800093190024024B1878C0F34010704700BF36
:1014900093190024024B1878C0F38010704700BFE6
:1014A0009319002408B5FFF7DDFF98B1FFF7E2FFBD
:1014B00080B1FFF7E7FF68B1084B1B78072B0AD113
:1014C000074B93F90030002B05DB064B1878B0FA78
:1014D00080F0400908BD0020FCE700BF841900240B
:1014E00093190024701900242DE9F04F2DED028B83
:1014F00087B008F077FAAC4A054613689046C41ADC
:10150000092C40F21981002BC8F80000A74808BF39
:101510000A2405F008F80746A44805F007F806462F
:10152000A24804F0FDFFA24BA24A18600120A24984
:101530001070A2480B68D0ED006AFB1AF5EEC06A85
:10154000F1EE10FA0ADDF0EEE67A9FED9D7AF4EE08
:10155000477AF1EE10FA9CBF032010709948DFF82B
:10156000B0C2D0F800E08146BEF1000F00F0E98083
:10157000107840F0040A82F800A0002B40F0EA80C6
:10158000A5EB0E05B5F5FA7F00F2DE80DCED007A02
:1015900040F00C03F5EEC07A1370F1EE10FA46DD60
:1015A00040F01C00107042E0F0EE467A30E007EEAA
:1015B000903A9FED855A07EE104A844BF8EEE77A91
:1015C000B8EE477A93F9003027EE856A66EEA77A7F
:1015D000C6EE075A06EE103AB8EEC66A66EE277AED
:1015E00067EE857A87EE876A794BC3ED005AD8F8A3
:1015F0000030AB4202D1BEF1000FD5D0DFED757ADD
:10160000DCED006A66EE277A9FED737AE6EE877A64
:10161000B5EEC06A1378CCED007AC9F80050F1EE4F
:1016200010FAD4BF43F00C0343F01C0313706B4B50
:101630006B4A1F606B4B0F601E6013880133138071
:10164000694B1A689846B24276D0684B684A197856
:101650009946DFF8C0B1DFF8C0A1002935D0136882
:10166000F31A32D0DBF80040002BA7EB0404B8BF1C
:101670005B422046E11708EE103A002871F10003A2
:10168000CDE9020104DA434261EB4104CDE90234C1
:10169000DDE90201059222F077FEB8EE487A07EE06
:1016A000900A544918EE102AC7EE877A0B68134443
:1016B000059A0B60504BDDE90245D3E9000124187F
:1016C0004D41C3E90045CAED007A01234B494C481E
:1016D00089F800301660CBF8007007F086FE0A2209
:1016E0003146474807F0F5FE4649454807F07DFE7C
:1016F0000A223946424807F0CAFEDAED007AF5EED2
:10170000C07AF1EE10FA12DD3F493D4807F06DFE58
:10171000DAED007A02233A48B7EEE77A009353EC09
:10172000172B07F0A1FF3949354807F05EFE344812
:1017300007F06CFEC8F8006007B0BDEC028BBDE896
:10174000F08F002B7FF433AF0023214ACCF8003018
:1017500013606CE707EE903A1C4BDFED1B5A07EE67
:10176000104A93F90030F8EEE77AB8EE477A06EEC1
:10177000103A174B66EEA76AB8EEC66A67EEA57A0E
:1017800066EE266A66EEA56AC7EE875ADFED117A25
:1017900086EE876A93ED007A65EEA75ADFED0E7A42
:1017A000E7EE275A20E700BF101B0024D8200024B2
:1017B000241B002485190024201B00240C00002475
:1017C000FFFF7F7F341B002400007A441C000024AC
:1017D00094190024CDCC4C3ECDCC4C3F4019002474
:1017E000EA1A0024E41A0024281B0024D81A002432
:1017F0009C190024B41900245819002477FB06080A
:10180000A432002477FE06088DFB060844FA060879
:10181000441B0024441900240C1B00240E4B187890
:10182000C0B10E4BD3ED007AF5EEC07AF1EE10FAAE
:101830000FDD0B4BD3ED007AF5EEC07AF1EE10FA26
:1018400007DD084B187800F02300C31E58425841AA
:1018500070470020704700BF281900244C1B00244B
:101860000C0000248519002438B50C4C0546207066
:1018700008F0B8F8606008F0B5F8094BA0601B6884
:101880000849C4E90333084C204607F0AEFD294659
:1018900020460A22BDE8384007F040BE0019002467
:1018A000401900244E0D0708A432002438B5002248
:1018B0000D4B0E4C05461A7000230D4A13600D4A5D
:1018C00013600D4B58620520FFF7CEFF0B492046F1
:1018D00007F08BFD2946204607F0B2FD2046084957
:1018E000BDE8384007F098BD28190024A432002430
:1018F0004C1B0024481B0024001900240802070880
:101900001B02070837B5254C282200210125204657
:1019100025F0BEFB08F066F8606008F063F8204B25
:101920000022A0601B681F49C4E903334FF0FF4346
:10193000A3611D4B63621D4B1D4C1A7000231D4A91
:10194000204613601C4A13601C4B1D7007F064FD99
:101950001B49204607F060FD1A49204607F045FD67
:101960000022194B2046009507F07EFE17492046BD
:1019700007F03BFD164B2046D3ED007A0923B7EE66
:10198000E77A009353EC172B07F06EFE11492046BF
:1019900003B0BDE8304007F03FBD00BF0019002490
:1019A0004019002452070708E82F070828190024C7
:1019B000A43200244C1B0024481B00241C000024DB
:1019C00082070708C607070800002E40E30707083C
:1019D0000C000024F5070708044B187800F01800E5
:1019E000A0F1180358425841704700BF85190024E0
:1019F00010B5C3790133DBB2022B23D8037A01334C
:101A0000DBB2022B1ED8437A0133DBB2022B8CBF30
:101A100000230123C27A817AB42A15D8027BB42A22
:101A20008CBF00220122447BC07C7BB111F0F80105
:101A30000CD12AB1082C0BD808288CBF0022012217
:101A4000104610BD0023E5E70022ECE70022F7E78F
:101A50000A46F5E738B5254B1C78254B1B780BB1AA
:101A600044F00204FFF732FB08B144F00404214DB6
:101A70002B7803F0FB03092B08BF44F00804FEF7A2
:101A8000F3FD78B91C4B1B7863B91C4B1B78013BE9
:101A9000182B07D92B780D2B06D1194B1B781BB1AE
:101AA000072B01D044F010042B780C2B154B1B781E
:101AB00008BF44F020040BB144F04004FFF7A6FC3B
:101AC00088B12B780C2B0ED0043BDBB2092B05D848
:101AD00040F2712222FA03F3DB0702D4064B1B7893
:101AE0000BB144F08004204638BD00BF2919002402
:101AF0002A19002486190024231A0024921900248C
:101B0000A01800242819002408B5114B1A78114B8D
:101B10001B780BB142F002020F4B1B780BB142F065
:101B200004020E4B1B780BB142F008020C4B1B78E1
:101B30000BB142F010020B4B1B780BB142F02002AC
:101B4000FEF702FE08B142F04002104608BD00BF99
:101B5000C8190024C9190024CA190024CB1900246B
:101B6000CD190024CC19002410B5202200210446F0
:101B700025F08EFAFFF732FC5F4BE0701B78122BDA
:101B800005D15E4B1B7823715D4B1B7804E0002B65
:101B90007DD15C4A127822716371FFF75BFFA071FF
:101BA000FFF7B2FFE07172B6574B584A1B7858499D
:101BB0005BB212780878002B52B240B27ADC7BD14B
:101BC000002A59B27ADC7BD11346002841EA83020D
:101BD00078DC79D1034642EA0313237262B6FFF739
:101BE00009FC4C4B60721B78A3724B4B1B78E37261
:101BF0004A4B1B88A3814A4B1B78A373494B1B6834
:101C0000C4F80F30484B93ED007A9FED356BB7EE7B
:101C1000C77A27EE067B9FED346BB4EEC67BF1EE00
:101C200010FA53D49FED326BB4EEC67BF1EE10FA8E
:101C30004FDCFDEEC77B17EE903AC4F813303B4BF8
:101C4000D3ED007AF5EEC07AF1EE10FA44DD9FEDA7
:101C5000387A67EE877A17EE900A23F031FD354B1C
:101C60001F21C4F8170020461B88A4F81B30324BF4
:101C70001B786377314B1B78A377A7232370072347
:101C800063702023A370FEF78FFCE07710BD0F2B4D
:101C900009D0112B0CBF2A4A2A4A12780D2B227127
:101CA00003D1294B71E7294AF7E70E2B0CBF284BCC
:101CB000284B6AE7012383E7022381E7012384E7B6
:101CC000022382E7012386E7022384E74FF00043E3
:101CD000B3E76FF00043B0E70020C0E7AFF3008048
:101CE0000000000080842E41000000000000E0C1E0
:101CF0000000C0FFFFFFDF41861900242C190024DB
:101D0000601900242D190024201A0024211A00240F
:101D1000221A002437190024E81A00249C180024F1
:101D20003619002440190024441B00240C00002410
:101D300000247449EA1A0024851900241C00002498
:101D40005E1A00245D1A0024A01800245C1A0024E6
:101D500000190024921900240023034A1370034A37
:101D60001370034A13607047041B0024281A0024D0
:101D7000BC1A0024064A08B513783BB91070054A0E
:101D8000137007F02FFE044B0330186008BD00BF2E
:101D9000041B0024281A0024BC1A002473B504462E
:101DA0000E469448944907F020FB07F01BFE0A22D8
:101DB0000146904807F0A3FB90498E4807F015FBB9
:101DC0008F4B197809B18F4B19880A22894807F07F
:101DD00080FB8D49874807F008FB214685488B4CDE
:101DE00007F00CFB8A49834807F0FFFAE18909B93B
:101DF000884B19880A227F4807F06BFB86497D488B
:101E000007F0F3FA854B0A227A48198807F061FB3C
:101E10008349784807F0E9FA824B0A227548196825
:101E200007F035FB8049734807F0DFFAE389002BA0
:101E300000F0DD80E1690A226E4807F028FB7B494B
:101E40006C4807F0D2FA0A2221786A4807F064FB4E
:101E50007749684807F0C9FA217C09B9754B1978A8
:101E60000A22644807F058FB73496248032507F0CB
:101E7000BCFAFEF733FF07EE900A0095B7EEE77A5B
:101E80005C4853EC172B07F0EFFB6C49594807F0FF
:101E9000ACFAFEF741FF07EE900A0095B7EEE77A3D
:101EA000544853EC172B07F0DFFB6549514807F006
:101EB0009CFAFEF7A1FB0A2201464E4807F0E7FA1A
:101EC00060494C4807F091FAD4ED087A4948B7EEDA
:101ED000E77A009553EC172B07F0C6FB5A494548A3
:101EE00007F083FAD4ED097A4248B7EEE77A009515
:101EF00053EC172B07F0B8FB54493E4807F075FA2E
:101F0000D4ED157A3B48B7EEE77A009553EC172BE2
:101F100007F0AAFB4E49374807F067FAD4ED147A68
:101F20003448B7EEE77A009553EC172B07F09CFB8B
:101F30004849304807F059FA474B2E48D3ED007A0C
:101F40000095B7EEE77A53EC172B07F08DFB43496A
:101F5000284807F04AFA424B0A222648197849B223
:101F600007F0B7FA3F49234807F03FFA3E4B0A22F1
:101F70002048197849B207F0ACFA3C491D4807F0EF
:101F800034FA3B4B0A221B48197849B207F0A1FAF0
:101F90003849184807F029FA374B0A22154819889A
:101FA00007F097FA3549134807F01FFA344B0A2215
:101FB0001048197807F0B0FA32490E4807F015FAC0
:101FC000314B0A220B48197807F0A6FA4EB1337844
:101FD0003BB12E49074807F008FA3146054807F09B
:101FE0000DFA044802B0BDE8704007F00FBA284B64
:101FF000196820E7A4320024000807080C08070825
:10200000F41A0024F21A002416080708A018002465
:102010001E080708EE1A002424080708EA1A0024FC
:102020002D08070840190024330807083D08070851
:1020300045080708351900244D0807085508070802
:102040005D08070867080708720807087D08070881
:102050008708070891080708441B00249708070809
:10206000201A00249F080708211A0024A70807083F
:10207000221A0024AF0807089C180024B508070896
:1020800036190024C008070871190024C808070879
:1020900048190024834A2DE9F041137804468188C9
:1020A000814D88B2814E824F002B40F0C180298043
:1020B000012180481170804A80491380804A337022
:1020C0001370804A138007F090F90A222988794812
:1020D00007F0FFF97C49774807F087F9E07CFFF7C4
:1020E00061F90146734807F0ABF93278E37812B131
:1020F0003A789A4206D03B700123337007F072FCA5
:10210000724B18602346724A04F1200153F8040B05
:102110008B4242F8040BF9D1E27C6E4B6E4D1A7083
:10212000E2796E4B6E4F1A70227A6E4B6E4E1A70B9
:10213000627A6E4BDFF82C821A70A3796C4AC3F373
:1021400040031370E27A6B4B1A70227B6A4B1A7051
:10215000A37A03F00102C3F38001C3F340032A70A2
:10216000397033706AB198F8003053B9634B01226B
:102170001A70634B1B780D2B03D162496248FFF73D
:102180000DFE3878614920B10B7813B9604B0122FC
:102190001A7032785F4B22B11E7816B95E4E012755
:1021A00037701A70627B5D4B08701A70A27B5C4BB3
:1021B0002D781A70A2795B4B88F800501A70A37CB6
:1021C000228A1B0403F470231343574A03F01F01B0
:1021D0001170C3F344115170C3F38421DB0B917070
:1021E000D370227D514B1A70A27D637D43EA022396
:1021F0004F4A1380227EE37D43EA02234D4A138037
:10220000A27E637E43EA02234B4A13804B4BD4F8F1
:102210001B201A6001234A4A13704A4A137007F0C0
:10222000E1FB494B00221860484B1A70BDE8F08171
:102230002B8883423FF459AF45491E4807F0D5F833
:102240000A2229881B4807F044F94249194807F037
:10225000CCF80A22A188174807F03BF91A4915481B
:1022600007F0C3F8E07CFFF79DF80146114807F03E
:10227000E7F862792379012143EA0223364A2B8069
:10228000002311700C4A337013800D4A13700D4AED
:102290001380324B1B781BB13148FEF7E3FF24E774
:1022A000E37828E7F41A0024F21A0024F01A002434
:1022B000141B0024A43200249C1800248BFD060863
:1022C00036190024EC1A0024A7FD0608181B002468
:1022D0005F1A002434190024FC180024B8190024C3
:1022E000F8180024B9190024FA180024BA19002497
:1022F000FE1800241A000024190000248919002463
:1023000086190024DFFD0608F1FD0608F9180024EF
:1023100087190024FB18002488190024841900243C
:102320007019002493190024241A0024351900245C
:102330002A1A00242C1A0024EE1A0024481900241A
:102340008A190024B51A0024301B00249119002496
:10235000AFFD060817FE06082B190024231A0024D7
:10236000CDFD0608FD18002401460148FFF716BD03
:1023700087FD060808B5094B1B780D2B0DD107F01A
:1023800031FB074A1368C31A312B06D9106005497F
:102390000548BDE80840FFF701BD08BD86190024C7
:1023A0002C1B0024E82F07087E0D070838B5104CB9
:1023B0000022104D2378287001330F490F4813F085
:1023C000FF0308BF012323700D4B1A7007F00DF8AF
:1023D0000A222978094807F09FF80A49074807F0B8
:1023E00004F821780A220548BDE8384007F096B87D
:1023F000E81A002437190024FAFD0608A432002444
:10240000A0190024530C070838B5144B02220546C6
:102410000C461880124B13491A700022124B1348B5
:102420001A8006F0E2FF0A222946104807F051F808
:102430000F490E4806F0D9FF21460C4807F000F876
:102440000C4B1B780D2B08D121460B48FFF7A6FC3F
:102450000A48BDE83840FFF787BF38BD9C18002404
:1024600036190024230C0708EC1A0024A432002497
:102470005F0C070886190024680C07086F0C070812
:1024800038B50E4D0446287007F0ACFA002368609A
:102490000B490C48AB6006F0A8FF082C094896BF12
:1024A000094B0A4C53F82440214606F0C9FF214647
:1024B0000748BDE83840FFF771BC00BFA0180024F2
:1024C00009FE0608A432002480F506085CFB060815
:1024D0001CFE060810B5094C58220021204624F0A5
:1024E000D7FD07F07FFA6060FEF716FC044BA06290
:1024F0001B68E36207F076FA206310BDA018002481
:102500004019002470B5394E0446357885424FD0C5
:102510000D2D05D10D2803D035493648FFF73EFC77
:10252000347007F05FFA344B34491860344B354847
:102530001A78354B1A7006F058FFFEF74FFF0A2243
:102540000146304806F0EAFF122C16D8DFE804F006
:102550003131310A113131253131110A31391A2520
:1025600031313100FEF766F90220BDE87040FFF717
:102570001DBFFEF75FF9FEF7D3FE0D2D18D00D2C11
:1025800016D129E0FEF756F90023204A1370204A9D
:10259000BDE870401370FFF7B5B900241D4B1C70E7
:1025A0001D4B1C70FEF746F9184B1C70184B1C7025
:1025B00070BDFEF73FF90023144A1370144A1370DC
:1025C000DBE7FEF737F90023104A1370104A137047
:1025D000FFF780FF0D2DEBD0104B00221049114862
:1025E0001A60BDE87040FFF7D9BB00BF8619002410
:1025F00018F7060830F70608A41900243CF7060867
:10260000B9190024A432002461190024231A0024DB
:10261000B41A002489190024871900242C1B0024D3
:1026200056F706086EF706081A4B1B7813B90520F3
:10263000FFF768BF184B1A781AB1002207201A70EA
:10264000F6E7164B164893F9002052B190F9003086
:102650003BB914490B789B1A14D4032BA8BF002351
:102660000B70114B02701A789AB100221A7007226F
:102670000E4B1A700F220E4B1A700A4B1B781BB9A7
:102680000A20D5E70223EBE7012B0CBF0B200E201D
:10269000CEE77047FE18002488190024B9190024D9
:1026A000611900245C1A00248919002418000024F0
:1026B0001B00002408B5FEF7BDF80E4B1B7823B9AC
:1026C0000520BDE80840FFF71DBF0B4B1A781AB173
:1026D000002207201A70F4E7084B1B78112B08D151
:1026E000074B197829B11A70064A1378C3F1010310
:1026F000137008BDFE1800248819002486190024D0
:10270000891900245E1A002438B5234B1B7833B98D
:10271000FEF790F80520BDE83840FFF7F3BE1F4BE9
:102720001A782AB100221A70FEF784F80720F2E71F
:102730001B4B93F900001B4B002893F900501A4BD8
:1027400093F900401FDD194B1B78002B18BF0020A8
:10275000002D1BDD164B1B78002B18BF0025002C0D
:1027600017DD144B1B78002B18BF00240121FEF746
:102770006BF828460121FEF7A7F820460121BDE8A5
:102780003840FEF7FBB8E3D00B4BDDE7E7D00B4B4F
:10279000E1E7EBD00A4BE5E7FE1800248819002496
:1027A000B8190024B9190024BA190024C819002442
:1027B000CA190024CD190024C9190024CB190024FA
:1027C000CC19002438B50C460546FEF733F8274BE4
:1027D00027491A78023A012A1A4602D90B780D2B9A
:1027E00007D1244B1B8823B1234803800320234BAC
:1027F00018700023224813700A780370042A01D04D
:102800000A2A0BD11F490B701F490B701F4B1978F7
:102810001B291FBF1E490C601B2119701D4B0D2A5F
:102820001D701D4B1C6003D121461C48FFF7B6FAF2
:1028300000231B4A0C2013701A4A13701A4A137093
:10284000FFF760FE19491A4806F0CFFD29460A2213
:10285000174806F061FE1749154806F0C6FD2146E7
:102860001348BDE8384006F0EBBD00BFB41A0024A1
:1028700086190024EC1A00249C1800243619002420
:10288000231A0024291900242A190024921900244B
:1028900010000024711900241400002463F60608B7
:1028A00089190024871900248819002469F606086C
:1028B000A4320024572C070870B52B4D2B78002B21
:1028C00051D02A4E33785BB2002B03DD284B1B78A6
:1028D000002B41D133781A0603D5264B1B78002BE9
:1028E0003AD1254C23785BB2002B03DD234B1B78B8
:1028F000002B31D123781B0602D5214B1B785BBB03
:1029000007F070F81F4B1B68C01A1F4B984209D97B
:1029100001211E48FEF7A6FC1D490720BDE87040B6
:10292000FFF750BFFDF788FEE8B9FDF78DFED0B97F
:102930003378C3B923785BB2ABB9164A2B701178E0
:102940001370154A154B164802290CBF114619463B
:10295000BDE8704006F060BD01211248FEF782FC20
:1029600011490820DAE770BD231A0024201A002438
:10297000C8190024C9190024211A0024CA190024E6
:10298000CB190024AC19002420BF0200EC0D07086D
:10299000F40D0708B41A0024B90D0708D30D070871
:1029A000A43200240D0E0708290E070838B5044686
:1029B000FDF740FF00230C4A0C4D1B2013700C4AFE
:1029C00013700C4B1C60FEF78FFC0B49284606F079
:1029D0000CFD2146284606F033FD21460520BDE8C2
:1029E0003840FFF7EFBE00BF29190024A4320024AD
:1029F0002A190024100000240D020708F8B5A34C82
:102A00002378002B00F0F1811A3B012B40F2ED817D
:102A100006F0E8FF9E4B1B68C01A9E4B984204D9F3
:102A20009D48BDE8F840FFF7C1BF2378013B182B54
:102A300000F2DB81DFE813F0190027003B004200C1
:102A40004E00560065006C0086009400A500AC00A6
:102A5000B800C000CF00D600F000FE000F01160144
:102A600022014C015B0161017E018C4B1B7833B16B
:102A7000FDF78EFE0220BDE8F840FEF735BC0221CE
:102A80004FF0FF300FE0854B1B7853B9FDF780FE08
:102A9000FDF7A2FD022100F59670FDF7AFFF0320C0
:102AA000E9E702210120BDE8F840FDF7CDBEFDF7C2
:102AB000C3FD002840F099810420DCE7774B1B78A8
:102AC00033B1FDF765FE0020FDF79EFD0520D2E73E
:102AD0000821D5E7724B1B78002BE2D0FDF758FE9A
:102AE0000620C8E76E4B1B78002BC8D1FDF750FEBF
:102AF000FDF772FD0221A0F59670FDF77FFF07201C
:102B0000B9E7FDF799FD002840F06F810820B2E792
:102B1000634B1B78A3B1FDF73BFE624CFDF75CFDF8
:102B20006328206001DC60487BE76049604806F06C
:102B30005CFC0A2221685E4806F0D7FC09209AE76F
:102B40000821AFE75B4B1B781BB1FDF739FE0A206C
:102B500091E702214FF0FF30BDE8F840FDF7B4BE29
:102B6000544B1B7853B9FDF72BFEFDF73DFD0221B9
:102B700000F59670FDF77EFF0B207CE70221012017
:102B8000EAE7FDF761FD002840F02F810C2072E795
:102B9000484B1B7833B1FDF713FE0020FDF73CFDD9
:102BA0000D2068E70821D5E7434B1B78002BE5D0C3
:102BB000FDF706FE0E205EE73F4B1B78002BC8D1C9
:102BC000FDF7FEFDFDF710FD0221A0F59670FDF763
:102BD00051FF0F204FE7FDF737FD002840F005813A
:102BE000102048E7344B1B78A3B1FDF7E9FD334CC7
:102BF000FDF7FAFC6328206001DC314811E7314918
:102C00002B4806F0F2FB0A222168294806F06DFCE9
:102C1000112030E70821B2E72B4B1B781BB1FDF7E1
:102C2000F1FD122027E702214FF0FF30BDE8F84008
:102C3000FDF7A4BE244B1B7853B9FDF7E3FDFDF768
:102C4000DBFC022100F59670FDF7A4FF132012E7CC
:102C500002210120EAE7FDF7FFFC002840F0C580D3
:102C6000142008E7184B1B7833B1FDF7CBFD00208B
:102C7000FDF7DAFC1520FEE60821D5E7134B1B789B
:102C8000002BE5D0FDF7BEFD1620F4E692190024D6
:102C9000A819002420BF02009DFB0608C9190024C2
:102CA000C8190024CC1A0024B4FB060854020708F3
:102CB000A4320024CB190024CA190024D01A0024FD
:102CC000C5FB060864020708CC190024CD190024AE
:102CD000464B1B78002BA6D1FDF794FDFDF78CFC2D
:102CE0000221A0F59670FDF755FF1720C3E6FDF70A
:102CF000B3FC002879D11820BDE63C4B1B78BBB152
:102D0000FDF780FD3A4CFDF777FC6328206001DC7D
:102D1000384886E63849394806F067FB0A222168B8
:102D2000364806F0E2FB364B002219201A70A2E664
:102D300008218EE7334B02241F68334B1E682C4B4F
:102D40001D682F4B1A7897FBF4F796FBF4F695FB6A
:102D5000F4F56AB90122214638461A70FDF74EFE95
:102D600021463046FDF786FE21462846FDF712FF34
:102D7000FDF762FC002838D1FDF766FC002834D14D
:102D8000FDF76AFC88BB214B1B7873BB204B1B787B
:102D90005BBB204B1A7852B23ABBFDF71DFC874251
:102DA00013D1FDF721FC86420FD1FDF725FC8542AA
:102DB0000BD11046FDF728FCFDF72EFCFDF734FC87
:102DC000FEF73AF818B914482BE6144829E601230F
:102DD000134A1A201370134A1370FEF785FA12492A
:102DE0000648BDE8F84006F017BBF8BDCD19002431
:102DF000D41A0024D6FB060874020708A432002463
:102E000098190024CC1A0024D01A0024201A002477
:102E1000211A0024221A0024E7FB060805FC0608F4
:102E2000291900242A190024840207082DE9F041F9
:102E30002DED028B86B0FDF7E5FC644B1978644BF1
:102E400061B91B7813B16348FEF70CFA0520FFF750
:102E500059FB06B0BDEC028BBDE8F0811A785E4BE1
:102E6000197839B10021197012B15C48FEF7FAF9EE
:102E70000720ECE7FEF716FB014640B912B15848AF
:102E8000FEF7F0F957490420FFF79CFCE1E7002A20
:102E9000DFD1FDF7E9FB07460028DAD1FEF7FAFAA1
:102EA0000028D6D0DFF87481B8F800304546002BF2
:102EB000CFD04D4C22889A42CBD04C4BB2EE047A04
:102EC000002602AAB3F90030029607EE903A484B6A
:102ED000F8EEE77AB3F90030C7EE878A07EE903A4A
:102EE00006AB43F80C6DF8EEE77A87EE878A18EEAA
:102EF000900A18EE101AFEF7B1F828B93D49B8F853
:102F00000000FFF781FAA4E705AB3246039900936E
:102F100004AB0298CDE90477FDF7F0FF10B935490D
:102F20002888EEE7B8F80030334A23800124138064
:102F3000324B334933481C7006F057FA324B0A22A1
:102F40003048197806F0E8FA30492E4806F04DFA74
:102F5000B7EEE87A00942B4853EC172B06F084FB6D
:102F60002B49284806F041FAB7EEC87A0094254864
:102F700053EC172B06F078FB2649224806F035FA69
:102F8000DDED027A0094B7EEE77A1E4853EC172B7A
:102F900006F06AFB1E491B4806F027FADDED037AAE
:102FA0000094B7EEE77A174853EC172B06F05CFB5A
:102FB0001949144806F030FA0223002203990298B6
:102FC000FEF7AAF800287FF444AFA8E7FE18002413
:102FD000231A0024D2FC060888190024F1FC0608F4
:102FE00007FD060822FD06089C1800242A1A002462
:102FF0002C1A002445FD0608EC1A0024361900247A
:103000005DFD0608A43200243519002471FD060870
:103010007BFD06087DFD06085D2A0708EE1A0024E0
:1030200010B5274C2278A2F10803012B01D90D2AF3
:1030300044D1244B1B7823B90520BDE81040FFF78D
:1030400061BA214B1B782BB1204B1B7813B1FDF7D4
:103050002BFE28B91E491F4806F0DEF90A20ECE7CE
:10306000082A04D0FEF71EFA28B10D2A09D007233A
:1030700020782370E1E71849164806F0CDF90B20B7
:10308000DBE7FEF7CBFB28B91449124806F0C4F978
:103090000E20D2E7FDF7B0FA48B9114B18680223A9
:1030A00090FBF3F04042FDF7ABFE0028DFD10D4965
:1030B000084806F0B1F907202070BEE710BD00BF38
:1030C00018000024FE180024291900242A190024BD
:1030D000C4F50608A4320024E7F5060813F606082E
:1030E000D41A002438F60608074B1B78072B01D0AA
:1030F000FFF796BF054B1B781BB1054B1878FFF700
:1031000001BA0520FBE700BF18000024FE180024C8
:103110001B000024F0B52DED028B83B0FDF78AFB78
:103120006C4A6D4B1178A9B1197899B100231370CD
:103130006A4B1A78072A4FF007020CBF68491046FD
:103140001A7008BF087803B0BDEC028BBDE8F040F0
:10315000FFF7D8B91B782BB96249634806F05CF9D0
:103160000520F0E7614C06F03DFC2378052B00F2CA
:10317000AC81DFE813F0060021004A008101AA01BA
:103180009E015B4B1A78002A00F09F8100221A7082
:10319000584B1B781A0708D45749534803B0BDEC65
:1031A000028BBDE8F04006F037B9544B0120636252
:1031B000FEF75AFB5249F0E76368C01AB0F5FA6FA0
:1031C000C0F083814F4BE2681B689B1A03F1130226
:1031D000262A07D84C4803B0BDEC028BBDE8F0406E
:1031E000FEF764BB00224FF0FF4102209342E261F0
:1031F0002284CCBF01234FF0FF33C4E9052184F8BA
:103200002230FEF731FB4149C7E7A268821AC72A7C
:1032100015D93C4B19682369CB1A002B28DC05D043
:103220004FF0FF3594F92260AE4223D094F821305C
:10323000FF2B02D0013384F82130A0602161636844
:10324000C01A41F28733984240F23F812D4B1A68F1
:10325000E368D31A03F16301C62907D994F8201053
:10326000132903D994F8211001295BD92848B2E722
:103270000125D7E707EE903A9FED267A94F82030A3
:10328000F8EEE77AF0EEE77A67EE877A07EE102A33
:10329000B8EE477AC7EE876AD4ED057A77EEA67A5C
:1032A000C4ED057AD4ED067AF4EEE76AD4ED077A38
:1032B000F1EE10FAF4EEE76A48BFC4ED066AF1EEEB
:1032C00010FAC8BFC4ED076AFF2B1CBF013384F896
:1032D0002030B2E788190024FE18002418000024CA
:1032E0001B000024D2080708A4320024001900247F
:1032F00089190024851900240A090708E82F0708FE
:1033000046090708401900246E09070898090708AC
:10331000C509070800007A44FFFF7F7F6666663FA5
:10332000CDCC8C3F07EE903AB8EEE77A5FED077AA6
:10333000B0EEC77A27EE277A07EE900AF8EE677AA2
:1033400087EE278A5FED0C7AB4EE678AF1EE10FA09
:1033500000F29080B5EEC08AF1EE10FA40F28A8059
:103360005FED127A94ED067A68EE277AF4EEC77A6A
:10337000F1EE10FA7EDC5FED167A94ED077A68EED6
:10338000277AF4EEC77AF1EE10FA73D4002B514D80
:103390005149CCBF01234FF0FF33504E2B70504B9F
:1033A000504FD3ED007A00234F4868EE277A0B6028
:1033B0004E49C6ED007A77EEA77A0B604C4B4D492B
:1033C000C7ED007A1A6006F010F8D6ED007A0226F2
:1033D0004548B7EEE77A009653EC172B06F044F910
:1033E0004549414806F001F8D7ED007A3E48B7EE6E
:1033F000E77A009653EC172B06F036F93F493A4826
:1034000005F0F3FF0A2295F900100125364806F071
:1034100062F83B49344805F0E8FFD4ED067A0095A0
:10342000B7EEE77A304853EC172B06F01DF92F2141
:103430002D4805F0E7FFB7EEC87A00952A4853EC0F
:10344000172B06F011F92F21274805F0DBFFD4EDEB
:10345000077A0095B7EEE77A234853EC172B06F06E
:1034600003F92849204805F0D7FF0320FEF7FCF9AF
:10347000254992E62548AEE6254B1B781B0710D45C
:10348000244B012204201A70FEF7EEF92249164857
:1034900005F0C2FF03B0BDEC028BBDE8F040FFF7C2
:1034A00023BE6368C01A47F2305398420DD91B48B7
:1034B00091E61B4B1A7842B100221A7003B0BDECA2
:1034C000028BBDE8F040FEF71DBA03B0BDEC028BE5
:1034D000F0BD00BF1C000024441B00244C1B002432
:1034E0000C000024481B0024A4320024941900245A
:1034F000201B00242D0A07083E0A0708560A070861
:10350000640A0708870A0708920A0708000A0708DA
:103510008519002428190024B40A0708DF0A0708BF
:1035200089190024314B1B7873B52BB9052002B0E3
:10353000BDE87040FEF7E6BF2D4B1B78002B52D143
:10354000FDF792F800284ED12A4B2B4D009340F204
:10355000067395F90010ADF80430284EC9B196F9FC
:103560000030B3B9264A13785B1A23D4062BA8BFC0
:103570000023137002AA234C13442349234813F851
:10358000083C237005F031FF0A2221781F4805F01E
:10359000C5FF2B781E4A3370137823B300231370B2
:1035A000184A117807291DD8DFE801F0060E1C1C07
:1035B000111416180523DCE7164B08221A7002B006
:1035C000BDE87040FFF72CBD124B0922F6E7114B06
:1035D0000D22F3E70F20AAE71020A8E70E4A1120DA
:1035E0001370A4E7137002B070BD00BFFE18002472
:1035F000231A002400010405B919002461190024CC
:10360000991900245D1A002468FB0608A4320024DE
:1036100089190024180000245E1A002438B5FDF72B
:1036200009F90023104A1370104A1370104A1380CE
:10363000104B1D7B5C7BFEF74DFF15B90E4B1B78C5
:1036400023B90520BDE83840FEF75CBF0CB1072068
:10365000F8E70A490A4805F0DFFE0A490A48BDE8CA
:103660003840FEF79BBB00BF231A0024B41A002485
:10367000EC1A0024A0180024FE180024500E07089D
:10368000A4320024820E0708960E0708F8B50546F6
:103690000F46194816461949194C05F0A6FE294649
:1036A000154805F0CDFEE3893BB1164A1648138054
:1036B0000322164B1A70FEF757FE29461448FEF7F0
:1036C0006DFB0025FDF764F8FDF77AF8114B082033
:1036D00027731D70104B66731D70FEF7D1FEFCF74B
:1036E0008BFF18B9BDE8F840FFF798BF28460121C5
:1036F000BDE8F840FDF74EBAA4320024880D070853
:10370000A01800249C1800249F0D070836190024D7
:10371000B20D0708231A0024B41A002438B5294C26
:10372000DFED296A2DED028B9FED288AD4ED058A05
:1037300078EE688AF0EEE87AF4EE667AF1EE10FA46
:103740003DD8234DE2692B689B1A07EE903A214B36
:1037500093F90030B8EEE77A07EE903A1E4BF8EE98
:10376000E77A67EE277A94ED067A38EE478A9FED7E
:103770001B7A38EE478A93ED007AA7EE878AF0EE3F
:10378000C87AF4EE667AF1EE10FA18D806F02AF943
:103790002B68E26A9A4207D0226B2AB182423CBF70
:1037A00084ED0A8AC4E90B300D4B0120C4ED088A70
:1037B0001B6884ED098A6363BDEC028B38BD002071
:1037C000FAE700BFA0180024FFFF7F7F0000000081
:1037D000401900241C0000240C0000240040534425
:1037E000441B0024094B02229FED097A1B6893FBBE
:1037F000F2F35B4207EE903AF8EEE77AF0EEE77A02
:10380000C7EE877A17EE900A704700BFD41A0024DB
:1038100000409C4508B50C4BDFED0C6A93ED006A47
:1038200086FE866AFFF7DEFFF6EE007A07EE100AE4
:1038300077EE277AB0EE667AA6EE277A76EEC77A2A
:1038400017EE900A08BD00BF441B002400000000D2
:103850004A4BB3F9003007EE903A494BF0B5F8EE19
:10386000E77AB3F900700026464D2DED048BB2EED9
:10387000049A9FED458A85B018EE102A18EE101AAA
:10388000C7EE899A03AB009302ABCDE9026678EEEE
:10389000698A18EE900AFDF731FB38B93B49288850
:1038A000FEF7B2FD05B0BDEC048BF0BD07EE907ADB
:1038B000374C2B88F8EEE77AC4ED059AE381354B57
:1038C00087EE897AC4ED088A1B7884ED098A23740F
:1038D000314B84ED0A8A1B68E361304B1B68E3625D
:1038E00084ED067A06F07EF82D4B2E4A1B6884F88C
:1038F0003C600126A3632B88206313802A4A2B494E
:1039000013802B4B2B481E7084ED108A05F06DFD43
:103910000A22E189274805F0DCFD2749254805F002
:1039200064FD0A22E169234805F0B1FD23492148DD
:1039300005F05BFD022300221E480093002305F0E2
:1039400095FE032318EE102A18EE101A18EE900AAE
:10395000FDF7E2FB30B91A492888FEF755FDFEF75E
:10396000B9FD9FE717491848FEF718FA1548FEF702
:10397000FBFC3046FEF784FD94E700BF2A1A0024C2
:103980002C1A0024EE1A002400000000110B070876
:10399000A0180024351900244819002440190024D7
:1039A000441B0024EC1A00249C180024410B070837
:1039B00036190024A4320024620B07086C0B070898
:1039C000750B07089A0B0708AC0B070810B50B4CD2
:1039D0000B49204605F009FD0A4B0A2220461968CA
:1039E00005F08DFD0849204605F0FFFC074B2046F9
:1039F0000A221968BDE8104005F09ABDA4320024DF
:103A0000F9F70608B01900240DF806088C190024EF
:103A100038B50446FCF70EFF104B114DDA89114BF7
:103A2000284611491A800422104B1A700022104BAC
:103A30001A8005F0DAFC2146284605F001FD2146F2
:103A40000C48FEF7ABF90C48FEF78EFCFFF7BEFF03
:103A50000720BDE83840FEF713BD00BFA0180024C2
:103A6000A43200249C1800247CF706083619002490
:103A7000EC1A002487F706088EF706082DE9F041B6
:103A80009C4C217808292DED028B82B033D19A4AC3
:103A900013785BB2002B02DD984B1B78E3B91378E7
:103AA0001B0602D5964B1B78B3B9FCF7D5FDC0B108
:103AB00005F098FF6368C01A47F23053984240F20D
:103AC0005D83FCF7B7FE8F49072002B0BDEC028B87
:103AD000BDE8F041FEF776BEFCF7ACFE8A4908204F
:103AE000F3E71378002BE3D102B0BDEC028BBDE805
:103AF000F041FFF793BD854B1A7842B90121844804
:103B000002B0BDEC028BBDE8F041FFF7BFBD814BB9
:103B1000187820B1002101227F481970F0E70429AC
:103B200005D1754B1B781F0644BF754B18787B4F2A
:103B30003B785BB2002B03DD794B1B78002B34D133
:103B40003B781E0603D5774B1B78002B2DD1764E84
:103B500033785BB2002B02DD744B1B782BBB3378C0
:103B60001D0602D5724B1B78FBB9634D2B785BB2F7
:103B7000002B02DD614B1B78BBB92B781B0603D5EC
:103B80005F4B1B7803B180B14B1E022B02D98B1FF8
:103B90005A425A41FDF786FC58B951B902B0BDEC02
:103BA000028BBDE8F041FCF745BEFCF743FE6149DE
:103BB00095E7FDF733FE30B90029EFD0D2B10246C8
:103BC00001465D489CE71AB1FDF706FF024670B159
:103BD00081B92378072B00F2D182DFE813F01900B6
:103BE0003100640010012901E6010302BF02014611
:103BF000524885E70729ECD005F0F4FE6368C01A47
:103C000047F230539842E4D900224D48114677E7F5
:103C1000FCF710FEFDF73EFC002800F0AF82494B98
:103C20001B88002B00F0AA82474A12889A4200F0B3
:103C3000A58202B0BDEC028BBDE8F041FFF708BEE3
:103C4000FFF76CFD024610B90146404858E7F1EE17
:103C5000047A94ED097AB4EEE77AF1EE10FA03DD16
:103C600000223B4811464BE73A4B1B78002B40F0B3
:103C70008582FCF7E1FC002840F08082FCF7E4FC40
:103C8000002840F07B823B78002B40F0778233782D
:103C9000002B40F07382022002B0BDEC028BBDE825
:103CA000F041FEF7EDBBFCF78BFDFFF737FD024659
:103CB00010B90146284823E7D4ED095AC4ED145A37
:103CC000FFF7A8FDB1EE047A07EE900A2064F4EE47
:103CD000C75AF1EE10FA03DD0022204811460FE723
:103CE000F4EEE75AF1EE10FA3CDD00221C481146D2
:103CF00006E700BFA0180024221A0024CD190024D2
:103D0000CC190024D0020708B1020708FE180024CD
:103D1000D2FC060888190024F1FC0608201A0024A9
:103D2000C8190024C9190024211A0024CA19002422
:103D3000CB190024F50207081C0307082E03070807
:103D400041030708EE1A00249C18002451030708B9
:103D50006F030708231A0024A6030708D8030708DF
:103D6000FA030708AB490225AB4805F03EFBD4ED4A
:103D7000097AA948B7EEE77A009553EC172B05F0BE
:103D800073FCA649A44805F030FBD4ED107AA24894
:103D90000324B7EEE77A009553EC172B05F064FC8B
:103DA0009F499D4805F021FB9E4B9B48D3ED007A2F
:103DB0000095B7EEE77A53EC172B05F055FC9A49BE
:103DC000954805F012FBFFF70DFD07EE900A0094F1
:103DD000B7EEE77A904853EC172B05F045FC934972
:103DE0008D4805F002FB0022914B00948A4805F0B3
:103DF0003DFC90489049FDF7D1FF20464CE7FCF789
:103E0000DFFC8E4B1D68022395FBF3F56D422846BF
:103E1000FCF7F6FF024610B90146894870E6002318
:103E20002846012184F83C30FCF7B4FE042033E737
:103E3000844EFCF7C5FC327862B1FCF7E3FC7F4BA3
:103E40001868022390FBF3F04042FCF7EDFB0023DF
:103E500084F83C30FCF700FC002840F08F812B7880
:103E6000002B40F08B81327802BB94F83C30D3B900
:103E700001237549684884F83C3005F0CDFA734950
:103E80007348FDF78BFF6D4B08211868022390FBE8
:103E9000F3F04042A0F5167002B0BDEC028BBDE815
:103EA000F041FCF777BE11466A4829E694ED086AAE
:103EB000FCF714FF07EE900A76EE677AC4ED157AE8
:103EC000FDF7ACFC08B1FFF729FC636A0225624EDE
:103ED000236505F087FD3368604AA36400236064AE
:103EE00084F84C301370FCF76BFCFCF78BFC5C49DE
:103EF000494805F07AFAFCF7F1FE07EE900A0095C2
:103F0000B7EEE77A444853EC172B05F0ADFB554963
:103F1000414805F06AFAFCF7FFFE07EE900A0095AB
:103F2000B7EEE77A3C4853EC172B05F09DFB4E4962
:103F3000394805F05AFAD4ED157A3748B7EEE77AE2
:103F4000009553EC172B05F08FFB4849324805F0DC
:103F50004CFAD4ED147A3048B7EEE77A009553EC7A
:103F6000172B05F081FB42492B4805F03EFA2D4BFB
:103F70002948D3ED007A0095B7EEE77A53EC172B7A
:103F800005F072FB3B49244805F02FFA0A223168FC
:103F9000214805F07CFA38491F4805F03DFA3748BA
:103FA0003749FDF7FBFE062076E6FCF709FCFCF737
:103FB00053FB002840F0E2802B78002B40F0DE809D
:103FC00094F84C2012B911462E4899E52E4A2F48F4
:103FD00013680133136002B0BDEC028BBDE8F04101
:103FE000FFF716BDFCF7D4FB0026FCF7E9FBFCF756
:103FF00009FC1A4B1E70134B1A7812B9114624484B
:104000007EE5FFF78BFB0246002845D1014621489B
:1040100076E500BF2E040708A432002456040708E2
:1040200066040708441B00246C0407087104070891
:104030000000E03FA80407087C040708D41A002405
:10404000B0040708CC190024D304070808050708A2
:10405000300507083905070840190024891900248C
:104060006B050708EDF60608940507089D05070887
:10407000A6050708620B0708B20507081606070819
:10408000E2050708220607088C1900244A060708DB
:104090005B06070889060708D4ED097AF5EEC07AB1
:1040A000C4ED147AF1EE10FA68D4374A0127136888
:1040B00084F84C703B44136005F094FC636C334906
:1040C000A0EB0308324B33481D68A36CED1A324B4A
:1040D00093F9003007EE905A08EE103AF8EEE77ABE
:1040E0002E4BB8EEC88A28EE278AD3ED007A28EE48
:1040F000278A05F07AF90A224146264805F0FFF999
:104100002749244805F071F90A222946214805F07B
:10411000BEF924491F48032505F067F9B7EEC87AB0
:1041200000951C4853EC172B05F09EFA1E491948C0
:1041300005F05BF9D4ED097A1648B7EEE77A0095F9
:1041400053EC172B05F092FA18491948FDF726FE93
:1041500030463946FCF71EFD05209DE5FCF76AFB5D
:1041600005F040FC6368C01AB0F5FA7F06D302B0D0
:10417000BDEC028BBDE8F041FEF7ACB902B0BDEC7E
:10418000028BBDE8F08100BFB0190024B806070813
:1041900040190024A43200241C0000240C00002438
:1041A000EA060708FA0607080C07070825070708A4
:1041B000420707082E4B70B5DE7B04462D4B1D7859
:1041C000AE421CD12C4B1A78072A0AD12B4B93F9FB
:1041D0000030002B05DBFDF74DF910B1FDF752F96A
:1041E00020B9274B0121082A197002D0254B1B78D2
:1041F0002BB125490420BDE87040FEF7E3BA05F075
:10420000F1FB224B1B68C01A214B984202D921496D
:104210000320F0E7AE4205D1194B1B7813B1FDF72F
:1042200041F908B944B170BD1B491C4805F0F4F8C8
:10423000BDE87040FEF758BF194B1A78002AF2D03B
:10424000184A1278002AEED01C700120164B1A78FA
:10425000072A4FF007020CBF144914461A7008BF12
:104260000C78FEF7A3F82046BDE87040FEF74AB987
:104270005F1A0024E81A00248419002493190024EA
:10428000A019002470190024CD0E0708A4190024D9
:1042900080A90300E80E0708020F0708A4320024D3
:1042A00088190024FE180024180000241B00002494
:1042B00070B50446FEF7A2FB164B1B780C2B28D0DA
:1042C000154E32781A2A03D1BDE87040FEF70CBFB4
:1042D000FCB9124B1A78E2B1114A1278CAB11C70BB
:1042E000104C2278072A0ABF0F4B07251D78FCF7D0
:1042F000A1FA00230D4A284613700D4A337013703B
:104300000C4B0D4A1A6007232370BDE87040FEF77E
:10431000F9B870BD86190024921900248819002468
:10432000FE180024180000241B0000242919002472
:104330002A19002410000024E82F0708022804D0BE
:1043400003280CBF09200A2070470820704700008E
:104350002DE9F041074605F045FB8B4B06461B78DF
:10436000002B00F0FE80894B1D68451B884B1A7896
:104370009846002A00F0F880864B1C68341B86495A
:10438000864805F032F80A223146844805F0B7F82D
:104390008349824805F029F8824B1878FDF710F818
:1043A00001467E4805F02AF87F497C4805F01DF853
:1043B0007E4B0A227948197805F0AEF87C49774897
:1043C00005F013F8FDF70AF80A220146734805F0D4
:1043D000A3F87849714805F008F8774B197809B1C6
:1043E000764B19880A226D4805F073F874496B48BA
:1043F00004F0FBFF734B1878FCF7D4FF01466748C5
:1044000004F0FCFF7049654804F0EFFF98F80010D5
:1044100009B16E4B19780A22604805F05AF86C49C8
:104420005E4804F0E2FF6A1C40F0A18069495B48E5
:1044300004F0DBFF6849594804F0D7FF631C40F0E3
:104440009C806449554804F0D0FF6449534804F007
:10445000CCFF634B0A225148197805F05DF8614999
:104460004E4804F0C2FF604B0A224C48197805F010
:1044700053F85E49494804F0B8FF5D4B0A224748AB
:10448000197805F049F85B49444804F0AEFF5A4BEF
:104490000A224248196805F032F858493F4804F0AA
:1044A000A4FF574B0A223D48196805F028F85549E2
:1044B0003A4804F09AFF544B0A223848196805F02C
:1044C0001EF85249354804F090FF514B0A223348F8
:1044D000196805F014F84F49304804F086FF0A22A5
:1044E0004CF250312D4805F00AF84B492B4804F0A6
:1044F0007CFF4A4B0A222948196805F000F8484910
:10450000264804F072FF474B0A222448196804F039
:10451000F6FF4549214804F068FF444B0A221F4832
:10452000196804F0ECFF42491C4804F05EFF414B5F
:104530000A221A48196804F0E2FF3F49174804F0BC
:1045400054FF3E4B0A221548196804F0D8FF3C4935
:10455000124804F04AFF39461048BDE8F04104F023
:104560006FBF4FF0FF3501E74FF0FF3407E70A2236
:1045700029460A4804F0C3FF5CE70A22214607489F
:1045800004F0BDFF61E700BF8A190024301B00243E
:10459000F01A0024181B0024E7000708A4320024A6
:1045A000851007082C190024F6000708601900245C
:1045B000FF0007080C080708F41A0024F21A002468
:1045C000070107083419002413010708141B0024ED
:1045D000190107084F070708220107082C010708DF
:1045E000911900243601070890190024400107089A
:1045F0001C1B00244A0107087C19002450010708ED
:104600007819002459010708741900245F0107086C
:10461000801900246A0107086F010708E01A0024C6
:1046200077010708C4190024860107086C190024C3
:1046300095010708C41A0024A2010708DC19002408
:10464000C8080708F8B5274F144605460E463A78BD
:10465000122A0DD1012844D1234B1A78012A40D0C7
:1046600018702046214B1970BDE8F840FFF770BE66
:10467000FBF7FAFF70B3FCF7DDF800231C4A1D4975
:1046800013701D4A1D48137004F0C6FE1C4B1A8897
:1046900032B11C490A8003211B4A117000221A8082
:1046A0003B78A3F10802012A01D90D2B02D1174B47
:1046B00007221A700C4B214610481D700B4B1E70C0
:1046C00004F0BEFE2046FFF743FE1220BDE8F8408E
:1046D000FDF718BF0E4B1B78002BCCD1FCF7AAF8C6
:1046E000D4E7F8BD861900242C1900246019002491
:1046F000291900241DFB06082A190024A4320024CD
:10470000EC1A00249C1800243619002418000024F8
:10471000231A00242D4A08B511782D4B1B7859B166
:1047200000210C2B117050D02A4B01202A4A1978F5
:10473000BDE80840FFF786BF284A1178092909D942
:10474000122B03D8264ADA40D00703D4254B264A39
:104750001878EDE7254A1278092A0CD9122B03D8CC
:104760001F4ADA40D20708D4214B19780846FFF7D0
:10477000E5FD204ADCE7122B04D8194A22FA03F39C
:10478000DB0722D4FCF742FEF8B905F02BF91A4BEF
:104790001B7833B1194B1B68C31A962B8CBF0023AF
:1047A0000123174A127822B1164A1268801A9628F5
:1047B00003D80720144A0021BAE7002B134B124AF2
:1047C0000EBF072006201A46F5E708BD2B19002466
:1047D0008619002434190024CB0C070891190024F1
:1047E00003100400051B0024FD0C07089019002489
:1047F0001C1B0024230D07088A190024301B0024E9
:10480000F01A0024181B0024A10C0708820C0708CA
:10481000034B1878033802288CBF00200120704712
:10482000401B0024064B1B78DA1E012A03D9092BF2
:1048300003D1FFF7EDBF012070470020704700BF94
:104840007119002410B5FBF7F5FF00241B4B1C4A1F
:104850001C701C4B1C491C7000231C4813601C4A14
:1048600013601C4A14701C4A0A601C490C701C49D5
:104870000A6021461B4A14701B4A14701B4A1360BD
:104880001B4A136001221B4B1A70282222F000FCE5
:10489000194B1A4A1C801A4B1C701A4B1C80072398
:1048A0001370194A1370FCF7B1FD10B10420FDF725
:1048B0007DFD0020BDE81040FDF724BE291900242D
:1048C000A01A00242A190024100000240019002432
:1048D000A41A002492190024E82F07087119002453
:1048E00014000024401B0024281900244C1B002421
:1048F000481B00241C0000249C18002418000024DD
:1049000036190024EC1A00241B00002410B5FFF710
:1049100089FF0446FCF77AFD20B90120BDE810406C
:10492000FDF7F0BD0E4A1378033B022B03D9BDE817
:104930001040FFF787BF00230A4913700A4A11602D
:104940000A4A13700A4B1B78072B03D0BDE81040AE
:10495000FEF766BB002C14BF0B200A20DEE700BF69
:1049600071190024E82F0708140000248919002475
:104970001800002408B5554B1B78122B00F2A480B8
:10498000DFE803F00A183051565B6D7480848C8E1A
:10499000908869787C7C4200FBF74CFF05F022F898
:1049A0004B4B1B68C01A40F6B733984240F28C80DC
:1049B000012013E0FBF73EFFFCF728FD002800F084
:1049C0008380444B1B78002B7ED0FCF743FD0028EE
:1049D0007AD04149414804F01FFD0220BDE808405B
:1049E000FDF790BDFBF726FF04F0FCFF384B1B687A
:1049F000C01A41F28733984266D9394B1B7813BBF2
:104A00000520EBE70720E9E7FBF714FF04F0EAFFD6
:104A10002F4B1B68C01AB0F5FA6F55D331492F4898
:104A200004F0FAFCC4E70120BDE80840FFF7C2BB70
:104A30000120BDE80840FFF73BBCFBF7FBFE284B1D
:104A40001B78002B40D0284B1B78072BDAD0BDE811
:104A50000840FEF7E5BABDE80840FEF75BBB204B17
:104A60001B78002B14BF07200520B7E7BDE80840DE
:104A7000FEF758BDBDE80840FDF7D6BDBDE80840CB
:104A8000FDF718BEBDE80840FDF73EBEBDE8084092
:104A9000FEF7CCB9BDE80840FEF7F0BF0020C8E73C
:104AA0000020C1E7FBF7C6FE0D4B1B7863B10F4B2F
:104AB0001A784AB100220E4908481A7004F0ACFC7A
:104AC000BDE80840FFF722BF08BD00BF86190024DB
:104AD000A4190024B51A002451FC0608A4320024AD
:104AE000FE18002478FC0608180000248919002408
:104AF000AEFC060807B53149314804F08DFC314958
:104B00002F4804F072FCFCF7CFF880B1FCF7E6F810
:104B100007EE900A02232A48B7EEE77A009353EC97
:104B2000172B04F0A1FD2849254804F05EFCFBF793
:104B300053FD0A220146224804F0A9FC23492048DB
:104B400004F06AFC22491E4804F04FFCFCF7ACF864
:104B500080B1FCF7E1F807EE900A02231848B7EE9F
:104B6000E77A009353EC172B04F07EFD16491448A6
:104B700004F03BFCFBF738FD0A220146104804F024
:104B800086FC12490E4804F047FC12490C4804F018
:104B90002CFCFBF731FD0A220146094804F077FCA2
:104BA0000D49074804F021FC0C4B0A2204481968FF
:104BB00003B05DF804EB04F098BC00BF17FC0608D6
:104BC000A43200249105070833FC06083AFC0608C5
:104BD000EEF60608F6F6060841FC0608D41A00248C
:104BE00037B54D494D484E4D04F016FC4D494B48E4
:104BF00004F0FBFB0A222968484804F048FC4A49B3
:104C0000464804F0F2FBFCF74FF8A0B1474943488F
:104C100004F0EBFBFCF79EF807EE900A02233F48F6
:104C2000B7EEE77A009353EC172B04F01DFD4049D3
:104C30003A4804F0DAFB39483E4C04F0E7FB3E49C1
:104C4000364804F0D2FB0A222168344804F01FFCE5
:104C50003549324804F0C9FBFCF726F8A0B13349C6
:104C60002E4804F0C2FBFCF791F807EE900A0223ED
:104C70002A48B7EEE77A009353EC172B04F0F4FCC4
:104C80002B49264804F0B1FB244804F0BFFB2B4914
:104C9000224804F0AAFB2A4B0A222048196804F093
:104CA000F6FB21491D4804F0B7FB26491B4804F0D8
:104CB0009CFB296802250A22184891FBF5F149421C
:104CC00004F0E5FB2049154804F08FFBFCF77AF867
:104CD0000A220146114804F008FC1C490F4804F060
:104CE00084FB21680A220D4891FBF5F1494204F04A
:104CF000CEFB1549094804F078FBFCF76DF80A2251
:104D00000146064804F0F1FB1149044803B0BDE830
:104D1000304004F081BB00BF23F80608A432002411
:104D2000CC1A002442F806083AFC06084BF806089C
:104D300019FB0608D01A00244FF8060858F8060890
:104D4000D41A002461F8060876F806087AF80608EE
:104D50008FF8060810B51D4C1D49204604F05CFB79
:104D60001C49204604F058FB1B49204604F054FB24
:104D70001A49204604F050FB1949204604F04CFB28
:104D80001849204604F048FB1749204604F044FB2C
:104D90001649204604F040FB1549204604F03CFB30
:104DA0001449204604F038FB1349204604F034FB34
:104DB0001249204604F030FB1149204604F02CFB38
:104DC00020461049BDE8104004F026BBA432002460
:104DD000B3F80608D4F806080CF9060833F90608F3
:104DE0005AF9060879F906089BF90608CFF906086A
:104DF00019FA060854FA060888FA0608A8FA0608F6
:104E0000DDFA0608F7FA060808B50C4B1B78072BE5
:104E100001D0002008BDFCF7F9FA0028F9D0084BB2
:104E20001B78002BF5D0FBF73FFF0028F1D0054B96
:104E3000187801288CBF00200120EBE78619002498
:104E400029190024B41A002438B51D4D2C78042CDF
:104E500020D0A4F10A035C425C411A4B1B78DBB101
:104E600000211948FCF7FEF9CCB10023174A184974
:104E70000C201370174A1370174B184A1A601B2224
:104E8000174B1A70FDF79EFC16491748BDE83840CD
:104E900004F0C2BA0124E0E7FBF7CCFCE4E72B788E
:104EA000A3F10802012A01D90D2BEDD10F4B1B787C
:104EB000002B14BF07200520FDF724FBE4E700BF0B
:104EC00086190024231A0024A2F7060829190024B1
:104ED000BFF706082A19002410000024ADF70608C1
:104EE00092190024DEF70608A4320024FE180024DC
:104EF00070B505462DED028B8EB004F0FEFCAB685C
:104F0000002B00F09982294605A804F048FC05A86A
:104F100004F0E7FCAC4905A804F087FC10B1FFF7EA
:104F200019FF86E2A94905A804F07FFC10B1FFF73C
:104F3000E1FD7EE2A64905A804F077FC10B1FFF779
:104F40004FFE76E2A34905A804F06FFC20B1A24908
:104F5000A24804F04AFA11E0A14905A804F065FC52
:104F60000028F4D19F4905A804F05FFC002800F058
:104F700087819D49994804F038FABAE09B4D0A228E
:104F80009648296804F083FA9949944804F02DFA68
:104F9000984C0A2228682168411A904804F077FA50
:104FA00095498E4804F021FA944B02228B481968E7
:104FB00004F08FFA9249894804F017FA914B0A22BB
:104FC0008648196804F085FA8F49844804F00DFA80
:104FD0008E4B10228148197804F09EFA8C497F4844
:104FE00004F003FA8B4B7D48D3ED007A0123B7EE32
:104FF000E77A009353EC172B04F036FB8649774889
:1050000004F0F3F9854B7548D3ED007A0323B7EE2E
:10501000E77A009353EC172B04F026FB80496F4886
:1050200004F0E3F9226803212B687E4C9B1A7E4D25
:105030006A4807EE903A95ED007A94F90030F8EE60
:10504000E77A009127EE877A07EE903AF8EEE77A52
:1050500067EE277AB7EEE77A53EC172B04F004FBE0
:1050600072495E4804F0C1F9D5ED007A09235B4826
:10507000B7EEE77A009353EC172B04F0F5FA6C497E
:10508000564804F0B2F90A2294F90010534804F08B
:1050900020FA6849514804F0A8F9674B4F48D3ED0E
:1050A000007A0223B7EEE77A009353EC172B04F053
:1050B000DBFA6249494804F098F9614B4748D3ED5F
:1050C000007A0223B7EEE77A009353EC172B04F033
:1050D000CBFA5C49414804F088F95B4B5B4A19788C
:1050E0005B4B002914BF114619463C4804F094F963
:1050F0009FE1444B0A223948196804F0EAF95549FE
:10510000364804F072F9544C0A223448216804F0FD
:10511000F6F924681CB9314804F078F989E14F4B5D
:10512000D3E900011FF030F907EE904A07EE100AAC
:105130004B49F8EE677A294887EE278A04F055F93B
:10514000484B2648D3ED007A0223B7EEE77A009366
:1051500053EC172B04F088FA4349204804F045F932
:10516000B7EEC87A02231D48009353EC172B04F0C6
:105170007BFA3E49194804F038F90A224FF40061DD
:10518000164804F0A6F93A49144804F02EF9DFED68
:10519000397A0223114838EE678ADFED377A0093B7
:1051A000B0EEC88A28EE278ADFED347A28EE278A07
:1051B000B7EEC87A53EC172B04F056FA25210748AE
:1051C00004F020F9A7E700BF57FE06085DFE0608B9
:1051D00061FE060867FE060872FE0608A432002477
:1051E0003A07070880FE06080CFF0608401900244D
:1051F0008BFE06083C19002496FE0608241B00249A
:105200009DFE0608E41A0024A6FE0608851900245F
:10521000B0FE060894190024A6050708441B0024C4
:10522000BCFE06081C0000240C000024CDFE06086D
:10523000D9FE0608EBFE06084C1B0024F1FE06080A
:10524000481B002401FF060828190024C41607087B
:105250004DFE060823FF0608B4190024581900243F
:105260008DFB06080C1B00243AFF06084BFF0608BE
:1052700059FF0608000000450000C8420000003A3F
:10528000764905A804F0D1FA002833D0744B1B7876
:105290000D3B012B09D9FBF7E7F930B9714B1B78AE
:1052A0001BB9714801F036F901E070491DE7002390
:1052B0006F4A0021002013606E4A13606E4A13602B
:1052C0006E4A13606E4A13606E4A13706E4A136022
:1052D0006E4A13606E4A13606E4AC2E900010022F2
:1052E0006D490A606D490B606D4B6E491A606E4BDB
:1052F0001A60FAE66D4905A804F097FA10B1FFF7B5
:10530000A3FD96E06A4905A804F08FFA60B1544BFA
:105310001B780C2B01D06749E7E66749674804F022
:105320007BF8FFF7F3FA84E0654905A804F07DFAFD
:1053300058B1FFF769FD08B96249D6E6002201239A
:1053400011461046FBF7E8FE73E0FFF75DFD08B974
:105350005D49CAE6294608A804F021FA0BAC5B496E
:10536000204604F0DBF9214605A804F086FA06463B
:10537000204604F088F966B1AB680522294620462C
:1053800004F084FA214608A804F013FA204604F039
:105390007AF920222C210DEB020004F097FA002369
:1053A00003AA4B49039304930B93002308988DF8A9
:1053B0000B300DF10B03CDE9004304AB22F04AF9A9
:1053C00003281CD19DED037ADFED427AF0EEC76A27
:1053D000F4EE676AF1EE10FA11D8DDED046AB0EE72
:1053E000E66AB4EE676AF1EE10FA08D89DED0B6A32
:1053F000F0EEC65AF4EE675AF1EE10FA04D93649C7
:105400002E4803F0F2FF09E0012316EE102A16EEF3
:10541000901A17EE100AFBF77FFE07E0294627488F
:1054200004F004F82D49254803F0F6FF08A804F01D
:105430002AF905A804F027F90EB0BDEC028B70BD67
:10544000204604F020F908A804F01DF905A804F08E
:105450001AF91EF07FFBF3E7F5E7F7E761FF0608AF
:1054600086190024231A0024D82000246AFF060885
:1054700040190024201B00243C190024E41A0024B5
:10548000281B0024D81A00249C1900244419002445
:10549000B4190024581900240C1B0024341B0024C8
:1054A000441B002499FF060894190024A8F7060855
:1054B000CFFF0608DAFF06080C000708A432002414
:1054C000B31607083D00070871000708A500070884
:1054D000AB000708FFFF7F7FB7000708D70007086A
:1054E00010B50446FBF75BF8204610BD38B5074BF6
:1054F0000546044645F8283B09F0E6FB2846FFF739
:10550000EFFF204609F0ECFC204638BD982507083F
:10551000044BC36003460A6843F8042B0022426030
:105520005A60704784F4060813B50446019121B906
:10553000FBF72FF8204602B010BD01A9FFF7E8FFE6
:10554000F8E70368184708B5FFF7FBFF08BD000040
:1055500038B50B4C0B4D204609F0A6FB20460A4CF3
:105560002A460A490DF024FB0949204604F0D6F8E2
:105570002A4620460749BDE838400DF019BB00BF58
:10558000E019002400000024D0190024ED54040880
:10559000E82F07088796040830B5202289B04021FB
:1055A0004A4801F0C5FC2028044609D0474C204653
:1055B00001F039FD002875D0204601F03EFDF6E7E8
:1055C000424801F030FD1F28F0DD22463F4D002407
:1055D0000021684621F05CFD284601F02EFD0DF803
:1055E00004000134202CF7D1384D284601F01BFD72
:1055F000044618B1284601F020FDF6E79DF800307A
:10560000E32B07D19DF80130072B03D19DF8023021
:10561000202B12D02E4A1368013313602D4A1368D1
:105620000133136003222C4B1A702C4A1378FF2B82
:105630001BD10024204609B030BD9DF81F501F210A
:105640006846FAF7B1FF854212D16846FCF7D0F9F7
:105650000446F8B91E4A136801331360204A1368E0
:105660000133136005221C4B0CE001331370E0E79B
:10567000174A1368013313601A4A13680133136021
:105680000422154B1A70154A1378FF2BD1D0013321
:105690001370CFE76846FCF7FDFC134A136801332B
:1056A0001360C7E70A4A04461368013313600F4AC0
:1056B0001368013313600222074B1A70074A1378EC
:1056C000FF2B1CBF01331370B4E700BFF425002487
:1056D000BC19002478190024051B0024911900240A
:1056E0008019002474190024C01900247C19002496
:1056F00010B504464021134801F010FC2022214639
:10570000104803F049FE044601210E4801F078FCE0
:10571000202C0D490D4A08D138B90D4C087023686A
:10572000107001200133236010BD0A4C0870002066
:105730002368013323601378FF2B1CBF01331370E0
:10574000F2E700BFF42500241C1B0024901900245C
:10575000681900246419002430B589B02022002182
:1057600068466C4621F094FC6846FCF7FDF908ADEC
:10577000074A2346083203CBAB4242F8080C42F8F2
:10578000041C1C46F5D16846FFF7B2FF09B030BDD6
:105790007F1A0024214B70B51C78002C3BD0204E82
:1057A0003368C01A002836DB1E4D012C1E492A78AA
:1057B00002F101022A700A6802F101020A600AD1AC
:1057C000FFF7EAFE70B92B78012B13D804F00AF921
:1057D000093030600CE01548FFF78AFF0028F2D04E
:1057E000134A00E0134A136801331360FCF7B4FA5C
:1057F000012070BD104A136801331360FCF7ACFA46
:10580000012C04D104F0EEF80C4B1860F0E704F022
:10581000E9F80B4BF9E70020EBE700BF041B00247D
:10582000BC1A0024281A0024E01A00247F1A00243D
:105830006C190024C4190024C41A0024FC1A002482
:10584000F81A0024204B1B7810B5002B3AD0FBF738
:10585000DDFD002836D11D4B1A78122A32D81C4B98
:10586000D340DB072ED5FAF7FFFE58BB194B1C7847
:1058700044BB04F0B7F8184A1368C31AB3F57A7F2B
:1058800020D31060154801F0FAFB144801F07AFBB0
:105890004CF25031114801F0A4FBFCF75DFA104BBB
:1058A00010491C70104B11481C70114C23680133B7
:1058B000236003F09AFD21680A220C48BDE81040DD
:1058C00003F036BE10BD00BF38190024861900242D
:1058D00007100400231A0024381B0024F425002498
:1058E000911900249C0E070890190024A43200246A
:1058F000DC1A00247FB51B4D1B4C1C4E284602F0C1
:10590000FBF868B3284602F069F9A368C1B20A2916
:1059100001D00D2910D1002BF0D0214601A803F0B1
:105920003EFF01A8FFF7E4FA01A803F0ACFE314600
:10593000204603F044FFE1E74F2B03D8204603F055
:1059400069FFDBE73146204603F039FF0849284666
:1059500003F062FDD2E701A803F095FE1EF0FAF80D
:1059600004B070BDA4320024D0190024E82F070829
:10597000A4F506082DE9F04F2DED028B85B004F05B
:1059800031F8B44A13682BB1B349C31A0C689C426E
:1059900038BF0B60B14D1060FBF7A6FDFFF7AAFF03
:1059A000FAF78AFEFBF7BAF804F01CF82B780446E5
:1059B00083B9AB4B40F6B7321B68C31A934209D97F
:1059C0000123A8492B70A84B1860A84B1860A84861
:1059D00003F022FD2B789BB12046FFF7DBFE78B960
:1059E000A44B1B7863B9A14A1368E31A2E2B40F22B
:1059F000D8811460FFF7B0FE10B90220FCF7BAF9A5
:105A0000FAF7A2FE38B99C4B1B780C2B03D09B49AC
:105A10000620FCF7D7FEFCF74FFFFEF77BFEFEF7F4
:105A2000A9FFFCF7A7FCFBF7F3F8FFF70BFF002338
:105A3000934A1370934A1370934A1370934A1368EE
:105A4000E31AB3F57A7FC0F0BD81DFF8D092904EB3
:105A5000D9F8008033681460A8EB03038D498E4C9D
:105A600007EE103AD1F800C02368DFF8B4B2ACEB0F
:105A700003038A4DDBF8002007EE903A17EE103A48
:105A8000DFF8A0A29B1A17EE902ADAF800700293B2
:105A90002B688348D31A029AD0F800E0D2197344D5
:105AA0001BBFB8EE477ADFED7F6ADFED7F8A27EE16
:105AB000267A1CBF06EE902AF8EE666ACDE902014E
:105AC00018BFC7EE268A002B00F079819FED757A0A
:105AD000F8EE677A67EE877A07EE103AB8EE477A03
